{
  "transactions": [
    {
      "hash": "0x01d76a4cb579e0d21c45c169fc12c9aab0746b0ce6f536e70466104297364a20",
      "transactionType": "CREATE",
      "contractName": "Nft",
      "contractAddress": "0xabff4a7204fbe88a834a2a1592f2d5cc6908847c",
      "function": null,
      "arguments": [
        "0x204E8DEf7E6c467cEbCeBbC5c89ad86Bf3003FE3"
      ],
      "transaction": {
        "from": "0x204e8def7e6c467cebcebbc5c89ad86bf3003fe3",
        "gas": "0x20a41d",
        "value": "0x0",
        "input": "0x608060405234801561000f575f5ffd5b50604051611da6380380611da683398101604081905261002e9161013b565b80604051806040016040528060078152602001662837b5b2b6b7b760c91b81525060405180604001604052806004815260200163504f4b4560e01b815250815f908161007a9190610200565b5060016100878282610200565b5050506001600160a01b0381166100b757604051631e4fbdf760e01b81525f600482015260240160405180910390fd5b6100c0816100ea565b50600980546001600160a01b0319166001600160a01b03929092169190911790555f6008556102ba565b600780546001600160a01b038381166001600160a01b0319831681179093556040519116919082907f8be0079c531659141344cd1fd0a4f28419497f9722a3daafe3b4186f6b6457e0905f90a35050565b5f6020828403121561014b575f5ffd5b81516001600160a01b0381168114610161575f5ffd5b9392505050565b634e487b7160e01b5f52604160045260245ffd5b600181811c9082168061019057607f821691505b6020821081036101ae57634e487b7160e01b5f52602260045260245ffd5b50919050565b601f8211156101fb57805f5260205f20601f840160051c810160208510156101d95750805b601f840160051c820191505b818110156101f8575f81556001016101e5565b50505b505050565b81516001600160401b0381111561021957610219610168565b61022d81610227845461017c565b846101b4565b6020601f82116001811461025f575f83156102485750848201515b5f19600385901b1c1916600184901b1784556101f8565b5f84815260208120601f198516915b8281101561028e578785015182556020948501946001909201910161026e565b50848210156102ab57868401515f19600387901b60f8161c191681555b50505050600190811b01905550565b611adf806102c75f395ff3fe60806040526004361061017b575f3560e01c8063661f20c1116100cd578063a22cb46511610087578063c2507ac111610062578063c2507ac11461045b578063c87b56dd14610486578063e985e9c5146104a5578063f2fde38b146104c4575f5ffd5b8063a22cb465146103fe578063b88d4fde1461041d578063ba7aef431461043c575f5ffd5b8063661f20c11461036857806369e9cae11461038757806370a082311461039a578063715018a6146103b95780638da5cb5b146103cd57806395d89b41146103ea575f5ffd5b80631caaa487116101385780633bb3a24d116101135780633bb3a24d146102e057806342842e0e146102ff57806345ab331e1461031e5780636352211e14610349575f5ffd5b80631caaa4871461026e57806323b872dd146102a257806329ba7bb2146102c1575f5ffd5b80630179cc521461017f57806301ffc9a7146101a057806306fdde03146101d4578063081812fc146101f5578063095ea7b31461022c57806317d70f7c1461024b575b5f5ffd5b34801561018a575f5ffd5b5061019e61019936600461155a565b6104e3565b005b3480156101ab575f5ffd5b506101bf6101ba36600461158f565b610571565b60405190151581526020015b60405180910390f35b3480156101df575f5ffd5b506101e861059b565b6040516101cb91906115d8565b348015610200575f5ffd5b5061021461020f3660046115ea565b61062a565b6040516001600160a01b0390911681526020016101cb565b348015610237575f5ffd5b5061019e61024636600461161c565b610651565b348015610256575f5ffd5b5061026060085481565b6040519081526020016101cb565b348015610279575f5ffd5b506102146102883660046115ea565b600b6020525f90815260409020546001600160a01b031681565b3480156102ad575f5ffd5b5061019e6102bc366004611644565b610660565b3480156102cc575f5ffd5b50600954610214906001600160a01b031681565b3480156102eb575f5ffd5b506101e86102fa3660046115ea565b6106e9565b34801561030a575f5ffd5b5061019e610319366004611644565b6106f4565b348015610329575f5ffd5b506102606103383660046115ea565b600a6020525f908152604090205481565b348015610354575f5ffd5b506102146103633660046115ea565b610713565b348015610373575f5ffd5b5061019e6103823660046115ea565b61071d565b61019e610395366004611644565b6107ee565b3480156103a5575f5ffd5b506102606103b436600461167e565b6109e1565b3480156103c4575f5ffd5b5061019e610a26565b3480156103d8575f5ffd5b506007546001600160a01b0316610214565b3480156103f5575f5ffd5b506101e8610a39565b348015610409575f5ffd5b5061019e610418366004611697565b610a48565b348015610428575f5ffd5b5061019e61043736600461175b565b610a53565b348015610447575f5ffd5b506102606104563660046117d2565b610a6b565b348015610466575f5ffd5b506102606104753660046115ea565b5f908152600a602052604090205490565b348015610491575f5ffd5b506101e86104a03660046115ea565b610b1d565b3480156104b0575f5ffd5b506101bf6104bf366004611839565b610c28565b3480156104cf575f5ffd5b5061019e6104de36600461167e565b610c55565b5f828152600b60205260409020546001600160a01b031633146105215760405162461bcd60e51b81526004016105189061186a565b60405180910390fd5b5f828152600a6020526040908190208290555182907f515031d3619f8c375f04c238d50a5131384dbf0ed7dfeca372caab76f0396d2f906105659084815260200190565b60405180910390a25050565b5f6001600160e01b03198216632483248360e11b1480610595575061059582610c92565b92915050565b60605f80546105a9906118ab565b80601f01602080910402602001604051908101604052809291908181526020018280546105d5906118ab565b80156106205780601f106105f757610100808354040283529160200191610620565b820191905f5260205f20905b81548152906001019060200180831161060357829003601f168201915b5050505050905090565b5f61063482610ce1565b505f828152600460205260409020546001600160a01b0316610595565b61065c828233610d19565b5050565b6001600160a01b03821661068957604051633250574960e11b81525f6004820152602401610518565b5f610695838333610d26565b9050836001600160a01b0316816001600160a01b0316146106e3576040516364283d7b60e01b81526001600160a01b0380861660048301526024820184905282166044820152606401610518565b50505050565b606061059582610b1d565b61070e83838360405180602001604052805f815250610a53565b505050565b5f61059582610ce1565b61072681610713565b6001600160a01b0316336001600160a01b0316146107565760405162461bcd60e51b81526004016105189061186a565b6107603082610651565b6107698161062a565b6001600160a01b0316306001600160a01b0316146107bf5760405162461bcd60e51b8152602060048201526013602482015272139195081a5cc81b9bdd08185c1c1c9bdd9959606a1b6044820152606401610518565b604051339082907fdeee21db6a55c8eecf477d3301bcad831b184340f28656006a166316933b23e1905f90a350565b6107f6610e18565b6107ff8161062a565b6001600160a01b0316306001600160a01b0316146108555760405162461bcd60e51b8152602060048201526013602482015272139195081a5cc81b9bdd08185c1c1c9bdd9959606a1b6044820152606401610518565b61085e81610713565b6001600160a01b0316836001600160a01b03161461088e5760405162461bcd60e51b81526004016105189061186a565b5f818152600a6020526040902054348111156108ec5760405162461bcd60e51b815260206004820181905260248201527f496e73756666696369656e74207061796d656e7420666f7220746865204e46546044820152606401610518565b6040516001600160a01b0385169082156108fc029083905f818181858888f1935050505015801561091f573d5f5f3e3d5ffd5b5061092b848484610e45565b61093482610713565b6001600160a01b0316836001600160a01b03161461098d5760405162461bcd60e51b8152602060048201526016602482015275139195081a5cc81b9bdd081d1c985b9cd9995c9c995960521b6044820152606401610518565b826001600160a01b0316846001600160a01b0316837f025c83e9775379768f9dc01cbc3a9f56659d307985af611dfacbc79e1f819b22846040516109d391815260200190565b60405180910390a450505050565b5f6001600160a01b038216610a0b576040516322718ad960e21b81525f6004820152602401610518565b506001600160a01b03165f9081526003602052604090205490565b610a2e610e18565b610a375f610ef2565b565b6060600180546105a9906118ab565b61065c338383610f43565b610a5e848484610660565b6106e33385858585610fe1565b5f610a74610e18565b60088054905f610a83836118e3565b90915550506008545f818152600a60205260409020839055610aa58582611109565b610aaf818561116a565b5f818152600b60205260409081902080546001600160a01b0319166001600160a01b038816908117909155905182907f684f6795945805272d5839a7063f5e0a3b6dd64bdb3976749763ec2fea16177890610b0d9088908890611907565b60405180910390a3949350505050565b6060610b2882610ce1565b505f8281526006602052604081208054610b41906118ab565b80601f0160208091040260200160405190810160405280929190818152602001828054610b6d906118ab565b8015610bb85780601f10610b8f57610100808354040283529160200191610bb8565b820191905f5260205f20905b815481529060010190602001808311610b9b57829003601f168201915b505050505090505f610bd460408051602081019091525f815290565b905080515f03610be5575092915050565b815115610c17578082604051602001610bff92919061193f565b60405160208183030381529060405292505050919050565b610c20846111b9565b949350505050565b6001600160a01b039182165f90815260056020908152604080832093909416825291909152205460ff1690565b610c5d610e18565b6001600160a01b038116610c8657604051631e4fbdf760e01b81525f6004820152602401610518565b610c8f81610ef2565b50565b5f6001600160e01b031982166380ac58cd60e01b1480610cc257506001600160e01b03198216635b5e139f60e01b145b8061059557506301ffc9a760e01b6001600160e01b0319831614610595565b5f818152600260205260408120546001600160a01b03168061059557604051637e27328960e01b815260048101849052602401610518565b61070e838383600161122a565b5f828152600260205260408120546001600160a01b0390811690831615610d5257610d5281848661132e565b6001600160a01b03811615610d8c57610d6d5f855f5f61122a565b6001600160a01b0381165f90815260036020526040902080545f190190555b6001600160a01b03851615610dba576001600160a01b0385165f908152600360205260409020805460010190555b5f8481526002602052604080822080546001600160a01b0319166001600160a01b0389811691821790925591518793918516917fddf252ad1be2c89b69c2b068fc378daa952ba7f163c4a11628f55a4df523b3ef91a4949350505050565b6007546001600160a01b03163314610a375760405163118cdaa760e01b8152336004820152602401610518565b6001600160a01b038216610e6e57604051633250574960e11b81525f6004820152602401610518565b5f610e7a83835f610d26565b90506001600160a01b038116610ea657604051637e27328960e01b815260048101839052602401610518565b836001600160a01b0316816001600160a01b0316146106e3576040516364283d7b60e01b81526001600160a01b0380861660048301526024820184905282166044820152606401610518565b600780546001600160a01b038381166001600160a01b0319831681179093556040519116919082907f8be0079c531659141344cd1fd0a4f28419497f9722a3daafe3b4186f6b6457e0905f90a35050565b6001600160a01b038216610f7557604051630b61174360e31b81526001600160a01b0383166004820152602401610518565b6001600160a01b038381165f81815260056020908152604080832094871680845294825291829020805460ff191686151590811790915591519182527f17307eab39ab6107e8899845ad3d59bd9653f200f220920489ca2b5937696c31910160405180910390a3505050565b6001600160a01b0383163b1561110257604051630a85bd0160e11b81526001600160a01b0384169063150b7a0290611023908890889087908790600401611953565b6020604051808303815f875af192505050801561105d575060408051601f3d908101601f1916820190925261105a9181019061198f565b60015b6110c4573d80801561108a576040519150601f19603f3d011682016040523d82523d5f602084013e61108f565b606091505b5080515f036110bc57604051633250574960e11b81526001600160a01b0385166004820152602401610518565b805181602001fd5b6001600160e01b03198116630a85bd0160e11b1461110057604051633250574960e11b81526001600160a01b0385166004820152602401610518565b505b5050505050565b6001600160a01b03821661113257604051633250574960e11b81525f6004820152602401610518565b5f61113e83835f610d26565b90506001600160a01b0381161561070e576040516339e3563760e11b81525f6004820152602401610518565b5f82815260066020526040902061118182826119ee565b506040518281527ff8e1a15aba9398e019f0b49df1a4fde98ee17ae345cb5f6b5e2c27f5033e8ce79060200160405180910390a15050565b60606111c482610ce1565b505f6111da60408051602081019091525f815290565b90505f8151116111f85760405180602001604052805f815250611223565b8061120284611392565b60405160200161121392919061193f565b6040516020818303038152906040525b9392505050565b808061123e57506001600160a01b03821615155b156112ff575f61124d84610ce1565b90506001600160a01b038316158015906112795750826001600160a01b0316816001600160a01b031614155b801561128c575061128a8184610c28565b155b156112b55760405163a9fbf51f60e01b81526001600160a01b0384166004820152602401610518565b81156112fd5783856001600160a01b0316826001600160a01b03167f8c5be1e5ebec7d5bd14f71427d1e84f3dd0314c0f7b2291e5b200ac8c7c3b92560405160405180910390a45b505b50505f90815260046020526040902080546001600160a01b0319166001600160a01b0392909216919091179055565b611339838383611422565b61070e576001600160a01b03831661136757604051637e27328960e01b815260048101829052602401610518565b60405163177e802f60e01b81526001600160a01b038316600482015260248101829052604401610518565b60605f61139e83611483565b60010190505f8167ffffffffffffffff8111156113bd576113bd6116d0565b6040519080825280601f01601f1916602001820160405280156113e7576020820181803683370190505b5090508181016020015b5f19016f181899199a1a9b1b9c1cb0b131b232b360811b600a86061a8153600a85049450846113f157509392505050565b5f6001600160a01b03831615801590610c205750826001600160a01b0316846001600160a01b0316148061145b575061145b8484610c28565b80610c205750505f908152600460205260409020546001600160a01b03908116911614919050565b5f8072184f03e93ff9f4daa797ed6e38ed64bf6a1f0160401b83106114c15772184f03e93ff9f4daa797ed6e38ed64bf6a1f0160401b830492506040015b6d04ee2d6d415b85acef810000000083106114ed576d04ee2d6d415b85acef8100000000830492506020015b662386f26fc10000831061150b57662386f26fc10000830492506010015b6305f5e1008310611523576305f5e100830492506008015b612710831061153757612710830492506004015b60648310611549576064830492506002015b600a83106105955760010192915050565b5f5f6040838503121561156b575f5ffd5b50508035926020909101359150565b6001600160e01b031981168114610c8f575f5ffd5b5f6020828403121561159f575f5ffd5b81356112238161157a565b5f81518084528060208401602086015e5f602082860101526020601f19601f83011685010191505092915050565b602081525f61122360208301846115aa565b5f602082840312156115fa575f5ffd5b5035919050565b80356001600160a01b0381168114611617575f5ffd5b919050565b5f5f6040838503121561162d575f5ffd5b61163683611601565b946020939093013593505050565b5f5f5f60608486031215611656575f5ffd5b61165f84611601565b925061166d60208501611601565b929592945050506040919091013590565b5f6020828403121561168e575f5ffd5b61122382611601565b5f5f604083850312156116a8575f5ffd5b6116b183611601565b9150602083013580151581146116c5575f5ffd5b809150509250929050565b634e487b7160e01b5f52604160045260245ffd5b5f5f67ffffffffffffffff8411156116fe576116fe6116d0565b50604051601f19601f85018116603f0116810181811067ffffffffffffffff8211171561172d5761172d6116d0565b604052838152905080828401851015611744575f5ffd5b838360208301375f60208583010152509392505050565b5f5f5f5f6080858703121561176e575f5ffd5b61177785611601565b935061178560208601611601565b925060408501359150606085013567ffffffffffffffff8111156117a7575f5ffd5b8501601f810187136117b7575f5ffd5b6117c6878235602084016116e4565b91505092959194509250565b5f5f5f606084860312156117e4575f5ffd5b6117ed84611601565b9250602084013567ffffffffffffffff811115611808575f5ffd5b8401601f81018613611818575f5ffd5b611827868235602084016116e4565b93969395505050506040919091013590565b5f5f6040838503121561184a575f5ffd5b61185383611601565b915061186160208401611601565b90509250929050565b60208082526021908201527f596f7520617265206e6f7420746865206f776e6572206f662074686973204e466040820152601560fa1b606082015260800190565b600181811c908216806118bf57607f821691505b6020821081036118dd57634e487b7160e01b5f52602260045260245ffd5b50919050565b5f6001820161190057634e487b7160e01b5f52601160045260245ffd5b5060010190565b604081525f61191960408301856115aa565b90508260208301529392505050565b5f81518060208401855e5f93019283525090919050565b5f610c2061194d8386611928565b84611928565b6001600160a01b03858116825284166020820152604081018390526080606082018190525f90611985908301846115aa565b9695505050505050565b5f6020828403121561199f575f5ffd5b81516112238161157a565b601f82111561070e57805f5260205f20601f840160051c810160208510156119cf5750805b601f840160051c820191505b81811015611102575f81556001016119db565b815167ffffffffffffffff811115611a0857611a086116d0565b611a1c81611a1684546118ab565b846119aa565b6020601f821160018114611a4e575f8315611a375750848201515b5f19600385901b1c1916600184901b178455611102565b5f84815260208120601f198516915b82811015611a7d5787850151825560209485019460019092019101611a5d565b5084821015611a9a57868401515f19600387901b60f8161c191681555b50505050600190811b0190555056fea26469706673582212207c2e6b2c9fb68a13c7f1429d16787fc6cd37d93395dc7f74a19a0bca2edf835664736f6c634300081c0033000000000000000000000000204e8def7e6c467cebcebbc5c89ad86bf3003fe3",
        "nonce": "0x16",
        "chainId": "0xaa36a7"
      },
      "additionalContracts": [],
      "isFixedGasLimit": false
    },
    {
      "hash": "0x22d2e7fb1753f6f80a1611e8a3c4562735318faaedfc7307ec37c8cfbd1fc655",
      "transactionType": "CALL",
      "contractName": "Nft",
      "contractAddress": "0xabff4a7204fbe88a834a2a1592f2d5cc6908847c",
      "function": "mint(address,string,uint256)",
      "arguments": [
        "0x204E8DEf7E6c467cEbCeBbC5c89ad86Bf3003FE3",
        "https://silver-tricky-trout-945.mypinata.cloud/ipfs/bafybeide72hl3dkhv2e5ibzrigb7ciqri4klzq2jp3gizcaecc3zheyxuy/Charmander.json",
        "10000000000000"
      ],
      "transaction": {
        "from": "0x204e8def7e6c467cebcebbc5c89ad86bf3003fe3",
        "to": "0xabff4a7204fbe88a834a2a1592f2d5cc6908847c",
        "gas": "0x56778",
        "value": "0x0",
        "input": "0xba7aef43000000000000000000000000204e8def7e6c467cebcebbc5c89ad86bf3003fe30000000000000000000000000000000000000000000000000000000000000060000000000000000000000000000000000000000000000000000009184e72a000000000000000000000000000000000000000000000000000000000000000007f68747470733a2f2f73696c7665722d747269636b792d74726f75742d3934352e6d7970696e6174612e636c6f75642f697066732f6261667962656964653732686c33646b687632653569627a72696762376369717269346b6c7a71326a703367697a6361656363337a6865797875792f436861726d616e6465722e6a736f6e00",
        "nonce": "0x17",
        "chainId": "0xaa36a7"
      },
      "additionalContracts": [],
      "isFixedGasLimit": false
    },
    {
      "hash": "0x1c33d730e0e9688d4b75580b6d3e70a53c71dadfc3a877a97d220c5480c4ddfa",
      "transactionType": "CALL",
      "contractName": "Nft",
      "contractAddress": "0xabff4a7204fbe88a834a2a1592f2d5cc6908847c",
      "function": "approvalNFT(uint256)",
      "arguments": [
        "1"
      ],
      "transaction": {
        "from": "0x204e8def7e6c467cebcebbc5c89ad86bf3003fe3",
        "to": "0xabff4a7204fbe88a834a2a1592f2d5cc6908847c",
        "gas": "0x110e2",
        "value": "0x0",
        "input": "0x661f20c10000000000000000000000000000000000000000000000000000000000000001",
        "nonce": "0x18",
        "chainId": "0xaa36a7"
      },
      "additionalContracts": [],
      "isFixedGasLimit": false
    },
    {
      "hash": "0xa20603e765791198a63f04fc611f165ec0d14628768005e795595195b3dfe9c8",
      "transactionType": "CALL",
      "contractName": "Nft",
      "contractAddress": "0xabff4a7204fbe88a834a2a1592f2d5cc6908847c",
      "function": "mint(address,string,uint256)",
      "arguments": [
        "0x204E8DEf7E6c467cEbCeBbC5c89ad86Bf3003FE3",
        "https://silver-tricky-trout-945.mypinata.cloud/ipfs/bafybeide72hl3dkhv2e5ibzrigb7ciqri4klzq2jp3gizcaecc3zheyxuy/Charmeleon.json",
        "10000000000000"
      ],
      "transaction": {
        "from": "0x204e8def7e6c467cebcebbc5c89ad86bf3003fe3",
        "to": "0xabff4a7204fbe88a834a2a1592f2d5cc6908847c",
        "gas": "0x4aef2",
        "value": "0x0",
        "input": "0xba7aef43000000000000000000000000204e8def7e6c467cebcebbc5c89ad86bf3003fe30000000000000000000000000000000000000000000000000000000000000060000000000000000000000000000000000000000000000000000009184e72a000000000000000000000000000000000000000000000000000000000000000007f68747470733a2f2f73696c7665722d747269636b792d74726f75742d3934352e6d7970696e6174612e636c6f75642f697066732f6261667962656964653732686c33646b687632653569627a72696762376369717269346b6c7a71326a703367697a6361656363337a6865797875792f436861726d656c656f6e2e6a736f6e00",
        "nonce": "0x19",
        "chainId": "0xaa36a7"
      },
      "additionalContracts": [],
      "isFixedGasLimit": false
    },
    {
      "hash": null,
      "transactionType": "CALL",
      "contractName": "Nft",
      "contractAddress": "0xabff4a7204fbe88a834a2a1592f2d5cc6908847c",
      "function": "approvalNFT(uint256)",
      "arguments": [
        "2"
      ],
      "transaction": {
        "from": "0x204e8def7e6c467cebcebbc5c89ad86bf3003fe3",
        "to": "0xabff4a7204fbe88a834a2a1592f2d5cc6908847c",
        "gas": "0x110e2",
        "value": "0x0",
        "input": "0x661f20c10000000000000000000000000000000000000000000000000000000000000002",
        "nonce": "0x1a",
        "chainId": "0xaa36a7"
      },
      "additionalContracts": [],
      "isFixedGasLimit": false
    },
    {
      "hash": null,
      "transactionType": "CALL",
      "contractName": "Nft",
      "contractAddress": "0xabff4a7204fbe88a834a2a1592f2d5cc6908847c",
      "function": "mint(address,string,uint256)",
      "arguments": [
        "0x204E8DEf7E6c467cEbCeBbC5c89ad86Bf3003FE3",
        "https://silver-tricky-trout-945.mypinata.cloud/ipfs/bafybeide72hl3dkhv2e5ibzrigb7ciqri4klzq2jp3gizcaecc3zheyxuy/Charmeleon2.json",
        "10000000000000"
      ],
      "transaction": {
        "from": "0x204e8def7e6c467cebcebbc5c89ad86bf3003fe3",
        "to": "0xabff4a7204fbe88a834a2a1592f2d5cc6908847c",
        "gas": "0x4af36",
        "value": "0x0",
        "input": "0xba7aef43000000000000000000000000204e8def7e6c467cebcebbc5c89ad86bf3003fe30000000000000000000000000000000000000000000000000000000000000060000000000000000000000000000000000000000000000000000009184e72a000000000000000000000000000000000000000000000000000000000000000008068747470733a2f2f73696c7665722d747269636b792d74726f75742d3934352e6d7970696e6174612e636c6f75642f697066732f6261667962656964653732686c33646b687632653569627a72696762376369717269346b6c7a71326a703367697a6361656363337a6865797875792f436861726d656c656f6e322e6a736f6e",
        "nonce": "0x1b",
        "chainId": "0xaa36a7"
      },
      "additionalContracts": [],
      "isFixedGasLimit": false
    },
    {
      "hash": null,
      "transactionType": "CALL",
      "contractName": "Nft",
      "contractAddress": "0xabff4a7204fbe88a834a2a1592f2d5cc6908847c",
      "function": "approvalNFT(uint256)",
      "arguments": [
        "3"
      ],
      "transaction": {
        "from": "0x204e8def7e6c467cebcebbc5c89ad86bf3003fe3",
        "to": "0xabff4a7204fbe88a834a2a1592f2d5cc6908847c",
        "gas": "0x110e2",
        "value": "0x0",
        "input": "0x661f20c10000000000000000000000000000000000000000000000000000000000000003",
        "nonce": "0x1c",
        "chainId": "0xaa36a7"
      },
      "additionalContracts": [],
      "isFixedGasLimit": false
    },
    {
      "hash": null,
      "transactionType": "CALL",
      "contractName": "Nft",
      "contractAddress": "0xabff4a7204fbe88a834a2a1592f2d5cc6908847c",
      "function": "mint(address,string,uint256)",
      "arguments": [
        "0x204E8DEf7E6c467cEbCeBbC5c89ad86Bf3003FE3",
        "https://silver-tricky-trout-945.mypinata.cloud/ipfs/bafybeide72hl3dkhv2e5ibzrigb7ciqri4klzq2jp3gizcaecc3zheyxuy/Desclops.json",
        "10000000000000"
      ],
      "transaction": {
        "from": "0x204e8def7e6c467cebcebbc5c89ad86bf3003fe3",
        "to": "0xabff4a7204fbe88a834a2a1592f2d5cc6908847c",
        "gas": "0x4aed0",
        "value": "0x0",
        "input": "0xba7aef43000000000000000000000000204e8def7e6c467cebcebbc5c89ad86bf3003fe30000000000000000000000000000000000000000000000000000000000000060000000000000000000000000000000000000000000000000000009184e72a000000000000000000000000000000000000000000000000000000000000000007d68747470733a2f2f73696c7665722d747269636b792d74726f75742d3934352e6d7970696e6174612e636c6f75642f697066732f6261667962656964653732686c33646b687632653569627a72696762376369717269346b6c7a71326a703367697a6361656363337a6865797875792f446573636c6f70732e6a736f6e000000",
        "nonce": "0x1d",
        "chainId": "0xaa36a7"
      },
      "additionalContracts": [],
      "isFixedGasLimit": false
    },
    {
      "hash": null,
      "transactionType": "CALL",
      "contractName": "Nft",
      "contractAddress": "0xabff4a7204fbe88a834a2a1592f2d5cc6908847c",
      "function": "approvalNFT(uint256)",
      "arguments": [
        "4"
      ],
      "transaction": {
        "from": "0x204e8def7e6c467cebcebbc5c89ad86bf3003fe3",
        "to": "0xabff4a7204fbe88a834a2a1592f2d5cc6908847c",
        "gas": "0x110e2",
        "value": "0x0",
        "input": "0x661f20c10000000000000000000000000000000000000000000000000000000000000004",
        "nonce": "0x1e",
        "chainId": "0xaa36a7"
      },
      "additionalContracts": [],
      "isFixedGasLimit": false
    },
    {
      "hash": null,
      "transactionType": "CALL",
      "contractName": "Nft",
      "contractAddress": "0xabff4a7204fbe88a834a2a1592f2d5cc6908847c",
      "function": "mint(address,string,uint256)",
      "arguments": [
        "0x204E8DEf7E6c467cEbCeBbC5c89ad86Bf3003FE3",
        "https://silver-tricky-trout-945.mypinata.cloud/ipfs/bafybeide72hl3dkhv2e5ibzrigb7ciqri4klzq2jp3gizcaecc3zheyxuy/Dusknoir.json",
        "10000000000000"
      ],
      "transaction": {
        "from": "0x204e8def7e6c467cebcebbc5c89ad86bf3003fe3",
        "to": "0xabff4a7204fbe88a834a2a1592f2d5cc6908847c",
        "gas": "0x4aed0",
        "value": "0x0",
        "input": "0xba7aef43000000000000000000000000204e8def7e6c467cebcebbc5c89ad86bf3003fe30000000000000000000000000000000000000000000000000000000000000060000000000000000000000000000000000000000000000000000009184e72a000000000000000000000000000000000000000000000000000000000000000007d68747470733a2f2f73696c7665722d747269636b792d74726f75742d3934352e6d7970696e6174612e636c6f75642f697066732f6261667962656964653732686c33646b687632653569627a72696762376369717269346b6c7a71326a703367697a6361656363337a6865797875792f4475736b6e6f69722e6a736f6e000000",
        "nonce": "0x1f",
        "chainId": "0xaa36a7"
      },
      "additionalContracts": [],
      "isFixedGasLimit": false
    },
    {
      "hash": null,
      "transactionType": "CALL",
      "contractName": "Nft",
      "contractAddress": "0xabff4a7204fbe88a834a2a1592f2d5cc6908847c",
      "function": "approvalNFT(uint256)",
      "arguments": [
        "5"
      ],
      "transaction": {
        "from": "0x204e8def7e6c467cebcebbc5c89ad86bf3003fe3",
        "to": "0xabff4a7204fbe88a834a2a1592f2d5cc6908847c",
        "gas": "0x110e2",
        "value": "0x0",
        "input": "0x661f20c10000000000000000000000000000000000000000000000000000000000000005",
        "nonce": "0x20",
        "chainId": "0xaa36a7"
      },
      "additionalContracts": [],
      "isFixedGasLimit": false
    },
    {
      "hash": null,
      "transactionType": "CALL",
      "contractName": "Nft",
      "contractAddress": "0xabff4a7204fbe88a834a2a1592f2d5cc6908847c",
      "function": "mint(address,string,uint256)",
      "arguments": [
        "0x204E8DEf7E6c467cEbCeBbC5c89ad86Bf3003FE3",
        "https://silver-tricky-trout-945.mypinata.cloud/ipfs/bafybeide72hl3dkhv2e5ibzrigb7ciqri4klzq2jp3gizcaecc3zheyxuy/Fezandipiti.json",
        "10000000000000"
      ],
      "transaction": {
        "from": "0x204e8def7e6c467cebcebbc5c89ad86bf3003fe3",
        "to": "0xabff4a7204fbe88a834a2a1592f2d5cc6908847c",
        "gas": "0x4af36",
        "value": "0x0",
        "input": "0xba7aef43000000000000000000000000204e8def7e6c467cebcebbc5c89ad86bf3003fe30000000000000000000000000000000000000000000000000000000000000060000000000000000000000000000000000000000000000000000009184e72a000000000000000000000000000000000000000000000000000000000000000008068747470733a2f2f73696c7665722d747269636b792d74726f75742d3934352e6d7970696e6174612e636c6f75642f697066732f6261667962656964653732686c33646b687632653569627a72696762376369717269346b6c7a71326a703367697a6361656363337a6865797875792f46657a616e6469706974692e6a736f6e",
        "nonce": "0x21",
        "chainId": "0xaa36a7"
      },
      "additionalContracts": [],
      "isFixedGasLimit": false
    },
    {
      "hash": null,
      "transactionType": "CALL",
      "contractName": "Nft",
      "contractAddress": "0xabff4a7204fbe88a834a2a1592f2d5cc6908847c",
      "function": "approvalNFT(uint256)",
      "arguments": [
        "6"
      ],
      "transaction": {
        "from": "0x204e8def7e6c467cebcebbc5c89ad86bf3003fe3",
        "to": "0xabff4a7204fbe88a834a2a1592f2d5cc6908847c",
        "gas": "0x110e2",
        "value": "0x0",
        "input": "0x661f20c10000000000000000000000000000000000000000000000000000000000000006",
        "nonce": "0x22",
        "chainId": "0xaa36a7"
      },
      "additionalContracts": [],
      "isFixedGasLimit": false
    },
    {
      "hash": null,
      "transactionType": "CALL",
      "contractName": "Nft",
      "contractAddress": "0xabff4a7204fbe88a834a2a1592f2d5cc6908847c",
      "function": "mint(address,string,uint256)",
      "arguments": [
        "0x204E8DEf7E6c467cEbCeBbC5c89ad86Bf3003FE3",
        "https://silver-tricky-trout-945.mypinata.cloud/ipfs/bafybeide72hl3dkhv2e5ibzrigb7ciqri4klzq2jp3gizcaecc3zheyxuy/Froakie.json",
        "10000000000000"
      ],
      "transaction": {
        "from": "0x204e8def7e6c467cebcebbc5c89ad86bf3003fe3",
        "to": "0xabff4a7204fbe88a834a2a1592f2d5cc6908847c",
        "gas": "0x4aec0",
        "value": "0x0",
        "input": "0xba7aef43000000000000000000000000204e8def7e6c467cebcebbc5c89ad86bf3003fe30000000000000000000000000000000000000000000000000000000000000060000000000000000000000000000000000000000000000000000009184e72a000000000000000000000000000000000000000000000000000000000000000007c68747470733a2f2f73696c7665722d747269636b792d74726f75742d3934352e6d7970696e6174612e636c6f75642f697066732f6261667962656964653732686c33646b687632653569627a72696762376369717269346b6c7a71326a703367697a6361656363337a6865797875792f46726f616b69652e6a736f6e00000000",
        "nonce": "0x23",
        "chainId": "0xaa36a7"
      },
      "additionalContracts": [],
      "isFixedGasLimit": false
    },
    {
      "hash": null,
      "transactionType": "CALL",
      "contractName": "Nft",
      "contractAddress": "0xabff4a7204fbe88a834a2a1592f2d5cc6908847c",
      "function": "approvalNFT(uint256)",
      "arguments": [
        "7"
      ],
      "transaction": {
        "from": "0x204e8def7e6c467cebcebbc5c89ad86bf3003fe3",
        "to": "0xabff4a7204fbe88a834a2a1592f2d5cc6908847c",
        "gas": "0x110e2",
        "value": "0x0",
        "input": "0x661f20c10000000000000000000000000000000000000000000000000000000000000007",
        "nonce": "0x24",
        "chainId": "0xaa36a7"
      },
      "additionalContracts": [],
      "isFixedGasLimit": false
    },
    {
      "hash": null,
      "transactionType": "CALL",
      "contractName": "Nft",
      "contractAddress": "0xabff4a7204fbe88a834a2a1592f2d5cc6908847c",
      "function": "mint(address,string,uint256)",
      "arguments": [
        "0x204E8DEf7E6c467cEbCeBbC5c89ad86Bf3003FE3",
        "https://silver-tricky-trout-945.mypinata.cloud/ipfs/bafybeide72hl3dkhv2e5ibzrigb7ciqri4klzq2jp3gizcaecc3zheyxuy/Frogadier.json",
        "10000000000000"
      ],
      "transaction": {
        "from": "0x204e8def7e6c467cebcebbc5c89ad86bf3003fe3",
        "to": "0xabff4a7204fbe88a834a2a1592f2d5cc6908847c",
        "gas": "0x4aee1",
        "value": "0x0",
        "input": "0xba7aef43000000000000000000000000204e8def7e6c467cebcebbc5c89ad86bf3003fe30000000000000000000000000000000000000000000000000000000000000060000000000000000000000000000000000000000000000000000009184e72a000000000000000000000000000000000000000000000000000000000000000007e68747470733a2f2f73696c7665722d747269636b792d74726f75742d3934352e6d7970696e6174612e636c6f75642f697066732f6261667962656964653732686c33646b687632653569627a72696762376369717269346b6c7a71326a703367697a6361656363337a6865797875792f46726f6761646965722e6a736f6e0000",
        "nonce": "0x25",
        "chainId": "0xaa36a7"
      },
      "additionalContracts": [],
      "isFixedGasLimit": false
    },
    {
      "hash": null,
      "transactionType": "CALL",
      "contractName": "Nft",
      "contractAddress": "0xabff4a7204fbe88a834a2a1592f2d5cc6908847c",
      "function": "approvalNFT(uint256)",
      "arguments": [
        "8"
      ],
      "transaction": {
        "from": "0x204e8def7e6c467cebcebbc5c89ad86bf3003fe3",
        "to": "0xabff4a7204fbe88a834a2a1592f2d5cc6908847c",
        "gas": "0x110e2",
        "value": "0x0",
        "input": "0x661f20c10000000000000000000000000000000000000000000000000000000000000008",
        "nonce": "0x26",
        "chainId": "0xaa36a7"
      },
      "additionalContracts": [],
      "isFixedGasLimit": false
    },
    {
      "hash": null,
      "transactionType": "CALL",
      "contractName": "Nft",
      "contractAddress": "0xabff4a7204fbe88a834a2a1592f2d5cc6908847c",
      "function": "mint(address,string,uint256)",
      "arguments": [
        "0x204E8DEf7E6c467cEbCeBbC5c89ad86Bf3003FE3",
        "https://silver-tricky-trout-945.mypinata.cloud/ipfs/bafybeide72hl3dkhv2e5ibzrigb7ciqri4klzq2jp3gizcaecc3zheyxuy/Greninja.json",
        "10000000000000"
      ],
      "transaction": {
        "from": "0x204e8def7e6c467cebcebbc5c89ad86bf3003fe3",
        "to": "0xabff4a7204fbe88a834a2a1592f2d5cc6908847c",
        "gas": "0x4aed0",
        "value": "0x0",
        "input": "0xba7aef43000000000000000000000000204e8def7e6c467cebcebbc5c89ad86bf3003fe30000000000000000000000000000000000000000000000000000000000000060000000000000000000000000000000000000000000000000000009184e72a000000000000000000000000000000000000000000000000000000000000000007d68747470733a2f2f73696c7665722d747269636b792d74726f75742d3934352e6d7970696e6174612e636c6f75642f697066732f6261667962656964653732686c33646b687632653569627a72696762376369717269346b6c7a71326a703367697a6361656363337a6865797875792f4772656e696e6a612e6a736f6e000000",
        "nonce": "0x27",
        "chainId": "0xaa36a7"
      },
      "additionalContracts": [],
      "isFixedGasLimit": false
    },
    {
      "hash": null,
      "transactionType": "CALL",
      "contractName": "Nft",
      "contractAddress": "0xabff4a7204fbe88a834a2a1592f2d5cc6908847c",
      "function": "approvalNFT(uint256)",
      "arguments": [
        "9"
      ],
      "transaction": {
        "from": "0x204e8def7e6c467cebcebbc5c89ad86bf3003fe3",
        "to": "0xabff4a7204fbe88a834a2a1592f2d5cc6908847c",
        "gas": "0x110e2",
        "value": "0x0",
        "input": "0x661f20c10000000000000000000000000000000000000000000000000000000000000009",
        "nonce": "0x28",
        "chainId": "0xaa36a7"
      },
      "additionalContracts": [],
      "isFixedGasLimit": false
    },
    {
      "hash": null,
      "transactionType": "CALL",
      "contractName": "Nft",
      "contractAddress": "0xabff4a7204fbe88a834a2a1592f2d5cc6908847c",
      "function": "mint(address,string,uint256)",
      "arguments": [
        "0x204E8DEf7E6c467cEbCeBbC5c89ad86Bf3003FE3",
        "https://silver-tricky-trout-945.mypinata.cloud/ipfs/bafybeide72hl3dkhv2e5ibzrigb7ciqri4klzq2jp3gizcaecc3zheyxuy/Mew.json",
        "10000000000000"
      ],
      "transaction": {
        "from": "0x204e8def7e6c467cebcebbc5c89ad86bf3003fe3",
        "to": "0xabff4a7204fbe88a834a2a1592f2d5cc6908847c",
        "gas": "0x4ae7e",
        "value": "0x0",
        "input": "0xba7aef43000000000000000000000000204e8def7e6c467cebcebbc5c89ad86bf3003fe30000000000000000000000000000000000000000000000000000000000000060000000000000000000000000000000000000000000000000000009184e72a000000000000000000000000000000000000000000000000000000000000000007868747470733a2f2f73696c7665722d747269636b792d74726f75742d3934352e6d7970696e6174612e636c6f75642f697066732f6261667962656964653732686c33646b687632653569627a72696762376369717269346b6c7a71326a703367697a6361656363337a6865797875792f4d65772e6a736f6e0000000000000000",
        "nonce": "0x29",
        "chainId": "0xaa36a7"
      },
      "additionalContracts": [],
      "isFixedGasLimit": false
    },
    {
      "hash": null,
      "transactionType": "CALL",
      "contractName": "Nft",
      "contractAddress": "0xabff4a7204fbe88a834a2a1592f2d5cc6908847c",
      "function": "approvalNFT(uint256)",
      "arguments": [
        "10"
      ],
      "transaction": {
        "from": "0x204e8def7e6c467cebcebbc5c89ad86bf3003fe3",
        "to": "0xabff4a7204fbe88a834a2a1592f2d5cc6908847c",
        "gas": "0x110e2",
        "value": "0x0",
        "input": "0x661f20c1000000000000000000000000000000000000000000000000000000000000000a",
        "nonce": "0x2a",
        "chainId": "0xaa36a7"
      },
      "additionalContracts": [],
      "isFixedGasLimit": false
    },
    {
      "hash": null,
      "transactionType": "CALL",
      "contractName": "Nft",
      "contractAddress": "0xabff4a7204fbe88a834a2a1592f2d5cc6908847c",
      "function": "mint(address,string,uint256)",
      "arguments": [
        "0x204E8DEf7E6c467cEbCeBbC5c89ad86Bf3003FE3",
        "https://silver-tricky-trout-945.mypinata.cloud/ipfs/bafybeide72hl3dkhv2e5ibzrigb7ciqri4klzq2jp3gizcaecc3zheyxuy/Pikachu.json",
        "10000000000000"
      ],
      "transaction": {
        "from": "0x204e8def7e6c467cebcebbc5c89ad86bf3003fe3",
        "to": "0xabff4a7204fbe88a834a2a1592f2d5cc6908847c",
        "gas": "0x4aec0",
        "value": "0x0",
        "input": "0xba7aef43000000000000000000000000204e8def7e6c467cebcebbc5c89ad86bf3003fe30000000000000000000000000000000000000000000000000000000000000060000000000000000000000000000000000000000000000000000009184e72a000000000000000000000000000000000000000000000000000000000000000007c68747470733a2f2f73696c7665722d747269636b792d74726f75742d3934352e6d7970696e6174612e636c6f75642f697066732f6261667962656964653732686c33646b687632653569627a72696762376369717269346b6c7a71326a703367697a6361656363337a6865797875792f50696b616368752e6a736f6e00000000",
        "nonce": "0x2b",
        "chainId": "0xaa36a7"
      },
      "additionalContracts": [],
      "isFixedGasLimit": false
    },
    {
      "hash": null,
      "transactionType": "CALL",
      "contractName": "Nft",
      "contractAddress": "0xabff4a7204fbe88a834a2a1592f2d5cc6908847c",
      "function": "approvalNFT(uint256)",
      "arguments": [
        "11"
      ],
      "transaction": {
        "from": "0x204e8def7e6c467cebcebbc5c89ad86bf3003fe3",
        "to": "0xabff4a7204fbe88a834a2a1592f2d5cc6908847c",
        "gas": "0x110e2",
        "value": "0x0",
        "input": "0x661f20c1000000000000000000000000000000000000000000000000000000000000000b",
        "nonce": "0x2c",
        "chainId": "0xaa36a7"
      },
      "additionalContracts": [],
      "isFixedGasLimit": false
    },
    {
      "hash": null,
      "transactionType": "CALL",
      "contractName": "Nft",
      "contractAddress": "0xabff4a7204fbe88a834a2a1592f2d5cc6908847c",
      "function": "mint(address,string,uint256)",
      "arguments": [
        "0x204E8DEf7E6c467cEbCeBbC5c89ad86Bf3003FE3",
        "https://silver-tricky-trout-945.mypinata.cloud/ipfs/bafybeide72hl3dkhv2e5ibzrigb7ciqri4klzq2jp3gizcaecc3zheyxuy/Pikachu2.json",
        "10000000000000"
      ],
      "transaction": {
        "from": "0x204e8def7e6c467cebcebbc5c89ad86bf3003fe3",
        "to": "0xabff4a7204fbe88a834a2a1592f2d5cc6908847c",
        "gas": "0x4aed0",
        "value": "0x0",
        "input": "0xba7aef43000000000000000000000000204e8def7e6c467cebcebbc5c89ad86bf3003fe30000000000000000000000000000000000000000000000000000000000000060000000000000000000000000000000000000000000000000000009184e72a000000000000000000000000000000000000000000000000000000000000000007d68747470733a2f2f73696c7665722d747269636b792d74726f75742d3934352e6d7970696e6174612e636c6f75642f697066732f6261667962656964653732686c33646b687632653569627a72696762376369717269346b6c7a71326a703367697a6361656363337a6865797875792f50696b61636875322e6a736f6e000000",
        "nonce": "0x2d",
        "chainId": "0xaa36a7"
      },
      "additionalContracts": [],
      "isFixedGasLimit": false
    },
    {
      "hash": null,
      "transactionType": "CALL",
      "contractName": "Nft",
      "contractAddress": "0xabff4a7204fbe88a834a2a1592f2d5cc6908847c",
      "function": "approvalNFT(uint256)",
      "arguments": [
        "12"
      ],
      "transaction": {
        "from": "0x204e8def7e6c467cebcebbc5c89ad86bf3003fe3",
        "to": "0xabff4a7204fbe88a834a2a1592f2d5cc6908847c",
        "gas": "0x110e2",
        "value": "0x0",
        "input": "0x661f20c1000000000000000000000000000000000000000000000000000000000000000c",
        "nonce": "0x2e",
        "chainId": "0xaa36a7"
      },
      "additionalContracts": [],
      "isFixedGasLimit": false
    },
    {
      "hash": null,
      "transactionType": "CALL",
      "contractName": "Nft",
      "contractAddress": "0xabff4a7204fbe88a834a2a1592f2d5cc6908847c",
      "function": "mint(address,string,uint256)",
      "arguments": [
        "0x204E8DEf7E6c467cEbCeBbC5c89ad86Bf3003FE3",
        "https://silver-tricky-trout-945.mypinata.cloud/ipfs/bafybeide72hl3dkhv2e5ibzrigb7ciqri4klzq2jp3gizcaecc3zheyxuy/Raichu.json",
        "10000000000000"
      ],
      "transaction": {
        "from": "0x204e8def7e6c467cebcebbc5c89ad86bf3003fe3",
        "to": "0xabff4a7204fbe88a834a2a1592f2d5cc6908847c",
        "gas": "0x4aeaf",
        "value": "0x0",
        "input": "0xba7aef43000000000000000000000000204e8def7e6c467cebcebbc5c89ad86bf3003fe30000000000000000000000000000000000000000000000000000000000000060000000000000000000000000000000000000000000000000000009184e72a000000000000000000000000000000000000000000000000000000000000000007b68747470733a2f2f73696c7665722d747269636b792d74726f75742d3934352e6d7970696e6174612e636c6f75642f697066732f6261667962656964653732686c33646b687632653569627a72696762376369717269346b6c7a71326a703367697a6361656363337a6865797875792f5261696368752e6a736f6e0000000000",
        "nonce": "0x2f",
        "chainId": "0xaa36a7"
      },
      "additionalContracts": [],
      "isFixedGasLimit": false
    },
    {
      "hash": null,
      "transactionType": "CALL",
      "contractName": "Nft",
      "contractAddress": "0xabff4a7204fbe88a834a2a1592f2d5cc6908847c",
      "function": "approvalNFT(uint256)",
      "arguments": [
        "13"
      ],
      "transaction": {
        "from": "0x204e8def7e6c467cebcebbc5c89ad86bf3003fe3",
        "to": "0xabff4a7204fbe88a834a2a1592f2d5cc6908847c",
        "gas": "0x110e2",
        "value": "0x0",
        "input": "0x661f20c1000000000000000000000000000000000000000000000000000000000000000d",
        "nonce": "0x30",
        "chainId": "0xaa36a7"
      },
      "additionalContracts": [],
      "isFixedGasLimit": false
    },
    {
      "hash": null,
      "transactionType": "CALL",
      "contractName": "Nft",
      "contractAddress": "0xabff4a7204fbe88a834a2a1592f2d5cc6908847c",
      "function": "mint(address,string,uint256)",
      "arguments": [
        "0x204E8DEf7E6c467cEbCeBbC5c89ad86Bf3003FE3",
        "https://silver-tricky-trout-945.mypinata.cloud/ipfs/bafybeide72hl3dkhv2e5ibzrigb7ciqri4klzq2jp3gizcaecc3zheyxuy/Raichu2.json",
        "10000000000000"
      ],
      "transaction": {
        "from": "0x204e8def7e6c467cebcebbc5c89ad86bf3003fe3",
        "to": "0xabff4a7204fbe88a834a2a1592f2d5cc6908847c",
        "gas": "0x4aec0",
        "value": "0x0",
        "input": "0xba7aef43000000000000000000000000204e8def7e6c467cebcebbc5c89ad86bf3003fe30000000000000000000000000000000000000000000000000000000000000060000000000000000000000000000000000000000000000000000009184e72a000000000000000000000000000000000000000000000000000000000000000007c68747470733a2f2f73696c7665722d747269636b792d74726f75742d3934352e6d7970696e6174612e636c6f75642f697066732f6261667962656964653732686c33646b687632653569627a72696762376369717269346b6c7a71326a703367697a6361656363337a6865797875792f526169636875322e6a736f6e00000000",
        "nonce": "0x31",
        "chainId": "0xaa36a7"
      },
      "additionalContracts": [],
      "isFixedGasLimit": false
    },
    {
      "hash": null,
      "transactionType": "CALL",
      "contractName": "Nft",
      "contractAddress": "0xabff4a7204fbe88a834a2a1592f2d5cc6908847c",
      "function": "approvalNFT(uint256)",
      "arguments": [
        "14"
      ],
      "transaction": {
        "from": "0x204e8def7e6c467cebcebbc5c89ad86bf3003fe3",
        "to": "0xabff4a7204fbe88a834a2a1592f2d5cc6908847c",
        "gas": "0x110e2",
        "value": "0x0",
        "input": "0x661f20c1000000000000000000000000000000000000000000000000000000000000000e",
        "nonce": "0x32",
        "chainId": "0xaa36a7"
      },
      "additionalContracts": [],
      "isFixedGasLimit": false
    }
  ],
  "receipts": [],
  "libraries": [],
  "pending": [
    "0x01d76a4cb579e0d21c45c169fc12c9aab0746b0ce6f536e70466104297364a20",
    "0x22d2e7fb1753f6f80a1611e8a3c4562735318faaedfc7307ec37c8cfbd1fc655",
    "0x1c33d730e0e9688d4b75580b6d3e70a53c71dadfc3a877a97d220c5480c4ddfa",
    "0xa20603e765791198a63f04fc611f165ec0d14628768005e795595195b3dfe9c8"
  ],
  "returns": {},
  "timestamp": 1740151523,
  "chain": 11155111,
  "commit": "3e6012f"
}