{
  "transactions": [
    {
      "hash": "0x746103f36ba4add255143dff7d8b4135d54d3454423cc192af1ae7df49b0dcb5",
      "transactionType": "CREATE",
      "contractName": "Nft",
      "contractAddress": "0x14c03ae4342aa2ed24235b3abfdd0c0aac118815",
      "function": null,
      "arguments": [
        "0x204E8DEf7E6c467cEbCeBbC5c89ad86Bf3003FE3"
      ],
      "transaction": {
        "from": "0x204e8def7e6c467cebcebbc5c89ad86bf3003fe3",
        "gas": "0x2580ae",
        "value": "0x0",
        "input": "0x60806040525f600855348015610013575f5ffd5b506040516122193803806122198339810160408190526100329161013f565b80604051806040016040528060078152602001662837b5b2b6b7b760c91b81525060405180604001604052806004815260200163504f4b4560e01b815250815f908161007e9190610204565b50600161008b8282610204565b5050506001600160a01b0381166100bb57604051631e4fbdf760e01b81525f600482015260240160405180910390fd5b6100c4816100ee565b50600980546001600160a01b0319166001600160a01b03929092169190911790555f6008556102be565b600780546001600160a01b038381166001600160a01b0319831681179093556040519116919082907f8be0079c531659141344cd1fd0a4f28419497f9722a3daafe3b4186f6b6457e0905f90a35050565b5f6020828403121561014f575f5ffd5b81516001600160a01b0381168114610165575f5ffd5b9392505050565b634e487b7160e01b5f52604160045260245ffd5b600181811c9082168061019457607f821691505b6020821081036101b257634e487b7160e01b5f52602260045260245ffd5b50919050565b601f8211156101ff57805f5260205f20601f840160051c810160208510156101dd5750805b601f840160051c820191505b818110156101fc575f81556001016101e9565b50505b505050565b81516001600160401b0381111561021d5761021d61016c565b6102318161022b8454610180565b846101b8565b6020601f821160018114610263575f831561024c5750848201515b5f19600385901b1c1916600184901b1784556101fc565b5f84815260208120601f198516915b828110156102925787850151825560209485019460019092019101610272565b50848210156102af57868401515f19600387901b60f8161c191681555b50505050600190811b01905550565b611f4e806102cb5f395ff3fe608060405234801561000f575f5ffd5b50600436106101dc575f3560e01c8063661f20c111610109578063b36e88ba1161009e578063c2507ac11161006e578063c2507ac1146104ef578063c87b56dd1461050e578063e985e9c514610521578063f2fde38b14610534575f5ffd5b8063b36e88ba14610468578063b88d4fde146104c0578063ba7aef43146104d3578063bd55022a146104e6575f5ffd5b80638da5cb5b116100d95780638da5cb5b1461042957806395d89b411461043a578063a22cb46514610442578063a839c09a14610455575f5ffd5b8063661f20c1146103e857806369e9cae1146103fb57806370a082311461040e578063715018a614610421575f5ffd5b80631caaa4871161017f5780633bb3a24d1161014f5780633bb3a24d1461039057806342842e0e146103a357806345ab331e146103b65780636352211e146103d5575f5ffd5b80631caaa4871461029a5780631e6c598e146102c257806323b872dd1461036a57806329ba7bb21461037d575f5ffd5b806306fdde03116101ba57806306fdde0314610230578063081812fc14610245578063095ea7b31461027057806317d70f7c14610283575f5ffd5b806301663e59146101e05780630179cc52146101f557806301ffc9a714610208575b5f5ffd5b6101f36101ee366004611997565b610547565b005b6101f36102033660046119ae565b6106af565b61021b6102163660046119e3565b610734565b60405190151581526020015b60405180910390f35b61023861075e565b6040516102279190611a2c565b610258610253366004611997565b6107ed565b6040516001600160a01b039091168152602001610227565b6101f361027e366004611a59565b610814565b61028c60085481565b604051908152602001610227565b6102586102a8366004611997565b600b6020525f90815260409020546001600160a01b031681565b6103206102d0366004611997565b600c6020525f9081526040902080546001820154600283015460038401546004909401546001600160a01b03938416949293909116919060ff808216916101008104821691620100009091041687565b604080516001600160a01b03988916815260208101979097529490961693850193909352606084019190915215156080830152151560a082015290151560c082015260e001610227565b6101f3610378366004611a81565b61081f565b600954610258906001600160a01b031681565b61023861039e366004611997565b6108a8565b6101f36103b1366004611a81565b6108b3565b61028c6103c4366004611997565b600a6020525f908152604090205481565b6102586103e3366004611997565b6108d2565b6101f36103f6366004611997565b6108dc565b6101f3610409366004611a81565b6109ad565b61028c61041c366004611abb565b610abf565b6101f3610b04565b6007546001600160a01b0316610258565b610238610b17565b6101f3610450366004611ad4565b610b26565b6101f3610463366004611b0d565b610b31565b6104a1610476366004611997565b5f908152600c602052604090206004015460ff80821692610100830482169262010000900490911690565b6040805193151584529115156020840152151590820152606001610227565b6101f36104ce366004611bca565b610d1e565b61028c6104e1366004611c41565b610d36565b61028c600d5481565b61028c6104fd366004611997565b5f908152600a602052604090205490565b61023861051c366004611997565b610de8565b61021b61052f366004611ca8565b610ef3565b6101f3610542366004611abb565b610f20565b5f818152600c60205260409020600481015462010000900460ff16156105b45760405162461bcd60e51b815260206004820152601760248201527f547261646520616c726561647920636f6d706c6574656400000000000000000060448201526064015b60405180910390fd5b80546001600160a01b031633036105d95760048101805460ff1916600117905561064b565b60028101546001600160a01b031633036106035760048101805461ff00191661010017905561064b565b60405162461bcd60e51b815260206004820152601e60248201527f596f7520617265206e6f742070617274206f662074686973207472616465000060448201526064016105ab565b60405182815233907f642ea0b1d63cc70f38e39719b589ae0a9a111ef74ae825093d1574009bdf4e299060200160405180910390a2600481015460ff16801561069d57506004810154610100900460ff165b156106ab576106ab82610f5d565b5050565b5f828152600b60205260409020546001600160a01b031633146106e45760405162461bcd60e51b81526004016105ab90611cd9565b5f828152600a6020526040908190208290555182907f515031d3619f8c375f04c238d50a5131384dbf0ed7dfeca372caab76f0396d2f906107289084815260200190565b60405180910390a25050565b5f6001600160e01b03198216632483248360e11b14806107585750610758826110d7565b92915050565b60605f805461076c90611d1a565b80601f016020809104026020016040519081016040528092919081815260200182805461079890611d1a565b80156107e35780601f106107ba576101008083540402835291602001916107e3565b820191905f5260205f20905b8154815290600101906020018083116107c657829003601f168201915b5050505050905090565b5f6107f782611126565b505f828152600460205260409020546001600160a01b0316610758565b6106ab82823361115e565b6001600160a01b03821661084857604051633250574960e11b81525f60048201526024016105ab565b5f61085483833361116b565b9050836001600160a01b0316816001600160a01b0316146108a2576040516364283d7b60e01b81526001600160a01b03808616600483015260248201849052821660448201526064016105ab565b50505050565b606061075882610de8565b6108cd83838360405180602001604052805f815250610d1e565b505050565b5f61075882611126565b6108e5816108d2565b6001600160a01b0316336001600160a01b0316146109155760405162461bcd60e51b81526004016105ab90611cd9565b61091f3082610814565b610928816107ed565b6001600160a01b0316306001600160a01b03161461097e5760405162461bcd60e51b8152602060048201526013602482015272139195081a5cc81b9bdd08185c1c1c9bdd9959606a1b60448201526064016105ab565b604051339082907fdeee21db6a55c8eecf477d3301bcad831b184340f28656006a166316933b23e1905f90a350565b6109b6816108d2565b6001600160a01b0316836001600160a01b0316146109e65760405162461bcd60e51b81526004016105ab90611cd9565b6109f183838361125d565b5f818152600b6020526040902080546001600160a01b0319166001600160a01b038416179055610a20816108d2565b6001600160a01b0316826001600160a01b031614610a795760405162461bcd60e51b8152602060048201526016602482015275139195081a5cc81b9bdd081d1c985b9cd9995c9c995960521b60448201526064016105ab565b816001600160a01b0316836001600160a01b0316827f3f238fa55bd4cbe018c8b5445830973d3021efa35b5604149c8995b491f2007260405160405180910390a4505050565b5f6001600160a01b038216610ae9576040516322718ad960e21b81525f60048201526024016105ab565b506001600160a01b03165f9081526003602052604090205490565b610b0c61130a565b610b155f611337565b565b60606001805461076c90611d1a565b6106ab338383611388565b33610b3b846108d2565b6001600160a01b031614610b895760405162461bcd60e51b8152602060048201526015602482015274596f7520646f206e6f74206f776e20746f6b656e4160581b60448201526064016105ab565b806001600160a01b0316610b9c836108d2565b6001600160a01b031614610bf25760405162461bcd60e51b815260206004820152601a60248201527f50617274794220646f6573206e6f74206f776e20746f6b656e4200000000000060448201526064016105ab565b600d8054905f610c0183611d52565b90915550506040805160e0810182523380825260208083018781526001600160a01b0386811685870181815260608088018b81525f60808a0181815260a08b0182815260c08c01838152600d80548552600c8c52938e90209c518d54908a166001600160a01b0319918216178e55995160018e0155955160028d01805491909916991698909817909655905160038a0155935160049098018054955192511515620100000262ff0000199315156101000261ff00199a15159a909a1661ffff1990971696909617989098179190911693909317909555548551908152918201889052938101869052919290917ff2725c0575eeb8dd7bbfaa29b3ec69fa353ccbd0048021a8ef399a399911b78891015b60405180910390a3505050565b610d2984848461081f565b6108a2338585858561141e565b5f610d3f61130a565b60088054905f610d4e83611d52565b90915550506008545f818152600a60205260409020839055610d708582611546565b610d7a81856115a7565b5f818152600b60205260409081902080546001600160a01b0319166001600160a01b038816908117909155905182907f684f6795945805272d5839a7063f5e0a3b6dd64bdb3976749763ec2fea16177890610dd89088908890611d76565b60405180910390a3949350505050565b6060610df382611126565b505f8281526006602052604081208054610e0c90611d1a565b80601f0160208091040260200160405190810160405280929190818152602001828054610e3890611d1a565b8015610e835780601f10610e5a57610100808354040283529160200191610e83565b820191905f5260205f20905b815481529060010190602001808311610e6657829003601f168201915b505050505090505f610e9f60408051602081019091525f815290565b905080515f03610eb0575092915050565b815115610ee2578082604051602001610eca929190611dae565b60405160208183030381529060405292505050919050565b610eeb846115f6565b949350505050565b6001600160a01b039182165f90815260056020908152604080832093909416825291909152205460ff1690565b610f2861130a565b6001600160a01b038116610f5157604051631e4fbdf760e01b81525f60048201526024016105ab565b610f5a81611337565b50565b5f818152600c60205260409020600481015460ff168015610f8757506004810154610100900460ff165b610fd35760405162461bcd60e51b815260206004820152601960248201527f426f74682070617274696573206d75737420617070726f76650000000000000060448201526064016105ab565b600481015462010000900460ff16156110275760405162461bcd60e51b8152602060048201526016602482015275151c98591948185b1c9958591e48195e1958dd5d195960521b60448201526064016105ab565b5f61103582600101546108d2565b90505f61104583600301546108d2565b90506110568282856001015461125d565b6110658183856003015461125d565b60048301805462ff0000191662010000179055600183015460038401546040805187815260208101939093528201526001600160a01b0382811691908416907f51701c0a770183caac72947e0848d20e71b0384cc22e8355c082cec6c722f02c9060600160405180910390a350505050565b5f6001600160e01b031982166380ac58cd60e01b148061110757506001600160e01b03198216635b5e139f60e01b145b8061075857506301ffc9a760e01b6001600160e01b0319831614610758565b5f818152600260205260408120546001600160a01b03168061075857604051637e27328960e01b8152600481018490526024016105ab565b6108cd8383836001611667565b5f828152600260205260408120546001600160a01b03908116908316156111975761119781848661176b565b6001600160a01b038116156111d1576111b25f855f5f611667565b6001600160a01b0381165f90815260036020526040902080545f190190555b6001600160a01b038516156111ff576001600160a01b0385165f908152600360205260409020805460010190555b5f8481526002602052604080822080546001600160a01b0319166001600160a01b0389811691821790925591518793918516917fddf252ad1be2c89b69c2b068fc378daa952ba7f163c4a11628f55a4df523b3ef91a4949350505050565b6001600160a01b03821661128657604051633250574960e11b81525f60048201526024016105ab565b5f61129283835f61116b565b90506001600160a01b0381166112be57604051637e27328960e01b8152600481018390526024016105ab565b836001600160a01b0316816001600160a01b0316146108a2576040516364283d7b60e01b81526001600160a01b03808616600483015260248201849052821660448201526064016105ab565b6007546001600160a01b03163314610b155760405163118cdaa760e01b81523360048201526024016105ab565b600780546001600160a01b038381166001600160a01b0319831681179093556040519116919082907f8be0079c531659141344cd1fd0a4f28419497f9722a3daafe3b4186f6b6457e0905f90a35050565b6001600160a01b0382166113ba57604051630b61174360e31b81526001600160a01b03831660048201526024016105ab565b6001600160a01b038381165f81815260056020908152604080832094871680845294825291829020805460ff191686151590811790915591519182527f17307eab39ab6107e8899845ad3d59bd9653f200f220920489ca2b5937696c319101610d11565b6001600160a01b0383163b1561153f57604051630a85bd0160e11b81526001600160a01b0384169063150b7a0290611460908890889087908790600401611dc2565b6020604051808303815f875af192505050801561149a575060408051601f3d908101601f1916820190925261149791810190611dfe565b60015b611501573d8080156114c7576040519150601f19603f3d011682016040523d82523d5f602084013e6114cc565b606091505b5080515f036114f957604051633250574960e11b81526001600160a01b03851660048201526024016105ab565b805181602001fd5b6001600160e01b03198116630a85bd0160e11b1461153d57604051633250574960e11b81526001600160a01b03851660048201526024016105ab565b505b5050505050565b6001600160a01b03821661156f57604051633250574960e11b81525f60048201526024016105ab565b5f61157b83835f61116b565b90506001600160a01b038116156108cd576040516339e3563760e11b81525f60048201526024016105ab565b5f8281526006602052604090206115be8282611e5d565b506040518281527ff8e1a15aba9398e019f0b49df1a4fde98ee17ae345cb5f6b5e2c27f5033e8ce79060200160405180910390a15050565b606061160182611126565b505f61161760408051602081019091525f815290565b90505f8151116116355760405180602001604052805f815250611660565b8061163f846117cf565b604051602001611650929190611dae565b6040516020818303038152906040525b9392505050565b808061167b57506001600160a01b03821615155b1561173c575f61168a84611126565b90506001600160a01b038316158015906116b65750826001600160a01b0316816001600160a01b031614155b80156116c957506116c78184610ef3565b155b156116f25760405163a9fbf51f60e01b81526001600160a01b03841660048201526024016105ab565b811561173a5783856001600160a01b0316826001600160a01b03167f8c5be1e5ebec7d5bd14f71427d1e84f3dd0314c0f7b2291e5b200ac8c7c3b92560405160405180910390a45b505b50505f90815260046020526040902080546001600160a01b0319166001600160a01b0392909216919091179055565b61177683838361185f565b6108cd576001600160a01b0383166117a457604051637e27328960e01b8152600481018290526024016105ab565b60405163177e802f60e01b81526001600160a01b0383166004820152602481018290526044016105ab565b60605f6117db836118c0565b60010190505f8167ffffffffffffffff8111156117fa576117fa611b3f565b6040519080825280601f01601f191660200182016040528015611824576020820181803683370190505b5090508181016020015b5f19016f181899199a1a9b1b9c1cb0b131b232b360811b600a86061a8153600a850494508461182e57509392505050565b5f6001600160a01b03831615801590610eeb5750826001600160a01b0316846001600160a01b0316148061189857506118988484610ef3565b80610eeb5750505f908152600460205260409020546001600160a01b03908116911614919050565b5f8072184f03e93ff9f4daa797ed6e38ed64bf6a1f0160401b83106118fe5772184f03e93ff9f4daa797ed6e38ed64bf6a1f0160401b830492506040015b6d04ee2d6d415b85acef8100000000831061192a576d04ee2d6d415b85acef8100000000830492506020015b662386f26fc10000831061194857662386f26fc10000830492506010015b6305f5e1008310611960576305f5e100830492506008015b612710831061197457612710830492506004015b60648310611986576064830492506002015b600a83106107585760010192915050565b5f602082840312156119a7575f5ffd5b5035919050565b5f5f604083850312156119bf575f5ffd5b50508035926020909101359150565b6001600160e01b031981168114610f5a575f5ffd5b5f602082840312156119f3575f5ffd5b8135611660816119ce565b5f81518084528060208401602086015e5f602082860101526020601f19601f83011685010191505092915050565b602081525f61166060208301846119fe565b80356001600160a01b0381168114611a54575f5ffd5b919050565b5f5f60408385031215611a6a575f5ffd5b611a7383611a3e565b946020939093013593505050565b5f5f5f60608486031215611a93575f5ffd5b611a9c84611a3e565b9250611aaa60208501611a3e565b929592945050506040919091013590565b5f60208284031215611acb575f5ffd5b61166082611a3e565b5f5f60408385031215611ae5575f5ffd5b611aee83611a3e565b915060208301358015158114611b02575f5ffd5b809150509250929050565b5f5f5f60608486031215611b1f575f5ffd5b8335925060208401359150611b3660408501611a3e565b90509250925092565b634e487b7160e01b5f52604160045260245ffd5b5f5f67ffffffffffffffff841115611b6d57611b6d611b3f565b50604051601f19601f85018116603f0116810181811067ffffffffffffffff82111715611b9c57611b9c611b3f565b604052838152905080828401851015611bb3575f5ffd5b838360208301375f60208583010152509392505050565b5f5f5f5f60808587031215611bdd575f5ffd5b611be685611a3e565b9350611bf460208601611a3e565b925060408501359150606085013567ffffffffffffffff811115611c16575f5ffd5b8501601f81018713611c26575f5ffd5b611c3587823560208401611b53565b91505092959194509250565b5f5f5f60608486031215611c53575f5ffd5b611c5c84611a3e565b9250602084013567ffffffffffffffff811115611c77575f5ffd5b8401601f81018613611c87575f5ffd5b611c9686823560208401611b53565b93969395505050506040919091013590565b5f5f60408385031215611cb9575f5ffd5b611cc283611a3e565b9150611cd060208401611a3e565b90509250929050565b60208082526021908201527f596f7520617265206e6f7420746865206f776e6572206f662074686973204e466040820152601560fa1b606082015260800190565b600181811c90821680611d2e57607f821691505b602082108103611d4c57634e487b7160e01b5f52602260045260245ffd5b50919050565b5f60018201611d6f57634e487b7160e01b5f52601160045260245ffd5b5060010190565b604081525f611d8860408301856119fe565b90508260208301529392505050565b5f81518060208401855e5f93019283525090919050565b5f610eeb611dbc8386611d97565b84611d97565b6001600160a01b03858116825284166020820152604081018390526080606082018190525f90611df4908301846119fe565b9695505050505050565b5f60208284031215611e0e575f5ffd5b8151611660816119ce565b601f8211156108cd57805f5260205f20601f840160051c81016020851015611e3e5750805b601f840160051c820191505b8181101561153f575f8155600101611e4a565b815167ffffffffffffffff811115611e7757611e77611b3f565b611e8b81611e858454611d1a565b84611e19565b6020601f821160018114611ebd575f8315611ea65750848201515b5f19600385901b1c1916600184901b17845561153f565b5f84815260208120601f198516915b82811015611eec5787850151825560209485019460019092019101611ecc565b5084821015611f0957868401515f19600387901b60f8161c191681555b50505050600190811b0190555056fea2646970667358221220a299d50d3ea62ccdbab957326c09219a4e017276006f1a124d396af9b079e47464736f6c634300081c0033000000000000000000000000204e8def7e6c467cebcebbc5c89ad86bf3003fe3",
        "nonce": "0x9e",
        "chainId": "0xaa36a7"
      },
      "additionalContracts": [],
      "isFixedGasLimit": false
    },
    {
      "hash": "0xacd56d6b8e3775d6e89c17280544b0e86ad5f55cf3509dd42f391aff35c9a6d7",
      "transactionType": "CALL",
      "contractName": "Nft",
      "contractAddress": "0x14c03ae4342aa2ed24235b3abfdd0c0aac118815",
      "function": "mint(address,string,uint256)",
      "arguments": [
        "0x204E8DEf7E6c467cEbCeBbC5c89ad86Bf3003FE3",
        "https://silver-tricky-trout-945.mypinata.cloud/ipfs/bafybeide72hl3dkhv2e5ibzrigb7ciqri4klzq2jp3gizcaecc3zheyxuy/Charmander.json",
        "10000000000000"
      ],
      "transaction": {
        "from": "0x204e8def7e6c467cebcebbc5c89ad86bf3003fe3",
        "to": "0x14c03ae4342aa2ed24235b3abfdd0c0aac118815",
        "gas": "0x56778",
        "value": "0x0",
        "input": "0xba7aef43000000000000000000000000204e8def7e6c467cebcebbc5c89ad86bf3003fe30000000000000000000000000000000000000000000000000000000000000060000000000000000000000000000000000000000000000000000009184e72a000000000000000000000000000000000000000000000000000000000000000007f68747470733a2f2f73696c7665722d747269636b792d74726f75742d3934352e6d7970696e6174612e636c6f75642f697066732f6261667962656964653732686c33646b687632653569627a72696762376369717269346b6c7a71326a703367697a6361656363337a6865797875792f436861726d616e6465722e6a736f6e00",
        "nonce": "0x9f",
        "chainId": "0xaa36a7"
      },
      "additionalContracts": [],
      "isFixedGasLimit": false
    },
    {
      "hash": "0x9d54900f0f79d6e40ebfe64c9ac55417d3f9fa3e1b5aa6d5c03cd1c14047ec98",
      "transactionType": "CALL",
      "contractName": "Nft",
      "contractAddress": "0x14c03ae4342aa2ed24235b3abfdd0c0aac118815",
      "function": "approvalNFT(uint256)",
      "arguments": [
        "1"
      ],
      "transaction": {
        "from": "0x204e8def7e6c467cebcebbc5c89ad86bf3003fe3",
        "to": "0x14c03ae4342aa2ed24235b3abfdd0c0aac118815",
        "gas": "0x11101",
        "value": "0x0",
        "input": "0x661f20c10000000000000000000000000000000000000000000000000000000000000001",
        "nonce": "0xa0",
        "chainId": "0xaa36a7"
      },
      "additionalContracts": [],
      "isFixedGasLimit": false
    },
    {
      "hash": "0x7da2027581e48cd369f78960d4b6e8514562048a1be1e42a927ea9ebc02b9186",
      "transactionType": "CALL",
      "contractName": "Nft",
      "contractAddress": "0x14c03ae4342aa2ed24235b3abfdd0c0aac118815",
      "function": "mint(address,string,uint256)",
      "arguments": [
        "0x204E8DEf7E6c467cEbCeBbC5c89ad86Bf3003FE3",
        "https://silver-tricky-trout-945.mypinata.cloud/ipfs/bafybeide72hl3dkhv2e5ibzrigb7ciqri4klzq2jp3gizcaecc3zheyxuy/Charmeleon.json",
        "10000000000000"
      ],
      "transaction": {
        "from": "0x204e8def7e6c467cebcebbc5c89ad86bf3003fe3",
        "to": "0x14c03ae4342aa2ed24235b3abfdd0c0aac118815",
        "gas": "0x4aef2",
        "value": "0x0",
        "input": "0xba7aef43000000000000000000000000204e8def7e6c467cebcebbc5c89ad86bf3003fe30000000000000000000000000000000000000000000000000000000000000060000000000000000000000000000000000000000000000000000009184e72a000000000000000000000000000000000000000000000000000000000000000007f68747470733a2f2f73696c7665722d747269636b792d74726f75742d3934352e6d7970696e6174612e636c6f75642f697066732f6261667962656964653732686c33646b687632653569627a72696762376369717269346b6c7a71326a703367697a6361656363337a6865797875792f436861726d656c656f6e2e6a736f6e00",
        "nonce": "0xa1",
        "chainId": "0xaa36a7"
      },
      "additionalContracts": [],
      "isFixedGasLimit": false
    },
    {
      "hash": "0x055b0f90916ba92bfe91d8bba5f0c526a809acad1b5147f7460cef2307e0a463",
      "transactionType": "CALL",
      "contractName": "Nft",
      "contractAddress": "0x14c03ae4342aa2ed24235b3abfdd0c0aac118815",
      "function": "approvalNFT(uint256)",
      "arguments": [
        "2"
      ],
      "transaction": {
        "from": "0x204e8def7e6c467cebcebbc5c89ad86bf3003fe3",
        "to": "0x14c03ae4342aa2ed24235b3abfdd0c0aac118815",
        "gas": "0x11101",
        "value": "0x0",
        "input": "0x661f20c10000000000000000000000000000000000000000000000000000000000000002",
        "nonce": "0xa2",
        "chainId": "0xaa36a7"
      },
      "additionalContracts": [],
      "isFixedGasLimit": false
    },
    {
      "hash": "0x35fd941c9fbb0c28380e351aad3b01f3af5037a181a38dc26a47c366f101cc1d",
      "transactionType": "CALL",
      "contractName": "Nft",
      "contractAddress": "0x14c03ae4342aa2ed24235b3abfdd0c0aac118815",
      "function": "mint(address,string,uint256)",
      "arguments": [
        "0x204E8DEf7E6c467cEbCeBbC5c89ad86Bf3003FE3",
        "https://silver-tricky-trout-945.mypinata.cloud/ipfs/bafybeide72hl3dkhv2e5ibzrigb7ciqri4klzq2jp3gizcaecc3zheyxuy/Charmeleon2.json",
        "10000000000000"
      ],
      "transaction": {
        "from": "0x204e8def7e6c467cebcebbc5c89ad86bf3003fe3",
        "to": "0x14c03ae4342aa2ed24235b3abfdd0c0aac118815",
        "gas": "0x4af36",
        "value": "0x0",
        "input": "0xba7aef43000000000000000000000000204e8def7e6c467cebcebbc5c89ad86bf3003fe30000000000000000000000000000000000000000000000000000000000000060000000000000000000000000000000000000000000000000000009184e72a000000000000000000000000000000000000000000000000000000000000000008068747470733a2f2f73696c7665722d747269636b792d74726f75742d3934352e6d7970696e6174612e636c6f75642f697066732f6261667962656964653732686c33646b687632653569627a72696762376369717269346b6c7a71326a703367697a6361656363337a6865797875792f436861726d656c656f6e322e6a736f6e",
        "nonce": "0xa3",
        "chainId": "0xaa36a7"
      },
      "additionalContracts": [],
      "isFixedGasLimit": false
    },
    {
      "hash": "0xd1f40dbe67b818b9a54acfba533195b7213e2cf03de925cf94b7b6a35c70ea23",
      "transactionType": "CALL",
      "contractName": "Nft",
      "contractAddress": "0x14c03ae4342aa2ed24235b3abfdd0c0aac118815",
      "function": "approvalNFT(uint256)",
      "arguments": [
        "3"
      ],
      "transaction": {
        "from": "0x204e8def7e6c467cebcebbc5c89ad86bf3003fe3",
        "to": "0x14c03ae4342aa2ed24235b3abfdd0c0aac118815",
        "gas": "0x11101",
        "value": "0x0",
        "input": "0x661f20c10000000000000000000000000000000000000000000000000000000000000003",
        "nonce": "0xa4",
        "chainId": "0xaa36a7"
      },
      "additionalContracts": [],
      "isFixedGasLimit": false
    },
    {
      "hash": "0x2412c103ea361767fc143bfa39c03c1cc8f41046730b9d04cca4fc9db2a28918",
      "transactionType": "CALL",
      "contractName": "Nft",
      "contractAddress": "0x14c03ae4342aa2ed24235b3abfdd0c0aac118815",
      "function": "mint(address,string,uint256)",
      "arguments": [
        "0x204E8DEf7E6c467cEbCeBbC5c89ad86Bf3003FE3",
        "https://silver-tricky-trout-945.mypinata.cloud/ipfs/bafybeide72hl3dkhv2e5ibzrigb7ciqri4klzq2jp3gizcaecc3zheyxuy/Desclops.json",
        "10000000000000"
      ],
      "transaction": {
        "from": "0x204e8def7e6c467cebcebbc5c89ad86bf3003fe3",
        "to": "0x14c03ae4342aa2ed24235b3abfdd0c0aac118815",
        "gas": "0x4aed0",
        "value": "0x0",
        "input": "0xba7aef43000000000000000000000000204e8def7e6c467cebcebbc5c89ad86bf3003fe30000000000000000000000000000000000000000000000000000000000000060000000000000000000000000000000000000000000000000000009184e72a000000000000000000000000000000000000000000000000000000000000000007d68747470733a2f2f73696c7665722d747269636b792d74726f75742d3934352e6d7970696e6174612e636c6f75642f697066732f6261667962656964653732686c33646b687632653569627a72696762376369717269346b6c7a71326a703367697a6361656363337a6865797875792f446573636c6f70732e6a736f6e000000",
        "nonce": "0xa5",
        "chainId": "0xaa36a7"
      },
      "additionalContracts": [],
      "isFixedGasLimit": false
    },
    {
      "hash": "0x3f20f70e10efa067261755efe30cbdc59a70883328deee5109d524def42c1d37",
      "transactionType": "CALL",
      "contractName": "Nft",
      "contractAddress": "0x14c03ae4342aa2ed24235b3abfdd0c0aac118815",
      "function": "approvalNFT(uint256)",
      "arguments": [
        "4"
      ],
      "transaction": {
        "from": "0x204e8def7e6c467cebcebbc5c89ad86bf3003fe3",
        "to": "0x14c03ae4342aa2ed24235b3abfdd0c0aac118815",
        "gas": "0x11101",
        "value": "0x0",
        "input": "0x661f20c10000000000000000000000000000000000000000000000000000000000000004",
        "nonce": "0xa6",
        "chainId": "0xaa36a7"
      },
      "additionalContracts": [],
      "isFixedGasLimit": false
    },
    {
      "hash": "0x54bd1e1753ec6cdee4d7ee6ffb3c30d98d130b73b3cd2489f1440fbc11c5d172",
      "transactionType": "CALL",
      "contractName": "Nft",
      "contractAddress": "0x14c03ae4342aa2ed24235b3abfdd0c0aac118815",
      "function": "mint(address,string,uint256)",
      "arguments": [
        "0x204E8DEf7E6c467cEbCeBbC5c89ad86Bf3003FE3",
        "https://silver-tricky-trout-945.mypinata.cloud/ipfs/bafybeide72hl3dkhv2e5ibzrigb7ciqri4klzq2jp3gizcaecc3zheyxuy/Dusknoir.json",
        "10000000000000"
      ],
      "transaction": {
        "from": "0x204e8def7e6c467cebcebbc5c89ad86bf3003fe3",
        "to": "0x14c03ae4342aa2ed24235b3abfdd0c0aac118815",
        "gas": "0x4aed0",
        "value": "0x0",
        "input": "0xba7aef43000000000000000000000000204e8def7e6c467cebcebbc5c89ad86bf3003fe30000000000000000000000000000000000000000000000000000000000000060000000000000000000000000000000000000000000000000000009184e72a000000000000000000000000000000000000000000000000000000000000000007d68747470733a2f2f73696c7665722d747269636b792d74726f75742d3934352e6d7970696e6174612e636c6f75642f697066732f6261667962656964653732686c33646b687632653569627a72696762376369717269346b6c7a71326a703367697a6361656363337a6865797875792f4475736b6e6f69722e6a736f6e000000",
        "nonce": "0xa7",
        "chainId": "0xaa36a7"
      },
      "additionalContracts": [],
      "isFixedGasLimit": false
    },
    {
      "hash": "0xe670727a2d154f9d945b61cd992daad73770a570763c1c9c8bd6455a596f9cc5",
      "transactionType": "CALL",
      "contractName": "Nft",
      "contractAddress": "0x14c03ae4342aa2ed24235b3abfdd0c0aac118815",
      "function": "approvalNFT(uint256)",
      "arguments": [
        "5"
      ],
      "transaction": {
        "from": "0x204e8def7e6c467cebcebbc5c89ad86bf3003fe3",
        "to": "0x14c03ae4342aa2ed24235b3abfdd0c0aac118815",
        "gas": "0x11101",
        "value": "0x0",
        "input": "0x661f20c10000000000000000000000000000000000000000000000000000000000000005",
        "nonce": "0xa8",
        "chainId": "0xaa36a7"
      },
      "additionalContracts": [],
      "isFixedGasLimit": false
    },
    {
      "hash": "0x0e83700ac9daf2c09ac7440bf058e0fdc179c95be48e76e048c549a5cc8450a6",
      "transactionType": "CALL",
      "contractName": "Nft",
      "contractAddress": "0x14c03ae4342aa2ed24235b3abfdd0c0aac118815",
      "function": "mint(address,string,uint256)",
      "arguments": [
        "0x204E8DEf7E6c467cEbCeBbC5c89ad86Bf3003FE3",
        "https://silver-tricky-trout-945.mypinata.cloud/ipfs/bafybeide72hl3dkhv2e5ibzrigb7ciqri4klzq2jp3gizcaecc3zheyxuy/Fezandipiti.json",
        "10000000000000"
      ],
      "transaction": {
        "from": "0x204e8def7e6c467cebcebbc5c89ad86bf3003fe3",
        "to": "0x14c03ae4342aa2ed24235b3abfdd0c0aac118815",
        "gas": "0x4af36",
        "value": "0x0",
        "input": "0xba7aef43000000000000000000000000204e8def7e6c467cebcebbc5c89ad86bf3003fe30000000000000000000000000000000000000000000000000000000000000060000000000000000000000000000000000000000000000000000009184e72a000000000000000000000000000000000000000000000000000000000000000008068747470733a2f2f73696c7665722d747269636b792d74726f75742d3934352e6d7970696e6174612e636c6f75642f697066732f6261667962656964653732686c33646b687632653569627a72696762376369717269346b6c7a71326a703367697a6361656363337a6865797875792f46657a616e6469706974692e6a736f6e",
        "nonce": "0xa9",
        "chainId": "0xaa36a7"
      },
      "additionalContracts": [],
      "isFixedGasLimit": false
    },
    {
      "hash": "0x217e2b233bed29c740fead7901bfa893654adfa4484ae76d9782017aa0af8198",
      "transactionType": "CALL",
      "contractName": "Nft",
      "contractAddress": "0x14c03ae4342aa2ed24235b3abfdd0c0aac118815",
      "function": "approvalNFT(uint256)",
      "arguments": [
        "6"
      ],
      "transaction": {
        "from": "0x204e8def7e6c467cebcebbc5c89ad86bf3003fe3",
        "to": "0x14c03ae4342aa2ed24235b3abfdd0c0aac118815",
        "gas": "0x11101",
        "value": "0x0",
        "input": "0x661f20c10000000000000000000000000000000000000000000000000000000000000006",
        "nonce": "0xaa",
        "chainId": "0xaa36a7"
      },
      "additionalContracts": [],
      "isFixedGasLimit": false
    },
    {
      "hash": "0xeeeb21dae5de6961c46f99656cd17778beb6867621c074acf177f9ed6472a5ed",
      "transactionType": "CALL",
      "contractName": "Nft",
      "contractAddress": "0x14c03ae4342aa2ed24235b3abfdd0c0aac118815",
      "function": "mint(address,string,uint256)",
      "arguments": [
        "0x204E8DEf7E6c467cEbCeBbC5c89ad86Bf3003FE3",
        "https://silver-tricky-trout-945.mypinata.cloud/ipfs/bafybeide72hl3dkhv2e5ibzrigb7ciqri4klzq2jp3gizcaecc3zheyxuy/Froakie.json",
        "10000000000000"
      ],
      "transaction": {
        "from": "0x204e8def7e6c467cebcebbc5c89ad86bf3003fe3",
        "to": "0x14c03ae4342aa2ed24235b3abfdd0c0aac118815",
        "gas": "0x4aec0",
        "value": "0x0",
        "input": "0xba7aef43000000000000000000000000204e8def7e6c467cebcebbc5c89ad86bf3003fe30000000000000000000000000000000000000000000000000000000000000060000000000000000000000000000000000000000000000000000009184e72a000000000000000000000000000000000000000000000000000000000000000007c68747470733a2f2f73696c7665722d747269636b792d74726f75742d3934352e6d7970696e6174612e636c6f75642f697066732f6261667962656964653732686c33646b687632653569627a72696762376369717269346b6c7a71326a703367697a6361656363337a6865797875792f46726f616b69652e6a736f6e00000000",
        "nonce": "0xab",
        "chainId": "0xaa36a7"
      },
      "additionalContracts": [],
      "isFixedGasLimit": false
    },
    {
      "hash": "0x4b3f43b66076296676a052ef16dbb0f1319c56ff582e4d2fc2d8cdbe5b61a885",
      "transactionType": "CALL",
      "contractName": "Nft",
      "contractAddress": "0x14c03ae4342aa2ed24235b3abfdd0c0aac118815",
      "function": "approvalNFT(uint256)",
      "arguments": [
        "7"
      ],
      "transaction": {
        "from": "0x204e8def7e6c467cebcebbc5c89ad86bf3003fe3",
        "to": "0x14c03ae4342aa2ed24235b3abfdd0c0aac118815",
        "gas": "0x11101",
        "value": "0x0",
        "input": "0x661f20c10000000000000000000000000000000000000000000000000000000000000007",
        "nonce": "0xac",
        "chainId": "0xaa36a7"
      },
      "additionalContracts": [],
      "isFixedGasLimit": false
    },
    {
      "hash": "0x26b8facaf6e2e4777d18b91c2a5c6b218291b9301cc90376405a7cba98bc0d53",
      "transactionType": "CALL",
      "contractName": "Nft",
      "contractAddress": "0x14c03ae4342aa2ed24235b3abfdd0c0aac118815",
      "function": "mint(address,string,uint256)",
      "arguments": [
        "0x204E8DEf7E6c467cEbCeBbC5c89ad86Bf3003FE3",
        "https://silver-tricky-trout-945.mypinata.cloud/ipfs/bafybeide72hl3dkhv2e5ibzrigb7ciqri4klzq2jp3gizcaecc3zheyxuy/Frogadier.json",
        "10000000000000"
      ],
      "transaction": {
        "from": "0x204e8def7e6c467cebcebbc5c89ad86bf3003fe3",
        "to": "0x14c03ae4342aa2ed24235b3abfdd0c0aac118815",
        "gas": "0x4aee1",
        "value": "0x0",
        "input": "0xba7aef43000000000000000000000000204e8def7e6c467cebcebbc5c89ad86bf3003fe30000000000000000000000000000000000000000000000000000000000000060000000000000000000000000000000000000000000000000000009184e72a000000000000000000000000000000000000000000000000000000000000000007e68747470733a2f2f73696c7665722d747269636b792d74726f75742d3934352e6d7970696e6174612e636c6f75642f697066732f6261667962656964653732686c33646b687632653569627a72696762376369717269346b6c7a71326a703367697a6361656363337a6865797875792f46726f6761646965722e6a736f6e0000",
        "nonce": "0xad",
        "chainId": "0xaa36a7"
      },
      "additionalContracts": [],
      "isFixedGasLimit": false
    },
    {
      "hash": "0xbdc66b45bac860e03f6365adc1c627c193b89b555d46c2959bc5d5ae0397f533",
      "transactionType": "CALL",
      "contractName": "Nft",
      "contractAddress": "0x14c03ae4342aa2ed24235b3abfdd0c0aac118815",
      "function": "approvalNFT(uint256)",
      "arguments": [
        "8"
      ],
      "transaction": {
        "from": "0x204e8def7e6c467cebcebbc5c89ad86bf3003fe3",
        "to": "0x14c03ae4342aa2ed24235b3abfdd0c0aac118815",
        "gas": "0x11101",
        "value": "0x0",
        "input": "0x661f20c10000000000000000000000000000000000000000000000000000000000000008",
        "nonce": "0xae",
        "chainId": "0xaa36a7"
      },
      "additionalContracts": [],
      "isFixedGasLimit": false
    },
    {
      "hash": "0x87f7d407264c4320258d0b9dc911ddeb53808bddcc2785bcf09d03baa11977aa",
      "transactionType": "CALL",
      "contractName": "Nft",
      "contractAddress": "0x14c03ae4342aa2ed24235b3abfdd0c0aac118815",
      "function": "mint(address,string,uint256)",
      "arguments": [
        "0x204E8DEf7E6c467cEbCeBbC5c89ad86Bf3003FE3",
        "https://silver-tricky-trout-945.mypinata.cloud/ipfs/bafybeide72hl3dkhv2e5ibzrigb7ciqri4klzq2jp3gizcaecc3zheyxuy/Greninja.json",
        "10000000000000"
      ],
      "transaction": {
        "from": "0x204e8def7e6c467cebcebbc5c89ad86bf3003fe3",
        "to": "0x14c03ae4342aa2ed24235b3abfdd0c0aac118815",
        "gas": "0x4aed0",
        "value": "0x0",
        "input": "0xba7aef43000000000000000000000000204e8def7e6c467cebcebbc5c89ad86bf3003fe30000000000000000000000000000000000000000000000000000000000000060000000000000000000000000000000000000000000000000000009184e72a000000000000000000000000000000000000000000000000000000000000000007d68747470733a2f2f73696c7665722d747269636b792d74726f75742d3934352e6d7970696e6174612e636c6f75642f697066732f6261667962656964653732686c33646b687632653569627a72696762376369717269346b6c7a71326a703367697a6361656363337a6865797875792f4772656e696e6a612e6a736f6e000000",
        "nonce": "0xaf",
        "chainId": "0xaa36a7"
      },
      "additionalContracts": [],
      "isFixedGasLimit": false
    },
    {
      "hash": "0x4ff4b7095cc48318dc15f017950980c129ba33fd92f566a3847f58b3e58e9f46",
      "transactionType": "CALL",
      "contractName": "Nft",
      "contractAddress": "0x14c03ae4342aa2ed24235b3abfdd0c0aac118815",
      "function": "approvalNFT(uint256)",
      "arguments": [
        "9"
      ],
      "transaction": {
        "from": "0x204e8def7e6c467cebcebbc5c89ad86bf3003fe3",
        "to": "0x14c03ae4342aa2ed24235b3abfdd0c0aac118815",
        "gas": "0x11101",
        "value": "0x0",
        "input": "0x661f20c10000000000000000000000000000000000000000000000000000000000000009",
        "nonce": "0xb0",
        "chainId": "0xaa36a7"
      },
      "additionalContracts": [],
      "isFixedGasLimit": false
    },
    {
      "hash": "0x218dbc23ba3e30774f6a57f5e0ecae2b262d2c90dcaf89f7dc8e476ac40b803d",
      "transactionType": "CALL",
      "contractName": "Nft",
      "contractAddress": "0x14c03ae4342aa2ed24235b3abfdd0c0aac118815",
      "function": "mint(address,string,uint256)",
      "arguments": [
        "0x204E8DEf7E6c467cEbCeBbC5c89ad86Bf3003FE3",
        "https://silver-tricky-trout-945.mypinata.cloud/ipfs/bafybeide72hl3dkhv2e5ibzrigb7ciqri4klzq2jp3gizcaecc3zheyxuy/Mew.json",
        "10000000000000"
      ],
      "transaction": {
        "from": "0x204e8def7e6c467cebcebbc5c89ad86bf3003fe3",
        "to": "0x14c03ae4342aa2ed24235b3abfdd0c0aac118815",
        "gas": "0x4ae7e",
        "value": "0x0",
        "input": "0xba7aef43000000000000000000000000204e8def7e6c467cebcebbc5c89ad86bf3003fe30000000000000000000000000000000000000000000000000000000000000060000000000000000000000000000000000000000000000000000009184e72a000000000000000000000000000000000000000000000000000000000000000007868747470733a2f2f73696c7665722d747269636b792d74726f75742d3934352e6d7970696e6174612e636c6f75642f697066732f6261667962656964653732686c33646b687632653569627a72696762376369717269346b6c7a71326a703367697a6361656363337a6865797875792f4d65772e6a736f6e0000000000000000",
        "nonce": "0xb1",
        "chainId": "0xaa36a7"
      },
      "additionalContracts": [],
      "isFixedGasLimit": false
    },
    {
      "hash": "0x2ffcef6efc69e009dbb181013dedc0a2f410de2f08f60a08ca7277c1d4576c72",
      "transactionType": "CALL",
      "contractName": "Nft",
      "contractAddress": "0x14c03ae4342aa2ed24235b3abfdd0c0aac118815",
      "function": "approvalNFT(uint256)",
      "arguments": [
        "10"
      ],
      "transaction": {
        "from": "0x204e8def7e6c467cebcebbc5c89ad86bf3003fe3",
        "to": "0x14c03ae4342aa2ed24235b3abfdd0c0aac118815",
        "gas": "0x11101",
        "value": "0x0",
        "input": "0x661f20c1000000000000000000000000000000000000000000000000000000000000000a",
        "nonce": "0xb2",
        "chainId": "0xaa36a7"
      },
      "additionalContracts": [],
      "isFixedGasLimit": false
    },
    {
      "hash": "0xab19fb821b8bd821afa5287073d1a3fec9e7f4c682443948a9e9db36c149ac16",
      "transactionType": "CALL",
      "contractName": "Nft",
      "contractAddress": "0x14c03ae4342aa2ed24235b3abfdd0c0aac118815",
      "function": "mint(address,string,uint256)",
      "arguments": [
        "0x204E8DEf7E6c467cEbCeBbC5c89ad86Bf3003FE3",
        "https://silver-tricky-trout-945.mypinata.cloud/ipfs/bafybeide72hl3dkhv2e5ibzrigb7ciqri4klzq2jp3gizcaecc3zheyxuy/Pikachu.json",
        "10000000000000"
      ],
      "transaction": {
        "from": "0x204e8def7e6c467cebcebbc5c89ad86bf3003fe3",
        "to": "0x14c03ae4342aa2ed24235b3abfdd0c0aac118815",
        "gas": "0x4aec0",
        "value": "0x0",
        "input": "0xba7aef43000000000000000000000000204e8def7e6c467cebcebbc5c89ad86bf3003fe30000000000000000000000000000000000000000000000000000000000000060000000000000000000000000000000000000000000000000000009184e72a000000000000000000000000000000000000000000000000000000000000000007c68747470733a2f2f73696c7665722d747269636b792d74726f75742d3934352e6d7970696e6174612e636c6f75642f697066732f6261667962656964653732686c33646b687632653569627a72696762376369717269346b6c7a71326a703367697a6361656363337a6865797875792f50696b616368752e6a736f6e00000000",
        "nonce": "0xb3",
        "chainId": "0xaa36a7"
      },
      "additionalContracts": [],
      "isFixedGasLimit": false
    },
    {
      "hash": "0x26a97f8cdf7c260ad76b547def3b068fb5c2f607adad79de8c9713613379c8c9",
      "transactionType": "CALL",
      "contractName": "Nft",
      "contractAddress": "0x14c03ae4342aa2ed24235b3abfdd0c0aac118815",
      "function": "approvalNFT(uint256)",
      "arguments": [
        "11"
      ],
      "transaction": {
        "from": "0x204e8def7e6c467cebcebbc5c89ad86bf3003fe3",
        "to": "0x14c03ae4342aa2ed24235b3abfdd0c0aac118815",
        "gas": "0x11101",
        "value": "0x0",
        "input": "0x661f20c1000000000000000000000000000000000000000000000000000000000000000b",
        "nonce": "0xb4",
        "chainId": "0xaa36a7"
      },
      "additionalContracts": [],
      "isFixedGasLimit": false
    },
    {
      "hash": "0xdfeae3b93b20d95c6a8f5765e08e8adef4ec7f28013a5937135bf30bfe33217e",
      "transactionType": "CALL",
      "contractName": "Nft",
      "contractAddress": "0x14c03ae4342aa2ed24235b3abfdd0c0aac118815",
      "function": "mint(address,string,uint256)",
      "arguments": [
        "0x204E8DEf7E6c467cEbCeBbC5c89ad86Bf3003FE3",
        "https://silver-tricky-trout-945.mypinata.cloud/ipfs/bafybeide72hl3dkhv2e5ibzrigb7ciqri4klzq2jp3gizcaecc3zheyxuy/Pikachu2.json",
        "10000000000000"
      ],
      "transaction": {
        "from": "0x204e8def7e6c467cebcebbc5c89ad86bf3003fe3",
        "to": "0x14c03ae4342aa2ed24235b3abfdd0c0aac118815",
        "gas": "0x4aed0",
        "value": "0x0",
        "input": "0xba7aef43000000000000000000000000204e8def7e6c467cebcebbc5c89ad86bf3003fe30000000000000000000000000000000000000000000000000000000000000060000000000000000000000000000000000000000000000000000009184e72a000000000000000000000000000000000000000000000000000000000000000007d68747470733a2f2f73696c7665722d747269636b792d74726f75742d3934352e6d7970696e6174612e636c6f75642f697066732f6261667962656964653732686c33646b687632653569627a72696762376369717269346b6c7a71326a703367697a6361656363337a6865797875792f50696b61636875322e6a736f6e000000",
        "nonce": "0xb5",
        "chainId": "0xaa36a7"
      },
      "additionalContracts": [],
      "isFixedGasLimit": false
    },
    {
      "hash": "0x3ef5bf5b8fcfcd97695f82fde275c85fb91a615688f8991a3dfa7375361bf2c9",
      "transactionType": "CALL",
      "contractName": "Nft",
      "contractAddress": "0x14c03ae4342aa2ed24235b3abfdd0c0aac118815",
      "function": "approvalNFT(uint256)",
      "arguments": [
        "12"
      ],
      "transaction": {
        "from": "0x204e8def7e6c467cebcebbc5c89ad86bf3003fe3",
        "to": "0x14c03ae4342aa2ed24235b3abfdd0c0aac118815",
        "gas": "0x11101",
        "value": "0x0",
        "input": "0x661f20c1000000000000000000000000000000000000000000000000000000000000000c",
        "nonce": "0xb6",
        "chainId": "0xaa36a7"
      },
      "additionalContracts": [],
      "isFixedGasLimit": false
    },
    {
      "hash": "0xccc086a2357763746b86bb193cef8f10caf9989b4c2f2d6082a3529db2732670",
      "transactionType": "CALL",
      "contractName": "Nft",
      "contractAddress": "0x14c03ae4342aa2ed24235b3abfdd0c0aac118815",
      "function": "mint(address,string,uint256)",
      "arguments": [
        "0x204E8DEf7E6c467cEbCeBbC5c89ad86Bf3003FE3",
        "https://silver-tricky-trout-945.mypinata.cloud/ipfs/bafybeide72hl3dkhv2e5ibzrigb7ciqri4klzq2jp3gizcaecc3zheyxuy/Raichu.json",
        "10000000000000"
      ],
      "transaction": {
        "from": "0x204e8def7e6c467cebcebbc5c89ad86bf3003fe3",
        "to": "0x14c03ae4342aa2ed24235b3abfdd0c0aac118815",
        "gas": "0x4aeaf",
        "value": "0x0",
        "input": "0xba7aef43000000000000000000000000204e8def7e6c467cebcebbc5c89ad86bf3003fe30000000000000000000000000000000000000000000000000000000000000060000000000000000000000000000000000000000000000000000009184e72a000000000000000000000000000000000000000000000000000000000000000007b68747470733a2f2f73696c7665722d747269636b792d74726f75742d3934352e6d7970696e6174612e636c6f75642f697066732f6261667962656964653732686c33646b687632653569627a72696762376369717269346b6c7a71326a703367697a6361656363337a6865797875792f5261696368752e6a736f6e0000000000",
        "nonce": "0xb7",
        "chainId": "0xaa36a7"
      },
      "additionalContracts": [],
      "isFixedGasLimit": false
    },
    {
      "hash": "0xa6487c5ffc7469b8c8c7fbdbccaffc46f26fde9b00cf6582fc1b0e8546bf7407",
      "transactionType": "CALL",
      "contractName": "Nft",
      "contractAddress": "0x14c03ae4342aa2ed24235b3abfdd0c0aac118815",
      "function": "approvalNFT(uint256)",
      "arguments": [
        "13"
      ],
      "transaction": {
        "from": "0x204e8def7e6c467cebcebbc5c89ad86bf3003fe3",
        "to": "0x14c03ae4342aa2ed24235b3abfdd0c0aac118815",
        "gas": "0x11101",
        "value": "0x0",
        "input": "0x661f20c1000000000000000000000000000000000000000000000000000000000000000d",
        "nonce": "0xb8",
        "chainId": "0xaa36a7"
      },
      "additionalContracts": [],
      "isFixedGasLimit": false
    },
    {
      "hash": "0x8d7b052cde11323c97399015d51d90e499809eaacfaf423c0789fb537f7e6690",
      "transactionType": "CALL",
      "contractName": "Nft",
      "contractAddress": "0x14c03ae4342aa2ed24235b3abfdd0c0aac118815",
      "function": "mint(address,string,uint256)",
      "arguments": [
        "0x204E8DEf7E6c467cEbCeBbC5c89ad86Bf3003FE3",
        "https://silver-tricky-trout-945.mypinata.cloud/ipfs/bafybeide72hl3dkhv2e5ibzrigb7ciqri4klzq2jp3gizcaecc3zheyxuy/Raichu2.json",
        "10000000000000"
      ],
      "transaction": {
        "from": "0x204e8def7e6c467cebcebbc5c89ad86bf3003fe3",
        "to": "0x14c03ae4342aa2ed24235b3abfdd0c0aac118815",
        "gas": "0x4aec0",
        "value": "0x0",
        "input": "0xba7aef43000000000000000000000000204e8def7e6c467cebcebbc5c89ad86bf3003fe30000000000000000000000000000000000000000000000000000000000000060000000000000000000000000000000000000000000000000000009184e72a000000000000000000000000000000000000000000000000000000000000000007c68747470733a2f2f73696c7665722d747269636b792d74726f75742d3934352e6d7970696e6174612e636c6f75642f697066732f6261667962656964653732686c33646b687632653569627a72696762376369717269346b6c7a71326a703367697a6361656363337a6865797875792f526169636875322e6a736f6e00000000",
        "nonce": "0xb9",
        "chainId": "0xaa36a7"
      },
      "additionalContracts": [],
      "isFixedGasLimit": false
    },
    {
      "hash": "0x5b2ec269e36b9d174be8f6af702062a2c6b2e7dde92f6515eeeaec91929a6830",
      "transactionType": "CALL",
      "contractName": "Nft",
      "contractAddress": "0x14c03ae4342aa2ed24235b3abfdd0c0aac118815",
      "function": "approvalNFT(uint256)",
      "arguments": [
        "14"
      ],
      "transaction": {
        "from": "0x204e8def7e6c467cebcebbc5c89ad86bf3003fe3",
        "to": "0x14c03ae4342aa2ed24235b3abfdd0c0aac118815",
        "gas": "0x11101",
        "value": "0x0",
        "input": "0x661f20c1000000000000000000000000000000000000000000000000000000000000000e",
        "nonce": "0xba",
        "chainId": "0xaa36a7"
      },
      "additionalContracts": [],
      "isFixedGasLimit": false
    }
  ],
  "receipts": [
    {
      "status": "0x1",
      "cumulativeGasUsed": "0xd4c9af",
      "logs": [
        {
          "address": "0x14c03ae4342aa2ed24235b3abfdd0c0aac118815",
          "topics": [
            "0x8be0079c531659141344cd1fd0a4f28419497f9722a3daafe3b4186f6b6457e0",
            "0x0000000000000000000000000000000000000000000000000000000000000000",
            "0x000000000000000000000000204e8def7e6c467cebcebbc5c89ad86bf3003fe3"
          ],
          "data": "0x",
          "blockHash": "0xb54c3e9ea6647e9c7fe7f0c0acb27894d5769ebfaf95ba217ad96e21da04c6f1",
          "blockNumber": "0x768ca2",
          "transactionHash": "0x746103f36ba4add255143dff7d8b4135d54d3454423cc192af1ae7df49b0dcb5",
          "transactionIndex": "0xb8",
          "logIndex": "0xb2",
          "removed": false
        }
      ],
      "logsBloom": "0x00002000000000000000000000000000000000000000000000800000000000000000000000000000000000000000000000000000000000000000000000000000000000000000000000000000000000000001000040000000000000000000000000000000020000000000000000000800000000000000000000000000000000400000000000000000000000200000000000000000000000000000000000000000000000000000040000000000000000000000000000000000080000000000000000000000000000000000000000000000000000000000000000000000000020000000000000000000000000000000000000000040000000000000000000000000",
      "type": "0x2",
      "transactionHash": "0x746103f36ba4add255143dff7d8b4135d54d3454423cc192af1ae7df49b0dcb5",
      "transactionIndex": "0xb8",
      "blockHash": "0xb54c3e9ea6647e9c7fe7f0c0acb27894d5769ebfaf95ba217ad96e21da04c6f1",
      "blockNumber": "0x768ca2",
      "gasUsed": "0x1cd924",
      "effectiveGasPrice": "0x10ab53c3f",
      "from": "0x204e8def7e6c467cebcebbc5c89ad86bf3003fe3",
      "to": null,
      "contractAddress": "0x14c03ae4342aa2ed24235b3abfdd0c0aac118815"
    },
    {
      "status": "0x1",
      "cumulativeGasUsed": "0xd8b34b",
      "logs": [
        {
          "address": "0x14c03ae4342aa2ed24235b3abfdd0c0aac118815",
          "topics": [
            "0xddf252ad1be2c89b69c2b068fc378daa952ba7f163c4a11628f55a4df523b3ef",
            "0x0000000000000000000000000000000000000000000000000000000000000000",
            "0x000000000000000000000000204e8def7e6c467cebcebbc5c89ad86bf3003fe3",
            "0x0000000000000000000000000000000000000000000000000000000000000001"
          ],
          "data": "0x",
          "blockHash": "0xb54c3e9ea6647e9c7fe7f0c0acb27894d5769ebfaf95ba217ad96e21da04c6f1",
          "blockNumber": "0x768ca2",
          "transactionHash": "0xacd56d6b8e3775d6e89c17280544b0e86ad5f55cf3509dd42f391aff35c9a6d7",
          "transactionIndex": "0xb9",
          "logIndex": "0xb3",
          "removed": false
        },
        {
          "address": "0x14c03ae4342aa2ed24235b3abfdd0c0aac118815",
          "topics": [
            "0xf8e1a15aba9398e019f0b49df1a4fde98ee17ae345cb5f6b5e2c27f5033e8ce7"
          ],
          "data": "0x0000000000000000000000000000000000000000000000000000000000000001",
          "blockHash": "0xb54c3e9ea6647e9c7fe7f0c0acb27894d5769ebfaf95ba217ad96e21da04c6f1",
          "blockNumber": "0x768ca2",
          "transactionHash": "0xacd56d6b8e3775d6e89c17280544b0e86ad5f55cf3509dd42f391aff35c9a6d7",
          "transactionIndex": "0xb9",
          "logIndex": "0xb4",
          "removed": false
        },
        {
          "address": "0x14c03ae4342aa2ed24235b3abfdd0c0aac118815",
          "topics": [
            "0x684f6795945805272d5839a7063f5e0a3b6dd64bdb3976749763ec2fea161778",
            "0x0000000000000000000000000000000000000000000000000000000000000001",
            "0x000000000000000000000000204e8def7e6c467cebcebbc5c89ad86bf3003fe3"
          ],
          "data": "0x0000000000000000000000000000000000000000000000000000000000000040000000000000000000000000000000000000000000000000000009184e72a000000000000000000000000000000000000000000000000000000000000000007f68747470733a2f2f73696c7665722d747269636b792d74726f75742d3934352e6d7970696e6174612e636c6f75642f697066732f6261667962656964653732686c33646b687632653569627a72696762376369717269346b6c7a71326a703367697a6361656363337a6865797875792f436861726d616e6465722e6a736f6e00",
          "blockHash": "0xb54c3e9ea6647e9c7fe7f0c0acb27894d5769ebfaf95ba217ad96e21da04c6f1",
          "blockNumber": "0x768ca2",
          "transactionHash": "0xacd56d6b8e3775d6e89c17280544b0e86ad5f55cf3509dd42f391aff35c9a6d7",
          "transactionIndex": "0xb9",
          "logIndex": "0xb5",
          "removed": false
        }
      ],
      "logsBloom": "0x00002000000000000000000000000000000000000000000000000000000000000000000000000000000000000000000000000000000000000000000000040000000000000000000000010008000000000000000040040000000000000000000000000000020000000001000000000800000000000000000000200010000000000000000000000000000000200000000000000000000000000000000000000000000000000000040000000000000000002000000000000000080000000000008000000002000000000000000000000000000000000000000000000000000060000000000000000000200000000000000000000040000000000000000000000000",
      "type": "0x2",
      "transactionHash": "0xacd56d6b8e3775d6e89c17280544b0e86ad5f55cf3509dd42f391aff35c9a6d7",
      "transactionIndex": "0xb9",
      "blockHash": "0xb54c3e9ea6647e9c7fe7f0c0acb27894d5769ebfaf95ba217ad96e21da04c6f1",
      "blockNumber": "0x768ca2",
      "gasUsed": "0x3e99c",
      "effectiveGasPrice": "0x10ab53c3f",
      "from": "0x204e8def7e6c467cebcebbc5c89ad86bf3003fe3",
      "to": "0x14c03ae4342aa2ed24235b3abfdd0c0aac118815",
      "contractAddress": null
    },
    {
      "status": "0x1",
      "cumulativeGasUsed": "0xd978f2",
      "logs": [
        {
          "address": "0x14c03ae4342aa2ed24235b3abfdd0c0aac118815",
          "topics": [
            "0x8c5be1e5ebec7d5bd14f71427d1e84f3dd0314c0f7b2291e5b200ac8c7c3b925",
            "0x000000000000000000000000204e8def7e6c467cebcebbc5c89ad86bf3003fe3",
            "0x00000000000000000000000014c03ae4342aa2ed24235b3abfdd0c0aac118815",
            "0x0000000000000000000000000000000000000000000000000000000000000001"
          ],
          "data": "0x",
          "blockHash": "0xb54c3e9ea6647e9c7fe7f0c0acb27894d5769ebfaf95ba217ad96e21da04c6f1",
          "blockNumber": "0x768ca2",
          "transactionHash": "0x9d54900f0f79d6e40ebfe64c9ac55417d3f9fa3e1b5aa6d5c03cd1c14047ec98",
          "transactionIndex": "0xba",
          "logIndex": "0xb6",
          "removed": false
        },
        {
          "address": "0x14c03ae4342aa2ed24235b3abfdd0c0aac118815",
          "topics": [
            "0xdeee21db6a55c8eecf477d3301bcad831b184340f28656006a166316933b23e1",
            "0x0000000000000000000000000000000000000000000000000000000000000001",
            "0x000000000000000000000000204e8def7e6c467cebcebbc5c89ad86bf3003fe3"
          ],
          "data": "0x",
          "blockHash": "0xb54c3e9ea6647e9c7fe7f0c0acb27894d5769ebfaf95ba217ad96e21da04c6f1",
          "blockNumber": "0x768ca2",
          "transactionHash": "0x9d54900f0f79d6e40ebfe64c9ac55417d3f9fa3e1b5aa6d5c03cd1c14047ec98",
          "transactionIndex": "0xba",
          "logIndex": "0xb7",
          "removed": false
        }
      ],
      "logsBloom": "0x00002000000000000000000000000000000000004000000000000000000000000000000010000000000000000000000000000000000000000000000000240000000000000000000000000000000000000000000040040000000000000000000000000000000000000008000000000000000000000004000000000000000000000000000000000000000000200000000000000000000000000000000000000000020000000000040000000000000000000000000000000000080000000000000000000028000000000000000000000000000000000000000000000000000040000010000000000000000000000000000000000040000000000000000000000000",
      "type": "0x2",
      "transactionHash": "0x9d54900f0f79d6e40ebfe64c9ac55417d3f9fa3e1b5aa6d5c03cd1c14047ec98",
      "transactionIndex": "0xba",
      "blockHash": "0xb54c3e9ea6647e9c7fe7f0c0acb27894d5769ebfaf95ba217ad96e21da04c6f1",
      "blockNumber": "0x768ca2",
      "gasUsed": "0xc5a7",
      "effectiveGasPrice": "0x10ab53c3f",
      "from": "0x204e8def7e6c467cebcebbc5c89ad86bf3003fe3",
      "to": "0x14c03ae4342aa2ed24235b3abfdd0c0aac118815",
      "contractAddress": null
    },
    {
      "status": "0x1",
      "cumulativeGasUsed": "0xdcdcf6",
      "logs": [
        {
          "address": "0x14c03ae4342aa2ed24235b3abfdd0c0aac118815",
          "topics": [
            "0xddf252ad1be2c89b69c2b068fc378daa952ba7f163c4a11628f55a4df523b3ef",
            "0x0000000000000000000000000000000000000000000000000000000000000000",
            "0x000000000000000000000000204e8def7e6c467cebcebbc5c89ad86bf3003fe3",
            "0x0000000000000000000000000000000000000000000000000000000000000002"
          ],
          "data": "0x",
          "blockHash": "0xb54c3e9ea6647e9c7fe7f0c0acb27894d5769ebfaf95ba217ad96e21da04c6f1",
          "blockNumber": "0x768ca2",
          "transactionHash": "0x7da2027581e48cd369f78960d4b6e8514562048a1be1e42a927ea9ebc02b9186",
          "transactionIndex": "0xbb",
          "logIndex": "0xb8",
          "removed": false
        },
        {
          "address": "0x14c03ae4342aa2ed24235b3abfdd0c0aac118815",
          "topics": [
            "0xf8e1a15aba9398e019f0b49df1a4fde98ee17ae345cb5f6b5e2c27f5033e8ce7"
          ],
          "data": "0x0000000000000000000000000000000000000000000000000000000000000002",
          "blockHash": "0xb54c3e9ea6647e9c7fe7f0c0acb27894d5769ebfaf95ba217ad96e21da04c6f1",
          "blockNumber": "0x768ca2",
          "transactionHash": "0x7da2027581e48cd369f78960d4b6e8514562048a1be1e42a927ea9ebc02b9186",
          "transactionIndex": "0xbb",
          "logIndex": "0xb9",
          "removed": false
        },
        {
          "address": "0x14c03ae4342aa2ed24235b3abfdd0c0aac118815",
          "topics": [
            "0x684f6795945805272d5839a7063f5e0a3b6dd64bdb3976749763ec2fea161778",
            "0x0000000000000000000000000000000000000000000000000000000000000002",
            "0x000000000000000000000000204e8def7e6c467cebcebbc5c89ad86bf3003fe3"
          ],
          "data": "0x0000000000000000000000000000000000000000000000000000000000000040000000000000000000000000000000000000000000000000000009184e72a000000000000000000000000000000000000000000000000000000000000000007f68747470733a2f2f73696c7665722d747269636b792d74726f75742d3934352e6d7970696e6174612e636c6f75642f697066732f6261667962656964653732686c33646b687632653569627a72696762376369717269346b6c7a71326a703367697a6361656363337a6865797875792f436861726d656c656f6e2e6a736f6e00",
          "blockHash": "0xb54c3e9ea6647e9c7fe7f0c0acb27894d5769ebfaf95ba217ad96e21da04c6f1",
          "blockNumber": "0x768ca2",
          "transactionHash": "0x7da2027581e48cd369f78960d4b6e8514562048a1be1e42a927ea9ebc02b9186",
          "transactionIndex": "0xbb",
          "logIndex": "0xba",
          "removed": false
        }
      ],
      "logsBloom": "0x04002000000000000000000000000000000000000000000000000000000000000000000000000000000000000000000000000000000000000000000000000000000000000000000000010008000000000000000040000000000000000000000000000000020000000001000000000800000000000000000000200010000000000000000000000000000000200000000000000000000000000000000000000000000000000000040000000100000000002000000000000000080000000000008000000002000000000000000000000000000000000000000000000000000020000000000000000000200000000000000000000040008000000000000000000000",
      "type": "0x2",
      "transactionHash": "0x7da2027581e48cd369f78960d4b6e8514562048a1be1e42a927ea9ebc02b9186",
      "transactionIndex": "0xbb",
      "blockHash": "0xb54c3e9ea6647e9c7fe7f0c0acb27894d5769ebfaf95ba217ad96e21da04c6f1",
      "blockNumber": "0x768ca2",
      "gasUsed": "0x36404",
      "effectiveGasPrice": "0x10ab53c3f",
      "from": "0x204e8def7e6c467cebcebbc5c89ad86bf3003fe3",
      "to": "0x14c03ae4342aa2ed24235b3abfdd0c0aac118815",
      "contractAddress": null
    },
    {
      "status": "0x1",
      "cumulativeGasUsed": "0xdda29d",
      "logs": [
        {
          "address": "0x14c03ae4342aa2ed24235b3abfdd0c0aac118815",
          "topics": [
            "0x8c5be1e5ebec7d5bd14f71427d1e84f3dd0314c0f7b2291e5b200ac8c7c3b925",
            "0x000000000000000000000000204e8def7e6c467cebcebbc5c89ad86bf3003fe3",
            "0x00000000000000000000000014c03ae4342aa2ed24235b3abfdd0c0aac118815",
            "0x0000000000000000000000000000000000000000000000000000000000000002"
          ],
          "data": "0x",
          "blockHash": "0xb54c3e9ea6647e9c7fe7f0c0acb27894d5769ebfaf95ba217ad96e21da04c6f1",
          "blockNumber": "0x768ca2",
          "transactionHash": "0x055b0f90916ba92bfe91d8bba5f0c526a809acad1b5147f7460cef2307e0a463",
          "transactionIndex": "0xbc",
          "logIndex": "0xbb",
          "removed": false
        },
        {
          "address": "0x14c03ae4342aa2ed24235b3abfdd0c0aac118815",
          "topics": [
            "0xdeee21db6a55c8eecf477d3301bcad831b184340f28656006a166316933b23e1",
            "0x0000000000000000000000000000000000000000000000000000000000000002",
            "0x000000000000000000000000204e8def7e6c467cebcebbc5c89ad86bf3003fe3"
          ],
          "data": "0x",
          "blockHash": "0xb54c3e9ea6647e9c7fe7f0c0acb27894d5769ebfaf95ba217ad96e21da04c6f1",
          "blockNumber": "0x768ca2",
          "transactionHash": "0x055b0f90916ba92bfe91d8bba5f0c526a809acad1b5147f7460cef2307e0a463",
          "transactionIndex": "0xbc",
          "logIndex": "0xbc",
          "removed": false
        }
      ],
      "logsBloom": "0x04002000000000000000000000000000000000004000000000000000000000000000000010000000000000000000000000000000000000000000000000200000000000000000000000000000000000000000000040000000000000000000000000000000000000000008000000000000000000000004000000000000000000000000000000000000000000200000000000000000000000000000000000000000020000000000040000000100000000000000000000000000080000000000000000000028000000000000000000000000000000000000000000000000000000000010000000000000000000000000000000000040008000000000000000000000",
      "type": "0x2",
      "transactionHash": "0x055b0f90916ba92bfe91d8bba5f0c526a809acad1b5147f7460cef2307e0a463",
      "transactionIndex": "0xbc",
      "blockHash": "0xb54c3e9ea6647e9c7fe7f0c0acb27894d5769ebfaf95ba217ad96e21da04c6f1",
      "blockNumber": "0x768ca2",
      "gasUsed": "0xc5a7",
      "effectiveGasPrice": "0x10ab53c3f",
      "from": "0x204e8def7e6c467cebcebbc5c89ad86bf3003fe3",
      "to": "0x14c03ae4342aa2ed24235b3abfdd0c0aac118815",
      "contractAddress": null
    },
    {
      "status": "0x1",
      "cumulativeGasUsed": "0xe106d3",
      "logs": [
        {
          "address": "0x14c03ae4342aa2ed24235b3abfdd0c0aac118815",
          "topics": [
            "0xddf252ad1be2c89b69c2b068fc378daa952ba7f163c4a11628f55a4df523b3ef",
            "0x0000000000000000000000000000000000000000000000000000000000000000",
            "0x000000000000000000000000204e8def7e6c467cebcebbc5c89ad86bf3003fe3",
            "0x0000000000000000000000000000000000000000000000000000000000000003"
          ],
          "data": "0x",
          "blockHash": "0xb54c3e9ea6647e9c7fe7f0c0acb27894d5769ebfaf95ba217ad96e21da04c6f1",
          "blockNumber": "0x768ca2",
          "transactionHash": "0x35fd941c9fbb0c28380e351aad3b01f3af5037a181a38dc26a47c366f101cc1d",
          "transactionIndex": "0xbd",
          "logIndex": "0xbd",
          "removed": false
        },
        {
          "address": "0x14c03ae4342aa2ed24235b3abfdd0c0aac118815",
          "topics": [
            "0xf8e1a15aba9398e019f0b49df1a4fde98ee17ae345cb5f6b5e2c27f5033e8ce7"
          ],
          "data": "0x0000000000000000000000000000000000000000000000000000000000000003",
          "blockHash": "0xb54c3e9ea6647e9c7fe7f0c0acb27894d5769ebfaf95ba217ad96e21da04c6f1",
          "blockNumber": "0x768ca2",
          "transactionHash": "0x35fd941c9fbb0c28380e351aad3b01f3af5037a181a38dc26a47c366f101cc1d",
          "transactionIndex": "0xbd",
          "logIndex": "0xbe",
          "removed": false
        },
        {
          "address": "0x14c03ae4342aa2ed24235b3abfdd0c0aac118815",
          "topics": [
            "0x684f6795945805272d5839a7063f5e0a3b6dd64bdb3976749763ec2fea161778",
            "0x0000000000000000000000000000000000000000000000000000000000000003",
            "0x000000000000000000000000204e8def7e6c467cebcebbc5c89ad86bf3003fe3"
          ],
          "data": "0x0000000000000000000000000000000000000000000000000000000000000040000000000000000000000000000000000000000000000000000009184e72a000000000000000000000000000000000000000000000000000000000000000008068747470733a2f2f73696c7665722d747269636b792d74726f75742d3934352e6d7970696e6174612e636c6f75642f697066732f6261667962656964653732686c33646b687632653569627a72696762376369717269346b6c7a71326a703367697a6361656363337a6865797875792f436861726d656c656f6e322e6a736f6e",
          "blockHash": "0xb54c3e9ea6647e9c7fe7f0c0acb27894d5769ebfaf95ba217ad96e21da04c6f1",
          "blockNumber": "0x768ca2",
          "transactionHash": "0x35fd941c9fbb0c28380e351aad3b01f3af5037a181a38dc26a47c366f101cc1d",
          "transactionIndex": "0xbd",
          "logIndex": "0xbf",
          "removed": false
        }
      ],
      "logsBloom": "0x00002000000000000000000000000000000000000000000000000000000000000000000000000000000000000000000000000000020000000000000000000000000000000000000000010008000000000000000040000000000000000000000000000000020000000001000000000800000000000000000000200010000000000000000000000000000000200000000000000000000000000000000000000000000000000000040000000000000000002000000000800000080000000000408000000002000000000000000000000000000000000000000000000000000020000000000000000000200000000000000000000040000000000000000000000000",
      "type": "0x2",
      "transactionHash": "0x35fd941c9fbb0c28380e351aad3b01f3af5037a181a38dc26a47c366f101cc1d",
      "transactionIndex": "0xbd",
      "blockHash": "0xb54c3e9ea6647e9c7fe7f0c0acb27894d5769ebfaf95ba217ad96e21da04c6f1",
      "blockNumber": "0x768ca2",
      "gasUsed": "0x36436",
      "effectiveGasPrice": "0x10ab53c3f",
      "from": "0x204e8def7e6c467cebcebbc5c89ad86bf3003fe3",
      "to": "0x14c03ae4342aa2ed24235b3abfdd0c0aac118815",
      "contractAddress": null
    },
    {
      "status": "0x1",
      "cumulativeGasUsed": "0xe1cc7a",
      "logs": [
        {
          "address": "0x14c03ae4342aa2ed24235b3abfdd0c0aac118815",
          "topics": [
            "0x8c5be1e5ebec7d5bd14f71427d1e84f3dd0314c0f7b2291e5b200ac8c7c3b925",
            "0x000000000000000000000000204e8def7e6c467cebcebbc5c89ad86bf3003fe3",
            "0x00000000000000000000000014c03ae4342aa2ed24235b3abfdd0c0aac118815",
            "0x0000000000000000000000000000000000000000000000000000000000000003"
          ],
          "data": "0x",
          "blockHash": "0xb54c3e9ea6647e9c7fe7f0c0acb27894d5769ebfaf95ba217ad96e21da04c6f1",
          "blockNumber": "0x768ca2",
          "transactionHash": "0xd1f40dbe67b818b9a54acfba533195b7213e2cf03de925cf94b7b6a35c70ea23",
          "transactionIndex": "0xbe",
          "logIndex": "0xc0",
          "removed": false
        },
        {
          "address": "0x14c03ae4342aa2ed24235b3abfdd0c0aac118815",
          "topics": [
            "0xdeee21db6a55c8eecf477d3301bcad831b184340f28656006a166316933b23e1",
            "0x0000000000000000000000000000000000000000000000000000000000000003",
            "0x000000000000000000000000204e8def7e6c467cebcebbc5c89ad86bf3003fe3"
          ],
          "data": "0x",
          "blockHash": "0xb54c3e9ea6647e9c7fe7f0c0acb27894d5769ebfaf95ba217ad96e21da04c6f1",
          "blockNumber": "0x768ca2",
          "transactionHash": "0xd1f40dbe67b818b9a54acfba533195b7213e2cf03de925cf94b7b6a35c70ea23",
          "transactionIndex": "0xbe",
          "logIndex": "0xc1",
          "removed": false
        }
      ],
      "logsBloom": "0x00002000000000000000000000000000000000004000000000000000000000000000000010000000000000000000000000000000020000000000000000200000000000000000000000000000000000000000000040000000000000000000000000000000000000000008000000000000000000000004000000000000000000000000000000000000000000200000000000000000000000000000000000000000020000000000040000000000000000000000000000800000080000000000400000000028000000000000000000000000000000000000000000000000000000000010000000000000000000000000000000000040000000000000000000000000",
      "type": "0x2",
      "transactionHash": "0xd1f40dbe67b818b9a54acfba533195b7213e2cf03de925cf94b7b6a35c70ea23",
      "transactionIndex": "0xbe",
      "blockHash": "0xb54c3e9ea6647e9c7fe7f0c0acb27894d5769ebfaf95ba217ad96e21da04c6f1",
      "blockNumber": "0x768ca2",
      "gasUsed": "0xc5a7",
      "effectiveGasPrice": "0x10ab53c3f",
      "from": "0x204e8def7e6c467cebcebbc5c89ad86bf3003fe3",
      "to": "0x14c03ae4342aa2ed24235b3abfdd0c0aac118815",
      "contractAddress": null
    },
    {
      "status": "0x1",
      "cumulativeGasUsed": "0xe53066",
      "logs": [
        {
          "address": "0x14c03ae4342aa2ed24235b3abfdd0c0aac118815",
          "topics": [
            "0xddf252ad1be2c89b69c2b068fc378daa952ba7f163c4a11628f55a4df523b3ef",
            "0x0000000000000000000000000000000000000000000000000000000000000000",
            "0x000000000000000000000000204e8def7e6c467cebcebbc5c89ad86bf3003fe3",
            "0x0000000000000000000000000000000000000000000000000000000000000004"
          ],
          "data": "0x",
          "blockHash": "0xb54c3e9ea6647e9c7fe7f0c0acb27894d5769ebfaf95ba217ad96e21da04c6f1",
          "blockNumber": "0x768ca2",
          "transactionHash": "0x2412c103ea361767fc143bfa39c03c1cc8f41046730b9d04cca4fc9db2a28918",
          "transactionIndex": "0xbf",
          "logIndex": "0xc2",
          "removed": false
        },
        {
          "address": "0x14c03ae4342aa2ed24235b3abfdd0c0aac118815",
          "topics": [
            "0xf8e1a15aba9398e019f0b49df1a4fde98ee17ae345cb5f6b5e2c27f5033e8ce7"
          ],
          "data": "0x0000000000000000000000000000000000000000000000000000000000000004",
          "blockHash": "0xb54c3e9ea6647e9c7fe7f0c0acb27894d5769ebfaf95ba217ad96e21da04c6f1",
          "blockNumber": "0x768ca2",
          "transactionHash": "0x2412c103ea361767fc143bfa39c03c1cc8f41046730b9d04cca4fc9db2a28918",
          "transactionIndex": "0xbf",
          "logIndex": "0xc3",
          "removed": false
        },
        {
          "address": "0x14c03ae4342aa2ed24235b3abfdd0c0aac118815",
          "topics": [
            "0x684f6795945805272d5839a7063f5e0a3b6dd64bdb3976749763ec2fea161778",
            "0x0000000000000000000000000000000000000000000000000000000000000004",
            "0x000000000000000000000000204e8def7e6c467cebcebbc5c89ad86bf3003fe3"
          ],
          "data": "0x0000000000000000000000000000000000000000000000000000000000000040000000000000000000000000000000000000000000000000000009184e72a000000000000000000000000000000000000000000000000000000000000000007d68747470733a2f2f73696c7665722d747269636b792d74726f75742d3934352e6d7970696e6174612e636c6f75642f697066732f6261667962656964653732686c33646b687632653569627a72696762376369717269346b6c7a71326a703367697a6361656363337a6865797875792f446573636c6f70732e6a736f6e000000",
          "blockHash": "0xb54c3e9ea6647e9c7fe7f0c0acb27894d5769ebfaf95ba217ad96e21da04c6f1",
          "blockNumber": "0x768ca2",
          "transactionHash": "0x2412c103ea361767fc143bfa39c03c1cc8f41046730b9d04cca4fc9db2a28918",
          "transactionIndex": "0xbf",
          "logIndex": "0xc4",
          "removed": false
        }
      ],
      "logsBloom": "0x00002000000000000000000000000000000000000000000000000000000000000000000000000000000000000000000000000000000000000000000000000000000000000000000000010008000000000000000040000000000000000000000008000000020000000001000000000800000000000000000000200010000000000000000000000000000000200000000000000000000000000000000000000000000000000000040000000000000000002000000000000000082000000000008000000002000000000000000000000000000000008000000000000000000020000000000000000000200000000000000000000040000000000000000000000000",
      "type": "0x2",
      "transactionHash": "0x2412c103ea361767fc143bfa39c03c1cc8f41046730b9d04cca4fc9db2a28918",
      "transactionIndex": "0xbf",
      "blockHash": "0xb54c3e9ea6647e9c7fe7f0c0acb27894d5769ebfaf95ba217ad96e21da04c6f1",
      "blockNumber": "0x768ca2",
      "gasUsed": "0x363ec",
      "effectiveGasPrice": "0x10ab53c3f",
      "from": "0x204e8def7e6c467cebcebbc5c89ad86bf3003fe3",
      "to": "0x14c03ae4342aa2ed24235b3abfdd0c0aac118815",
      "contractAddress": null
    },
    {
      "status": "0x1",
      "cumulativeGasUsed": "0xe5f60d",
      "logs": [
        {
          "address": "0x14c03ae4342aa2ed24235b3abfdd0c0aac118815",
          "topics": [
            "0x8c5be1e5ebec7d5bd14f71427d1e84f3dd0314c0f7b2291e5b200ac8c7c3b925",
            "0x000000000000000000000000204e8def7e6c467cebcebbc5c89ad86bf3003fe3",
            "0x00000000000000000000000014c03ae4342aa2ed24235b3abfdd0c0aac118815",
            "0x0000000000000000000000000000000000000000000000000000000000000004"
          ],
          "data": "0x",
          "blockHash": "0xb54c3e9ea6647e9c7fe7f0c0acb27894d5769ebfaf95ba217ad96e21da04c6f1",
          "blockNumber": "0x768ca2",
          "transactionHash": "0x3f20f70e10efa067261755efe30cbdc59a70883328deee5109d524def42c1d37",
          "transactionIndex": "0xc0",
          "logIndex": "0xc5",
          "removed": false
        },
        {
          "address": "0x14c03ae4342aa2ed24235b3abfdd0c0aac118815",
          "topics": [
            "0xdeee21db6a55c8eecf477d3301bcad831b184340f28656006a166316933b23e1",
            "0x0000000000000000000000000000000000000000000000000000000000000004",
            "0x000000000000000000000000204e8def7e6c467cebcebbc5c89ad86bf3003fe3"
          ],
          "data": "0x",
          "blockHash": "0xb54c3e9ea6647e9c7fe7f0c0acb27894d5769ebfaf95ba217ad96e21da04c6f1",
          "blockNumber": "0x768ca2",
          "transactionHash": "0x3f20f70e10efa067261755efe30cbdc59a70883328deee5109d524def42c1d37",
          "transactionIndex": "0xc0",
          "logIndex": "0xc6",
          "removed": false
        }
      ],
      "logsBloom": "0x00002000000000000000000000000000000000004000000000000000000000000000000010000000000000000000000000000000000000000000000000200000000000000000000000000000000000000000000040000000000000000000000008000000000000000008000000000000000000000004000000000000000000000000000000000000000000200000000000000000000000000000000000000000020000000000040000000000000000000000000000000000082000000000000000000028000000000000000000000000000000008000000000000000000000000010000000000000000000000000000000000040000000000000000000000000",
      "type": "0x2",
      "transactionHash": "0x3f20f70e10efa067261755efe30cbdc59a70883328deee5109d524def42c1d37",
      "transactionIndex": "0xc0",
      "blockHash": "0xb54c3e9ea6647e9c7fe7f0c0acb27894d5769ebfaf95ba217ad96e21da04c6f1",
      "blockNumber": "0x768ca2",
      "gasUsed": "0xc5a7",
      "effectiveGasPrice": "0x10ab53c3f",
      "from": "0x204e8def7e6c467cebcebbc5c89ad86bf3003fe3",
      "to": "0x14c03ae4342aa2ed24235b3abfdd0c0aac118815",
      "contractAddress": null
    },
    {
      "status": "0x1",
      "cumulativeGasUsed": "0xe959f9",
      "logs": [
        {
          "address": "0x14c03ae4342aa2ed24235b3abfdd0c0aac118815",
          "topics": [
            "0xddf252ad1be2c89b69c2b068fc378daa952ba7f163c4a11628f55a4df523b3ef",
            "0x0000000000000000000000000000000000000000000000000000000000000000",
            "0x000000000000000000000000204e8def7e6c467cebcebbc5c89ad86bf3003fe3",
            "0x0000000000000000000000000000000000000000000000000000000000000005"
          ],
          "data": "0x",
          "blockHash": "0xb54c3e9ea6647e9c7fe7f0c0acb27894d5769ebfaf95ba217ad96e21da04c6f1",
          "blockNumber": "0x768ca2",
          "transactionHash": "0x54bd1e1753ec6cdee4d7ee6ffb3c30d98d130b73b3cd2489f1440fbc11c5d172",
          "transactionIndex": "0xc1",
          "logIndex": "0xc7",
          "removed": false
        },
        {
          "address": "0x14c03ae4342aa2ed24235b3abfdd0c0aac118815",
          "topics": [
            "0xf8e1a15aba9398e019f0b49df1a4fde98ee17ae345cb5f6b5e2c27f5033e8ce7"
          ],
          "data": "0x0000000000000000000000000000000000000000000000000000000000000005",
          "blockHash": "0xb54c3e9ea6647e9c7fe7f0c0acb27894d5769ebfaf95ba217ad96e21da04c6f1",
          "blockNumber": "0x768ca2",
          "transactionHash": "0x54bd1e1753ec6cdee4d7ee6ffb3c30d98d130b73b3cd2489f1440fbc11c5d172",
          "transactionIndex": "0xc1",
          "logIndex": "0xc8",
          "removed": false
        },
        {
          "address": "0x14c03ae4342aa2ed24235b3abfdd0c0aac118815",
          "topics": [
            "0x684f6795945805272d5839a7063f5e0a3b6dd64bdb3976749763ec2fea161778",
            "0x0000000000000000000000000000000000000000000000000000000000000005",
            "0x000000000000000000000000204e8def7e6c467cebcebbc5c89ad86bf3003fe3"
          ],
          "data": "0x0000000000000000000000000000000000000000000000000000000000000040000000000000000000000000000000000000000000000000000009184e72a000000000000000000000000000000000000000000000000000000000000000007d68747470733a2f2f73696c7665722d747269636b792d74726f75742d3934352e6d7970696e6174612e636c6f75642f697066732f6261667962656964653732686c33646b687632653569627a72696762376369717269346b6c7a71326a703367697a6361656363337a6865797875792f4475736b6e6f69722e6a736f6e000000",
          "blockHash": "0xb54c3e9ea6647e9c7fe7f0c0acb27894d5769ebfaf95ba217ad96e21da04c6f1",
          "blockNumber": "0x768ca2",
          "transactionHash": "0x54bd1e1753ec6cdee4d7ee6ffb3c30d98d130b73b3cd2489f1440fbc11c5d172",
          "transactionIndex": "0xc1",
          "logIndex": "0xc9",
          "removed": false
        }
      ],
      "logsBloom": "0x00002000000000000000000000000000000000000000000000000000000000000000000000000000000000000000000000000000000000000000000000000000000010000000000000010008000000000000000040000000000000000000000000000000020000000001000000000800000000000000000000200010000000000000000000000000000000200000001000000800000000000000000000000000000000000000040000000000000000002000000000000000080000000000008000000002000000000000000000000000000000000000000000000000000020000000000000000000200000000000000000000040000000000000000000000000",
      "type": "0x2",
      "transactionHash": "0x54bd1e1753ec6cdee4d7ee6ffb3c30d98d130b73b3cd2489f1440fbc11c5d172",
      "transactionIndex": "0xc1",
      "blockHash": "0xb54c3e9ea6647e9c7fe7f0c0acb27894d5769ebfaf95ba217ad96e21da04c6f1",
      "blockNumber": "0x768ca2",
      "gasUsed": "0x363ec",
      "effectiveGasPrice": "0x10ab53c3f",
      "from": "0x204e8def7e6c467cebcebbc5c89ad86bf3003fe3",
      "to": "0x14c03ae4342aa2ed24235b3abfdd0c0aac118815",
      "contractAddress": null
    },
    {
      "status": "0x1",
      "cumulativeGasUsed": "0xea1fa0",
      "logs": [
        {
          "address": "0x14c03ae4342aa2ed24235b3abfdd0c0aac118815",
          "topics": [
            "0x8c5be1e5ebec7d5bd14f71427d1e84f3dd0314c0f7b2291e5b200ac8c7c3b925",
            "0x000000000000000000000000204e8def7e6c467cebcebbc5c89ad86bf3003fe3",
            "0x00000000000000000000000014c03ae4342aa2ed24235b3abfdd0c0aac118815",
            "0x0000000000000000000000000000000000000000000000000000000000000005"
          ],
          "data": "0x",
          "blockHash": "0xb54c3e9ea6647e9c7fe7f0c0acb27894d5769ebfaf95ba217ad96e21da04c6f1",
          "blockNumber": "0x768ca2",
          "transactionHash": "0xe670727a2d154f9d945b61cd992daad73770a570763c1c9c8bd6455a596f9cc5",
          "transactionIndex": "0xc2",
          "logIndex": "0xca",
          "removed": false
        },
        {
          "address": "0x14c03ae4342aa2ed24235b3abfdd0c0aac118815",
          "topics": [
            "0xdeee21db6a55c8eecf477d3301bcad831b184340f28656006a166316933b23e1",
            "0x0000000000000000000000000000000000000000000000000000000000000005",
            "0x000000000000000000000000204e8def7e6c467cebcebbc5c89ad86bf3003fe3"
          ],
          "data": "0x",
          "blockHash": "0xb54c3e9ea6647e9c7fe7f0c0acb27894d5769ebfaf95ba217ad96e21da04c6f1",
          "blockNumber": "0x768ca2",
          "transactionHash": "0xe670727a2d154f9d945b61cd992daad73770a570763c1c9c8bd6455a596f9cc5",
          "transactionIndex": "0xc2",
          "logIndex": "0xcb",
          "removed": false
        }
      ],
      "logsBloom": "0x00002000000000000000000000000000000000004000000000000000000000000000000010000000000000000000000000000000000000000000000000200000000010000000000000000000000000000000000040000000000000000000000000000000000000000008000000000000000000000004000000000000000000000000000000000000000000200000001000000800000000000000000000000000020000000000040000000000000000000000000000000000080000000000000000000028000000000000000000000000000000000000000000000000000000000010000000000000000000000000000000000040000000000000000000000000",
      "type": "0x2",
      "transactionHash": "0xe670727a2d154f9d945b61cd992daad73770a570763c1c9c8bd6455a596f9cc5",
      "transactionIndex": "0xc2",
      "blockHash": "0xb54c3e9ea6647e9c7fe7f0c0acb27894d5769ebfaf95ba217ad96e21da04c6f1",
      "blockNumber": "0x768ca2",
      "gasUsed": "0xc5a7",
      "effectiveGasPrice": "0x10ab53c3f",
      "from": "0x204e8def7e6c467cebcebbc5c89ad86bf3003fe3",
      "to": "0x14c03ae4342aa2ed24235b3abfdd0c0aac118815",
      "contractAddress": null
    },
    {
      "status": "0x1",
      "cumulativeGasUsed": "0xed83d6",
      "logs": [
        {
          "address": "0x14c03ae4342aa2ed24235b3abfdd0c0aac118815",
          "topics": [
            "0xddf252ad1be2c89b69c2b068fc378daa952ba7f163c4a11628f55a4df523b3ef",
            "0x0000000000000000000000000000000000000000000000000000000000000000",
            "0x000000000000000000000000204e8def7e6c467cebcebbc5c89ad86bf3003fe3",
            "0x0000000000000000000000000000000000000000000000000000000000000006"
          ],
          "data": "0x",
          "blockHash": "0xb54c3e9ea6647e9c7fe7f0c0acb27894d5769ebfaf95ba217ad96e21da04c6f1",
          "blockNumber": "0x768ca2",
          "transactionHash": "0x0e83700ac9daf2c09ac7440bf058e0fdc179c95be48e76e048c549a5cc8450a6",
          "transactionIndex": "0xc3",
          "logIndex": "0xcc",
          "removed": false
        },
        {
          "address": "0x14c03ae4342aa2ed24235b3abfdd0c0aac118815",
          "topics": [
            "0xf8e1a15aba9398e019f0b49df1a4fde98ee17ae345cb5f6b5e2c27f5033e8ce7"
          ],
          "data": "0x0000000000000000000000000000000000000000000000000000000000000006",
          "blockHash": "0xb54c3e9ea6647e9c7fe7f0c0acb27894d5769ebfaf95ba217ad96e21da04c6f1",
          "blockNumber": "0x768ca2",
          "transactionHash": "0x0e83700ac9daf2c09ac7440bf058e0fdc179c95be48e76e048c549a5cc8450a6",
          "transactionIndex": "0xc3",
          "logIndex": "0xcd",
          "removed": false
        },
        {
          "address": "0x14c03ae4342aa2ed24235b3abfdd0c0aac118815",
          "topics": [
            "0x684f6795945805272d5839a7063f5e0a3b6dd64bdb3976749763ec2fea161778",
            "0x0000000000000000000000000000000000000000000000000000000000000006",
            "0x000000000000000000000000204e8def7e6c467cebcebbc5c89ad86bf3003fe3"
          ],
          "data": "0x0000000000000000000000000000000000000000000000000000000000000040000000000000000000000000000000000000000000000000000009184e72a000000000000000000000000000000000000000000000000000000000000000008068747470733a2f2f73696c7665722d747269636b792d74726f75742d3934352e6d7970696e6174612e636c6f75642f697066732f6261667962656964653732686c33646b687632653569627a72696762376369717269346b6c7a71326a703367697a6361656363337a6865797875792f46657a616e6469706974692e6a736f6e",
          "blockHash": "0xb54c3e9ea6647e9c7fe7f0c0acb27894d5769ebfaf95ba217ad96e21da04c6f1",
          "blockNumber": "0x768ca2",
          "transactionHash": "0x0e83700ac9daf2c09ac7440bf058e0fdc179c95be48e76e048c549a5cc8450a6",
          "transactionIndex": "0xc3",
          "logIndex": "0xce",
          "removed": false
        }
      ],
      "logsBloom": "0x00002000000000000000000000000000000000000000000000000000000000000000000000000000000000000000000000000000000400000000000000000000000000000000000000010008000000000000000040000000000000000000000000000000020000000001000000000800000000000000000000200010000000000000000400000000000000200000000000000000000000000000000000000000000000000000040000000000000000002000000000000000080000080000008000000002000000000000000000000000000000000000000000000000000020000000000000000000200000000000000000000040000000000000000000000000",
      "type": "0x2",
      "transactionHash": "0x0e83700ac9daf2c09ac7440bf058e0fdc179c95be48e76e048c549a5cc8450a6",
      "transactionIndex": "0xc3",
      "blockHash": "0xb54c3e9ea6647e9c7fe7f0c0acb27894d5769ebfaf95ba217ad96e21da04c6f1",
      "blockNumber": "0x768ca2",
      "gasUsed": "0x36436",
      "effectiveGasPrice": "0x10ab53c3f",
      "from": "0x204e8def7e6c467cebcebbc5c89ad86bf3003fe3",
      "to": "0x14c03ae4342aa2ed24235b3abfdd0c0aac118815",
      "contractAddress": null
    },
    {
      "status": "0x1",
      "cumulativeGasUsed": "0xee497d",
      "logs": [
        {
          "address": "0x14c03ae4342aa2ed24235b3abfdd0c0aac118815",
          "topics": [
            "0x8c5be1e5ebec7d5bd14f71427d1e84f3dd0314c0f7b2291e5b200ac8c7c3b925",
            "0x000000000000000000000000204e8def7e6c467cebcebbc5c89ad86bf3003fe3",
            "0x00000000000000000000000014c03ae4342aa2ed24235b3abfdd0c0aac118815",
            "0x0000000000000000000000000000000000000000000000000000000000000006"
          ],
          "data": "0x",
          "blockHash": "0xb54c3e9ea6647e9c7fe7f0c0acb27894d5769ebfaf95ba217ad96e21da04c6f1",
          "blockNumber": "0x768ca2",
          "transactionHash": "0x217e2b233bed29c740fead7901bfa893654adfa4484ae76d9782017aa0af8198",
          "transactionIndex": "0xc4",
          "logIndex": "0xcf",
          "removed": false
        },
        {
          "address": "0x14c03ae4342aa2ed24235b3abfdd0c0aac118815",
          "topics": [
            "0xdeee21db6a55c8eecf477d3301bcad831b184340f28656006a166316933b23e1",
            "0x0000000000000000000000000000000000000000000000000000000000000006",
            "0x000000000000000000000000204e8def7e6c467cebcebbc5c89ad86bf3003fe3"
          ],
          "data": "0x",
          "blockHash": "0xb54c3e9ea6647e9c7fe7f0c0acb27894d5769ebfaf95ba217ad96e21da04c6f1",
          "blockNumber": "0x768ca2",
          "transactionHash": "0x217e2b233bed29c740fead7901bfa893654adfa4484ae76d9782017aa0af8198",
          "transactionIndex": "0xc4",
          "logIndex": "0xd0",
          "removed": false
        }
      ],
      "logsBloom": "0x00002000000000000000000000000000000000004000000000000000000000000000000010000000000000000000000000000000000400000000000000200000000000000000000000000000000000000000000040000000000000000000000000000000000000000008000000000000000000000004000000000000000000000000000400000000000000200000000000000000000000000000000000000000020000000000040000000000000000000000000000000000080000080000000000000028000000000000000000000000000000000000000000000000000000000010000000000000000000000000000000000040000000000000000000000000",
      "type": "0x2",
      "transactionHash": "0x217e2b233bed29c740fead7901bfa893654adfa4484ae76d9782017aa0af8198",
      "transactionIndex": "0xc4",
      "blockHash": "0xb54c3e9ea6647e9c7fe7f0c0acb27894d5769ebfaf95ba217ad96e21da04c6f1",
      "blockNumber": "0x768ca2",
      "gasUsed": "0xc5a7",
      "effectiveGasPrice": "0x10ab53c3f",
      "from": "0x204e8def7e6c467cebcebbc5c89ad86bf3003fe3",
      "to": "0x14c03ae4342aa2ed24235b3abfdd0c0aac118815",
      "contractAddress": null
    },
    {
      "status": "0x1",
      "cumulativeGasUsed": "0xf1ad5d",
      "logs": [
        {
          "address": "0x14c03ae4342aa2ed24235b3abfdd0c0aac118815",
          "topics": [
            "0xddf252ad1be2c89b69c2b068fc378daa952ba7f163c4a11628f55a4df523b3ef",
            "0x0000000000000000000000000000000000000000000000000000000000000000",
            "0x000000000000000000000000204e8def7e6c467cebcebbc5c89ad86bf3003fe3",
            "0x0000000000000000000000000000000000000000000000000000000000000007"
          ],
          "data": "0x",
          "blockHash": "0xb54c3e9ea6647e9c7fe7f0c0acb27894d5769ebfaf95ba217ad96e21da04c6f1",
          "blockNumber": "0x768ca2",
          "transactionHash": "0xeeeb21dae5de6961c46f99656cd17778beb6867621c074acf177f9ed6472a5ed",
          "transactionIndex": "0xc5",
          "logIndex": "0xd1",
          "removed": false
        },
        {
          "address": "0x14c03ae4342aa2ed24235b3abfdd0c0aac118815",
          "topics": [
            "0xf8e1a15aba9398e019f0b49df1a4fde98ee17ae345cb5f6b5e2c27f5033e8ce7"
          ],
          "data": "0x0000000000000000000000000000000000000000000000000000000000000007",
          "blockHash": "0xb54c3e9ea6647e9c7fe7f0c0acb27894d5769ebfaf95ba217ad96e21da04c6f1",
          "blockNumber": "0x768ca2",
          "transactionHash": "0xeeeb21dae5de6961c46f99656cd17778beb6867621c074acf177f9ed6472a5ed",
          "transactionIndex": "0xc5",
          "logIndex": "0xd2",
          "removed": false
        },
        {
          "address": "0x14c03ae4342aa2ed24235b3abfdd0c0aac118815",
          "topics": [
            "0x684f6795945805272d5839a7063f5e0a3b6dd64bdb3976749763ec2fea161778",
            "0x0000000000000000000000000000000000000000000000000000000000000007",
            "0x000000000000000000000000204e8def7e6c467cebcebbc5c89ad86bf3003fe3"
          ],
          "data": "0x0000000000000000000000000000000000000000000000000000000000000040000000000000000000000000000000000000000000000000000009184e72a000000000000000000000000000000000000000000000000000000000000000007c68747470733a2f2f73696c7665722d747269636b792d74726f75742d3934352e6d7970696e6174612e636c6f75642f697066732f6261667962656964653732686c33646b687632653569627a72696762376369717269346b6c7a71326a703367697a6361656363337a6865797875792f46726f616b69652e6a736f6e00000000",
          "blockHash": "0xb54c3e9ea6647e9c7fe7f0c0acb27894d5769ebfaf95ba217ad96e21da04c6f1",
          "blockNumber": "0x768ca2",
          "transactionHash": "0xeeeb21dae5de6961c46f99656cd17778beb6867621c074acf177f9ed6472a5ed",
          "transactionIndex": "0xc5",
          "logIndex": "0xd3",
          "removed": false
        }
      ],
      "logsBloom": "0x00002000000000000000000000000000000000000000000000000000000000000000000000000000000000000000000000001000000000000000000000000000000020000000000000010008000000000000000040000000000000000000000000000000020000000001000000000800000000000000000000200010000000000000000000000000000000200000000000000000000000000000000000000000000000000000040000000000000000002000000000000000080000000000008000000002000000000000000000000000000000000000000000000100000020000000000000000000200000000000000000000040000000000000000000000000",
      "type": "0x2",
      "transactionHash": "0xeeeb21dae5de6961c46f99656cd17778beb6867621c074acf177f9ed6472a5ed",
      "transactionIndex": "0xc5",
      "blockHash": "0xb54c3e9ea6647e9c7fe7f0c0acb27894d5769ebfaf95ba217ad96e21da04c6f1",
      "blockNumber": "0x768ca2",
      "gasUsed": "0x363e0",
      "effectiveGasPrice": "0x10ab53c3f",
      "from": "0x204e8def7e6c467cebcebbc5c89ad86bf3003fe3",
      "to": "0x14c03ae4342aa2ed24235b3abfdd0c0aac118815",
      "contractAddress": null
    },
    {
      "status": "0x1",
      "cumulativeGasUsed": "0xf27304",
      "logs": [
        {
          "address": "0x14c03ae4342aa2ed24235b3abfdd0c0aac118815",
          "topics": [
            "0x8c5be1e5ebec7d5bd14f71427d1e84f3dd0314c0f7b2291e5b200ac8c7c3b925",
            "0x000000000000000000000000204e8def7e6c467cebcebbc5c89ad86bf3003fe3",
            "0x00000000000000000000000014c03ae4342aa2ed24235b3abfdd0c0aac118815",
            "0x0000000000000000000000000000000000000000000000000000000000000007"
          ],
          "data": "0x",
          "blockHash": "0xb54c3e9ea6647e9c7fe7f0c0acb27894d5769ebfaf95ba217ad96e21da04c6f1",
          "blockNumber": "0x768ca2",
          "transactionHash": "0x4b3f43b66076296676a052ef16dbb0f1319c56ff582e4d2fc2d8cdbe5b61a885",
          "transactionIndex": "0xc6",
          "logIndex": "0xd4",
          "removed": false
        },
        {
          "address": "0x14c03ae4342aa2ed24235b3abfdd0c0aac118815",
          "topics": [
            "0xdeee21db6a55c8eecf477d3301bcad831b184340f28656006a166316933b23e1",
            "0x0000000000000000000000000000000000000000000000000000000000000007",
            "0x000000000000000000000000204e8def7e6c467cebcebbc5c89ad86bf3003fe3"
          ],
          "data": "0x",
          "blockHash": "0xb54c3e9ea6647e9c7fe7f0c0acb27894d5769ebfaf95ba217ad96e21da04c6f1",
          "blockNumber": "0x768ca2",
          "transactionHash": "0x4b3f43b66076296676a052ef16dbb0f1319c56ff582e4d2fc2d8cdbe5b61a885",
          "transactionIndex": "0xc6",
          "logIndex": "0xd5",
          "removed": false
        }
      ],
      "logsBloom": "0x00002000000000000000000000000000000000004000000000000000000000000000000010000000000000000000000000001000000000000000000000200000000020000000000000000000000000000000000040000000000000000000000000000000000000000008000000000000000000000004000000000000000000000000000000000000000000200000000000000000000000000000000000000000020000000000040000000000000000000000000000000000080000000000000000000028000000000000000000000000000000000000000000000100000000000010000000000000000000000000000000000040000000000000000000000000",
      "type": "0x2",
      "transactionHash": "0x4b3f43b66076296676a052ef16dbb0f1319c56ff582e4d2fc2d8cdbe5b61a885",
      "transactionIndex": "0xc6",
      "blockHash": "0xb54c3e9ea6647e9c7fe7f0c0acb27894d5769ebfaf95ba217ad96e21da04c6f1",
      "blockNumber": "0x768ca2",
      "gasUsed": "0xc5a7",
      "effectiveGasPrice": "0x10ab53c3f",
      "from": "0x204e8def7e6c467cebcebbc5c89ad86bf3003fe3",
      "to": "0x14c03ae4342aa2ed24235b3abfdd0c0aac118815",
      "contractAddress": null
    },
    {
      "status": "0x1",
      "cumulativeGasUsed": "0xf5d6fc",
      "logs": [
        {
          "address": "0x14c03ae4342aa2ed24235b3abfdd0c0aac118815",
          "topics": [
            "0xddf252ad1be2c89b69c2b068fc378daa952ba7f163c4a11628f55a4df523b3ef",
            "0x0000000000000000000000000000000000000000000000000000000000000000",
            "0x000000000000000000000000204e8def7e6c467cebcebbc5c89ad86bf3003fe3",
            "0x0000000000000000000000000000000000000000000000000000000000000008"
          ],
          "data": "0x",
          "blockHash": "0xb54c3e9ea6647e9c7fe7f0c0acb27894d5769ebfaf95ba217ad96e21da04c6f1",
          "blockNumber": "0x768ca2",
          "transactionHash": "0x26b8facaf6e2e4777d18b91c2a5c6b218291b9301cc90376405a7cba98bc0d53",
          "transactionIndex": "0xc7",
          "logIndex": "0xd6",
          "removed": false
        },
        {
          "address": "0x14c03ae4342aa2ed24235b3abfdd0c0aac118815",
          "topics": [
            "0xf8e1a15aba9398e019f0b49df1a4fde98ee17ae345cb5f6b5e2c27f5033e8ce7"
          ],
          "data": "0x0000000000000000000000000000000000000000000000000000000000000008",
          "blockHash": "0xb54c3e9ea6647e9c7fe7f0c0acb27894d5769ebfaf95ba217ad96e21da04c6f1",
          "blockNumber": "0x768ca2",
          "transactionHash": "0x26b8facaf6e2e4777d18b91c2a5c6b218291b9301cc90376405a7cba98bc0d53",
          "transactionIndex": "0xc7",
          "logIndex": "0xd7",
          "removed": false
        },
        {
          "address": "0x14c03ae4342aa2ed24235b3abfdd0c0aac118815",
          "topics": [
            "0x684f6795945805272d5839a7063f5e0a3b6dd64bdb3976749763ec2fea161778",
            "0x0000000000000000000000000000000000000000000000000000000000000008",
            "0x000000000000000000000000204e8def7e6c467cebcebbc5c89ad86bf3003fe3"
          ],
          "data": "0x0000000000000000000000000000000000000000000000000000000000000040000000000000000000000000000000000000000000000000000009184e72a000000000000000000000000000000000000000000000000000000000000000007e68747470733a2f2f73696c7665722d747269636b792d74726f75742d3934352e6d7970696e6174612e636c6f75642f697066732f6261667962656964653732686c33646b687632653569627a72696762376369717269346b6c7a71326a703367697a6361656363337a6865797875792f46726f6761646965722e6a736f6e0000",
          "blockHash": "0xb54c3e9ea6647e9c7fe7f0c0acb27894d5769ebfaf95ba217ad96e21da04c6f1",
          "blockNumber": "0x768ca2",
          "transactionHash": "0x26b8facaf6e2e4777d18b91c2a5c6b218291b9301cc90376405a7cba98bc0d53",
          "transactionIndex": "0xc7",
          "logIndex": "0xd8",
          "removed": false
        }
      ],
      "logsBloom": "0x00002000000000000000000000000000000000000000000000000000000000000000000000000000000000000000000000000000000080000000000000000000000000000000000000010008000000000000000040000000000000000000000000000000020000000001000000000800000000000000000000200010000000000080000000000000000000200000000000000000000000000000000000000000000000000000040000000000000000002000000000000000080000000000008040000002000000000000000000000000000000000000000000000000000020000000000000000000200000000000000000000040000000000000000000000000",
      "type": "0x2",
      "transactionHash": "0x26b8facaf6e2e4777d18b91c2a5c6b218291b9301cc90376405a7cba98bc0d53",
      "transactionIndex": "0xc7",
      "blockHash": "0xb54c3e9ea6647e9c7fe7f0c0acb27894d5769ebfaf95ba217ad96e21da04c6f1",
      "blockNumber": "0x768ca2",
      "gasUsed": "0x363f8",
      "effectiveGasPrice": "0x10ab53c3f",
      "from": "0x204e8def7e6c467cebcebbc5c89ad86bf3003fe3",
      "to": "0x14c03ae4342aa2ed24235b3abfdd0c0aac118815",
      "contractAddress": null
    },
    {
      "status": "0x1",
      "cumulativeGasUsed": "0xf69ca3",
      "logs": [
        {
          "address": "0x14c03ae4342aa2ed24235b3abfdd0c0aac118815",
          "topics": [
            "0x8c5be1e5ebec7d5bd14f71427d1e84f3dd0314c0f7b2291e5b200ac8c7c3b925",
            "0x000000000000000000000000204e8def7e6c467cebcebbc5c89ad86bf3003fe3",
            "0x00000000000000000000000014c03ae4342aa2ed24235b3abfdd0c0aac118815",
            "0x0000000000000000000000000000000000000000000000000000000000000008"
          ],
          "data": "0x",
          "blockHash": "0xb54c3e9ea6647e9c7fe7f0c0acb27894d5769ebfaf95ba217ad96e21da04c6f1",
          "blockNumber": "0x768ca2",
          "transactionHash": "0xbdc66b45bac860e03f6365adc1c627c193b89b555d46c2959bc5d5ae0397f533",
          "transactionIndex": "0xc8",
          "logIndex": "0xd9",
          "removed": false
        },
        {
          "address": "0x14c03ae4342aa2ed24235b3abfdd0c0aac118815",
          "topics": [
            "0xdeee21db6a55c8eecf477d3301bcad831b184340f28656006a166316933b23e1",
            "0x0000000000000000000000000000000000000000000000000000000000000008",
            "0x000000000000000000000000204e8def7e6c467cebcebbc5c89ad86bf3003fe3"
          ],
          "data": "0x",
          "blockHash": "0xb54c3e9ea6647e9c7fe7f0c0acb27894d5769ebfaf95ba217ad96e21da04c6f1",
          "blockNumber": "0x768ca2",
          "transactionHash": "0xbdc66b45bac860e03f6365adc1c627c193b89b555d46c2959bc5d5ae0397f533",
          "transactionIndex": "0xc8",
          "logIndex": "0xda",
          "removed": false
        }
      ],
      "logsBloom": "0x00002000000000000000000000000000000000004000000000000000000000000000000010000000000000000000000000000000000080000000000000200000000000000000000000000000000000000000000040000000000000000000000000000000000000000008000000000000000000000004000000000000000000000080000000000000000000200000000000000000000000000000000000000000020000000000040000000000000000000000000000000000080000000000000040000028000000000000000000000000000000000000000000000000000000000010000000000000000000000000000000000040000000000000000000000000",
      "type": "0x2",
      "transactionHash": "0xbdc66b45bac860e03f6365adc1c627c193b89b555d46c2959bc5d5ae0397f533",
      "transactionIndex": "0xc8",
      "blockHash": "0xb54c3e9ea6647e9c7fe7f0c0acb27894d5769ebfaf95ba217ad96e21da04c6f1",
      "blockNumber": "0x768ca2",
      "gasUsed": "0xc5a7",
      "effectiveGasPrice": "0x10ab53c3f",
      "from": "0x204e8def7e6c467cebcebbc5c89ad86bf3003fe3",
      "to": "0x14c03ae4342aa2ed24235b3abfdd0c0aac118815",
      "contractAddress": null
    },
    {
      "status": "0x1",
      "cumulativeGasUsed": "0xfa008f",
      "logs": [
        {
          "address": "0x14c03ae4342aa2ed24235b3abfdd0c0aac118815",
          "topics": [
            "0xddf252ad1be2c89b69c2b068fc378daa952ba7f163c4a11628f55a4df523b3ef",
            "0x0000000000000000000000000000000000000000000000000000000000000000",
            "0x000000000000000000000000204e8def7e6c467cebcebbc5c89ad86bf3003fe3",
            "0x0000000000000000000000000000000000000000000000000000000000000009"
          ],
          "data": "0x",
          "blockHash": "0xb54c3e9ea6647e9c7fe7f0c0acb27894d5769ebfaf95ba217ad96e21da04c6f1",
          "blockNumber": "0x768ca2",
          "transactionHash": "0x87f7d407264c4320258d0b9dc911ddeb53808bddcc2785bcf09d03baa11977aa",
          "transactionIndex": "0xc9",
          "logIndex": "0xdb",
          "removed": false
        },
        {
          "address": "0x14c03ae4342aa2ed24235b3abfdd0c0aac118815",
          "topics": [
            "0xf8e1a15aba9398e019f0b49df1a4fde98ee17ae345cb5f6b5e2c27f5033e8ce7"
          ],
          "data": "0x0000000000000000000000000000000000000000000000000000000000000009",
          "blockHash": "0xb54c3e9ea6647e9c7fe7f0c0acb27894d5769ebfaf95ba217ad96e21da04c6f1",
          "blockNumber": "0x768ca2",
          "transactionHash": "0x87f7d407264c4320258d0b9dc911ddeb53808bddcc2785bcf09d03baa11977aa",
          "transactionIndex": "0xc9",
          "logIndex": "0xdc",
          "removed": false
        },
        {
          "address": "0x14c03ae4342aa2ed24235b3abfdd0c0aac118815",
          "topics": [
            "0x684f6795945805272d5839a7063f5e0a3b6dd64bdb3976749763ec2fea161778",
            "0x0000000000000000000000000000000000000000000000000000000000000009",
            "0x000000000000000000000000204e8def7e6c467cebcebbc5c89ad86bf3003fe3"
          ],
          "data": "0x0000000000000000000000000000000000000000000000000000000000000040000000000000000000000000000000000000000000000000000009184e72a000000000000000000000000000000000000000000000000000000000000000007d68747470733a2f2f73696c7665722d747269636b792d74726f75742d3934352e6d7970696e6174612e636c6f75642f697066732f6261667962656964653732686c33646b687632653569627a72696762376369717269346b6c7a71326a703367697a6361656363337a6865797875792f4772656e696e6a612e6a736f6e000000",
          "blockHash": "0xb54c3e9ea6647e9c7fe7f0c0acb27894d5769ebfaf95ba217ad96e21da04c6f1",
          "blockNumber": "0x768ca2",
          "transactionHash": "0x87f7d407264c4320258d0b9dc911ddeb53808bddcc2785bcf09d03baa11977aa",
          "transactionIndex": "0xc9",
          "logIndex": "0xdd",
          "removed": false
        }
      ],
      "logsBloom": "0x00002000000000000000000000000000000000000000000000000000000000000000000000000000000000000000000000000000000000000000000000200000000000000000000000010008000000000000000040000000000000000000000000000000020000000001000000000800000000000000000000200010000000000000000000000000000000200000000000001000000000000000000000000000000000000000040000000000000000002000000000000000080000000000008000000002000000000000000000000000000000000000000000000000000020000000000000000000200000000000000000000040000000000000000000800000",
      "type": "0x2",
      "transactionHash": "0x87f7d407264c4320258d0b9dc911ddeb53808bddcc2785bcf09d03baa11977aa",
      "transactionIndex": "0xc9",
      "blockHash": "0xb54c3e9ea6647e9c7fe7f0c0acb27894d5769ebfaf95ba217ad96e21da04c6f1",
      "blockNumber": "0x768ca2",
      "gasUsed": "0x363ec",
      "effectiveGasPrice": "0x10ab53c3f",
      "from": "0x204e8def7e6c467cebcebbc5c89ad86bf3003fe3",
      "to": "0x14c03ae4342aa2ed24235b3abfdd0c0aac118815",
      "contractAddress": null
    },
    {
      "status": "0x1",
      "cumulativeGasUsed": "0xfac636",
      "logs": [
        {
          "address": "0x14c03ae4342aa2ed24235b3abfdd0c0aac118815",
          "topics": [
            "0x8c5be1e5ebec7d5bd14f71427d1e84f3dd0314c0f7b2291e5b200ac8c7c3b925",
            "0x000000000000000000000000204e8def7e6c467cebcebbc5c89ad86bf3003fe3",
            "0x00000000000000000000000014c03ae4342aa2ed24235b3abfdd0c0aac118815",
            "0x0000000000000000000000000000000000000000000000000000000000000009"
          ],
          "data": "0x",
          "blockHash": "0xb54c3e9ea6647e9c7fe7f0c0acb27894d5769ebfaf95ba217ad96e21da04c6f1",
          "blockNumber": "0x768ca2",
          "transactionHash": "0x4ff4b7095cc48318dc15f017950980c129ba33fd92f566a3847f58b3e58e9f46",
          "transactionIndex": "0xca",
          "logIndex": "0xde",
          "removed": false
        },
        {
          "address": "0x14c03ae4342aa2ed24235b3abfdd0c0aac118815",
          "topics": [
            "0xdeee21db6a55c8eecf477d3301bcad831b184340f28656006a166316933b23e1",
            "0x0000000000000000000000000000000000000000000000000000000000000009",
            "0x000000000000000000000000204e8def7e6c467cebcebbc5c89ad86bf3003fe3"
          ],
          "data": "0x",
          "blockHash": "0xb54c3e9ea6647e9c7fe7f0c0acb27894d5769ebfaf95ba217ad96e21da04c6f1",
          "blockNumber": "0x768ca2",
          "transactionHash": "0x4ff4b7095cc48318dc15f017950980c129ba33fd92f566a3847f58b3e58e9f46",
          "transactionIndex": "0xca",
          "logIndex": "0xdf",
          "removed": false
        }
      ],
      "logsBloom": "0x00002000000000000000000000000000000000004000000000000000000000000000000010000000000000000000000000000000000000000000000000200000000000000000000000000000000000000000000040000000000000000000000000000000000000000008000000000000000000000004000000000000000000000000000000000000000000200000000000001000000000000000000000000000020000000000040000000000000000000000000000000000080000000000000000000028000000000000000000000000000000000000000000000000000000000010000000000000000000000000000000000040000000000000000000800000",
      "type": "0x2",
      "transactionHash": "0x4ff4b7095cc48318dc15f017950980c129ba33fd92f566a3847f58b3e58e9f46",
      "transactionIndex": "0xca",
      "blockHash": "0xb54c3e9ea6647e9c7fe7f0c0acb27894d5769ebfaf95ba217ad96e21da04c6f1",
      "blockNumber": "0x768ca2",
      "gasUsed": "0xc5a7",
      "effectiveGasPrice": "0x10ab53c3f",
      "from": "0x204e8def7e6c467cebcebbc5c89ad86bf3003fe3",
      "to": "0x14c03ae4342aa2ed24235b3abfdd0c0aac118815",
      "contractAddress": null
    },
    {
      "status": "0x1",
      "cumulativeGasUsed": "0xfe29e6",
      "logs": [
        {
          "address": "0x14c03ae4342aa2ed24235b3abfdd0c0aac118815",
          "topics": [
            "0xddf252ad1be2c89b69c2b068fc378daa952ba7f163c4a11628f55a4df523b3ef",
            "0x0000000000000000000000000000000000000000000000000000000000000000",
            "0x000000000000000000000000204e8def7e6c467cebcebbc5c89ad86bf3003fe3",
            "0x000000000000000000000000000000000000000000000000000000000000000a"
          ],
          "data": "0x",
          "blockHash": "0xb54c3e9ea6647e9c7fe7f0c0acb27894d5769ebfaf95ba217ad96e21da04c6f1",
          "blockNumber": "0x768ca2",
          "transactionHash": "0x218dbc23ba3e30774f6a57f5e0ecae2b262d2c90dcaf89f7dc8e476ac40b803d",
          "transactionIndex": "0xcb",
          "logIndex": "0xe0",
          "removed": false
        },
        {
          "address": "0x14c03ae4342aa2ed24235b3abfdd0c0aac118815",
          "topics": [
            "0xf8e1a15aba9398e019f0b49df1a4fde98ee17ae345cb5f6b5e2c27f5033e8ce7"
          ],
          "data": "0x000000000000000000000000000000000000000000000000000000000000000a",
          "blockHash": "0xb54c3e9ea6647e9c7fe7f0c0acb27894d5769ebfaf95ba217ad96e21da04c6f1",
          "blockNumber": "0x768ca2",
          "transactionHash": "0x218dbc23ba3e30774f6a57f5e0ecae2b262d2c90dcaf89f7dc8e476ac40b803d",
          "transactionIndex": "0xcb",
          "logIndex": "0xe1",
          "removed": false
        },
        {
          "address": "0x14c03ae4342aa2ed24235b3abfdd0c0aac118815",
          "topics": [
            "0x684f6795945805272d5839a7063f5e0a3b6dd64bdb3976749763ec2fea161778",
            "0x000000000000000000000000000000000000000000000000000000000000000a",
            "0x000000000000000000000000204e8def7e6c467cebcebbc5c89ad86bf3003fe3"
          ],
          "data": "0x0000000000000000000000000000000000000000000000000000000000000040000000000000000000000000000000000000000000000000000009184e72a000000000000000000000000000000000000000000000000000000000000000007868747470733a2f2f73696c7665722d747269636b792d74726f75742d3934352e6d7970696e6174612e636c6f75642f697066732f6261667962656964653732686c33646b687632653569627a72696762376369717269346b6c7a71326a703367697a6361656363337a6865797875792f4d65772e6a736f6e0000000000000000",
          "blockHash": "0xb54c3e9ea6647e9c7fe7f0c0acb27894d5769ebfaf95ba217ad96e21da04c6f1",
          "blockNumber": "0x768ca2",
          "transactionHash": "0x218dbc23ba3e30774f6a57f5e0ecae2b262d2c90dcaf89f7dc8e476ac40b803d",
          "transactionIndex": "0xcb",
          "logIndex": "0xe2",
          "removed": false
        }
      ],
      "logsBloom": "0x00002000000000000000000000000000000000000000000000000000000000000000000000000000000000000000000000000000040000000020000000000000000000000000000000010008000000000000000040000000000000000000000000000000020000000001000000000800000000000000000000200010000000000000000000000000010000200000000000000000000000000000000000000000000000000000040000000000000000002000000000000000080000000000008000000002000000000000000000000000000000000000000000000000000020000000000000000000200000000000000000000040000000000000000000000000",
      "type": "0x2",
      "transactionHash": "0x218dbc23ba3e30774f6a57f5e0ecae2b262d2c90dcaf89f7dc8e476ac40b803d",
      "transactionIndex": "0xcb",
      "blockHash": "0xb54c3e9ea6647e9c7fe7f0c0acb27894d5769ebfaf95ba217ad96e21da04c6f1",
      "blockNumber": "0x768ca2",
      "gasUsed": "0x363b0",
      "effectiveGasPrice": "0x10ab53c3f",
      "from": "0x204e8def7e6c467cebcebbc5c89ad86bf3003fe3",
      "to": "0x14c03ae4342aa2ed24235b3abfdd0c0aac118815",
      "contractAddress": null
    },
    {
      "status": "0x1",
      "cumulativeGasUsed": "0xfeef8d",
      "logs": [
        {
          "address": "0x14c03ae4342aa2ed24235b3abfdd0c0aac118815",
          "topics": [
            "0x8c5be1e5ebec7d5bd14f71427d1e84f3dd0314c0f7b2291e5b200ac8c7c3b925",
            "0x000000000000000000000000204e8def7e6c467cebcebbc5c89ad86bf3003fe3",
            "0x00000000000000000000000014c03ae4342aa2ed24235b3abfdd0c0aac118815",
            "0x000000000000000000000000000000000000000000000000000000000000000a"
          ],
          "data": "0x",
          "blockHash": "0xb54c3e9ea6647e9c7fe7f0c0acb27894d5769ebfaf95ba217ad96e21da04c6f1",
          "blockNumber": "0x768ca2",
          "transactionHash": "0x2ffcef6efc69e009dbb181013dedc0a2f410de2f08f60a08ca7277c1d4576c72",
          "transactionIndex": "0xcc",
          "logIndex": "0xe3",
          "removed": false
        },
        {
          "address": "0x14c03ae4342aa2ed24235b3abfdd0c0aac118815",
          "topics": [
            "0xdeee21db6a55c8eecf477d3301bcad831b184340f28656006a166316933b23e1",
            "0x000000000000000000000000000000000000000000000000000000000000000a",
            "0x000000000000000000000000204e8def7e6c467cebcebbc5c89ad86bf3003fe3"
          ],
          "data": "0x",
          "blockHash": "0xb54c3e9ea6647e9c7fe7f0c0acb27894d5769ebfaf95ba217ad96e21da04c6f1",
          "blockNumber": "0x768ca2",
          "transactionHash": "0x2ffcef6efc69e009dbb181013dedc0a2f410de2f08f60a08ca7277c1d4576c72",
          "transactionIndex": "0xcc",
          "logIndex": "0xe4",
          "removed": false
        }
      ],
      "logsBloom": "0x00002000000000000000000000000000000000004000000000000000000000000000000010000000000000000000000000000000040000000020000000200000000000000000000000000000000000000000000040000000000000000000000000000000000000000008000000000000000000000004000000000000000000000000000000000000010000200000000000000000000000000000000000000000020000000000040000000000000000000000000000000000080000000000000000000028000000000000000000000000000000000000000000000000000000000010000000000000000000000000000000000040000000000000000000000000",
      "type": "0x2",
      "transactionHash": "0x2ffcef6efc69e009dbb181013dedc0a2f410de2f08f60a08ca7277c1d4576c72",
      "transactionIndex": "0xcc",
      "blockHash": "0xb54c3e9ea6647e9c7fe7f0c0acb27894d5769ebfaf95ba217ad96e21da04c6f1",
      "blockNumber": "0x768ca2",
      "gasUsed": "0xc5a7",
      "effectiveGasPrice": "0x10ab53c3f",
      "from": "0x204e8def7e6c467cebcebbc5c89ad86bf3003fe3",
      "to": "0x14c03ae4342aa2ed24235b3abfdd0c0aac118815",
      "contractAddress": null
    },
    {
      "status": "0x1",
      "cumulativeGasUsed": "0x102536d",
      "logs": [
        {
          "address": "0x14c03ae4342aa2ed24235b3abfdd0c0aac118815",
          "topics": [
            "0xddf252ad1be2c89b69c2b068fc378daa952ba7f163c4a11628f55a4df523b3ef",
            "0x0000000000000000000000000000000000000000000000000000000000000000",
            "0x000000000000000000000000204e8def7e6c467cebcebbc5c89ad86bf3003fe3",
            "0x000000000000000000000000000000000000000000000000000000000000000b"
          ],
          "data": "0x",
          "blockHash": "0xb54c3e9ea6647e9c7fe7f0c0acb27894d5769ebfaf95ba217ad96e21da04c6f1",
          "blockNumber": "0x768ca2",
          "transactionHash": "0xab19fb821b8bd821afa5287073d1a3fec9e7f4c682443948a9e9db36c149ac16",
          "transactionIndex": "0xcd",
          "logIndex": "0xe5",
          "removed": false
        },
        {
          "address": "0x14c03ae4342aa2ed24235b3abfdd0c0aac118815",
          "topics": [
            "0xf8e1a15aba9398e019f0b49df1a4fde98ee17ae345cb5f6b5e2c27f5033e8ce7"
          ],
          "data": "0x000000000000000000000000000000000000000000000000000000000000000b",
          "blockHash": "0xb54c3e9ea6647e9c7fe7f0c0acb27894d5769ebfaf95ba217ad96e21da04c6f1",
          "blockNumber": "0x768ca2",
          "transactionHash": "0xab19fb821b8bd821afa5287073d1a3fec9e7f4c682443948a9e9db36c149ac16",
          "transactionIndex": "0xcd",
          "logIndex": "0xe6",
          "removed": false
        },
        {
          "address": "0x14c03ae4342aa2ed24235b3abfdd0c0aac118815",
          "topics": [
            "0x684f6795945805272d5839a7063f5e0a3b6dd64bdb3976749763ec2fea161778",
            "0x000000000000000000000000000000000000000000000000000000000000000b",
            "0x000000000000000000000000204e8def7e6c467cebcebbc5c89ad86bf3003fe3"
          ],
          "data": "0x0000000000000000000000000000000000000000000000000000000000000040000000000000000000000000000000000000000000000000000009184e72a000000000000000000000000000000000000000000000000000000000000000007c68747470733a2f2f73696c7665722d747269636b792d74726f75742d3934352e6d7970696e6174612e636c6f75642f697066732f6261667962656964653732686c33646b687632653569627a72696762376369717269346b6c7a71326a703367697a6361656363337a6865797875792f50696b616368752e6a736f6e00000000",
          "blockHash": "0xb54c3e9ea6647e9c7fe7f0c0acb27894d5769ebfaf95ba217ad96e21da04c6f1",
          "blockNumber": "0x768ca2",
          "transactionHash": "0xab19fb821b8bd821afa5287073d1a3fec9e7f4c682443948a9e9db36c149ac16",
          "transactionIndex": "0xcd",
          "logIndex": "0xe7",
          "removed": false
        }
      ],
      "logsBloom": "0x00002000000000000000004000000000000000000000000000000000000000000000000000000000000000000000000000000000000000000000000000000000000000000000000000010008000000000000000040000000000000000000000000000000020000000001000000000800000000000000000000200010000000000000000000000000000000200000000000000000000000000000000000000000000000000000040000000000000000002000000000000000080000000000008000000002000000000000000000000000002000000000000000000000000020000000000000000000200000000000000000000040000000040000000000000000",
      "type": "0x2",
      "transactionHash": "0xab19fb821b8bd821afa5287073d1a3fec9e7f4c682443948a9e9db36c149ac16",
      "transactionIndex": "0xcd",
      "blockHash": "0xb54c3e9ea6647e9c7fe7f0c0acb27894d5769ebfaf95ba217ad96e21da04c6f1",
      "blockNumber": "0x768ca2",
      "gasUsed": "0x363e0",
      "effectiveGasPrice": "0x10ab53c3f",
      "from": "0x204e8def7e6c467cebcebbc5c89ad86bf3003fe3",
      "to": "0x14c03ae4342aa2ed24235b3abfdd0c0aac118815",
      "contractAddress": null
    },
    {
      "status": "0x1",
      "cumulativeGasUsed": "0x1031914",
      "logs": [
        {
          "address": "0x14c03ae4342aa2ed24235b3abfdd0c0aac118815",
          "topics": [
            "0x8c5be1e5ebec7d5bd14f71427d1e84f3dd0314c0f7b2291e5b200ac8c7c3b925",
            "0x000000000000000000000000204e8def7e6c467cebcebbc5c89ad86bf3003fe3",
            "0x00000000000000000000000014c03ae4342aa2ed24235b3abfdd0c0aac118815",
            "0x000000000000000000000000000000000000000000000000000000000000000b"
          ],
          "data": "0x",
          "blockHash": "0xb54c3e9ea6647e9c7fe7f0c0acb27894d5769ebfaf95ba217ad96e21da04c6f1",
          "blockNumber": "0x768ca2",
          "transactionHash": "0x26a97f8cdf7c260ad76b547def3b068fb5c2f607adad79de8c9713613379c8c9",
          "transactionIndex": "0xce",
          "logIndex": "0xe8",
          "removed": false
        },
        {
          "address": "0x14c03ae4342aa2ed24235b3abfdd0c0aac118815",
          "topics": [
            "0xdeee21db6a55c8eecf477d3301bcad831b184340f28656006a166316933b23e1",
            "0x000000000000000000000000000000000000000000000000000000000000000b",
            "0x000000000000000000000000204e8def7e6c467cebcebbc5c89ad86bf3003fe3"
          ],
          "data": "0x",
          "blockHash": "0xb54c3e9ea6647e9c7fe7f0c0acb27894d5769ebfaf95ba217ad96e21da04c6f1",
          "blockNumber": "0x768ca2",
          "transactionHash": "0x26a97f8cdf7c260ad76b547def3b068fb5c2f607adad79de8c9713613379c8c9",
          "transactionIndex": "0xce",
          "logIndex": "0xe9",
          "removed": false
        }
      ],
      "logsBloom": "0x00002000000000000000004000000000000000004000000000000000000000000000000010000000000000000000000000000000000000000000000000200000000000000000000000000000000000000000000040000000000000000000000000000000000000000008000000000000000000000004000000000000000000000000000000000000000000200000000000000000000000000000000000000000020000000000040000000000000000000000000000000000080000000000000000000028000000000000000000000000002000000000000000000000000000000010000000000000000000000000000000000040000000040000000000000000",
      "type": "0x2",
      "transactionHash": "0x26a97f8cdf7c260ad76b547def3b068fb5c2f607adad79de8c9713613379c8c9",
      "transactionIndex": "0xce",
      "blockHash": "0xb54c3e9ea6647e9c7fe7f0c0acb27894d5769ebfaf95ba217ad96e21da04c6f1",
      "blockNumber": "0x768ca2",
      "gasUsed": "0xc5a7",
      "effectiveGasPrice": "0x10ab53c3f",
      "from": "0x204e8def7e6c467cebcebbc5c89ad86bf3003fe3",
      "to": "0x14c03ae4342aa2ed24235b3abfdd0c0aac118815",
      "contractAddress": null
    },
    {
      "status": "0x1",
      "cumulativeGasUsed": "0x1067d00",
      "logs": [
        {
          "address": "0x14c03ae4342aa2ed24235b3abfdd0c0aac118815",
          "topics": [
            "0xddf252ad1be2c89b69c2b068fc378daa952ba7f163c4a11628f55a4df523b3ef",
            "0x0000000000000000000000000000000000000000000000000000000000000000",
            "0x000000000000000000000000204e8def7e6c467cebcebbc5c89ad86bf3003fe3",
            "0x000000000000000000000000000000000000000000000000000000000000000c"
          ],
          "data": "0x",
          "blockHash": "0xb54c3e9ea6647e9c7fe7f0c0acb27894d5769ebfaf95ba217ad96e21da04c6f1",
          "blockNumber": "0x768ca2",
          "transactionHash": "0xdfeae3b93b20d95c6a8f5765e08e8adef4ec7f28013a5937135bf30bfe33217e",
          "transactionIndex": "0xcf",
          "logIndex": "0xea",
          "removed": false
        },
        {
          "address": "0x14c03ae4342aa2ed24235b3abfdd0c0aac118815",
          "topics": [
            "0xf8e1a15aba9398e019f0b49df1a4fde98ee17ae345cb5f6b5e2c27f5033e8ce7"
          ],
          "data": "0x000000000000000000000000000000000000000000000000000000000000000c",
          "blockHash": "0xb54c3e9ea6647e9c7fe7f0c0acb27894d5769ebfaf95ba217ad96e21da04c6f1",
          "blockNumber": "0x768ca2",
          "transactionHash": "0xdfeae3b93b20d95c6a8f5765e08e8adef4ec7f28013a5937135bf30bfe33217e",
          "transactionIndex": "0xcf",
          "logIndex": "0xeb",
          "removed": false
        },
        {
          "address": "0x14c03ae4342aa2ed24235b3abfdd0c0aac118815",
          "topics": [
            "0x684f6795945805272d5839a7063f5e0a3b6dd64bdb3976749763ec2fea161778",
            "0x000000000000000000000000000000000000000000000000000000000000000c",
            "0x000000000000000000000000204e8def7e6c467cebcebbc5c89ad86bf3003fe3"
          ],
          "data": "0x0000000000000000000000000000000000000000000000000000000000000040000000000000000000000000000000000000000000000000000009184e72a000000000000000000000000000000000000000000000000000000000000000007d68747470733a2f2f73696c7665722d747269636b792d74726f75742d3934352e6d7970696e6174612e636c6f75642f697066732f6261667962656964653732686c33646b687632653569627a72696762376369717269346b6c7a71326a703367697a6361656363337a6865797875792f50696b61636875322e6a736f6e000000",
          "blockHash": "0xb54c3e9ea6647e9c7fe7f0c0acb27894d5769ebfaf95ba217ad96e21da04c6f1",
          "blockNumber": "0x768ca2",
          "transactionHash": "0xdfeae3b93b20d95c6a8f5765e08e8adef4ec7f28013a5937135bf30bfe33217e",
          "transactionIndex": "0xcf",
          "logIndex": "0xec",
          "removed": false
        }
      ],
      "logsBloom": "0x00002000000000000000000000000000000002000000000000000000000000000000000000000200000000000000000000000000000000000000000000000000000000000000000000010008000000000000000040000000000000000000000000000000020000000001000000000800000000000000000000200010000000000000000000000000000000200000000000000000000000000000000000000000000000000000040000000000000000002000000000000000080000000000008000000002000000000000000000000000000000000000000000000000000020200000000000000000200000000000000000000040000000000000000000000000",
      "type": "0x2",
      "transactionHash": "0xdfeae3b93b20d95c6a8f5765e08e8adef4ec7f28013a5937135bf30bfe33217e",
      "transactionIndex": "0xcf",
      "blockHash": "0xb54c3e9ea6647e9c7fe7f0c0acb27894d5769ebfaf95ba217ad96e21da04c6f1",
      "blockNumber": "0x768ca2",
      "gasUsed": "0x363ec",
      "effectiveGasPrice": "0x10ab53c3f",
      "from": "0x204e8def7e6c467cebcebbc5c89ad86bf3003fe3",
      "to": "0x14c03ae4342aa2ed24235b3abfdd0c0aac118815",
      "contractAddress": null
    },
    {
      "status": "0x1",
      "cumulativeGasUsed": "0xf4c214",
      "logs": [
        {
          "address": "0x14c03ae4342aa2ed24235b3abfdd0c0aac118815",
          "topics": [
            "0x8c5be1e5ebec7d5bd14f71427d1e84f3dd0314c0f7b2291e5b200ac8c7c3b925",
            "0x000000000000000000000000204e8def7e6c467cebcebbc5c89ad86bf3003fe3",
            "0x00000000000000000000000014c03ae4342aa2ed24235b3abfdd0c0aac118815",
            "0x000000000000000000000000000000000000000000000000000000000000000c"
          ],
          "data": "0x",
          "blockHash": "0xc94fecfa626f5a0bcbe3c5e5f8a15a6c7cbf0e0390f5b0a556e11f9aa1330be1",
          "blockNumber": "0x768ca3",
          "transactionHash": "0x3ef5bf5b8fcfcd97695f82fde275c85fb91a615688f8991a3dfa7375361bf2c9",
          "transactionIndex": "0x9d",
          "logIndex": "0xe6",
          "removed": false
        },
        {
          "address": "0x14c03ae4342aa2ed24235b3abfdd0c0aac118815",
          "topics": [
            "0xdeee21db6a55c8eecf477d3301bcad831b184340f28656006a166316933b23e1",
            "0x000000000000000000000000000000000000000000000000000000000000000c",
            "0x000000000000000000000000204e8def7e6c467cebcebbc5c89ad86bf3003fe3"
          ],
          "data": "0x",
          "blockHash": "0xc94fecfa626f5a0bcbe3c5e5f8a15a6c7cbf0e0390f5b0a556e11f9aa1330be1",
          "blockNumber": "0x768ca3",
          "transactionHash": "0x3ef5bf5b8fcfcd97695f82fde275c85fb91a615688f8991a3dfa7375361bf2c9",
          "transactionIndex": "0x9d",
          "logIndex": "0xe7",
          "removed": false
        }
      ],
      "logsBloom": "0x00002000000000000000000000000000000002004000000000000000000000000000000010000200000000000000000000000000000000000000000000200000000000000000000000000000000000000000000040000000000000000000000000000000000000000008000000000000000000000004000000000000000000000000000000000000000000200000000000000000000000000000000000000000020000000000040000000000000000000000000000000000080000000000000000000028000000000000000000000000000000000000000000000000000000200010000000000000000000000000000000000040000000000000000000000000",
      "type": "0x2",
      "transactionHash": "0x3ef5bf5b8fcfcd97695f82fde275c85fb91a615688f8991a3dfa7375361bf2c9",
      "transactionIndex": "0x9d",
      "blockHash": "0xc94fecfa626f5a0bcbe3c5e5f8a15a6c7cbf0e0390f5b0a556e11f9aa1330be1",
      "blockNumber": "0x768ca3",
      "gasUsed": "0xc5a7",
      "effectiveGasPrice": "0x10ce76985",
      "from": "0x204e8def7e6c467cebcebbc5c89ad86bf3003fe3",
      "to": "0x14c03ae4342aa2ed24235b3abfdd0c0aac118815",
      "contractAddress": null
    },
    {
      "status": "0x1",
      "cumulativeGasUsed": "0xf825e8",
      "logs": [
        {
          "address": "0x14c03ae4342aa2ed24235b3abfdd0c0aac118815",
          "topics": [
            "0xddf252ad1be2c89b69c2b068fc378daa952ba7f163c4a11628f55a4df523b3ef",
            "0x0000000000000000000000000000000000000000000000000000000000000000",
            "0x000000000000000000000000204e8def7e6c467cebcebbc5c89ad86bf3003fe3",
            "0x000000000000000000000000000000000000000000000000000000000000000d"
          ],
          "data": "0x",
          "blockHash": "0xc94fecfa626f5a0bcbe3c5e5f8a15a6c7cbf0e0390f5b0a556e11f9aa1330be1",
          "blockNumber": "0x768ca3",
          "transactionHash": "0xccc086a2357763746b86bb193cef8f10caf9989b4c2f2d6082a3529db2732670",
          "transactionIndex": "0x9e",
          "logIndex": "0xe8",
          "removed": false
        },
        {
          "address": "0x14c03ae4342aa2ed24235b3abfdd0c0aac118815",
          "topics": [
            "0xf8e1a15aba9398e019f0b49df1a4fde98ee17ae345cb5f6b5e2c27f5033e8ce7"
          ],
          "data": "0x000000000000000000000000000000000000000000000000000000000000000d",
          "blockHash": "0xc94fecfa626f5a0bcbe3c5e5f8a15a6c7cbf0e0390f5b0a556e11f9aa1330be1",
          "blockNumber": "0x768ca3",
          "transactionHash": "0xccc086a2357763746b86bb193cef8f10caf9989b4c2f2d6082a3529db2732670",
          "transactionIndex": "0x9e",
          "logIndex": "0xe9",
          "removed": false
        },
        {
          "address": "0x14c03ae4342aa2ed24235b3abfdd0c0aac118815",
          "topics": [
            "0x684f6795945805272d5839a7063f5e0a3b6dd64bdb3976749763ec2fea161778",
            "0x000000000000000000000000000000000000000000000000000000000000000d",
            "0x000000000000000000000000204e8def7e6c467cebcebbc5c89ad86bf3003fe3"
          ],
          "data": "0x0000000000000000000000000000000000000000000000000000000000000040000000000000000000000000000000000000000000000000000009184e72a000000000000000000000000000000000000000000000000000000000000000007b68747470733a2f2f73696c7665722d747269636b792d74726f75742d3934352e6d7970696e6174612e636c6f75642f697066732f6261667962656964653732686c33646b687632653569627a72696762376369717269346b6c7a71326a703367697a6361656363337a6865797875792f5261696368752e6a736f6e0000000000",
          "blockHash": "0xc94fecfa626f5a0bcbe3c5e5f8a15a6c7cbf0e0390f5b0a556e11f9aa1330be1",
          "blockNumber": "0x768ca3",
          "transactionHash": "0xccc086a2357763746b86bb193cef8f10caf9989b4c2f2d6082a3529db2732670",
          "transactionIndex": "0x9e",
          "logIndex": "0xea",
          "removed": false
        }
      ],
      "logsBloom": "0x00002000000000000040000000000000000000000000000000000000000000000000000000000000000000000000000000000000000000000000000000000000000000000000000000010008000000000002000040000000000000000000000000000000020000000001000000000800000000000000000000200010000000000000000000000000000000200000000000000000000000000000000000000000000000000000040000000000000000002000000000000000080000000000008000000002000000000000000000000000000000000000000000000000000020020000000000000000200000000000000000000040000000000000000000000000",
      "type": "0x2",
      "transactionHash": "0xccc086a2357763746b86bb193cef8f10caf9989b4c2f2d6082a3529db2732670",
      "transactionIndex": "0x9e",
      "blockHash": "0xc94fecfa626f5a0bcbe3c5e5f8a15a6c7cbf0e0390f5b0a556e11f9aa1330be1",
      "blockNumber": "0x768ca3",
      "gasUsed": "0x363d4",
      "effectiveGasPrice": "0x10ce76985",
      "from": "0x204e8def7e6c467cebcebbc5c89ad86bf3003fe3",
      "to": "0x14c03ae4342aa2ed24235b3abfdd0c0aac118815",
      "contractAddress": null
    },
    {
      "status": "0x1",
      "cumulativeGasUsed": "0xf8eb8f",
      "logs": [
        {
          "address": "0x14c03ae4342aa2ed24235b3abfdd0c0aac118815",
          "topics": [
            "0x8c5be1e5ebec7d5bd14f71427d1e84f3dd0314c0f7b2291e5b200ac8c7c3b925",
            "0x000000000000000000000000204e8def7e6c467cebcebbc5c89ad86bf3003fe3",
            "0x00000000000000000000000014c03ae4342aa2ed24235b3abfdd0c0aac118815",
            "0x000000000000000000000000000000000000000000000000000000000000000d"
          ],
          "data": "0x",
          "blockHash": "0xc94fecfa626f5a0bcbe3c5e5f8a15a6c7cbf0e0390f5b0a556e11f9aa1330be1",
          "blockNumber": "0x768ca3",
          "transactionHash": "0xa6487c5ffc7469b8c8c7fbdbccaffc46f26fde9b00cf6582fc1b0e8546bf7407",
          "transactionIndex": "0x9f",
          "logIndex": "0xeb",
          "removed": false
        },
        {
          "address": "0x14c03ae4342aa2ed24235b3abfdd0c0aac118815",
          "topics": [
            "0xdeee21db6a55c8eecf477d3301bcad831b184340f28656006a166316933b23e1",
            "0x000000000000000000000000000000000000000000000000000000000000000d",
            "0x000000000000000000000000204e8def7e6c467cebcebbc5c89ad86bf3003fe3"
          ],
          "data": "0x",
          "blockHash": "0xc94fecfa626f5a0bcbe3c5e5f8a15a6c7cbf0e0390f5b0a556e11f9aa1330be1",
          "blockNumber": "0x768ca3",
          "transactionHash": "0xa6487c5ffc7469b8c8c7fbdbccaffc46f26fde9b00cf6582fc1b0e8546bf7407",
          "transactionIndex": "0x9f",
          "logIndex": "0xec",
          "removed": false
        }
      ],
      "logsBloom": "0x00002000000000000040000000000000000000004000000000000000000000000000000010000000000000000000000000000000000000000000000000200000000000000000000000000000000000000002000040000000000000000000000000000000000000000008000000000000000000000004000000000000000000000000000000000000000000200000000000000000000000000000000000000000020000000000040000000000000000000000000000000000080000000000000000000028000000000000000000000000000000000000000000000000000000020010000000000000000000000000000000000040000000000000000000000000",
      "type": "0x2",
      "transactionHash": "0xa6487c5ffc7469b8c8c7fbdbccaffc46f26fde9b00cf6582fc1b0e8546bf7407",
      "transactionIndex": "0x9f",
      "blockHash": "0xc94fecfa626f5a0bcbe3c5e5f8a15a6c7cbf0e0390f5b0a556e11f9aa1330be1",
      "blockNumber": "0x768ca3",
      "gasUsed": "0xc5a7",
      "effectiveGasPrice": "0x10ce76985",
      "from": "0x204e8def7e6c467cebcebbc5c89ad86bf3003fe3",
      "to": "0x14c03ae4342aa2ed24235b3abfdd0c0aac118815",
      "contractAddress": null
    },
    {
      "status": "0x1",
      "cumulativeGasUsed": "0xfc4f6f",
      "logs": [
        {
          "address": "0x14c03ae4342aa2ed24235b3abfdd0c0aac118815",
          "topics": [
            "0xddf252ad1be2c89b69c2b068fc378daa952ba7f163c4a11628f55a4df523b3ef",
            "0x0000000000000000000000000000000000000000000000000000000000000000",
            "0x000000000000000000000000204e8def7e6c467cebcebbc5c89ad86bf3003fe3",
            "0x000000000000000000000000000000000000000000000000000000000000000e"
          ],
          "data": "0x",
          "blockHash": "0xc94fecfa626f5a0bcbe3c5e5f8a15a6c7cbf0e0390f5b0a556e11f9aa1330be1",
          "blockNumber": "0x768ca3",
          "transactionHash": "0x8d7b052cde11323c97399015d51d90e499809eaacfaf423c0789fb537f7e6690",
          "transactionIndex": "0xa0",
          "logIndex": "0xed",
          "removed": false
        },
        {
          "address": "0x14c03ae4342aa2ed24235b3abfdd0c0aac118815",
          "topics": [
            "0xf8e1a15aba9398e019f0b49df1a4fde98ee17ae345cb5f6b5e2c27f5033e8ce7"
          ],
          "data": "0x000000000000000000000000000000000000000000000000000000000000000e",
          "blockHash": "0xc94fecfa626f5a0bcbe3c5e5f8a15a6c7cbf0e0390f5b0a556e11f9aa1330be1",
          "blockNumber": "0x768ca3",
          "transactionHash": "0x8d7b052cde11323c97399015d51d90e499809eaacfaf423c0789fb537f7e6690",
          "transactionIndex": "0xa0",
          "logIndex": "0xee",
          "removed": false
        },
        {
          "address": "0x14c03ae4342aa2ed24235b3abfdd0c0aac118815",
          "topics": [
            "0x684f6795945805272d5839a7063f5e0a3b6dd64bdb3976749763ec2fea161778",
            "0x000000000000000000000000000000000000000000000000000000000000000e",
            "0x000000000000000000000000204e8def7e6c467cebcebbc5c89ad86bf3003fe3"
          ],
          "data": "0x0000000000000000000000000000000000000000000000000000000000000040000000000000000000000000000000000000000000000000000009184e72a000000000000000000000000000000000000000000000000000000000000000007c68747470733a2f2f73696c7665722d747269636b792d74726f75742d3934352e6d7970696e6174612e636c6f75642f697066732f6261667962656964653732686c33646b687632653569627a72696762376369717269346b6c7a71326a703367697a6361656363337a6865797875792f526169636875322e6a736f6e00000000",
          "blockHash": "0xc94fecfa626f5a0bcbe3c5e5f8a15a6c7cbf0e0390f5b0a556e11f9aa1330be1",
          "blockNumber": "0x768ca3",
          "transactionHash": "0x8d7b052cde11323c97399015d51d90e499809eaacfaf423c0789fb537f7e6690",
          "transactionIndex": "0xa0",
          "logIndex": "0xef",
          "removed": false
        }
      ],
      "logsBloom": "0x00002000000000000000000000000000000000000000000000000000000000000000000000000000000000000000000000000000000000000000000000000000000000000000000800010008000000000000000040000000000000000000000000000000020000000001000000000800000000000000000000200010000000000000000000000000000000200000000008000000000000000000000000000000000000000000040000000000000000002000000000000020080000000000008000000002000000000000000000000000000000000000000000000000000020000000000000000000200000000000000000000040000000000000000000000000",
      "type": "0x2",
      "transactionHash": "0x8d7b052cde11323c97399015d51d90e499809eaacfaf423c0789fb537f7e6690",
      "transactionIndex": "0xa0",
      "blockHash": "0xc94fecfa626f5a0bcbe3c5e5f8a15a6c7cbf0e0390f5b0a556e11f9aa1330be1",
      "blockNumber": "0x768ca3",
      "gasUsed": "0x363e0",
      "effectiveGasPrice": "0x10ce76985",
      "from": "0x204e8def7e6c467cebcebbc5c89ad86bf3003fe3",
      "to": "0x14c03ae4342aa2ed24235b3abfdd0c0aac118815",
      "contractAddress": null
    },
    {
      "status": "0x1",
      "cumulativeGasUsed": "0xfd1516",
      "logs": [
        {
          "address": "0x14c03ae4342aa2ed24235b3abfdd0c0aac118815",
          "topics": [
            "0x8c5be1e5ebec7d5bd14f71427d1e84f3dd0314c0f7b2291e5b200ac8c7c3b925",
            "0x000000000000000000000000204e8def7e6c467cebcebbc5c89ad86bf3003fe3",
            "0x00000000000000000000000014c03ae4342aa2ed24235b3abfdd0c0aac118815",
            "0x000000000000000000000000000000000000000000000000000000000000000e"
          ],
          "data": "0x",
          "blockHash": "0xc94fecfa626f5a0bcbe3c5e5f8a15a6c7cbf0e0390f5b0a556e11f9aa1330be1",
          "blockNumber": "0x768ca3",
          "transactionHash": "0x5b2ec269e36b9d174be8f6af702062a2c6b2e7dde92f6515eeeaec91929a6830",
          "transactionIndex": "0xa1",
          "logIndex": "0xf0",
          "removed": false
        },
        {
          "address": "0x14c03ae4342aa2ed24235b3abfdd0c0aac118815",
          "topics": [
            "0xdeee21db6a55c8eecf477d3301bcad831b184340f28656006a166316933b23e1",
            "0x000000000000000000000000000000000000000000000000000000000000000e",
            "0x000000000000000000000000204e8def7e6c467cebcebbc5c89ad86bf3003fe3"
          ],
          "data": "0x",
          "blockHash": "0xc94fecfa626f5a0bcbe3c5e5f8a15a6c7cbf0e0390f5b0a556e11f9aa1330be1",
          "blockNumber": "0x768ca3",
          "transactionHash": "0x5b2ec269e36b9d174be8f6af702062a2c6b2e7dde92f6515eeeaec91929a6830",
          "transactionIndex": "0xa1",
          "logIndex": "0xf1",
          "removed": false
        }
      ],
      "logsBloom": "0x00002000000000000000000000000000000000004000000000000000000000000000000010000000000000000000000000000000000000000000000000200000000000000000000800000000000000000000000040000000000000000000000000000000000000000008000000000000000000000004000000000000000000000000000000000000000000200000000008000000000000000000000000000000020000000000040000000000000000000000000000000020080000000000000000000028000000000000000000000000000000000000000000000000000000000010000000000000000000000000000000000040000000000000000000000000",
      "type": "0x2",
      "transactionHash": "0x5b2ec269e36b9d174be8f6af702062a2c6b2e7dde92f6515eeeaec91929a6830",
      "transactionIndex": "0xa1",
      "blockHash": "0xc94fecfa626f5a0bcbe3c5e5f8a15a6c7cbf0e0390f5b0a556e11f9aa1330be1",
      "blockNumber": "0x768ca3",
      "gasUsed": "0xc5a7",
      "effectiveGasPrice": "0x10ce76985",
      "from": "0x204e8def7e6c467cebcebbc5c89ad86bf3003fe3",
      "to": "0x14c03ae4342aa2ed24235b3abfdd0c0aac118815",
      "contractAddress": null
    }
  ],
  "libraries": [],
  "pending": [],
  "returns": {},
  "timestamp": 1740319993,
  "chain": 11155111,
  "commit": "3e6012f"
}