{
  "transactions": [
    {
      "hash": "0x598edb9ff3ab3513e7c16c305f620c6f403abd98b3126bfb6722821c8b7dee57",
      "transactionType": "CREATE",
      "contractName": "Nft",
      "contractAddress": "0xbd74dd358969964dae57b499b08112bd37b6a63d",
      "function": null,
      "arguments": [
        "0x204E8DEf7E6c467cEbCeBbC5c89ad86Bf3003FE3"
      ],
      "transaction": {
        "from": "0x204e8def7e6c467cebcebbc5c89ad86bf3003fe3",
        "gas": "0x26ddc3",
        "value": "0x0",
        "input": "0x60806040525f600855348015610013575f5ffd5b506040516123573803806123578339810160408190526100329161013f565b80604051806040016040528060078152602001662837b5b2b6b7b760c91b81525060405180604001604052806004815260200163504f4b4560e01b815250815f908161007e9190610204565b50600161008b8282610204565b5050506001600160a01b0381166100bb57604051631e4fbdf760e01b81525f600482015260240160405180910390fd5b6100c4816100ee565b50600980546001600160a01b0319166001600160a01b03929092169190911790555f6008556102be565b600780546001600160a01b038381166001600160a01b0319831681179093556040519116919082907f8be0079c531659141344cd1fd0a4f28419497f9722a3daafe3b4186f6b6457e0905f90a35050565b5f6020828403121561014f575f5ffd5b81516001600160a01b0381168114610165575f5ffd5b9392505050565b634e487b7160e01b5f52604160045260245ffd5b600181811c9082168061019457607f821691505b6020821081036101b257634e487b7160e01b5f52602260045260245ffd5b50919050565b601f8211156101ff57805f5260205f20601f840160051c810160208510156101dd5750805b601f840160051c820191505b818110156101fc575f81556001016101e9565b50505b505050565b81516001600160401b0381111561021d5761021d61016c565b6102318161022b8454610180565b846101b8565b6020601f821160018114610263575f831561024c5750848201515b5f19600385901b1c1916600184901b1784556101fc565b5f84815260208120601f198516915b828110156102925787850151825560209485019460019092019101610272565b50848210156102af57868401515f19600387901b60f8161c191681555b50505050600190811b01905550565b61208c806102cb5f395ff3fe6080604052600436106101d0575f3560e01c8063661f20c1116100fd578063b36e88ba11610092578063c2507ac111610062578063c2507ac11461061b578063c87b56dd14610646578063e985e9c514610665578063f2fde38b14610684575f5ffd5b8063b36e88ba14610564578063b88d4fde146105c8578063ba7aef43146105e7578063bd55022a14610606575f5ffd5b80638da5cb5b116100cd5780638da5cb5b146104f557806395d89b4114610512578063a22cb46514610526578063a839c09a14610545575f5ffd5b8063661f20c11461049057806369e9cae1146104af57806370a08231146104c2578063715018a6146104e1575f5ffd5b80631caaa487116101735780633bb3a24d116101435780633bb3a24d1461040857806342842e0e1461042757806345ab331e146104465780636352211e14610471575f5ffd5b80631caaa487146102e25780631e6c598e1461031657806323b872dd146103ca57806329ba7bb2146103e9575f5ffd5b806306fdde03116101ae57806306fdde0314610248578063081812fc14610269578063095ea7b3146102a057806317d70f7c146102bf575f5ffd5b806301663e59146101d45780630179cc52146101f557806301ffc9a714610214575b5f5ffd5b3480156101df575f5ffd5b506101f36101ee366004611ad5565b6106a3565b005b348015610200575f5ffd5b506101f361020f366004611aec565b61080b565b34801561021f575f5ffd5b5061023361022e366004611b21565b610890565b60405190151581526020015b60405180910390f35b348015610253575f5ffd5b5061025c6108ba565b60405161023f9190611b6a565b348015610274575f5ffd5b50610288610283366004611ad5565b610949565b6040516001600160a01b03909116815260200161023f565b3480156102ab575f5ffd5b506101f36102ba366004611b97565b610970565b3480156102ca575f5ffd5b506102d460085481565b60405190815260200161023f565b3480156102ed575f5ffd5b506102886102fc366004611ad5565b600b6020525f90815260409020546001600160a01b031681565b348015610321575f5ffd5b50610380610330366004611ad5565b600c6020525f9081526040902080546001820154600283015460038401546004909401546001600160a01b03938416949293909116919060ff808216916101008104821691620100009091041687565b604080516001600160a01b03988916815260208101979097529490961693850193909352606084019190915215156080830152151560a082015290151560c082015260e00161023f565b3480156103d5575f5ffd5b506101f36103e4366004611bbf565b61097b565b3480156103f4575f5ffd5b50600954610288906001600160a01b031681565b348015610413575f5ffd5b5061025c610422366004611ad5565b610a04565b348015610432575f5ffd5b506101f3610441366004611bbf565b610a0f565b348015610451575f5ffd5b506102d4610460366004611ad5565b600a6020525f908152604090205481565b34801561047c575f5ffd5b5061028861048b366004611ad5565b610a2e565b34801561049b575f5ffd5b506101f36104aa366004611ad5565b610a38565b6101f36104bd366004611bbf565b610b09565b3480156104cd575f5ffd5b506102d46104dc366004611bf9565b610bfd565b3480156104ec575f5ffd5b506101f3610c42565b348015610500575f5ffd5b506007546001600160a01b0316610288565b34801561051d575f5ffd5b5061025c610c55565b348015610531575f5ffd5b506101f3610540366004611c12565b610c64565b348015610550575f5ffd5b506101f361055f366004611c4b565b610c6f565b34801561056f575f5ffd5b506105a961057e366004611ad5565b5f908152600c602052604090206004015460ff80821692610100830482169262010000900490911690565b604080519315158452911515602084015215159082015260600161023f565b3480156105d3575f5ffd5b506101f36105e2366004611d08565b610e5c565b3480156105f2575f5ffd5b506102d4610601366004611d7f565b610e74565b348015610611575f5ffd5b506102d4600d5481565b348015610626575f5ffd5b506102d4610635366004611ad5565b5f908152600a602052604090205490565b348015610651575f5ffd5b5061025c610660366004611ad5565b610f26565b348015610670575f5ffd5b5061023361067f366004611de6565b611031565b34801561068f575f5ffd5b506101f361069e366004611bf9565b61105e565b5f818152600c60205260409020600481015462010000900460ff16156107105760405162461bcd60e51b815260206004820152601760248201527f547261646520616c726561647920636f6d706c6574656400000000000000000060448201526064015b60405180910390fd5b80546001600160a01b031633036107355760048101805460ff191660011790556107a7565b60028101546001600160a01b0316330361075f5760048101805461ff0019166101001790556107a7565b60405162461bcd60e51b815260206004820152601e60248201527f596f7520617265206e6f742070617274206f66207468697320747261646500006044820152606401610707565b60405182815233907f642ea0b1d63cc70f38e39719b589ae0a9a111ef74ae825093d1574009bdf4e299060200160405180910390a2600481015460ff1680156107f957506004810154610100900460ff165b15610807576108078261109b565b5050565b5f828152600b60205260409020546001600160a01b031633146108405760405162461bcd60e51b815260040161070790611e17565b5f828152600a6020526040908190208290555182907f515031d3619f8c375f04c238d50a5131384dbf0ed7dfeca372caab76f0396d2f906108849084815260200190565b60405180910390a25050565b5f6001600160e01b03198216632483248360e11b14806108b457506108b482611215565b92915050565b60605f80546108c890611e58565b80601f01602080910402602001604051908101604052809291908181526020018280546108f490611e58565b801561093f5780601f106109165761010080835404028352916020019161093f565b820191905f5260205f20905b81548152906001019060200180831161092257829003601f168201915b5050505050905090565b5f61095382611264565b505f828152600460205260409020546001600160a01b03166108b4565b61080782823361129c565b6001600160a01b0382166109a457604051633250574960e11b81525f6004820152602401610707565b5f6109b08383336112a9565b9050836001600160a01b0316816001600160a01b0316146109fe576040516364283d7b60e01b81526001600160a01b0380861660048301526024820184905282166044820152606401610707565b50505050565b60606108b482610f26565b610a2983838360405180602001604052805f815250610e5c565b505050565b5f6108b482611264565b610a4181610a2e565b6001600160a01b0316336001600160a01b031614610a715760405162461bcd60e51b815260040161070790611e17565b610a7b3082610970565b610a8481610949565b6001600160a01b0316306001600160a01b031614610ada5760405162461bcd60e51b8152602060048201526013602482015272139195081a5cc81b9bdd08185c1c1c9bdd9959606a1b6044820152606401610707565b604051339082907fdeee21db6a55c8eecf477d3301bcad831b184340f28656006a166316933b23e1905f90a350565b610b1161139b565b610b1a81610a2e565b6001600160a01b0316836001600160a01b031614610b4a5760405162461bcd60e51b815260040161070790611e17565b610b558383836113c8565b610b5e81610a2e565b6001600160a01b0316826001600160a01b031614610bb75760405162461bcd60e51b8152602060048201526016602482015275139195081a5cc81b9bdd081d1c985b9cd9995c9c995960521b6044820152606401610707565b816001600160a01b0316836001600160a01b0316827f3f238fa55bd4cbe018c8b5445830973d3021efa35b5604149c8995b491f2007260405160405180910390a4505050565b5f6001600160a01b038216610c27576040516322718ad960e21b81525f6004820152602401610707565b506001600160a01b03165f9081526003602052604090205490565b610c4a61139b565b610c535f611475565b565b6060600180546108c890611e58565b6108073383836114c6565b33610c7984610a2e565b6001600160a01b031614610cc75760405162461bcd60e51b8152602060048201526015602482015274596f7520646f206e6f74206f776e20746f6b656e4160581b6044820152606401610707565b806001600160a01b0316610cda83610a2e565b6001600160a01b031614610d305760405162461bcd60e51b815260206004820152601a60248201527f50617274794220646f6573206e6f74206f776e20746f6b656e420000000000006044820152606401610707565b600d8054905f610d3f83611e90565b90915550506040805160e0810182523380825260208083018781526001600160a01b0386811685870181815260608088018b81525f60808a0181815260a08b0182815260c08c01838152600d80548552600c8c52938e90209c518d54908a166001600160a01b0319918216178e55995160018e0155955160028d01805491909916991698909817909655905160038a0155935160049098018054955192511515620100000262ff0000199315156101000261ff00199a15159a909a1661ffff1990971696909617989098179190911693909317909555548551908152918201889052938101869052919290917ff2725c0575eeb8dd7bbfaa29b3ec69fa353ccbd0048021a8ef399a399911b78891015b60405180910390a3505050565b610e6784848461097b565b6109fe338585858561155c565b5f610e7d61139b565b60088054905f610e8c83611e90565b90915550506008545f818152600a60205260409020839055610eae8582611684565b610eb881856116e5565b5f818152600b60205260409081902080546001600160a01b0319166001600160a01b038816908117909155905182907f684f6795945805272d5839a7063f5e0a3b6dd64bdb3976749763ec2fea16177890610f169088908890611eb4565b60405180910390a3949350505050565b6060610f3182611264565b505f8281526006602052604081208054610f4a90611e58565b80601f0160208091040260200160405190810160405280929190818152602001828054610f7690611e58565b8015610fc15780601f10610f9857610100808354040283529160200191610fc1565b820191905f5260205f20905b815481529060010190602001808311610fa457829003601f168201915b505050505090505f610fdd60408051602081019091525f815290565b905080515f03610fee575092915050565b815115611020578082604051602001611008929190611eec565b60405160208183030381529060405292505050919050565b61102984611734565b949350505050565b6001600160a01b039182165f90815260056020908152604080832093909416825291909152205460ff1690565b61106661139b565b6001600160a01b03811661108f57604051631e4fbdf760e01b81525f6004820152602401610707565b61109881611475565b50565b5f818152600c60205260409020600481015460ff1680156110c557506004810154610100900460ff165b6111115760405162461bcd60e51b815260206004820152601960248201527f426f74682070617274696573206d75737420617070726f7665000000000000006044820152606401610707565b600481015462010000900460ff16156111655760405162461bcd60e51b8152602060048201526016602482015275151c98591948185b1c9958591e48195e1958dd5d195960521b6044820152606401610707565b5f6111738260010154610a2e565b90505f6111838360030154610a2e565b9050611194828285600101546113c8565b6111a3818385600301546113c8565b60048301805462ff0000191662010000179055600183015460038401546040805187815260208101939093528201526001600160a01b0382811691908416907f51701c0a770183caac72947e0848d20e71b0384cc22e8355c082cec6c722f02c9060600160405180910390a350505050565b5f6001600160e01b031982166380ac58cd60e01b148061124557506001600160e01b03198216635b5e139f60e01b145b806108b457506301ffc9a760e01b6001600160e01b03198316146108b4565b5f818152600260205260408120546001600160a01b0316806108b457604051637e27328960e01b815260048101849052602401610707565b610a2983838360016117a5565b5f828152600260205260408120546001600160a01b03908116908316156112d5576112d58184866118a9565b6001600160a01b0381161561130f576112f05f855f5f6117a5565b6001600160a01b0381165f90815260036020526040902080545f190190555b6001600160a01b0385161561133d576001600160a01b0385165f908152600360205260409020805460010190555b5f8481526002602052604080822080546001600160a01b0319166001600160a01b0389811691821790925591518793918516917fddf252ad1be2c89b69c2b068fc378daa952ba7f163c4a11628f55a4df523b3ef91a4949350505050565b6007546001600160a01b03163314610c535760405163118cdaa760e01b8152336004820152602401610707565b6001600160a01b0382166113f157604051633250574960e11b81525f6004820152602401610707565b5f6113fd83835f6112a9565b90506001600160a01b03811661142957604051637e27328960e01b815260048101839052602401610707565b836001600160a01b0316816001600160a01b0316146109fe576040516364283d7b60e01b81526001600160a01b0380861660048301526024820184905282166044820152606401610707565b600780546001600160a01b038381166001600160a01b0319831681179093556040519116919082907f8be0079c531659141344cd1fd0a4f28419497f9722a3daafe3b4186f6b6457e0905f90a35050565b6001600160a01b0382166114f857604051630b61174360e31b81526001600160a01b0383166004820152602401610707565b6001600160a01b038381165f81815260056020908152604080832094871680845294825291829020805460ff191686151590811790915591519182527f17307eab39ab6107e8899845ad3d59bd9653f200f220920489ca2b5937696c319101610e4f565b6001600160a01b0383163b1561167d57604051630a85bd0160e11b81526001600160a01b0384169063150b7a029061159e908890889087908790600401611f00565b6020604051808303815f875af19250505080156115d8575060408051601f3d908101601f191682019092526115d591810190611f3c565b60015b61163f573d808015611605576040519150601f19603f3d011682016040523d82523d5f602084013e61160a565b606091505b5080515f0361163757604051633250574960e11b81526001600160a01b0385166004820152602401610707565b805181602001fd5b6001600160e01b03198116630a85bd0160e11b1461167b57604051633250574960e11b81526001600160a01b0385166004820152602401610707565b505b5050505050565b6001600160a01b0382166116ad57604051633250574960e11b81525f6004820152602401610707565b5f6116b983835f6112a9565b90506001600160a01b03811615610a29576040516339e3563760e11b81525f6004820152602401610707565b5f8281526006602052604090206116fc8282611f9b565b506040518281527ff8e1a15aba9398e019f0b49df1a4fde98ee17ae345cb5f6b5e2c27f5033e8ce79060200160405180910390a15050565b606061173f82611264565b505f61175560408051602081019091525f815290565b90505f8151116117735760405180602001604052805f81525061179e565b8061177d8461190d565b60405160200161178e929190611eec565b6040516020818303038152906040525b9392505050565b80806117b957506001600160a01b03821615155b1561187a575f6117c884611264565b90506001600160a01b038316158015906117f45750826001600160a01b0316816001600160a01b031614155b801561180757506118058184611031565b155b156118305760405163a9fbf51f60e01b81526001600160a01b0384166004820152602401610707565b81156118785783856001600160a01b0316826001600160a01b03167f8c5be1e5ebec7d5bd14f71427d1e84f3dd0314c0f7b2291e5b200ac8c7c3b92560405160405180910390a45b505b50505f90815260046020526040902080546001600160a01b0319166001600160a01b0392909216919091179055565b6118b483838361199d565b610a29576001600160a01b0383166118e257604051637e27328960e01b815260048101829052602401610707565b60405163177e802f60e01b81526001600160a01b038316600482015260248101829052604401610707565b60605f611919836119fe565b60010190505f8167ffffffffffffffff81111561193857611938611c7d565b6040519080825280601f01601f191660200182016040528015611962576020820181803683370190505b5090508181016020015b5f19016f181899199a1a9b1b9c1cb0b131b232b360811b600a86061a8153600a850494508461196c57509392505050565b5f6001600160a01b038316158015906110295750826001600160a01b0316846001600160a01b031614806119d657506119d68484611031565b806110295750505f908152600460205260409020546001600160a01b03908116911614919050565b5f8072184f03e93ff9f4daa797ed6e38ed64bf6a1f0160401b8310611a3c5772184f03e93ff9f4daa797ed6e38ed64bf6a1f0160401b830492506040015b6d04ee2d6d415b85acef81000000008310611a68576d04ee2d6d415b85acef8100000000830492506020015b662386f26fc100008310611a8657662386f26fc10000830492506010015b6305f5e1008310611a9e576305f5e100830492506008015b6127108310611ab257612710830492506004015b60648310611ac4576064830492506002015b600a83106108b45760010192915050565b5f60208284031215611ae5575f5ffd5b5035919050565b5f5f60408385031215611afd575f5ffd5b50508035926020909101359150565b6001600160e01b031981168114611098575f5ffd5b5f60208284031215611b31575f5ffd5b813561179e81611b0c565b5f81518084528060208401602086015e5f602082860101526020601f19601f83011685010191505092915050565b602081525f61179e6020830184611b3c565b80356001600160a01b0381168114611b92575f5ffd5b919050565b5f5f60408385031215611ba8575f5ffd5b611bb183611b7c565b946020939093013593505050565b5f5f5f60608486031215611bd1575f5ffd5b611bda84611b7c565b9250611be860208501611b7c565b929592945050506040919091013590565b5f60208284031215611c09575f5ffd5b61179e82611b7c565b5f5f60408385031215611c23575f5ffd5b611c2c83611b7c565b915060208301358015158114611c40575f5ffd5b809150509250929050565b5f5f5f60608486031215611c5d575f5ffd5b8335925060208401359150611c7460408501611b7c565b90509250925092565b634e487b7160e01b5f52604160045260245ffd5b5f5f67ffffffffffffffff841115611cab57611cab611c7d565b50604051601f19601f85018116603f0116810181811067ffffffffffffffff82111715611cda57611cda611c7d565b604052838152905080828401851015611cf1575f5ffd5b838360208301375f60208583010152509392505050565b5f5f5f5f60808587031215611d1b575f5ffd5b611d2485611b7c565b9350611d3260208601611b7c565b925060408501359150606085013567ffffffffffffffff811115611d54575f5ffd5b8501601f81018713611d64575f5ffd5b611d7387823560208401611c91565b91505092959194509250565b5f5f5f60608486031215611d91575f5ffd5b611d9a84611b7c565b9250602084013567ffffffffffffffff811115611db5575f5ffd5b8401601f81018613611dc5575f5ffd5b611dd486823560208401611c91565b93969395505050506040919091013590565b5f5f60408385031215611df7575f5ffd5b611e0083611b7c565b9150611e0e60208401611b7c565b90509250929050565b60208082526021908201527f596f7520617265206e6f7420746865206f776e6572206f662074686973204e466040820152601560fa1b606082015260800190565b600181811c90821680611e6c57607f821691505b602082108103611e8a57634e487b7160e01b5f52602260045260245ffd5b50919050565b5f60018201611ead57634e487b7160e01b5f52601160045260245ffd5b5060010190565b604081525f611ec66040830185611b3c565b90508260208301529392505050565b5f81518060208401855e5f93019283525090919050565b5f611029611efa8386611ed5565b84611ed5565b6001600160a01b03858116825284166020820152604081018390526080606082018190525f90611f3290830184611b3c565b9695505050505050565b5f60208284031215611f4c575f5ffd5b815161179e81611b0c565b601f821115610a2957805f5260205f20601f840160051c81016020851015611f7c5750805b601f840160051c820191505b8181101561167d575f8155600101611f88565b815167ffffffffffffffff811115611fb557611fb5611c7d565b611fc981611fc38454611e58565b84611f57565b6020601f821160018114611ffb575f8315611fe45750848201515b5f19600385901b1c1916600184901b17845561167d565b5f84815260208120601f198516915b8281101561202a578785015182556020948501946001909201910161200a565b508482101561204757868401515f19600387901b60f8161c191681555b50505050600190811b0190555056fea2646970667358221220e6afe6f243d46feb196122ca86105407073099a482addf28e29ee76a69f7146464736f6c634300081c0033000000000000000000000000204e8def7e6c467cebcebbc5c89ad86bf3003fe3",
        "nonce": "0x6d",
        "chainId": "0xaa36a7"
      },
      "additionalContracts": [],
      "isFixedGasLimit": false
    },
    {
      "hash": "0x1ce057806e77ebff31b5bdc5f521f79957ff11d5d995457a1b6da6fb36975f08",
      "transactionType": "CALL",
      "contractName": "Nft",
      "contractAddress": "0xbd74dd358969964dae57b499b08112bd37b6a63d",
      "function": "mint(address,string,uint256)",
      "arguments": [
        "0x204E8DEf7E6c467cEbCeBbC5c89ad86Bf3003FE3",
        "https://silver-tricky-trout-945.mypinata.cloud/ipfs/bafybeide72hl3dkhv2e5ibzrigb7ciqri4klzq2jp3gizcaecc3zheyxuy/Charmander.json",
        "10000000000000"
      ],
      "transaction": {
        "from": "0x204e8def7e6c467cebcebbc5c89ad86bf3003fe3",
        "to": "0xbd74dd358969964dae57b499b08112bd37b6a63d",
        "gas": "0x56778",
        "value": "0x0",
        "input": "0xba7aef43000000000000000000000000204e8def7e6c467cebcebbc5c89ad86bf3003fe30000000000000000000000000000000000000000000000000000000000000060000000000000000000000000000000000000000000000000000009184e72a000000000000000000000000000000000000000000000000000000000000000007f68747470733a2f2f73696c7665722d747269636b792d74726f75742d3934352e6d7970696e6174612e636c6f75642f697066732f6261667962656964653732686c33646b687632653569627a72696762376369717269346b6c7a71326a703367697a6361656363337a6865797875792f436861726d616e6465722e6a736f6e00",
        "nonce": "0x6e",
        "chainId": "0xaa36a7"
      },
      "additionalContracts": [],
      "isFixedGasLimit": false
    },
    {
      "hash": "0xf0d416ff34c0353a295dd0af1ea9dab8f7e63d73f7d2a83e419a2315efc746c1",
      "transactionType": "CALL",
      "contractName": "Nft",
      "contractAddress": "0xbd74dd358969964dae57b499b08112bd37b6a63d",
      "function": "approvalNFT(uint256)",
      "arguments": [
        "1"
      ],
      "transaction": {
        "from": "0x204e8def7e6c467cebcebbc5c89ad86bf3003fe3",
        "to": "0xbd74dd358969964dae57b499b08112bd37b6a63d",
        "gas": "0x11101",
        "value": "0x0",
        "input": "0x661f20c10000000000000000000000000000000000000000000000000000000000000001",
        "nonce": "0x6f",
        "chainId": "0xaa36a7"
      },
      "additionalContracts": [],
      "isFixedGasLimit": false
    },
    {
      "hash": "0x6977e467d3cd4f4d21e8388b42d09013428c1a9c2ddce87ed9cb25f7d8127d46",
      "transactionType": "CALL",
      "contractName": "Nft",
      "contractAddress": "0xbd74dd358969964dae57b499b08112bd37b6a63d",
      "function": "mint(address,string,uint256)",
      "arguments": [
        "0x204E8DEf7E6c467cEbCeBbC5c89ad86Bf3003FE3",
        "https://silver-tricky-trout-945.mypinata.cloud/ipfs/bafybeide72hl3dkhv2e5ibzrigb7ciqri4klzq2jp3gizcaecc3zheyxuy/Charmeleon.json",
        "10000000000000"
      ],
      "transaction": {
        "from": "0x204e8def7e6c467cebcebbc5c89ad86bf3003fe3",
        "to": "0xbd74dd358969964dae57b499b08112bd37b6a63d",
        "gas": "0x4aef2",
        "value": "0x0",
        "input": "0xba7aef43000000000000000000000000204e8def7e6c467cebcebbc5c89ad86bf3003fe30000000000000000000000000000000000000000000000000000000000000060000000000000000000000000000000000000000000000000000009184e72a000000000000000000000000000000000000000000000000000000000000000007f68747470733a2f2f73696c7665722d747269636b792d74726f75742d3934352e6d7970696e6174612e636c6f75642f697066732f6261667962656964653732686c33646b687632653569627a72696762376369717269346b6c7a71326a703367697a6361656363337a6865797875792f436861726d656c656f6e2e6a736f6e00",
        "nonce": "0x70",
        "chainId": "0xaa36a7"
      },
      "additionalContracts": [],
      "isFixedGasLimit": false
    },
    {
      "hash": "0x296ff3d421a03ddd858f753ea0bd87fcd00eb0bda3bd5dc82f9ef18d36a357a7",
      "transactionType": "CALL",
      "contractName": "Nft",
      "contractAddress": "0xbd74dd358969964dae57b499b08112bd37b6a63d",
      "function": "approvalNFT(uint256)",
      "arguments": [
        "2"
      ],
      "transaction": {
        "from": "0x204e8def7e6c467cebcebbc5c89ad86bf3003fe3",
        "to": "0xbd74dd358969964dae57b499b08112bd37b6a63d",
        "gas": "0x11101",
        "value": "0x0",
        "input": "0x661f20c10000000000000000000000000000000000000000000000000000000000000002",
        "nonce": "0x71",
        "chainId": "0xaa36a7"
      },
      "additionalContracts": [],
      "isFixedGasLimit": false
    },
    {
      "hash": "0x262d50160db4b024dbabe7e866f8128ad5861363f3cca4ef8126b33d119fb8c2",
      "transactionType": "CALL",
      "contractName": "Nft",
      "contractAddress": "0xbd74dd358969964dae57b499b08112bd37b6a63d",
      "function": "mint(address,string,uint256)",
      "arguments": [
        "0x204E8DEf7E6c467cEbCeBbC5c89ad86Bf3003FE3",
        "https://silver-tricky-trout-945.mypinata.cloud/ipfs/bafybeide72hl3dkhv2e5ibzrigb7ciqri4klzq2jp3gizcaecc3zheyxuy/Charmeleon2.json",
        "10000000000000"
      ],
      "transaction": {
        "from": "0x204e8def7e6c467cebcebbc5c89ad86bf3003fe3",
        "to": "0xbd74dd358969964dae57b499b08112bd37b6a63d",
        "gas": "0x4af36",
        "value": "0x0",
        "input": "0xba7aef43000000000000000000000000204e8def7e6c467cebcebbc5c89ad86bf3003fe30000000000000000000000000000000000000000000000000000000000000060000000000000000000000000000000000000000000000000000009184e72a000000000000000000000000000000000000000000000000000000000000000008068747470733a2f2f73696c7665722d747269636b792d74726f75742d3934352e6d7970696e6174612e636c6f75642f697066732f6261667962656964653732686c33646b687632653569627a72696762376369717269346b6c7a71326a703367697a6361656363337a6865797875792f436861726d656c656f6e322e6a736f6e",
        "nonce": "0x72",
        "chainId": "0xaa36a7"
      },
      "additionalContracts": [],
      "isFixedGasLimit": false
    },
    {
      "hash": "0x0dbffeaaa8160fd7345db1ce40d26e5c372382b766ebd9a32b16012dfe85c52a",
      "transactionType": "CALL",
      "contractName": "Nft",
      "contractAddress": "0xbd74dd358969964dae57b499b08112bd37b6a63d",
      "function": "approvalNFT(uint256)",
      "arguments": [
        "3"
      ],
      "transaction": {
        "from": "0x204e8def7e6c467cebcebbc5c89ad86bf3003fe3",
        "to": "0xbd74dd358969964dae57b499b08112bd37b6a63d",
        "gas": "0x11101",
        "value": "0x0",
        "input": "0x661f20c10000000000000000000000000000000000000000000000000000000000000003",
        "nonce": "0x73",
        "chainId": "0xaa36a7"
      },
      "additionalContracts": [],
      "isFixedGasLimit": false
    },
    {
      "hash": "0x64833f9ea481d474e6bdea6dc7e643764468e00aa847a5008b92b8085327c281",
      "transactionType": "CALL",
      "contractName": "Nft",
      "contractAddress": "0xbd74dd358969964dae57b499b08112bd37b6a63d",
      "function": "mint(address,string,uint256)",
      "arguments": [
        "0x204E8DEf7E6c467cEbCeBbC5c89ad86Bf3003FE3",
        "https://silver-tricky-trout-945.mypinata.cloud/ipfs/bafybeide72hl3dkhv2e5ibzrigb7ciqri4klzq2jp3gizcaecc3zheyxuy/Desclops.json",
        "10000000000000"
      ],
      "transaction": {
        "from": "0x204e8def7e6c467cebcebbc5c89ad86bf3003fe3",
        "to": "0xbd74dd358969964dae57b499b08112bd37b6a63d",
        "gas": "0x4aed0",
        "value": "0x0",
        "input": "0xba7aef43000000000000000000000000204e8def7e6c467cebcebbc5c89ad86bf3003fe30000000000000000000000000000000000000000000000000000000000000060000000000000000000000000000000000000000000000000000009184e72a000000000000000000000000000000000000000000000000000000000000000007d68747470733a2f2f73696c7665722d747269636b792d74726f75742d3934352e6d7970696e6174612e636c6f75642f697066732f6261667962656964653732686c33646b687632653569627a72696762376369717269346b6c7a71326a703367697a6361656363337a6865797875792f446573636c6f70732e6a736f6e000000",
        "nonce": "0x74",
        "chainId": "0xaa36a7"
      },
      "additionalContracts": [],
      "isFixedGasLimit": false
    },
    {
      "hash": "0xb91121cef94504b0266f9a2d2bfb2f41c019069b2aa49f5c567097b1be7fb310",
      "transactionType": "CALL",
      "contractName": "Nft",
      "contractAddress": "0xbd74dd358969964dae57b499b08112bd37b6a63d",
      "function": "approvalNFT(uint256)",
      "arguments": [
        "4"
      ],
      "transaction": {
        "from": "0x204e8def7e6c467cebcebbc5c89ad86bf3003fe3",
        "to": "0xbd74dd358969964dae57b499b08112bd37b6a63d",
        "gas": "0x11101",
        "value": "0x0",
        "input": "0x661f20c10000000000000000000000000000000000000000000000000000000000000004",
        "nonce": "0x75",
        "chainId": "0xaa36a7"
      },
      "additionalContracts": [],
      "isFixedGasLimit": false
    },
    {
      "hash": "0xd91d74c8512d7671f484f1f8e4f64d492fe00d1aefbe8b5353272b02a9f19a87",
      "transactionType": "CALL",
      "contractName": "Nft",
      "contractAddress": "0xbd74dd358969964dae57b499b08112bd37b6a63d",
      "function": "mint(address,string,uint256)",
      "arguments": [
        "0x204E8DEf7E6c467cEbCeBbC5c89ad86Bf3003FE3",
        "https://silver-tricky-trout-945.mypinata.cloud/ipfs/bafybeide72hl3dkhv2e5ibzrigb7ciqri4klzq2jp3gizcaecc3zheyxuy/Dusknoir.json",
        "10000000000000"
      ],
      "transaction": {
        "from": "0x204e8def7e6c467cebcebbc5c89ad86bf3003fe3",
        "to": "0xbd74dd358969964dae57b499b08112bd37b6a63d",
        "gas": "0x4aed0",
        "value": "0x0",
        "input": "0xba7aef43000000000000000000000000204e8def7e6c467cebcebbc5c89ad86bf3003fe30000000000000000000000000000000000000000000000000000000000000060000000000000000000000000000000000000000000000000000009184e72a000000000000000000000000000000000000000000000000000000000000000007d68747470733a2f2f73696c7665722d747269636b792d74726f75742d3934352e6d7970696e6174612e636c6f75642f697066732f6261667962656964653732686c33646b687632653569627a72696762376369717269346b6c7a71326a703367697a6361656363337a6865797875792f4475736b6e6f69722e6a736f6e000000",
        "nonce": "0x76",
        "chainId": "0xaa36a7"
      },
      "additionalContracts": [],
      "isFixedGasLimit": false
    },
    {
      "hash": "0xd72232e71c1256692224fc4c682105a71df72b3ce1536c777e4ad601731859d9",
      "transactionType": "CALL",
      "contractName": "Nft",
      "contractAddress": "0xbd74dd358969964dae57b499b08112bd37b6a63d",
      "function": "approvalNFT(uint256)",
      "arguments": [
        "5"
      ],
      "transaction": {
        "from": "0x204e8def7e6c467cebcebbc5c89ad86bf3003fe3",
        "to": "0xbd74dd358969964dae57b499b08112bd37b6a63d",
        "gas": "0x11101",
        "value": "0x0",
        "input": "0x661f20c10000000000000000000000000000000000000000000000000000000000000005",
        "nonce": "0x77",
        "chainId": "0xaa36a7"
      },
      "additionalContracts": [],
      "isFixedGasLimit": false
    },
    {
      "hash": "0xb9da37ffaf706ce51540341ac6e81e4ce6f188c282ff081a1623ddaa793bd695",
      "transactionType": "CALL",
      "contractName": "Nft",
      "contractAddress": "0xbd74dd358969964dae57b499b08112bd37b6a63d",
      "function": "mint(address,string,uint256)",
      "arguments": [
        "0x204E8DEf7E6c467cEbCeBbC5c89ad86Bf3003FE3",
        "https://silver-tricky-trout-945.mypinata.cloud/ipfs/bafybeide72hl3dkhv2e5ibzrigb7ciqri4klzq2jp3gizcaecc3zheyxuy/Fezandipiti.json",
        "10000000000000"
      ],
      "transaction": {
        "from": "0x204e8def7e6c467cebcebbc5c89ad86bf3003fe3",
        "to": "0xbd74dd358969964dae57b499b08112bd37b6a63d",
        "gas": "0x4af36",
        "value": "0x0",
        "input": "0xba7aef43000000000000000000000000204e8def7e6c467cebcebbc5c89ad86bf3003fe30000000000000000000000000000000000000000000000000000000000000060000000000000000000000000000000000000000000000000000009184e72a000000000000000000000000000000000000000000000000000000000000000008068747470733a2f2f73696c7665722d747269636b792d74726f75742d3934352e6d7970696e6174612e636c6f75642f697066732f6261667962656964653732686c33646b687632653569627a72696762376369717269346b6c7a71326a703367697a6361656363337a6865797875792f46657a616e6469706974692e6a736f6e",
        "nonce": "0x78",
        "chainId": "0xaa36a7"
      },
      "additionalContracts": [],
      "isFixedGasLimit": false
    },
    {
      "hash": "0x8af23e84f20ad9139e5d39abc94afba54609ca24e99a11ed0bc4bf556460d801",
      "transactionType": "CALL",
      "contractName": "Nft",
      "contractAddress": "0xbd74dd358969964dae57b499b08112bd37b6a63d",
      "function": "approvalNFT(uint256)",
      "arguments": [
        "6"
      ],
      "transaction": {
        "from": "0x204e8def7e6c467cebcebbc5c89ad86bf3003fe3",
        "to": "0xbd74dd358969964dae57b499b08112bd37b6a63d",
        "gas": "0x11101",
        "value": "0x0",
        "input": "0x661f20c10000000000000000000000000000000000000000000000000000000000000006",
        "nonce": "0x79",
        "chainId": "0xaa36a7"
      },
      "additionalContracts": [],
      "isFixedGasLimit": false
    },
    {
      "hash": "0x4611c5d4f2912b5d92259736a16791316714e582554502bf02530680cfc783f8",
      "transactionType": "CALL",
      "contractName": "Nft",
      "contractAddress": "0xbd74dd358969964dae57b499b08112bd37b6a63d",
      "function": "mint(address,string,uint256)",
      "arguments": [
        "0x204E8DEf7E6c467cEbCeBbC5c89ad86Bf3003FE3",
        "https://silver-tricky-trout-945.mypinata.cloud/ipfs/bafybeide72hl3dkhv2e5ibzrigb7ciqri4klzq2jp3gizcaecc3zheyxuy/Froakie.json",
        "10000000000000"
      ],
      "transaction": {
        "from": "0x204e8def7e6c467cebcebbc5c89ad86bf3003fe3",
        "to": "0xbd74dd358969964dae57b499b08112bd37b6a63d",
        "gas": "0x4aec0",
        "value": "0x0",
        "input": "0xba7aef43000000000000000000000000204e8def7e6c467cebcebbc5c89ad86bf3003fe30000000000000000000000000000000000000000000000000000000000000060000000000000000000000000000000000000000000000000000009184e72a000000000000000000000000000000000000000000000000000000000000000007c68747470733a2f2f73696c7665722d747269636b792d74726f75742d3934352e6d7970696e6174612e636c6f75642f697066732f6261667962656964653732686c33646b687632653569627a72696762376369717269346b6c7a71326a703367697a6361656363337a6865797875792f46726f616b69652e6a736f6e00000000",
        "nonce": "0x7a",
        "chainId": "0xaa36a7"
      },
      "additionalContracts": [],
      "isFixedGasLimit": false
    },
    {
      "hash": "0x0b58184707c62eb0dc920bb12c1cc52502739d76f84f336dd53f4eede3ac9cf6",
      "transactionType": "CALL",
      "contractName": "Nft",
      "contractAddress": "0xbd74dd358969964dae57b499b08112bd37b6a63d",
      "function": "approvalNFT(uint256)",
      "arguments": [
        "7"
      ],
      "transaction": {
        "from": "0x204e8def7e6c467cebcebbc5c89ad86bf3003fe3",
        "to": "0xbd74dd358969964dae57b499b08112bd37b6a63d",
        "gas": "0x11101",
        "value": "0x0",
        "input": "0x661f20c10000000000000000000000000000000000000000000000000000000000000007",
        "nonce": "0x7b",
        "chainId": "0xaa36a7"
      },
      "additionalContracts": [],
      "isFixedGasLimit": false
    },
    {
      "hash": "0xf344635bbc812a0c5e84cc5b1a6cc5138f5ab56e418818b07db33b172fba32f2",
      "transactionType": "CALL",
      "contractName": "Nft",
      "contractAddress": "0xbd74dd358969964dae57b499b08112bd37b6a63d",
      "function": "mint(address,string,uint256)",
      "arguments": [
        "0x204E8DEf7E6c467cEbCeBbC5c89ad86Bf3003FE3",
        "https://silver-tricky-trout-945.mypinata.cloud/ipfs/bafybeide72hl3dkhv2e5ibzrigb7ciqri4klzq2jp3gizcaecc3zheyxuy/Frogadier.json",
        "10000000000000"
      ],
      "transaction": {
        "from": "0x204e8def7e6c467cebcebbc5c89ad86bf3003fe3",
        "to": "0xbd74dd358969964dae57b499b08112bd37b6a63d",
        "gas": "0x4aee1",
        "value": "0x0",
        "input": "0xba7aef43000000000000000000000000204e8def7e6c467cebcebbc5c89ad86bf3003fe30000000000000000000000000000000000000000000000000000000000000060000000000000000000000000000000000000000000000000000009184e72a000000000000000000000000000000000000000000000000000000000000000007e68747470733a2f2f73696c7665722d747269636b792d74726f75742d3934352e6d7970696e6174612e636c6f75642f697066732f6261667962656964653732686c33646b687632653569627a72696762376369717269346b6c7a71326a703367697a6361656363337a6865797875792f46726f6761646965722e6a736f6e0000",
        "nonce": "0x7c",
        "chainId": "0xaa36a7"
      },
      "additionalContracts": [],
      "isFixedGasLimit": false
    },
    {
      "hash": "0x97decd023e87972689b9564886942ade80753f2d0a22164fa6de84db38e8eca6",
      "transactionType": "CALL",
      "contractName": "Nft",
      "contractAddress": "0xbd74dd358969964dae57b499b08112bd37b6a63d",
      "function": "approvalNFT(uint256)",
      "arguments": [
        "8"
      ],
      "transaction": {
        "from": "0x204e8def7e6c467cebcebbc5c89ad86bf3003fe3",
        "to": "0xbd74dd358969964dae57b499b08112bd37b6a63d",
        "gas": "0x11101",
        "value": "0x0",
        "input": "0x661f20c10000000000000000000000000000000000000000000000000000000000000008",
        "nonce": "0x7d",
        "chainId": "0xaa36a7"
      },
      "additionalContracts": [],
      "isFixedGasLimit": false
    },
    {
      "hash": "0xed9c0e39cbb0d655c0de823a1e6c35cb859653292123e01799bd8226f6a424a9",
      "transactionType": "CALL",
      "contractName": "Nft",
      "contractAddress": "0xbd74dd358969964dae57b499b08112bd37b6a63d",
      "function": "mint(address,string,uint256)",
      "arguments": [
        "0x204E8DEf7E6c467cEbCeBbC5c89ad86Bf3003FE3",
        "https://silver-tricky-trout-945.mypinata.cloud/ipfs/bafybeide72hl3dkhv2e5ibzrigb7ciqri4klzq2jp3gizcaecc3zheyxuy/Greninja.json",
        "10000000000000"
      ],
      "transaction": {
        "from": "0x204e8def7e6c467cebcebbc5c89ad86bf3003fe3",
        "to": "0xbd74dd358969964dae57b499b08112bd37b6a63d",
        "gas": "0x4aed0",
        "value": "0x0",
        "input": "0xba7aef43000000000000000000000000204e8def7e6c467cebcebbc5c89ad86bf3003fe30000000000000000000000000000000000000000000000000000000000000060000000000000000000000000000000000000000000000000000009184e72a000000000000000000000000000000000000000000000000000000000000000007d68747470733a2f2f73696c7665722d747269636b792d74726f75742d3934352e6d7970696e6174612e636c6f75642f697066732f6261667962656964653732686c33646b687632653569627a72696762376369717269346b6c7a71326a703367697a6361656363337a6865797875792f4772656e696e6a612e6a736f6e000000",
        "nonce": "0x7e",
        "chainId": "0xaa36a7"
      },
      "additionalContracts": [],
      "isFixedGasLimit": false
    },
    {
      "hash": null,
      "transactionType": "CALL",
      "contractName": "Nft",
      "contractAddress": "0xbd74dd358969964dae57b499b08112bd37b6a63d",
      "function": "approvalNFT(uint256)",
      "arguments": [
        "9"
      ],
      "transaction": {
        "from": "0x204e8def7e6c467cebcebbc5c89ad86bf3003fe3",
        "to": "0xbd74dd358969964dae57b499b08112bd37b6a63d",
        "gas": "0x11101",
        "value": "0x0",
        "input": "0x661f20c10000000000000000000000000000000000000000000000000000000000000009",
        "nonce": "0x7f",
        "chainId": "0xaa36a7"
      },
      "additionalContracts": [],
      "isFixedGasLimit": false
    },
    {
      "hash": null,
      "transactionType": "CALL",
      "contractName": "Nft",
      "contractAddress": "0xbd74dd358969964dae57b499b08112bd37b6a63d",
      "function": "mint(address,string,uint256)",
      "arguments": [
        "0x204E8DEf7E6c467cEbCeBbC5c89ad86Bf3003FE3",
        "https://silver-tricky-trout-945.mypinata.cloud/ipfs/bafybeide72hl3dkhv2e5ibzrigb7ciqri4klzq2jp3gizcaecc3zheyxuy/Mew.json",
        "10000000000000"
      ],
      "transaction": {
        "from": "0x204e8def7e6c467cebcebbc5c89ad86bf3003fe3",
        "to": "0xbd74dd358969964dae57b499b08112bd37b6a63d",
        "gas": "0x4ae7e",
        "value": "0x0",
        "input": "0xba7aef43000000000000000000000000204e8def7e6c467cebcebbc5c89ad86bf3003fe30000000000000000000000000000000000000000000000000000000000000060000000000000000000000000000000000000000000000000000009184e72a000000000000000000000000000000000000000000000000000000000000000007868747470733a2f2f73696c7665722d747269636b792d74726f75742d3934352e6d7970696e6174612e636c6f75642f697066732f6261667962656964653732686c33646b687632653569627a72696762376369717269346b6c7a71326a703367697a6361656363337a6865797875792f4d65772e6a736f6e0000000000000000",
        "nonce": "0x80",
        "chainId": "0xaa36a7"
      },
      "additionalContracts": [],
      "isFixedGasLimit": false
    },
    {
      "hash": null,
      "transactionType": "CALL",
      "contractName": "Nft",
      "contractAddress": "0xbd74dd358969964dae57b499b08112bd37b6a63d",
      "function": "approvalNFT(uint256)",
      "arguments": [
        "10"
      ],
      "transaction": {
        "from": "0x204e8def7e6c467cebcebbc5c89ad86bf3003fe3",
        "to": "0xbd74dd358969964dae57b499b08112bd37b6a63d",
        "gas": "0x11101",
        "value": "0x0",
        "input": "0x661f20c1000000000000000000000000000000000000000000000000000000000000000a",
        "nonce": "0x81",
        "chainId": "0xaa36a7"
      },
      "additionalContracts": [],
      "isFixedGasLimit": false
    },
    {
      "hash": null,
      "transactionType": "CALL",
      "contractName": "Nft",
      "contractAddress": "0xbd74dd358969964dae57b499b08112bd37b6a63d",
      "function": "mint(address,string,uint256)",
      "arguments": [
        "0x204E8DEf7E6c467cEbCeBbC5c89ad86Bf3003FE3",
        "https://silver-tricky-trout-945.mypinata.cloud/ipfs/bafybeide72hl3dkhv2e5ibzrigb7ciqri4klzq2jp3gizcaecc3zheyxuy/Pikachu.json",
        "10000000000000"
      ],
      "transaction": {
        "from": "0x204e8def7e6c467cebcebbc5c89ad86bf3003fe3",
        "to": "0xbd74dd358969964dae57b499b08112bd37b6a63d",
        "gas": "0x4aec0",
        "value": "0x0",
        "input": "0xba7aef43000000000000000000000000204e8def7e6c467cebcebbc5c89ad86bf3003fe30000000000000000000000000000000000000000000000000000000000000060000000000000000000000000000000000000000000000000000009184e72a000000000000000000000000000000000000000000000000000000000000000007c68747470733a2f2f73696c7665722d747269636b792d74726f75742d3934352e6d7970696e6174612e636c6f75642f697066732f6261667962656964653732686c33646b687632653569627a72696762376369717269346b6c7a71326a703367697a6361656363337a6865797875792f50696b616368752e6a736f6e00000000",
        "nonce": "0x82",
        "chainId": "0xaa36a7"
      },
      "additionalContracts": [],
      "isFixedGasLimit": false
    },
    {
      "hash": null,
      "transactionType": "CALL",
      "contractName": "Nft",
      "contractAddress": "0xbd74dd358969964dae57b499b08112bd37b6a63d",
      "function": "approvalNFT(uint256)",
      "arguments": [
        "11"
      ],
      "transaction": {
        "from": "0x204e8def7e6c467cebcebbc5c89ad86bf3003fe3",
        "to": "0xbd74dd358969964dae57b499b08112bd37b6a63d",
        "gas": "0x11101",
        "value": "0x0",
        "input": "0x661f20c1000000000000000000000000000000000000000000000000000000000000000b",
        "nonce": "0x83",
        "chainId": "0xaa36a7"
      },
      "additionalContracts": [],
      "isFixedGasLimit": false
    },
    {
      "hash": null,
      "transactionType": "CALL",
      "contractName": "Nft",
      "contractAddress": "0xbd74dd358969964dae57b499b08112bd37b6a63d",
      "function": "mint(address,string,uint256)",
      "arguments": [
        "0x204E8DEf7E6c467cEbCeBbC5c89ad86Bf3003FE3",
        "https://silver-tricky-trout-945.mypinata.cloud/ipfs/bafybeide72hl3dkhv2e5ibzrigb7ciqri4klzq2jp3gizcaecc3zheyxuy/Pikachu2.json",
        "10000000000000"
      ],
      "transaction": {
        "from": "0x204e8def7e6c467cebcebbc5c89ad86bf3003fe3",
        "to": "0xbd74dd358969964dae57b499b08112bd37b6a63d",
        "gas": "0x4aed0",
        "value": "0x0",
        "input": "0xba7aef43000000000000000000000000204e8def7e6c467cebcebbc5c89ad86bf3003fe30000000000000000000000000000000000000000000000000000000000000060000000000000000000000000000000000000000000000000000009184e72a000000000000000000000000000000000000000000000000000000000000000007d68747470733a2f2f73696c7665722d747269636b792d74726f75742d3934352e6d7970696e6174612e636c6f75642f697066732f6261667962656964653732686c33646b687632653569627a72696762376369717269346b6c7a71326a703367697a6361656363337a6865797875792f50696b61636875322e6a736f6e000000",
        "nonce": "0x84",
        "chainId": "0xaa36a7"
      },
      "additionalContracts": [],
      "isFixedGasLimit": false
    },
    {
      "hash": null,
      "transactionType": "CALL",
      "contractName": "Nft",
      "contractAddress": "0xbd74dd358969964dae57b499b08112bd37b6a63d",
      "function": "approvalNFT(uint256)",
      "arguments": [
        "12"
      ],
      "transaction": {
        "from": "0x204e8def7e6c467cebcebbc5c89ad86bf3003fe3",
        "to": "0xbd74dd358969964dae57b499b08112bd37b6a63d",
        "gas": "0x11101",
        "value": "0x0",
        "input": "0x661f20c1000000000000000000000000000000000000000000000000000000000000000c",
        "nonce": "0x85",
        "chainId": "0xaa36a7"
      },
      "additionalContracts": [],
      "isFixedGasLimit": false
    },
    {
      "hash": null,
      "transactionType": "CALL",
      "contractName": "Nft",
      "contractAddress": "0xbd74dd358969964dae57b499b08112bd37b6a63d",
      "function": "mint(address,string,uint256)",
      "arguments": [
        "0x204E8DEf7E6c467cEbCeBbC5c89ad86Bf3003FE3",
        "https://silver-tricky-trout-945.mypinata.cloud/ipfs/bafybeide72hl3dkhv2e5ibzrigb7ciqri4klzq2jp3gizcaecc3zheyxuy/Raichu.json",
        "10000000000000"
      ],
      "transaction": {
        "from": "0x204e8def7e6c467cebcebbc5c89ad86bf3003fe3",
        "to": "0xbd74dd358969964dae57b499b08112bd37b6a63d",
        "gas": "0x4aeaf",
        "value": "0x0",
        "input": "0xba7aef43000000000000000000000000204e8def7e6c467cebcebbc5c89ad86bf3003fe30000000000000000000000000000000000000000000000000000000000000060000000000000000000000000000000000000000000000000000009184e72a000000000000000000000000000000000000000000000000000000000000000007b68747470733a2f2f73696c7665722d747269636b792d74726f75742d3934352e6d7970696e6174612e636c6f75642f697066732f6261667962656964653732686c33646b687632653569627a72696762376369717269346b6c7a71326a703367697a6361656363337a6865797875792f5261696368752e6a736f6e0000000000",
        "nonce": "0x86",
        "chainId": "0xaa36a7"
      },
      "additionalContracts": [],
      "isFixedGasLimit": false
    },
    {
      "hash": null,
      "transactionType": "CALL",
      "contractName": "Nft",
      "contractAddress": "0xbd74dd358969964dae57b499b08112bd37b6a63d",
      "function": "approvalNFT(uint256)",
      "arguments": [
        "13"
      ],
      "transaction": {
        "from": "0x204e8def7e6c467cebcebbc5c89ad86bf3003fe3",
        "to": "0xbd74dd358969964dae57b499b08112bd37b6a63d",
        "gas": "0x11101",
        "value": "0x0",
        "input": "0x661f20c1000000000000000000000000000000000000000000000000000000000000000d",
        "nonce": "0x87",
        "chainId": "0xaa36a7"
      },
      "additionalContracts": [],
      "isFixedGasLimit": false
    },
    {
      "hash": null,
      "transactionType": "CALL",
      "contractName": "Nft",
      "contractAddress": "0xbd74dd358969964dae57b499b08112bd37b6a63d",
      "function": "mint(address,string,uint256)",
      "arguments": [
        "0x204E8DEf7E6c467cEbCeBbC5c89ad86Bf3003FE3",
        "https://silver-tricky-trout-945.mypinata.cloud/ipfs/bafybeide72hl3dkhv2e5ibzrigb7ciqri4klzq2jp3gizcaecc3zheyxuy/Raichu2.json",
        "10000000000000"
      ],
      "transaction": {
        "from": "0x204e8def7e6c467cebcebbc5c89ad86bf3003fe3",
        "to": "0xbd74dd358969964dae57b499b08112bd37b6a63d",
        "gas": "0x4aec0",
        "value": "0x0",
        "input": "0xba7aef43000000000000000000000000204e8def7e6c467cebcebbc5c89ad86bf3003fe30000000000000000000000000000000000000000000000000000000000000060000000000000000000000000000000000000000000000000000009184e72a000000000000000000000000000000000000000000000000000000000000000007c68747470733a2f2f73696c7665722d747269636b792d74726f75742d3934352e6d7970696e6174612e636c6f75642f697066732f6261667962656964653732686c33646b687632653569627a72696762376369717269346b6c7a71326a703367697a6361656363337a6865797875792f526169636875322e6a736f6e00000000",
        "nonce": "0x88",
        "chainId": "0xaa36a7"
      },
      "additionalContracts": [],
      "isFixedGasLimit": false
    },
    {
      "hash": null,
      "transactionType": "CALL",
      "contractName": "Nft",
      "contractAddress": "0xbd74dd358969964dae57b499b08112bd37b6a63d",
      "function": "approvalNFT(uint256)",
      "arguments": [
        "14"
      ],
      "transaction": {
        "from": "0x204e8def7e6c467cebcebbc5c89ad86bf3003fe3",
        "to": "0xbd74dd358969964dae57b499b08112bd37b6a63d",
        "gas": "0x11101",
        "value": "0x0",
        "input": "0x661f20c1000000000000000000000000000000000000000000000000000000000000000e",
        "nonce": "0x89",
        "chainId": "0xaa36a7"
      },
      "additionalContracts": [],
      "isFixedGasLimit": false
    }
  ],
  "receipts": [],
  "libraries": [],
  "pending": [
    "0x598edb9ff3ab3513e7c16c305f620c6f403abd98b3126bfb6722821c8b7dee57",
    "0x1ce057806e77ebff31b5bdc5f521f79957ff11d5d995457a1b6da6fb36975f08",
    "0xf0d416ff34c0353a295dd0af1ea9dab8f7e63d73f7d2a83e419a2315efc746c1",
    "0x6977e467d3cd4f4d21e8388b42d09013428c1a9c2ddce87ed9cb25f7d8127d46",
    "0x296ff3d421a03ddd858f753ea0bd87fcd00eb0bda3bd5dc82f9ef18d36a357a7",
    "0x262d50160db4b024dbabe7e866f8128ad5861363f3cca4ef8126b33d119fb8c2",
    "0x0dbffeaaa8160fd7345db1ce40d26e5c372382b766ebd9a32b16012dfe85c52a",
    "0x64833f9ea481d474e6bdea6dc7e643764468e00aa847a5008b92b8085327c281",
    "0xb91121cef94504b0266f9a2d2bfb2f41c019069b2aa49f5c567097b1be7fb310",
    "0xd91d74c8512d7671f484f1f8e4f64d492fe00d1aefbe8b5353272b02a9f19a87",
    "0xd72232e71c1256692224fc4c682105a71df72b3ce1536c777e4ad601731859d9",
    "0xb9da37ffaf706ce51540341ac6e81e4ce6f188c282ff081a1623ddaa793bd695",
    "0x8af23e84f20ad9139e5d39abc94afba54609ca24e99a11ed0bc4bf556460d801",
    "0x4611c5d4f2912b5d92259736a16791316714e582554502bf02530680cfc783f8",
    "0x0b58184707c62eb0dc920bb12c1cc52502739d76f84f336dd53f4eede3ac9cf6",
    "0xf344635bbc812a0c5e84cc5b1a6cc5138f5ab56e418818b07db33b172fba32f2",
    "0x97decd023e87972689b9564886942ade80753f2d0a22164fa6de84db38e8eca6",
    "0xed9c0e39cbb0d655c0de823a1e6c35cb859653292123e01799bd8226f6a424a9"
  ],
  "returns": {},
  "timestamp": 1740319028,
  "chain": 11155111,
  "commit": "3e6012f"
}