{
  "transactions": [
    {
      "hash": "0xd121d28208ef4e5709530ee8fadd15efc0cc21dd9f600bf0305541dfae85aaa7",
      "transactionType": "CREATE",
      "contractName": "Nft",
      "contractAddress": "0x4eb534b9c166ffedd7962cc44cd51ca7eb0aaf3c",
      "function": null,
      "arguments": [
        "0x204E8DEf7E6c467cEbCeBbC5c89ad86Bf3003FE3"
      ],
      "transaction": {
        "from": "0x204e8def7e6c467cebcebbc5c89ad86bf3003fe3",
        "gas": "0x255697",
        "value": "0x0",
        "input": "0x60806040525f600855348015610013575f5ffd5b506040516121f33803806121f38339810160408190526100329161013f565b80604051806040016040528060078152602001662837b5b2b6b7b760c91b81525060405180604001604052806004815260200163504f4b4560e01b815250815f908161007e9190610204565b50600161008b8282610204565b5050506001600160a01b0381166100bb57604051631e4fbdf760e01b81525f600482015260240160405180910390fd5b6100c4816100ee565b50600980546001600160a01b0319166001600160a01b03929092169190911790555f6008556102be565b600780546001600160a01b038381166001600160a01b0319831681179093556040519116919082907f8be0079c531659141344cd1fd0a4f28419497f9722a3daafe3b4186f6b6457e0905f90a35050565b5f6020828403121561014f575f5ffd5b81516001600160a01b0381168114610165575f5ffd5b9392505050565b634e487b7160e01b5f52604160045260245ffd5b600181811c9082168061019457607f821691505b6020821081036101b257634e487b7160e01b5f52602260045260245ffd5b50919050565b601f8211156101ff57805f5260205f20601f840160051c810160208510156101dd5750805b601f840160051c820191505b818110156101fc575f81556001016101e9565b50505b505050565b81516001600160401b0381111561021d5761021d61016c565b6102318161022b8454610180565b846101b8565b6020601f821160018114610263575f831561024c5750848201515b5f19600385901b1c1916600184901b1784556101fc565b5f84815260208120601f198516915b828110156102925787850151825560209485019460019092019101610272565b50848210156102af57868401515f19600387901b60f8161c191681555b50505050600190811b01905550565b611f28806102cb5f395ff3fe608060405234801561000f575f5ffd5b50600436106101dc575f3560e01c8063661f20c111610109578063b36e88ba1161009e578063c2507ac11161006e578063c2507ac1146104ef578063c87b56dd1461050e578063e985e9c514610521578063f2fde38b14610534575f5ffd5b8063b36e88ba14610468578063b88d4fde146104c0578063ba7aef43146104d3578063bd55022a146104e6575f5ffd5b80638da5cb5b116100d95780638da5cb5b1461042957806395d89b411461043a578063a22cb46514610442578063a839c09a14610455575f5ffd5b8063661f20c1146103e857806369e9cae1146103fb57806370a082311461040e578063715018a614610421575f5ffd5b80631caaa4871161017f5780633bb3a24d1161014f5780633bb3a24d1461039057806342842e0e146103a357806345ab331e146103b65780636352211e146103d5575f5ffd5b80631caaa4871461029a5780631e6c598e146102c257806323b872dd1461036a57806329ba7bb21461037d575f5ffd5b806306fdde03116101ba57806306fdde0314610230578063081812fc14610245578063095ea7b31461027057806317d70f7c14610283575f5ffd5b806301663e59146101e05780630179cc52146101f557806301ffc9a714610208575b5f5ffd5b6101f36101ee366004611971565b610547565b005b6101f3610203366004611988565b6106af565b61021b6102163660046119bd565b610734565b60405190151581526020015b60405180910390f35b61023861075e565b6040516102279190611a06565b610258610253366004611971565b6107ed565b6040516001600160a01b039091168152602001610227565b6101f361027e366004611a33565b610814565b61028c60085481565b604051908152602001610227565b6102586102a8366004611971565b600b6020525f90815260409020546001600160a01b031681565b6103206102d0366004611971565b600c6020525f9081526040902080546001820154600283015460038401546004909401546001600160a01b03938416949293909116919060ff808216916101008104821691620100009091041687565b604080516001600160a01b03988916815260208101979097529490961693850193909352606084019190915215156080830152151560a082015290151560c082015260e001610227565b6101f3610378366004611a5b565b61081f565b600954610258906001600160a01b031681565b61023861039e366004611971565b6108a8565b6101f36103b1366004611a5b565b6108b3565b61028c6103c4366004611971565b600a6020525f908152604090205481565b6102586103e3366004611971565b6108d2565b6101f36103f6366004611971565b6108dc565b6101f3610409366004611a5b565b6109ad565b61028c61041c366004611a95565b610a99565b6101f3610ade565b6007546001600160a01b0316610258565b610238610af1565b6101f3610450366004611aae565b610b00565b6101f3610463366004611ae7565b610b0b565b6104a1610476366004611971565b5f908152600c602052604090206004015460ff80821692610100830482169262010000900490911690565b6040805193151584529115156020840152151590820152606001610227565b6101f36104ce366004611ba4565b610cf8565b61028c6104e1366004611c1b565b610d10565b61028c600d5481565b61028c6104fd366004611971565b5f908152600a602052604090205490565b61023861051c366004611971565b610dc2565b61021b61052f366004611c82565b610ecd565b6101f3610542366004611a95565b610efa565b5f818152600c60205260409020600481015462010000900460ff16156105b45760405162461bcd60e51b815260206004820152601760248201527f547261646520616c726561647920636f6d706c6574656400000000000000000060448201526064015b60405180910390fd5b80546001600160a01b031633036105d95760048101805460ff1916600117905561064b565b60028101546001600160a01b031633036106035760048101805461ff00191661010017905561064b565b60405162461bcd60e51b815260206004820152601e60248201527f596f7520617265206e6f742070617274206f662074686973207472616465000060448201526064016105ab565b60405182815233907f642ea0b1d63cc70f38e39719b589ae0a9a111ef74ae825093d1574009bdf4e299060200160405180910390a2600481015460ff16801561069d57506004810154610100900460ff165b156106ab576106ab82610f37565b5050565b5f828152600b60205260409020546001600160a01b031633146106e45760405162461bcd60e51b81526004016105ab90611cb3565b5f828152600a6020526040908190208290555182907f515031d3619f8c375f04c238d50a5131384dbf0ed7dfeca372caab76f0396d2f906107289084815260200190565b60405180910390a25050565b5f6001600160e01b03198216632483248360e11b14806107585750610758826110b1565b92915050565b60605f805461076c90611cf4565b80601f016020809104026020016040519081016040528092919081815260200182805461079890611cf4565b80156107e35780601f106107ba576101008083540402835291602001916107e3565b820191905f5260205f20905b8154815290600101906020018083116107c657829003601f168201915b5050505050905090565b5f6107f782611100565b505f828152600460205260409020546001600160a01b0316610758565b6106ab828233611138565b6001600160a01b03821661084857604051633250574960e11b81525f60048201526024016105ab565b5f610854838333611145565b9050836001600160a01b0316816001600160a01b0316146108a2576040516364283d7b60e01b81526001600160a01b03808616600483015260248201849052821660448201526064016105ab565b50505050565b606061075882610dc2565b6108cd83838360405180602001604052805f815250610cf8565b505050565b5f61075882611100565b6108e5816108d2565b6001600160a01b0316336001600160a01b0316146109155760405162461bcd60e51b81526004016105ab90611cb3565b61091f3082610814565b610928816107ed565b6001600160a01b0316306001600160a01b03161461097e5760405162461bcd60e51b8152602060048201526013602482015272139195081a5cc81b9bdd08185c1c1c9bdd9959606a1b60448201526064016105ab565b604051339082907fdeee21db6a55c8eecf477d3301bcad831b184340f28656006a166316933b23e1905f90a350565b6109b6816108d2565b6001600160a01b0316836001600160a01b0316146109e65760405162461bcd60e51b81526004016105ab90611cb3565b6109f1838383611237565b6109fa816108d2565b6001600160a01b0316826001600160a01b031614610a535760405162461bcd60e51b8152602060048201526016602482015275139195081a5cc81b9bdd081d1c985b9cd9995c9c995960521b60448201526064016105ab565b816001600160a01b0316836001600160a01b0316827f3f238fa55bd4cbe018c8b5445830973d3021efa35b5604149c8995b491f2007260405160405180910390a4505050565b5f6001600160a01b038216610ac3576040516322718ad960e21b81525f60048201526024016105ab565b506001600160a01b03165f9081526003602052604090205490565b610ae66112e4565b610aef5f611311565b565b60606001805461076c90611cf4565b6106ab338383611362565b33610b15846108d2565b6001600160a01b031614610b635760405162461bcd60e51b8152602060048201526015602482015274596f7520646f206e6f74206f776e20746f6b656e4160581b60448201526064016105ab565b806001600160a01b0316610b76836108d2565b6001600160a01b031614610bcc5760405162461bcd60e51b815260206004820152601a60248201527f50617274794220646f6573206e6f74206f776e20746f6b656e4200000000000060448201526064016105ab565b600d8054905f610bdb83611d2c565b90915550506040805160e0810182523380825260208083018781526001600160a01b0386811685870181815260608088018b81525f60808a0181815260a08b0182815260c08c01838152600d80548552600c8c52938e90209c518d54908a166001600160a01b0319918216178e55995160018e0155955160028d01805491909916991698909817909655905160038a0155935160049098018054955192511515620100000262ff0000199315156101000261ff00199a15159a909a1661ffff1990971696909617989098179190911693909317909555548551908152918201889052938101869052919290917ff2725c0575eeb8dd7bbfaa29b3ec69fa353ccbd0048021a8ef399a399911b78891015b60405180910390a3505050565b610d0384848461081f565b6108a233858585856113f8565b5f610d196112e4565b60088054905f610d2883611d2c565b90915550506008545f818152600a60205260409020839055610d4a8582611520565b610d548185611581565b5f818152600b60205260409081902080546001600160a01b0319166001600160a01b038816908117909155905182907f684f6795945805272d5839a7063f5e0a3b6dd64bdb3976749763ec2fea16177890610db29088908890611d50565b60405180910390a3949350505050565b6060610dcd82611100565b505f8281526006602052604081208054610de690611cf4565b80601f0160208091040260200160405190810160405280929190818152602001828054610e1290611cf4565b8015610e5d5780601f10610e3457610100808354040283529160200191610e5d565b820191905f5260205f20905b815481529060010190602001808311610e4057829003601f168201915b505050505090505f610e7960408051602081019091525f815290565b905080515f03610e8a575092915050565b815115610ebc578082604051602001610ea4929190611d88565b60405160208183030381529060405292505050919050565b610ec5846115d0565b949350505050565b6001600160a01b039182165f90815260056020908152604080832093909416825291909152205460ff1690565b610f026112e4565b6001600160a01b038116610f2b57604051631e4fbdf760e01b81525f60048201526024016105ab565b610f3481611311565b50565b5f818152600c60205260409020600481015460ff168015610f6157506004810154610100900460ff165b610fad5760405162461bcd60e51b815260206004820152601960248201527f426f74682070617274696573206d75737420617070726f76650000000000000060448201526064016105ab565b600481015462010000900460ff16156110015760405162461bcd60e51b8152602060048201526016602482015275151c98591948185b1c9958591e48195e1958dd5d195960521b60448201526064016105ab565b5f61100f82600101546108d2565b90505f61101f83600301546108d2565b905061103082828560010154611237565b61103f81838560030154611237565b60048301805462ff0000191662010000179055600183015460038401546040805187815260208101939093528201526001600160a01b0382811691908416907f51701c0a770183caac72947e0848d20e71b0384cc22e8355c082cec6c722f02c9060600160405180910390a350505050565b5f6001600160e01b031982166380ac58cd60e01b14806110e157506001600160e01b03198216635b5e139f60e01b145b8061075857506301ffc9a760e01b6001600160e01b0319831614610758565b5f818152600260205260408120546001600160a01b03168061075857604051637e27328960e01b8152600481018490526024016105ab565b6108cd8383836001611641565b5f828152600260205260408120546001600160a01b039081169083161561117157611171818486611745565b6001600160a01b038116156111ab5761118c5f855f5f611641565b6001600160a01b0381165f90815260036020526040902080545f190190555b6001600160a01b038516156111d9576001600160a01b0385165f908152600360205260409020805460010190555b5f8481526002602052604080822080546001600160a01b0319166001600160a01b0389811691821790925591518793918516917fddf252ad1be2c89b69c2b068fc378daa952ba7f163c4a11628f55a4df523b3ef91a4949350505050565b6001600160a01b03821661126057604051633250574960e11b81525f60048201526024016105ab565b5f61126c83835f611145565b90506001600160a01b03811661129857604051637e27328960e01b8152600481018390526024016105ab565b836001600160a01b0316816001600160a01b0316146108a2576040516364283d7b60e01b81526001600160a01b03808616600483015260248201849052821660448201526064016105ab565b6007546001600160a01b03163314610aef5760405163118cdaa760e01b81523360048201526024016105ab565b600780546001600160a01b038381166001600160a01b0319831681179093556040519116919082907f8be0079c531659141344cd1fd0a4f28419497f9722a3daafe3b4186f6b6457e0905f90a35050565b6001600160a01b03821661139457604051630b61174360e31b81526001600160a01b03831660048201526024016105ab565b6001600160a01b038381165f81815260056020908152604080832094871680845294825291829020805460ff191686151590811790915591519182527f17307eab39ab6107e8899845ad3d59bd9653f200f220920489ca2b5937696c319101610ceb565b6001600160a01b0383163b1561151957604051630a85bd0160e11b81526001600160a01b0384169063150b7a029061143a908890889087908790600401611d9c565b6020604051808303815f875af1925050508015611474575060408051601f3d908101601f1916820190925261147191810190611dd8565b60015b6114db573d8080156114a1576040519150601f19603f3d011682016040523d82523d5f602084013e6114a6565b606091505b5080515f036114d357604051633250574960e11b81526001600160a01b03851660048201526024016105ab565b805181602001fd5b6001600160e01b03198116630a85bd0160e11b1461151757604051633250574960e11b81526001600160a01b03851660048201526024016105ab565b505b5050505050565b6001600160a01b03821661154957604051633250574960e11b81525f60048201526024016105ab565b5f61155583835f611145565b90506001600160a01b038116156108cd576040516339e3563760e11b81525f60048201526024016105ab565b5f8281526006602052604090206115988282611e37565b506040518281527ff8e1a15aba9398e019f0b49df1a4fde98ee17ae345cb5f6b5e2c27f5033e8ce79060200160405180910390a15050565b60606115db82611100565b505f6115f160408051602081019091525f815290565b90505f81511161160f5760405180602001604052805f81525061163a565b80611619846117a9565b60405160200161162a929190611d88565b6040516020818303038152906040525b9392505050565b808061165557506001600160a01b03821615155b15611716575f61166484611100565b90506001600160a01b038316158015906116905750826001600160a01b0316816001600160a01b031614155b80156116a357506116a18184610ecd565b155b156116cc5760405163a9fbf51f60e01b81526001600160a01b03841660048201526024016105ab565b81156117145783856001600160a01b0316826001600160a01b03167f8c5be1e5ebec7d5bd14f71427d1e84f3dd0314c0f7b2291e5b200ac8c7c3b92560405160405180910390a45b505b50505f90815260046020526040902080546001600160a01b0319166001600160a01b0392909216919091179055565b611750838383611839565b6108cd576001600160a01b03831661177e57604051637e27328960e01b8152600481018290526024016105ab565b60405163177e802f60e01b81526001600160a01b0383166004820152602481018290526044016105ab565b60605f6117b58361189a565b60010190505f8167ffffffffffffffff8111156117d4576117d4611b19565b6040519080825280601f01601f1916602001820160405280156117fe576020820181803683370190505b5090508181016020015b5f19016f181899199a1a9b1b9c1cb0b131b232b360811b600a86061a8153600a850494508461180857509392505050565b5f6001600160a01b03831615801590610ec55750826001600160a01b0316846001600160a01b0316148061187257506118728484610ecd565b80610ec55750505f908152600460205260409020546001600160a01b03908116911614919050565b5f8072184f03e93ff9f4daa797ed6e38ed64bf6a1f0160401b83106118d85772184f03e93ff9f4daa797ed6e38ed64bf6a1f0160401b830492506040015b6d04ee2d6d415b85acef81000000008310611904576d04ee2d6d415b85acef8100000000830492506020015b662386f26fc10000831061192257662386f26fc10000830492506010015b6305f5e100831061193a576305f5e100830492506008015b612710831061194e57612710830492506004015b60648310611960576064830492506002015b600a83106107585760010192915050565b5f60208284031215611981575f5ffd5b5035919050565b5f5f60408385031215611999575f5ffd5b50508035926020909101359150565b6001600160e01b031981168114610f34575f5ffd5b5f602082840312156119cd575f5ffd5b813561163a816119a8565b5f81518084528060208401602086015e5f602082860101526020601f19601f83011685010191505092915050565b602081525f61163a60208301846119d8565b80356001600160a01b0381168114611a2e575f5ffd5b919050565b5f5f60408385031215611a44575f5ffd5b611a4d83611a18565b946020939093013593505050565b5f5f5f60608486031215611a6d575f5ffd5b611a7684611a18565b9250611a8460208501611a18565b929592945050506040919091013590565b5f60208284031215611aa5575f5ffd5b61163a82611a18565b5f5f60408385031215611abf575f5ffd5b611ac883611a18565b915060208301358015158114611adc575f5ffd5b809150509250929050565b5f5f5f60608486031215611af9575f5ffd5b8335925060208401359150611b1060408501611a18565b90509250925092565b634e487b7160e01b5f52604160045260245ffd5b5f5f67ffffffffffffffff841115611b4757611b47611b19565b50604051601f19601f85018116603f0116810181811067ffffffffffffffff82111715611b7657611b76611b19565b604052838152905080828401851015611b8d575f5ffd5b838360208301375f60208583010152509392505050565b5f5f5f5f60808587031215611bb7575f5ffd5b611bc085611a18565b9350611bce60208601611a18565b925060408501359150606085013567ffffffffffffffff811115611bf0575f5ffd5b8501601f81018713611c00575f5ffd5b611c0f87823560208401611b2d565b91505092959194509250565b5f5f5f60608486031215611c2d575f5ffd5b611c3684611a18565b9250602084013567ffffffffffffffff811115611c51575f5ffd5b8401601f81018613611c61575f5ffd5b611c7086823560208401611b2d565b93969395505050506040919091013590565b5f5f60408385031215611c93575f5ffd5b611c9c83611a18565b9150611caa60208401611a18565b90509250929050565b60208082526021908201527f596f7520617265206e6f7420746865206f776e6572206f662074686973204e466040820152601560fa1b606082015260800190565b600181811c90821680611d0857607f821691505b602082108103611d2657634e487b7160e01b5f52602260045260245ffd5b50919050565b5f60018201611d4957634e487b7160e01b5f52601160045260245ffd5b5060010190565b604081525f611d6260408301856119d8565b90508260208301529392505050565b5f81518060208401855e5f93019283525090919050565b5f610ec5611d968386611d71565b84611d71565b6001600160a01b03858116825284166020820152604081018390526080606082018190525f90611dce908301846119d8565b9695505050505050565b5f60208284031215611de8575f5ffd5b815161163a816119a8565b601f8211156108cd57805f5260205f20601f840160051c81016020851015611e185750805b601f840160051c820191505b81811015611519575f8155600101611e24565b815167ffffffffffffffff811115611e5157611e51611b19565b611e6581611e5f8454611cf4565b84611df3565b6020601f821160018114611e97575f8315611e805750848201515b5f19600385901b1c1916600184901b178455611519565b5f84815260208120601f198516915b82811015611ec65787850151825560209485019460019092019101611ea6565b5084821015611ee357868401515f19600387901b60f8161c191681555b50505050600190811b0190555056fea2646970667358221220dfc1451e1b2b531da6c006ed4a7eaac482d0300b4d9d0e0536b325cc7763de6c64736f6c634300081c0033000000000000000000000000204e8def7e6c467cebcebbc5c89ad86bf3003fe3",
        "nonce": "0x7f",
        "chainId": "0xaa36a7"
      },
      "additionalContracts": [],
      "isFixedGasLimit": false
    },
    {
      "hash": "0x9488ab9e2e347a5aaeb5e18033f51b92e851ca895adef3d67c78f782af676dd1",
      "transactionType": "CALL",
      "contractName": "Nft",
      "contractAddress": "0x4eb534b9c166ffedd7962cc44cd51ca7eb0aaf3c",
      "function": "mint(address,string,uint256)",
      "arguments": [
        "0x204E8DEf7E6c467cEbCeBbC5c89ad86Bf3003FE3",
        "https://silver-tricky-trout-945.mypinata.cloud/ipfs/bafybeide72hl3dkhv2e5ibzrigb7ciqri4klzq2jp3gizcaecc3zheyxuy/Charmander.json",
        "10000000000000"
      ],
      "transaction": {
        "from": "0x204e8def7e6c467cebcebbc5c89ad86bf3003fe3",
        "to": "0x4eb534b9c166ffedd7962cc44cd51ca7eb0aaf3c",
        "gas": "0x56778",
        "value": "0x0",
        "input": "0xba7aef43000000000000000000000000204e8def7e6c467cebcebbc5c89ad86bf3003fe30000000000000000000000000000000000000000000000000000000000000060000000000000000000000000000000000000000000000000000009184e72a000000000000000000000000000000000000000000000000000000000000000007f68747470733a2f2f73696c7665722d747269636b792d74726f75742d3934352e6d7970696e6174612e636c6f75642f697066732f6261667962656964653732686c33646b687632653569627a72696762376369717269346b6c7a71326a703367697a6361656363337a6865797875792f436861726d616e6465722e6a736f6e00",
        "nonce": "0x80",
        "chainId": "0xaa36a7"
      },
      "additionalContracts": [],
      "isFixedGasLimit": false
    },
    {
      "hash": "0x4377befd28202c8c16bd09b76d94d22d0958b438ed9b49eca1d3710afed071e9",
      "transactionType": "CALL",
      "contractName": "Nft",
      "contractAddress": "0x4eb534b9c166ffedd7962cc44cd51ca7eb0aaf3c",
      "function": "approvalNFT(uint256)",
      "arguments": [
        "1"
      ],
      "transaction": {
        "from": "0x204e8def7e6c467cebcebbc5c89ad86bf3003fe3",
        "to": "0x4eb534b9c166ffedd7962cc44cd51ca7eb0aaf3c",
        "gas": "0x11101",
        "value": "0x0",
        "input": "0x661f20c10000000000000000000000000000000000000000000000000000000000000001",
        "nonce": "0x81",
        "chainId": "0xaa36a7"
      },
      "additionalContracts": [],
      "isFixedGasLimit": false
    },
    {
      "hash": "0xaee70b37471b89606ad48fb321c944f287e85784890a5b8a3d9862b7c7634f1d",
      "transactionType": "CALL",
      "contractName": "Nft",
      "contractAddress": "0x4eb534b9c166ffedd7962cc44cd51ca7eb0aaf3c",
      "function": "mint(address,string,uint256)",
      "arguments": [
        "0x204E8DEf7E6c467cEbCeBbC5c89ad86Bf3003FE3",
        "https://silver-tricky-trout-945.mypinata.cloud/ipfs/bafybeide72hl3dkhv2e5ibzrigb7ciqri4klzq2jp3gizcaecc3zheyxuy/Charmeleon.json",
        "10000000000000"
      ],
      "transaction": {
        "from": "0x204e8def7e6c467cebcebbc5c89ad86bf3003fe3",
        "to": "0x4eb534b9c166ffedd7962cc44cd51ca7eb0aaf3c",
        "gas": "0x4aef2",
        "value": "0x0",
        "input": "0xba7aef43000000000000000000000000204e8def7e6c467cebcebbc5c89ad86bf3003fe30000000000000000000000000000000000000000000000000000000000000060000000000000000000000000000000000000000000000000000009184e72a000000000000000000000000000000000000000000000000000000000000000007f68747470733a2f2f73696c7665722d747269636b792d74726f75742d3934352e6d7970696e6174612e636c6f75642f697066732f6261667962656964653732686c33646b687632653569627a72696762376369717269346b6c7a71326a703367697a6361656363337a6865797875792f436861726d656c656f6e2e6a736f6e00",
        "nonce": "0x82",
        "chainId": "0xaa36a7"
      },
      "additionalContracts": [],
      "isFixedGasLimit": false
    },
    {
      "hash": "0x500f309a448c76285974dd66fe21e30f7acf9c9503776f0cf7dec666ae7d4785",
      "transactionType": "CALL",
      "contractName": "Nft",
      "contractAddress": "0x4eb534b9c166ffedd7962cc44cd51ca7eb0aaf3c",
      "function": "approvalNFT(uint256)",
      "arguments": [
        "2"
      ],
      "transaction": {
        "from": "0x204e8def7e6c467cebcebbc5c89ad86bf3003fe3",
        "to": "0x4eb534b9c166ffedd7962cc44cd51ca7eb0aaf3c",
        "gas": "0x11101",
        "value": "0x0",
        "input": "0x661f20c10000000000000000000000000000000000000000000000000000000000000002",
        "nonce": "0x83",
        "chainId": "0xaa36a7"
      },
      "additionalContracts": [],
      "isFixedGasLimit": false
    },
    {
      "hash": "0xe8dc6462a30c09b3671267318dfae077593e79656086caa1a35f631e68960904",
      "transactionType": "CALL",
      "contractName": "Nft",
      "contractAddress": "0x4eb534b9c166ffedd7962cc44cd51ca7eb0aaf3c",
      "function": "mint(address,string,uint256)",
      "arguments": [
        "0x204E8DEf7E6c467cEbCeBbC5c89ad86Bf3003FE3",
        "https://silver-tricky-trout-945.mypinata.cloud/ipfs/bafybeide72hl3dkhv2e5ibzrigb7ciqri4klzq2jp3gizcaecc3zheyxuy/Charmeleon2.json",
        "10000000000000"
      ],
      "transaction": {
        "from": "0x204e8def7e6c467cebcebbc5c89ad86bf3003fe3",
        "to": "0x4eb534b9c166ffedd7962cc44cd51ca7eb0aaf3c",
        "gas": "0x4af36",
        "value": "0x0",
        "input": "0xba7aef43000000000000000000000000204e8def7e6c467cebcebbc5c89ad86bf3003fe30000000000000000000000000000000000000000000000000000000000000060000000000000000000000000000000000000000000000000000009184e72a000000000000000000000000000000000000000000000000000000000000000008068747470733a2f2f73696c7665722d747269636b792d74726f75742d3934352e6d7970696e6174612e636c6f75642f697066732f6261667962656964653732686c33646b687632653569627a72696762376369717269346b6c7a71326a703367697a6361656363337a6865797875792f436861726d656c656f6e322e6a736f6e",
        "nonce": "0x84",
        "chainId": "0xaa36a7"
      },
      "additionalContracts": [],
      "isFixedGasLimit": false
    },
    {
      "hash": "0xdca1e5d762e2b30c0ec6c951fc84a2a063c3b62d9ec08f07b07afde2ceaa2cee",
      "transactionType": "CALL",
      "contractName": "Nft",
      "contractAddress": "0x4eb534b9c166ffedd7962cc44cd51ca7eb0aaf3c",
      "function": "approvalNFT(uint256)",
      "arguments": [
        "3"
      ],
      "transaction": {
        "from": "0x204e8def7e6c467cebcebbc5c89ad86bf3003fe3",
        "to": "0x4eb534b9c166ffedd7962cc44cd51ca7eb0aaf3c",
        "gas": "0x11101",
        "value": "0x0",
        "input": "0x661f20c10000000000000000000000000000000000000000000000000000000000000003",
        "nonce": "0x85",
        "chainId": "0xaa36a7"
      },
      "additionalContracts": [],
      "isFixedGasLimit": false
    },
    {
      "hash": "0xe6c80f37162c5c34c6b0e1eb351fa0cd6f46d1e715ed5a67dd6cb39872714b2f",
      "transactionType": "CALL",
      "contractName": "Nft",
      "contractAddress": "0x4eb534b9c166ffedd7962cc44cd51ca7eb0aaf3c",
      "function": "mint(address,string,uint256)",
      "arguments": [
        "0x204E8DEf7E6c467cEbCeBbC5c89ad86Bf3003FE3",
        "https://silver-tricky-trout-945.mypinata.cloud/ipfs/bafybeide72hl3dkhv2e5ibzrigb7ciqri4klzq2jp3gizcaecc3zheyxuy/Desclops.json",
        "10000000000000"
      ],
      "transaction": {
        "from": "0x204e8def7e6c467cebcebbc5c89ad86bf3003fe3",
        "to": "0x4eb534b9c166ffedd7962cc44cd51ca7eb0aaf3c",
        "gas": "0x4aed0",
        "value": "0x0",
        "input": "0xba7aef43000000000000000000000000204e8def7e6c467cebcebbc5c89ad86bf3003fe30000000000000000000000000000000000000000000000000000000000000060000000000000000000000000000000000000000000000000000009184e72a000000000000000000000000000000000000000000000000000000000000000007d68747470733a2f2f73696c7665722d747269636b792d74726f75742d3934352e6d7970696e6174612e636c6f75642f697066732f6261667962656964653732686c33646b687632653569627a72696762376369717269346b6c7a71326a703367697a6361656363337a6865797875792f446573636c6f70732e6a736f6e000000",
        "nonce": "0x86",
        "chainId": "0xaa36a7"
      },
      "additionalContracts": [],
      "isFixedGasLimit": false
    },
    {
      "hash": "0x826078c87046c510356c2ee096a1152cd887b1c4f0dff79861b4628afd67b900",
      "transactionType": "CALL",
      "contractName": "Nft",
      "contractAddress": "0x4eb534b9c166ffedd7962cc44cd51ca7eb0aaf3c",
      "function": "approvalNFT(uint256)",
      "arguments": [
        "4"
      ],
      "transaction": {
        "from": "0x204e8def7e6c467cebcebbc5c89ad86bf3003fe3",
        "to": "0x4eb534b9c166ffedd7962cc44cd51ca7eb0aaf3c",
        "gas": "0x11101",
        "value": "0x0",
        "input": "0x661f20c10000000000000000000000000000000000000000000000000000000000000004",
        "nonce": "0x87",
        "chainId": "0xaa36a7"
      },
      "additionalContracts": [],
      "isFixedGasLimit": false
    },
    {
      "hash": "0x43e47236e3ac8346b2cf6b58253af5184e4173fcbf419ac2f762759c6bfa53fc",
      "transactionType": "CALL",
      "contractName": "Nft",
      "contractAddress": "0x4eb534b9c166ffedd7962cc44cd51ca7eb0aaf3c",
      "function": "mint(address,string,uint256)",
      "arguments": [
        "0x204E8DEf7E6c467cEbCeBbC5c89ad86Bf3003FE3",
        "https://silver-tricky-trout-945.mypinata.cloud/ipfs/bafybeide72hl3dkhv2e5ibzrigb7ciqri4klzq2jp3gizcaecc3zheyxuy/Dusknoir.json",
        "10000000000000"
      ],
      "transaction": {
        "from": "0x204e8def7e6c467cebcebbc5c89ad86bf3003fe3",
        "to": "0x4eb534b9c166ffedd7962cc44cd51ca7eb0aaf3c",
        "gas": "0x4aed0",
        "value": "0x0",
        "input": "0xba7aef43000000000000000000000000204e8def7e6c467cebcebbc5c89ad86bf3003fe30000000000000000000000000000000000000000000000000000000000000060000000000000000000000000000000000000000000000000000009184e72a000000000000000000000000000000000000000000000000000000000000000007d68747470733a2f2f73696c7665722d747269636b792d74726f75742d3934352e6d7970696e6174612e636c6f75642f697066732f6261667962656964653732686c33646b687632653569627a72696762376369717269346b6c7a71326a703367697a6361656363337a6865797875792f4475736b6e6f69722e6a736f6e000000",
        "nonce": "0x88",
        "chainId": "0xaa36a7"
      },
      "additionalContracts": [],
      "isFixedGasLimit": false
    },
    {
      "hash": "0xdd7f969322ecf6ebda0d313e58d56f512c2d2d650b91e1aed347bf2e3d0e9f52",
      "transactionType": "CALL",
      "contractName": "Nft",
      "contractAddress": "0x4eb534b9c166ffedd7962cc44cd51ca7eb0aaf3c",
      "function": "approvalNFT(uint256)",
      "arguments": [
        "5"
      ],
      "transaction": {
        "from": "0x204e8def7e6c467cebcebbc5c89ad86bf3003fe3",
        "to": "0x4eb534b9c166ffedd7962cc44cd51ca7eb0aaf3c",
        "gas": "0x11101",
        "value": "0x0",
        "input": "0x661f20c10000000000000000000000000000000000000000000000000000000000000005",
        "nonce": "0x89",
        "chainId": "0xaa36a7"
      },
      "additionalContracts": [],
      "isFixedGasLimit": false
    },
    {
      "hash": "0xc42028a18216dd05f924e7a0bd1ef2236b334b9cd6034dd50f094be0712e52f5",
      "transactionType": "CALL",
      "contractName": "Nft",
      "contractAddress": "0x4eb534b9c166ffedd7962cc44cd51ca7eb0aaf3c",
      "function": "mint(address,string,uint256)",
      "arguments": [
        "0x204E8DEf7E6c467cEbCeBbC5c89ad86Bf3003FE3",
        "https://silver-tricky-trout-945.mypinata.cloud/ipfs/bafybeide72hl3dkhv2e5ibzrigb7ciqri4klzq2jp3gizcaecc3zheyxuy/Fezandipiti.json",
        "10000000000000"
      ],
      "transaction": {
        "from": "0x204e8def7e6c467cebcebbc5c89ad86bf3003fe3",
        "to": "0x4eb534b9c166ffedd7962cc44cd51ca7eb0aaf3c",
        "gas": "0x4af36",
        "value": "0x0",
        "input": "0xba7aef43000000000000000000000000204e8def7e6c467cebcebbc5c89ad86bf3003fe30000000000000000000000000000000000000000000000000000000000000060000000000000000000000000000000000000000000000000000009184e72a000000000000000000000000000000000000000000000000000000000000000008068747470733a2f2f73696c7665722d747269636b792d74726f75742d3934352e6d7970696e6174612e636c6f75642f697066732f6261667962656964653732686c33646b687632653569627a72696762376369717269346b6c7a71326a703367697a6361656363337a6865797875792f46657a616e6469706974692e6a736f6e",
        "nonce": "0x8a",
        "chainId": "0xaa36a7"
      },
      "additionalContracts": [],
      "isFixedGasLimit": false
    },
    {
      "hash": "0xf4b49896c2c3ace329cdf402d37255e052901d4cfe737a849ac56da61cb15788",
      "transactionType": "CALL",
      "contractName": "Nft",
      "contractAddress": "0x4eb534b9c166ffedd7962cc44cd51ca7eb0aaf3c",
      "function": "approvalNFT(uint256)",
      "arguments": [
        "6"
      ],
      "transaction": {
        "from": "0x204e8def7e6c467cebcebbc5c89ad86bf3003fe3",
        "to": "0x4eb534b9c166ffedd7962cc44cd51ca7eb0aaf3c",
        "gas": "0x11101",
        "value": "0x0",
        "input": "0x661f20c10000000000000000000000000000000000000000000000000000000000000006",
        "nonce": "0x8b",
        "chainId": "0xaa36a7"
      },
      "additionalContracts": [],
      "isFixedGasLimit": false
    },
    {
      "hash": "0x17ce732d20a55e51ae6bf448eea12d7c186feae039aacc2b2bdc8f35981533e7",
      "transactionType": "CALL",
      "contractName": "Nft",
      "contractAddress": "0x4eb534b9c166ffedd7962cc44cd51ca7eb0aaf3c",
      "function": "mint(address,string,uint256)",
      "arguments": [
        "0x204E8DEf7E6c467cEbCeBbC5c89ad86Bf3003FE3",
        "https://silver-tricky-trout-945.mypinata.cloud/ipfs/bafybeide72hl3dkhv2e5ibzrigb7ciqri4klzq2jp3gizcaecc3zheyxuy/Froakie.json",
        "10000000000000"
      ],
      "transaction": {
        "from": "0x204e8def7e6c467cebcebbc5c89ad86bf3003fe3",
        "to": "0x4eb534b9c166ffedd7962cc44cd51ca7eb0aaf3c",
        "gas": "0x4aec0",
        "value": "0x0",
        "input": "0xba7aef43000000000000000000000000204e8def7e6c467cebcebbc5c89ad86bf3003fe30000000000000000000000000000000000000000000000000000000000000060000000000000000000000000000000000000000000000000000009184e72a000000000000000000000000000000000000000000000000000000000000000007c68747470733a2f2f73696c7665722d747269636b792d74726f75742d3934352e6d7970696e6174612e636c6f75642f697066732f6261667962656964653732686c33646b687632653569627a72696762376369717269346b6c7a71326a703367697a6361656363337a6865797875792f46726f616b69652e6a736f6e00000000",
        "nonce": "0x8c",
        "chainId": "0xaa36a7"
      },
      "additionalContracts": [],
      "isFixedGasLimit": false
    },
    {
      "hash": "0xbbefe454d6b9ee054805ec45943bc9fd0f7c26553b4a307a80f56edb60d4cc7a",
      "transactionType": "CALL",
      "contractName": "Nft",
      "contractAddress": "0x4eb534b9c166ffedd7962cc44cd51ca7eb0aaf3c",
      "function": "approvalNFT(uint256)",
      "arguments": [
        "7"
      ],
      "transaction": {
        "from": "0x204e8def7e6c467cebcebbc5c89ad86bf3003fe3",
        "to": "0x4eb534b9c166ffedd7962cc44cd51ca7eb0aaf3c",
        "gas": "0x11101",
        "value": "0x0",
        "input": "0x661f20c10000000000000000000000000000000000000000000000000000000000000007",
        "nonce": "0x8d",
        "chainId": "0xaa36a7"
      },
      "additionalContracts": [],
      "isFixedGasLimit": false
    },
    {
      "hash": "0x0602698611ca67fbc537c5de93a49b3b929460c9567504a47c406de5828550d2",
      "transactionType": "CALL",
      "contractName": "Nft",
      "contractAddress": "0x4eb534b9c166ffedd7962cc44cd51ca7eb0aaf3c",
      "function": "mint(address,string,uint256)",
      "arguments": [
        "0x204E8DEf7E6c467cEbCeBbC5c89ad86Bf3003FE3",
        "https://silver-tricky-trout-945.mypinata.cloud/ipfs/bafybeide72hl3dkhv2e5ibzrigb7ciqri4klzq2jp3gizcaecc3zheyxuy/Frogadier.json",
        "10000000000000"
      ],
      "transaction": {
        "from": "0x204e8def7e6c467cebcebbc5c89ad86bf3003fe3",
        "to": "0x4eb534b9c166ffedd7962cc44cd51ca7eb0aaf3c",
        "gas": "0x4aee1",
        "value": "0x0",
        "input": "0xba7aef43000000000000000000000000204e8def7e6c467cebcebbc5c89ad86bf3003fe30000000000000000000000000000000000000000000000000000000000000060000000000000000000000000000000000000000000000000000009184e72a000000000000000000000000000000000000000000000000000000000000000007e68747470733a2f2f73696c7665722d747269636b792d74726f75742d3934352e6d7970696e6174612e636c6f75642f697066732f6261667962656964653732686c33646b687632653569627a72696762376369717269346b6c7a71326a703367697a6361656363337a6865797875792f46726f6761646965722e6a736f6e0000",
        "nonce": "0x8e",
        "chainId": "0xaa36a7"
      },
      "additionalContracts": [],
      "isFixedGasLimit": false
    },
    {
      "hash": "0xad61f5377d695e7464f519b5cded4d46acb732c310cdc235dbada1c4b42c504e",
      "transactionType": "CALL",
      "contractName": "Nft",
      "contractAddress": "0x4eb534b9c166ffedd7962cc44cd51ca7eb0aaf3c",
      "function": "approvalNFT(uint256)",
      "arguments": [
        "8"
      ],
      "transaction": {
        "from": "0x204e8def7e6c467cebcebbc5c89ad86bf3003fe3",
        "to": "0x4eb534b9c166ffedd7962cc44cd51ca7eb0aaf3c",
        "gas": "0x11101",
        "value": "0x0",
        "input": "0x661f20c10000000000000000000000000000000000000000000000000000000000000008",
        "nonce": "0x8f",
        "chainId": "0xaa36a7"
      },
      "additionalContracts": [],
      "isFixedGasLimit": false
    },
    {
      "hash": "0x142d47046534520112e86b6e47c73e1b17ddd46e1b2cb75f8406a49ca8becf4b",
      "transactionType": "CALL",
      "contractName": "Nft",
      "contractAddress": "0x4eb534b9c166ffedd7962cc44cd51ca7eb0aaf3c",
      "function": "mint(address,string,uint256)",
      "arguments": [
        "0x204E8DEf7E6c467cEbCeBbC5c89ad86Bf3003FE3",
        "https://silver-tricky-trout-945.mypinata.cloud/ipfs/bafybeide72hl3dkhv2e5ibzrigb7ciqri4klzq2jp3gizcaecc3zheyxuy/Greninja.json",
        "10000000000000"
      ],
      "transaction": {
        "from": "0x204e8def7e6c467cebcebbc5c89ad86bf3003fe3",
        "to": "0x4eb534b9c166ffedd7962cc44cd51ca7eb0aaf3c",
        "gas": "0x4aed0",
        "value": "0x0",
        "input": "0xba7aef43000000000000000000000000204e8def7e6c467cebcebbc5c89ad86bf3003fe30000000000000000000000000000000000000000000000000000000000000060000000000000000000000000000000000000000000000000000009184e72a000000000000000000000000000000000000000000000000000000000000000007d68747470733a2f2f73696c7665722d747269636b792d74726f75742d3934352e6d7970696e6174612e636c6f75642f697066732f6261667962656964653732686c33646b687632653569627a72696762376369717269346b6c7a71326a703367697a6361656363337a6865797875792f4772656e696e6a612e6a736f6e000000",
        "nonce": "0x90",
        "chainId": "0xaa36a7"
      },
      "additionalContracts": [],
      "isFixedGasLimit": false
    },
    {
      "hash": "0x575c3ffcf4411f2e6482e4ba7ee086f9577f42c4d4f51c5ee4ab18a2d1d02b2d",
      "transactionType": "CALL",
      "contractName": "Nft",
      "contractAddress": "0x4eb534b9c166ffedd7962cc44cd51ca7eb0aaf3c",
      "function": "approvalNFT(uint256)",
      "arguments": [
        "9"
      ],
      "transaction": {
        "from": "0x204e8def7e6c467cebcebbc5c89ad86bf3003fe3",
        "to": "0x4eb534b9c166ffedd7962cc44cd51ca7eb0aaf3c",
        "gas": "0x11101",
        "value": "0x0",
        "input": "0x661f20c10000000000000000000000000000000000000000000000000000000000000009",
        "nonce": "0x91",
        "chainId": "0xaa36a7"
      },
      "additionalContracts": [],
      "isFixedGasLimit": false
    },
    {
      "hash": "0x6f0c6cfb345d5b06ba2b7a621e85c77d018443299452be3e75aa0ff99c77c653",
      "transactionType": "CALL",
      "contractName": "Nft",
      "contractAddress": "0x4eb534b9c166ffedd7962cc44cd51ca7eb0aaf3c",
      "function": "mint(address,string,uint256)",
      "arguments": [
        "0x204E8DEf7E6c467cEbCeBbC5c89ad86Bf3003FE3",
        "https://silver-tricky-trout-945.mypinata.cloud/ipfs/bafybeide72hl3dkhv2e5ibzrigb7ciqri4klzq2jp3gizcaecc3zheyxuy/Mew.json",
        "10000000000000"
      ],
      "transaction": {
        "from": "0x204e8def7e6c467cebcebbc5c89ad86bf3003fe3",
        "to": "0x4eb534b9c166ffedd7962cc44cd51ca7eb0aaf3c",
        "gas": "0x4ae7e",
        "value": "0x0",
        "input": "0xba7aef43000000000000000000000000204e8def7e6c467cebcebbc5c89ad86bf3003fe30000000000000000000000000000000000000000000000000000000000000060000000000000000000000000000000000000000000000000000009184e72a000000000000000000000000000000000000000000000000000000000000000007868747470733a2f2f73696c7665722d747269636b792d74726f75742d3934352e6d7970696e6174612e636c6f75642f697066732f6261667962656964653732686c33646b687632653569627a72696762376369717269346b6c7a71326a703367697a6361656363337a6865797875792f4d65772e6a736f6e0000000000000000",
        "nonce": "0x92",
        "chainId": "0xaa36a7"
      },
      "additionalContracts": [],
      "isFixedGasLimit": false
    },
    {
      "hash": "0x3bd7c03bdb37aee0b4361e51f68a6ceb05969ead2b8acca9ad4831f30faf0eb1",
      "transactionType": "CALL",
      "contractName": "Nft",
      "contractAddress": "0x4eb534b9c166ffedd7962cc44cd51ca7eb0aaf3c",
      "function": "approvalNFT(uint256)",
      "arguments": [
        "10"
      ],
      "transaction": {
        "from": "0x204e8def7e6c467cebcebbc5c89ad86bf3003fe3",
        "to": "0x4eb534b9c166ffedd7962cc44cd51ca7eb0aaf3c",
        "gas": "0x11101",
        "value": "0x0",
        "input": "0x661f20c1000000000000000000000000000000000000000000000000000000000000000a",
        "nonce": "0x93",
        "chainId": "0xaa36a7"
      },
      "additionalContracts": [],
      "isFixedGasLimit": false
    },
    {
      "hash": "0xfd0cdd7a0f95fff920cf0ce1a2d0056c9f3545902bf2339d935bdfdc1af58f10",
      "transactionType": "CALL",
      "contractName": "Nft",
      "contractAddress": "0x4eb534b9c166ffedd7962cc44cd51ca7eb0aaf3c",
      "function": "mint(address,string,uint256)",
      "arguments": [
        "0x204E8DEf7E6c467cEbCeBbC5c89ad86Bf3003FE3",
        "https://silver-tricky-trout-945.mypinata.cloud/ipfs/bafybeide72hl3dkhv2e5ibzrigb7ciqri4klzq2jp3gizcaecc3zheyxuy/Pikachu.json",
        "10000000000000"
      ],
      "transaction": {
        "from": "0x204e8def7e6c467cebcebbc5c89ad86bf3003fe3",
        "to": "0x4eb534b9c166ffedd7962cc44cd51ca7eb0aaf3c",
        "gas": "0x4aec0",
        "value": "0x0",
        "input": "0xba7aef43000000000000000000000000204e8def7e6c467cebcebbc5c89ad86bf3003fe30000000000000000000000000000000000000000000000000000000000000060000000000000000000000000000000000000000000000000000009184e72a000000000000000000000000000000000000000000000000000000000000000007c68747470733a2f2f73696c7665722d747269636b792d74726f75742d3934352e6d7970696e6174612e636c6f75642f697066732f6261667962656964653732686c33646b687632653569627a72696762376369717269346b6c7a71326a703367697a6361656363337a6865797875792f50696b616368752e6a736f6e00000000",
        "nonce": "0x94",
        "chainId": "0xaa36a7"
      },
      "additionalContracts": [],
      "isFixedGasLimit": false
    },
    {
      "hash": "0x71230ec9bc97545ece42e7b3ce8dcd4999fe19f2411786514489a98883fa81d5",
      "transactionType": "CALL",
      "contractName": "Nft",
      "contractAddress": "0x4eb534b9c166ffedd7962cc44cd51ca7eb0aaf3c",
      "function": "approvalNFT(uint256)",
      "arguments": [
        "11"
      ],
      "transaction": {
        "from": "0x204e8def7e6c467cebcebbc5c89ad86bf3003fe3",
        "to": "0x4eb534b9c166ffedd7962cc44cd51ca7eb0aaf3c",
        "gas": "0x11101",
        "value": "0x0",
        "input": "0x661f20c1000000000000000000000000000000000000000000000000000000000000000b",
        "nonce": "0x95",
        "chainId": "0xaa36a7"
      },
      "additionalContracts": [],
      "isFixedGasLimit": false
    },
    {
      "hash": "0x919e3f3aa9722e79d310fe662cc950b0dad2acc0f9514604e27d57ae20477678",
      "transactionType": "CALL",
      "contractName": "Nft",
      "contractAddress": "0x4eb534b9c166ffedd7962cc44cd51ca7eb0aaf3c",
      "function": "mint(address,string,uint256)",
      "arguments": [
        "0x204E8DEf7E6c467cEbCeBbC5c89ad86Bf3003FE3",
        "https://silver-tricky-trout-945.mypinata.cloud/ipfs/bafybeide72hl3dkhv2e5ibzrigb7ciqri4klzq2jp3gizcaecc3zheyxuy/Pikachu2.json",
        "10000000000000"
      ],
      "transaction": {
        "from": "0x204e8def7e6c467cebcebbc5c89ad86bf3003fe3",
        "to": "0x4eb534b9c166ffedd7962cc44cd51ca7eb0aaf3c",
        "gas": "0x4aed0",
        "value": "0x0",
        "input": "0xba7aef43000000000000000000000000204e8def7e6c467cebcebbc5c89ad86bf3003fe30000000000000000000000000000000000000000000000000000000000000060000000000000000000000000000000000000000000000000000009184e72a000000000000000000000000000000000000000000000000000000000000000007d68747470733a2f2f73696c7665722d747269636b792d74726f75742d3934352e6d7970696e6174612e636c6f75642f697066732f6261667962656964653732686c33646b687632653569627a72696762376369717269346b6c7a71326a703367697a6361656363337a6865797875792f50696b61636875322e6a736f6e000000",
        "nonce": "0x96",
        "chainId": "0xaa36a7"
      },
      "additionalContracts": [],
      "isFixedGasLimit": false
    },
    {
      "hash": "0x3c4ec1c7a94f058e5ce6272938e573ee7658e58855860e4e17ace5582088c7c0",
      "transactionType": "CALL",
      "contractName": "Nft",
      "contractAddress": "0x4eb534b9c166ffedd7962cc44cd51ca7eb0aaf3c",
      "function": "approvalNFT(uint256)",
      "arguments": [
        "12"
      ],
      "transaction": {
        "from": "0x204e8def7e6c467cebcebbc5c89ad86bf3003fe3",
        "to": "0x4eb534b9c166ffedd7962cc44cd51ca7eb0aaf3c",
        "gas": "0x11101",
        "value": "0x0",
        "input": "0x661f20c1000000000000000000000000000000000000000000000000000000000000000c",
        "nonce": "0x97",
        "chainId": "0xaa36a7"
      },
      "additionalContracts": [],
      "isFixedGasLimit": false
    },
    {
      "hash": "0x8a8a40ec9b7bd78aaf1f988578b4de87de8c75495e4f1e4770f295bcf4de0a99",
      "transactionType": "CALL",
      "contractName": "Nft",
      "contractAddress": "0x4eb534b9c166ffedd7962cc44cd51ca7eb0aaf3c",
      "function": "mint(address,string,uint256)",
      "arguments": [
        "0x204E8DEf7E6c467cEbCeBbC5c89ad86Bf3003FE3",
        "https://silver-tricky-trout-945.mypinata.cloud/ipfs/bafybeide72hl3dkhv2e5ibzrigb7ciqri4klzq2jp3gizcaecc3zheyxuy/Raichu.json",
        "10000000000000"
      ],
      "transaction": {
        "from": "0x204e8def7e6c467cebcebbc5c89ad86bf3003fe3",
        "to": "0x4eb534b9c166ffedd7962cc44cd51ca7eb0aaf3c",
        "gas": "0x4aeaf",
        "value": "0x0",
        "input": "0xba7aef43000000000000000000000000204e8def7e6c467cebcebbc5c89ad86bf3003fe30000000000000000000000000000000000000000000000000000000000000060000000000000000000000000000000000000000000000000000009184e72a000000000000000000000000000000000000000000000000000000000000000007b68747470733a2f2f73696c7665722d747269636b792d74726f75742d3934352e6d7970696e6174612e636c6f75642f697066732f6261667962656964653732686c33646b687632653569627a72696762376369717269346b6c7a71326a703367697a6361656363337a6865797875792f5261696368752e6a736f6e0000000000",
        "nonce": "0x98",
        "chainId": "0xaa36a7"
      },
      "additionalContracts": [],
      "isFixedGasLimit": false
    },
    {
      "hash": "0xa8ae7bdb456da825e4abc6c0a19e35d3a4b6cae283d67ab9d5ae1ee3210d42ea",
      "transactionType": "CALL",
      "contractName": "Nft",
      "contractAddress": "0x4eb534b9c166ffedd7962cc44cd51ca7eb0aaf3c",
      "function": "approvalNFT(uint256)",
      "arguments": [
        "13"
      ],
      "transaction": {
        "from": "0x204e8def7e6c467cebcebbc5c89ad86bf3003fe3",
        "to": "0x4eb534b9c166ffedd7962cc44cd51ca7eb0aaf3c",
        "gas": "0x11101",
        "value": "0x0",
        "input": "0x661f20c1000000000000000000000000000000000000000000000000000000000000000d",
        "nonce": "0x99",
        "chainId": "0xaa36a7"
      },
      "additionalContracts": [],
      "isFixedGasLimit": false
    },
    {
      "hash": "0xc604e3653e825923789920f1ebcbd10d2ba5cbef827d12a1934dcd6dc7ce25f5",
      "transactionType": "CALL",
      "contractName": "Nft",
      "contractAddress": "0x4eb534b9c166ffedd7962cc44cd51ca7eb0aaf3c",
      "function": "mint(address,string,uint256)",
      "arguments": [
        "0x204E8DEf7E6c467cEbCeBbC5c89ad86Bf3003FE3",
        "https://silver-tricky-trout-945.mypinata.cloud/ipfs/bafybeide72hl3dkhv2e5ibzrigb7ciqri4klzq2jp3gizcaecc3zheyxuy/Raichu2.json",
        "10000000000000"
      ],
      "transaction": {
        "from": "0x204e8def7e6c467cebcebbc5c89ad86bf3003fe3",
        "to": "0x4eb534b9c166ffedd7962cc44cd51ca7eb0aaf3c",
        "gas": "0x4aec0",
        "value": "0x0",
        "input": "0xba7aef43000000000000000000000000204e8def7e6c467cebcebbc5c89ad86bf3003fe30000000000000000000000000000000000000000000000000000000000000060000000000000000000000000000000000000000000000000000009184e72a000000000000000000000000000000000000000000000000000000000000000007c68747470733a2f2f73696c7665722d747269636b792d74726f75742d3934352e6d7970696e6174612e636c6f75642f697066732f6261667962656964653732686c33646b687632653569627a72696762376369717269346b6c7a71326a703367697a6361656363337a6865797875792f526169636875322e6a736f6e00000000",
        "nonce": "0x9a",
        "chainId": "0xaa36a7"
      },
      "additionalContracts": [],
      "isFixedGasLimit": false
    },
    {
      "hash": "0x566fc9814760ed3a663097d0f42492f233686d1a0e99f9ab4f97034c406a18b7",
      "transactionType": "CALL",
      "contractName": "Nft",
      "contractAddress": "0x4eb534b9c166ffedd7962cc44cd51ca7eb0aaf3c",
      "function": "approvalNFT(uint256)",
      "arguments": [
        "14"
      ],
      "transaction": {
        "from": "0x204e8def7e6c467cebcebbc5c89ad86bf3003fe3",
        "to": "0x4eb534b9c166ffedd7962cc44cd51ca7eb0aaf3c",
        "gas": "0x11101",
        "value": "0x0",
        "input": "0x661f20c1000000000000000000000000000000000000000000000000000000000000000e",
        "nonce": "0x9b",
        "chainId": "0xaa36a7"
      },
      "additionalContracts": [],
      "isFixedGasLimit": false
    }
  ],
  "receipts": [
    {
      "status": "0x1",
      "cumulativeGasUsed": "0x8377c4",
      "logs": [
        {
          "address": "0x4eb534b9c166ffedd7962cc44cd51ca7eb0aaf3c",
          "topics": [
            "0x8be0079c531659141344cd1fd0a4f28419497f9722a3daafe3b4186f6b6457e0",
            "0x0000000000000000000000000000000000000000000000000000000000000000",
            "0x000000000000000000000000204e8def7e6c467cebcebbc5c89ad86bf3003fe3"
          ],
          "data": "0x",
          "blockHash": "0x22c916dd629c97d88d4ba0f12221e15866387985b67c00202c2b9b9d54a734b4",
          "blockNumber": "0x768c7b",
          "transactionHash": "0xd121d28208ef4e5709530ee8fadd15efc0cc21dd9f600bf0305541dfae85aaa7",
          "transactionIndex": "0x8d",
          "logIndex": "0x65",
          "removed": false
        }
      ],
      "logsBloom": "0x00002000000000000000000000000000000000000000000000800000000000000000000000000000000000000000000000000000000000000000000000000000000000000000000000100000000000000001000040000000000000000000000000000000020000000000000000000800000000000000000000000000000000400000000000000000000000000000000000000000000000000000000000000000000000000000000000000000000020000000000000000000000000000000000000000000000000000000000000000000000000000000000000000000080020000000000000000000000000000000000000000040000000000000000000000000",
      "type": "0x2",
      "transactionHash": "0xd121d28208ef4e5709530ee8fadd15efc0cc21dd9f600bf0305541dfae85aaa7",
      "transactionIndex": "0x8d",
      "blockHash": "0x22c916dd629c97d88d4ba0f12221e15866387985b67c00202c2b9b9d54a734b4",
      "blockNumber": "0x768c7b",
      "gasUsed": "0x1cb8c3",
      "effectiveGasPrice": "0x13d11c4ff",
      "from": "0x204e8def7e6c467cebcebbc5c89ad86bf3003fe3",
      "to": null,
      "contractAddress": "0x4eb534b9c166ffedd7962cc44cd51ca7eb0aaf3c"
    },
    {
      "status": "0x1",
      "cumulativeGasUsed": "0x876160",
      "logs": [
        {
          "address": "0x4eb534b9c166ffedd7962cc44cd51ca7eb0aaf3c",
          "topics": [
            "0xddf252ad1be2c89b69c2b068fc378daa952ba7f163c4a11628f55a4df523b3ef",
            "0x0000000000000000000000000000000000000000000000000000000000000000",
            "0x000000000000000000000000204e8def7e6c467cebcebbc5c89ad86bf3003fe3",
            "0x0000000000000000000000000000000000000000000000000000000000000001"
          ],
          "data": "0x",
          "blockHash": "0x22c916dd629c97d88d4ba0f12221e15866387985b67c00202c2b9b9d54a734b4",
          "blockNumber": "0x768c7b",
          "transactionHash": "0x9488ab9e2e347a5aaeb5e18033f51b92e851ca895adef3d67c78f782af676dd1",
          "transactionIndex": "0x8e",
          "logIndex": "0x66",
          "removed": false
        },
        {
          "address": "0x4eb534b9c166ffedd7962cc44cd51ca7eb0aaf3c",
          "topics": [
            "0xf8e1a15aba9398e019f0b49df1a4fde98ee17ae345cb5f6b5e2c27f5033e8ce7"
          ],
          "data": "0x0000000000000000000000000000000000000000000000000000000000000001",
          "blockHash": "0x22c916dd629c97d88d4ba0f12221e15866387985b67c00202c2b9b9d54a734b4",
          "blockNumber": "0x768c7b",
          "transactionHash": "0x9488ab9e2e347a5aaeb5e18033f51b92e851ca895adef3d67c78f782af676dd1",
          "transactionIndex": "0x8e",
          "logIndex": "0x67",
          "removed": false
        },
        {
          "address": "0x4eb534b9c166ffedd7962cc44cd51ca7eb0aaf3c",
          "topics": [
            "0x684f6795945805272d5839a7063f5e0a3b6dd64bdb3976749763ec2fea161778",
            "0x0000000000000000000000000000000000000000000000000000000000000001",
            "0x000000000000000000000000204e8def7e6c467cebcebbc5c89ad86bf3003fe3"
          ],
          "data": "0x0000000000000000000000000000000000000000000000000000000000000040000000000000000000000000000000000000000000000000000009184e72a000000000000000000000000000000000000000000000000000000000000000007f68747470733a2f2f73696c7665722d747269636b792d74726f75742d3934352e6d7970696e6174612e636c6f75642f697066732f6261667962656964653732686c33646b687632653569627a72696762376369717269346b6c7a71326a703367697a6361656363337a6865797875792f436861726d616e6465722e6a736f6e00",
          "blockHash": "0x22c916dd629c97d88d4ba0f12221e15866387985b67c00202c2b9b9d54a734b4",
          "blockNumber": "0x768c7b",
          "transactionHash": "0x9488ab9e2e347a5aaeb5e18033f51b92e851ca895adef3d67c78f782af676dd1",
          "transactionIndex": "0x8e",
          "logIndex": "0x68",
          "removed": false
        }
      ],
      "logsBloom": "0x00002000000000000000000000000000000000000000000000000000000000000000000000000000000000000000000000000000000000000000000000040000000000000000000000110008000000000000000040040000000000000000000000000000020000000001000000000800000000000000000000200010000000000000000000000000000000000000000000000000000000000000000000000000000000000000000000000000000020002000000000000000000000000000008000000002000000000000000000000000000000000000000000000000080060000000000000000000200000000000000000000040000000000000000000000000",
      "type": "0x2",
      "transactionHash": "0x9488ab9e2e347a5aaeb5e18033f51b92e851ca895adef3d67c78f782af676dd1",
      "transactionIndex": "0x8e",
      "blockHash": "0x22c916dd629c97d88d4ba0f12221e15866387985b67c00202c2b9b9d54a734b4",
      "blockNumber": "0x768c7b",
      "gasUsed": "0x3e99c",
      "effectiveGasPrice": "0x13d11c4ff",
      "from": "0x204e8def7e6c467cebcebbc5c89ad86bf3003fe3",
      "to": "0x4eb534b9c166ffedd7962cc44cd51ca7eb0aaf3c",
      "contractAddress": null
    },
    {
      "status": "0x1",
      "cumulativeGasUsed": "0x882707",
      "logs": [
        {
          "address": "0x4eb534b9c166ffedd7962cc44cd51ca7eb0aaf3c",
          "topics": [
            "0x8c5be1e5ebec7d5bd14f71427d1e84f3dd0314c0f7b2291e5b200ac8c7c3b925",
            "0x000000000000000000000000204e8def7e6c467cebcebbc5c89ad86bf3003fe3",
            "0x0000000000000000000000004eb534b9c166ffedd7962cc44cd51ca7eb0aaf3c",
            "0x0000000000000000000000000000000000000000000000000000000000000001"
          ],
          "data": "0x",
          "blockHash": "0x22c916dd629c97d88d4ba0f12221e15866387985b67c00202c2b9b9d54a734b4",
          "blockNumber": "0x768c7b",
          "transactionHash": "0x4377befd28202c8c16bd09b76d94d22d0958b438ed9b49eca1d3710afed071e9",
          "transactionIndex": "0x8f",
          "logIndex": "0x69",
          "removed": false
        },
        {
          "address": "0x4eb534b9c166ffedd7962cc44cd51ca7eb0aaf3c",
          "topics": [
            "0xdeee21db6a55c8eecf477d3301bcad831b184340f28656006a166316933b23e1",
            "0x0000000000000000000000000000000000000000000000000000000000000001",
            "0x000000000000000000000000204e8def7e6c467cebcebbc5c89ad86bf3003fe3"
          ],
          "data": "0x",
          "blockHash": "0x22c916dd629c97d88d4ba0f12221e15866387985b67c00202c2b9b9d54a734b4",
          "blockNumber": "0x768c7b",
          "transactionHash": "0x4377befd28202c8c16bd09b76d94d22d0958b438ed9b49eca1d3710afed071e9",
          "transactionIndex": "0x8f",
          "logIndex": "0x6a",
          "removed": false
        }
      ],
      "logsBloom": "0x00002000000000000000000000000000000000004000000000200000000000000000000000000000000000000000000000000000000000000000000000240000000000000000000000100000000000000000000440040000000000000000000000000000000000000008000000000000000000000100000000000000000000000000000000000000000000000000000000000000000000000000000000000000020000000000000000000000000020000000000000000000000000000000000000000008000000000000000000000000000000000000000000000000080040000010000000000000000000000000000000000040000000000000000000000000",
      "type": "0x2",
      "transactionHash": "0x4377befd28202c8c16bd09b76d94d22d0958b438ed9b49eca1d3710afed071e9",
      "transactionIndex": "0x8f",
      "blockHash": "0x22c916dd629c97d88d4ba0f12221e15866387985b67c00202c2b9b9d54a734b4",
      "blockNumber": "0x768c7b",
      "gasUsed": "0xc5a7",
      "effectiveGasPrice": "0x13d11c4ff",
      "from": "0x204e8def7e6c467cebcebbc5c89ad86bf3003fe3",
      "to": "0x4eb534b9c166ffedd7962cc44cd51ca7eb0aaf3c",
      "contractAddress": null
    },
    {
      "status": "0x1",
      "cumulativeGasUsed": "0x8b8b0b",
      "logs": [
        {
          "address": "0x4eb534b9c166ffedd7962cc44cd51ca7eb0aaf3c",
          "topics": [
            "0xddf252ad1be2c89b69c2b068fc378daa952ba7f163c4a11628f55a4df523b3ef",
            "0x0000000000000000000000000000000000000000000000000000000000000000",
            "0x000000000000000000000000204e8def7e6c467cebcebbc5c89ad86bf3003fe3",
            "0x0000000000000000000000000000000000000000000000000000000000000002"
          ],
          "data": "0x",
          "blockHash": "0x22c916dd629c97d88d4ba0f12221e15866387985b67c00202c2b9b9d54a734b4",
          "blockNumber": "0x768c7b",
          "transactionHash": "0xaee70b37471b89606ad48fb321c944f287e85784890a5b8a3d9862b7c7634f1d",
          "transactionIndex": "0x90",
          "logIndex": "0x6b",
          "removed": false
        },
        {
          "address": "0x4eb534b9c166ffedd7962cc44cd51ca7eb0aaf3c",
          "topics": [
            "0xf8e1a15aba9398e019f0b49df1a4fde98ee17ae345cb5f6b5e2c27f5033e8ce7"
          ],
          "data": "0x0000000000000000000000000000000000000000000000000000000000000002",
          "blockHash": "0x22c916dd629c97d88d4ba0f12221e15866387985b67c00202c2b9b9d54a734b4",
          "blockNumber": "0x768c7b",
          "transactionHash": "0xaee70b37471b89606ad48fb321c944f287e85784890a5b8a3d9862b7c7634f1d",
          "transactionIndex": "0x90",
          "logIndex": "0x6c",
          "removed": false
        },
        {
          "address": "0x4eb534b9c166ffedd7962cc44cd51ca7eb0aaf3c",
          "topics": [
            "0x684f6795945805272d5839a7063f5e0a3b6dd64bdb3976749763ec2fea161778",
            "0x0000000000000000000000000000000000000000000000000000000000000002",
            "0x000000000000000000000000204e8def7e6c467cebcebbc5c89ad86bf3003fe3"
          ],
          "data": "0x0000000000000000000000000000000000000000000000000000000000000040000000000000000000000000000000000000000000000000000009184e72a000000000000000000000000000000000000000000000000000000000000000007f68747470733a2f2f73696c7665722d747269636b792d74726f75742d3934352e6d7970696e6174612e636c6f75642f697066732f6261667962656964653732686c33646b687632653569627a72696762376369717269346b6c7a71326a703367697a6361656363337a6865797875792f436861726d656c656f6e2e6a736f6e00",
          "blockHash": "0x22c916dd629c97d88d4ba0f12221e15866387985b67c00202c2b9b9d54a734b4",
          "blockNumber": "0x768c7b",
          "transactionHash": "0xaee70b37471b89606ad48fb321c944f287e85784890a5b8a3d9862b7c7634f1d",
          "transactionIndex": "0x90",
          "logIndex": "0x6d",
          "removed": false
        }
      ],
      "logsBloom": "0x04002000000000000000000000000000000000000000000000000000000000000000000000000000000000000000000000000000000000000000000000000000000000000000000000110008000000000000000040000000000000000000000000000000020000000001000000000800000000000000000000200010000000000000000000000000000000000000000000000000000000000000000000000000000000000000000000000100000020002000000000000000000000000000008000000002000000000000000000000000000000000000000000000000080020000000000000000000200000000000000000000040008000000000000000000000",
      "type": "0x2",
      "transactionHash": "0xaee70b37471b89606ad48fb321c944f287e85784890a5b8a3d9862b7c7634f1d",
      "transactionIndex": "0x90",
      "blockHash": "0x22c916dd629c97d88d4ba0f12221e15866387985b67c00202c2b9b9d54a734b4",
      "blockNumber": "0x768c7b",
      "gasUsed": "0x36404",
      "effectiveGasPrice": "0x13d11c4ff",
      "from": "0x204e8def7e6c467cebcebbc5c89ad86bf3003fe3",
      "to": "0x4eb534b9c166ffedd7962cc44cd51ca7eb0aaf3c",
      "contractAddress": null
    },
    {
      "status": "0x1",
      "cumulativeGasUsed": "0x8c50b2",
      "logs": [
        {
          "address": "0x4eb534b9c166ffedd7962cc44cd51ca7eb0aaf3c",
          "topics": [
            "0x8c5be1e5ebec7d5bd14f71427d1e84f3dd0314c0f7b2291e5b200ac8c7c3b925",
            "0x000000000000000000000000204e8def7e6c467cebcebbc5c89ad86bf3003fe3",
            "0x0000000000000000000000004eb534b9c166ffedd7962cc44cd51ca7eb0aaf3c",
            "0x0000000000000000000000000000000000000000000000000000000000000002"
          ],
          "data": "0x",
          "blockHash": "0x22c916dd629c97d88d4ba0f12221e15866387985b67c00202c2b9b9d54a734b4",
          "blockNumber": "0x768c7b",
          "transactionHash": "0x500f309a448c76285974dd66fe21e30f7acf9c9503776f0cf7dec666ae7d4785",
          "transactionIndex": "0x91",
          "logIndex": "0x6e",
          "removed": false
        },
        {
          "address": "0x4eb534b9c166ffedd7962cc44cd51ca7eb0aaf3c",
          "topics": [
            "0xdeee21db6a55c8eecf477d3301bcad831b184340f28656006a166316933b23e1",
            "0x0000000000000000000000000000000000000000000000000000000000000002",
            "0x000000000000000000000000204e8def7e6c467cebcebbc5c89ad86bf3003fe3"
          ],
          "data": "0x",
          "blockHash": "0x22c916dd629c97d88d4ba0f12221e15866387985b67c00202c2b9b9d54a734b4",
          "blockNumber": "0x768c7b",
          "transactionHash": "0x500f309a448c76285974dd66fe21e30f7acf9c9503776f0cf7dec666ae7d4785",
          "transactionIndex": "0x91",
          "logIndex": "0x6f",
          "removed": false
        }
      ],
      "logsBloom": "0x04002000000000000000000000000000000000004000000000200000000000000000000000000000000000000000000000000000000000000000000000200000000000000000000000100000000000000000000440000000000000000000000000000000000000000008000000000000000000000100000000000000000000000000000000000000000000000000000000000000000000000000000000000000020000000000000000000100000020000000000000000000000000000000000000000008000000000000000000000000000000000000000000000000080000000010000000000000000000000000000000000040008000000000000000000000",
      "type": "0x2",
      "transactionHash": "0x500f309a448c76285974dd66fe21e30f7acf9c9503776f0cf7dec666ae7d4785",
      "transactionIndex": "0x91",
      "blockHash": "0x22c916dd629c97d88d4ba0f12221e15866387985b67c00202c2b9b9d54a734b4",
      "blockNumber": "0x768c7b",
      "gasUsed": "0xc5a7",
      "effectiveGasPrice": "0x13d11c4ff",
      "from": "0x204e8def7e6c467cebcebbc5c89ad86bf3003fe3",
      "to": "0x4eb534b9c166ffedd7962cc44cd51ca7eb0aaf3c",
      "contractAddress": null
    },
    {
      "status": "0x1",
      "cumulativeGasUsed": "0x8fb4e8",
      "logs": [
        {
          "address": "0x4eb534b9c166ffedd7962cc44cd51ca7eb0aaf3c",
          "topics": [
            "0xddf252ad1be2c89b69c2b068fc378daa952ba7f163c4a11628f55a4df523b3ef",
            "0x0000000000000000000000000000000000000000000000000000000000000000",
            "0x000000000000000000000000204e8def7e6c467cebcebbc5c89ad86bf3003fe3",
            "0x0000000000000000000000000000000000000000000000000000000000000003"
          ],
          "data": "0x",
          "blockHash": "0x22c916dd629c97d88d4ba0f12221e15866387985b67c00202c2b9b9d54a734b4",
          "blockNumber": "0x768c7b",
          "transactionHash": "0xe8dc6462a30c09b3671267318dfae077593e79656086caa1a35f631e68960904",
          "transactionIndex": "0x92",
          "logIndex": "0x70",
          "removed": false
        },
        {
          "address": "0x4eb534b9c166ffedd7962cc44cd51ca7eb0aaf3c",
          "topics": [
            "0xf8e1a15aba9398e019f0b49df1a4fde98ee17ae345cb5f6b5e2c27f5033e8ce7"
          ],
          "data": "0x0000000000000000000000000000000000000000000000000000000000000003",
          "blockHash": "0x22c916dd629c97d88d4ba0f12221e15866387985b67c00202c2b9b9d54a734b4",
          "blockNumber": "0x768c7b",
          "transactionHash": "0xe8dc6462a30c09b3671267318dfae077593e79656086caa1a35f631e68960904",
          "transactionIndex": "0x92",
          "logIndex": "0x71",
          "removed": false
        },
        {
          "address": "0x4eb534b9c166ffedd7962cc44cd51ca7eb0aaf3c",
          "topics": [
            "0x684f6795945805272d5839a7063f5e0a3b6dd64bdb3976749763ec2fea161778",
            "0x0000000000000000000000000000000000000000000000000000000000000003",
            "0x000000000000000000000000204e8def7e6c467cebcebbc5c89ad86bf3003fe3"
          ],
          "data": "0x0000000000000000000000000000000000000000000000000000000000000040000000000000000000000000000000000000000000000000000009184e72a000000000000000000000000000000000000000000000000000000000000000008068747470733a2f2f73696c7665722d747269636b792d74726f75742d3934352e6d7970696e6174612e636c6f75642f697066732f6261667962656964653732686c33646b687632653569627a72696762376369717269346b6c7a71326a703367697a6361656363337a6865797875792f436861726d656c656f6e322e6a736f6e",
          "blockHash": "0x22c916dd629c97d88d4ba0f12221e15866387985b67c00202c2b9b9d54a734b4",
          "blockNumber": "0x768c7b",
          "transactionHash": "0xe8dc6462a30c09b3671267318dfae077593e79656086caa1a35f631e68960904",
          "transactionIndex": "0x92",
          "logIndex": "0x72",
          "removed": false
        }
      ],
      "logsBloom": "0x00002000000000000000000000000000000000000000000000000000000000000000000000000000000000000000000000000000020000000000000000000000000000000000000000110008000000000000000040000000000000000000000000000000020000000001000000000800000000000000000000200010000000000000000000000000000000000000000000000000000000000000000000000000000000000000000000000000000020002000000000800000000000000000408000000002000000000000000000000000000000000000000000000000080020000000000000000000200000000000000000000040000000000000000000000000",
      "type": "0x2",
      "transactionHash": "0xe8dc6462a30c09b3671267318dfae077593e79656086caa1a35f631e68960904",
      "transactionIndex": "0x92",
      "blockHash": "0x22c916dd629c97d88d4ba0f12221e15866387985b67c00202c2b9b9d54a734b4",
      "blockNumber": "0x768c7b",
      "gasUsed": "0x36436",
      "effectiveGasPrice": "0x13d11c4ff",
      "from": "0x204e8def7e6c467cebcebbc5c89ad86bf3003fe3",
      "to": "0x4eb534b9c166ffedd7962cc44cd51ca7eb0aaf3c",
      "contractAddress": null
    },
    {
      "status": "0x1",
      "cumulativeGasUsed": "0x907a8f",
      "logs": [
        {
          "address": "0x4eb534b9c166ffedd7962cc44cd51ca7eb0aaf3c",
          "topics": [
            "0x8c5be1e5ebec7d5bd14f71427d1e84f3dd0314c0f7b2291e5b200ac8c7c3b925",
            "0x000000000000000000000000204e8def7e6c467cebcebbc5c89ad86bf3003fe3",
            "0x0000000000000000000000004eb534b9c166ffedd7962cc44cd51ca7eb0aaf3c",
            "0x0000000000000000000000000000000000000000000000000000000000000003"
          ],
          "data": "0x",
          "blockHash": "0x22c916dd629c97d88d4ba0f12221e15866387985b67c00202c2b9b9d54a734b4",
          "blockNumber": "0x768c7b",
          "transactionHash": "0xdca1e5d762e2b30c0ec6c951fc84a2a063c3b62d9ec08f07b07afde2ceaa2cee",
          "transactionIndex": "0x93",
          "logIndex": "0x73",
          "removed": false
        },
        {
          "address": "0x4eb534b9c166ffedd7962cc44cd51ca7eb0aaf3c",
          "topics": [
            "0xdeee21db6a55c8eecf477d3301bcad831b184340f28656006a166316933b23e1",
            "0x0000000000000000000000000000000000000000000000000000000000000003",
            "0x000000000000000000000000204e8def7e6c467cebcebbc5c89ad86bf3003fe3"
          ],
          "data": "0x",
          "blockHash": "0x22c916dd629c97d88d4ba0f12221e15866387985b67c00202c2b9b9d54a734b4",
          "blockNumber": "0x768c7b",
          "transactionHash": "0xdca1e5d762e2b30c0ec6c951fc84a2a063c3b62d9ec08f07b07afde2ceaa2cee",
          "transactionIndex": "0x93",
          "logIndex": "0x74",
          "removed": false
        }
      ],
      "logsBloom": "0x00002000000000000000000000000000000000004000000000200000000000000000000000000000000000000000000000000000020000000000000000200000000000000000000000100000000000000000000440000000000000000000000000000000000000000008000000000000000000000100000000000000000000000000000000000000000000000000000000000000000000000000000000000000020000000000000000000000000020000000000000800000000000000000400000000008000000000000000000000000000000000000000000000000080000000010000000000000000000000000000000000040000000000000000000000000",
      "type": "0x2",
      "transactionHash": "0xdca1e5d762e2b30c0ec6c951fc84a2a063c3b62d9ec08f07b07afde2ceaa2cee",
      "transactionIndex": "0x93",
      "blockHash": "0x22c916dd629c97d88d4ba0f12221e15866387985b67c00202c2b9b9d54a734b4",
      "blockNumber": "0x768c7b",
      "gasUsed": "0xc5a7",
      "effectiveGasPrice": "0x13d11c4ff",
      "from": "0x204e8def7e6c467cebcebbc5c89ad86bf3003fe3",
      "to": "0x4eb534b9c166ffedd7962cc44cd51ca7eb0aaf3c",
      "contractAddress": null
    },
    {
      "status": "0x1",
      "cumulativeGasUsed": "0x93de7b",
      "logs": [
        {
          "address": "0x4eb534b9c166ffedd7962cc44cd51ca7eb0aaf3c",
          "topics": [
            "0xddf252ad1be2c89b69c2b068fc378daa952ba7f163c4a11628f55a4df523b3ef",
            "0x0000000000000000000000000000000000000000000000000000000000000000",
            "0x000000000000000000000000204e8def7e6c467cebcebbc5c89ad86bf3003fe3",
            "0x0000000000000000000000000000000000000000000000000000000000000004"
          ],
          "data": "0x",
          "blockHash": "0x22c916dd629c97d88d4ba0f12221e15866387985b67c00202c2b9b9d54a734b4",
          "blockNumber": "0x768c7b",
          "transactionHash": "0xe6c80f37162c5c34c6b0e1eb351fa0cd6f46d1e715ed5a67dd6cb39872714b2f",
          "transactionIndex": "0x94",
          "logIndex": "0x75",
          "removed": false
        },
        {
          "address": "0x4eb534b9c166ffedd7962cc44cd51ca7eb0aaf3c",
          "topics": [
            "0xf8e1a15aba9398e019f0b49df1a4fde98ee17ae345cb5f6b5e2c27f5033e8ce7"
          ],
          "data": "0x0000000000000000000000000000000000000000000000000000000000000004",
          "blockHash": "0x22c916dd629c97d88d4ba0f12221e15866387985b67c00202c2b9b9d54a734b4",
          "blockNumber": "0x768c7b",
          "transactionHash": "0xe6c80f37162c5c34c6b0e1eb351fa0cd6f46d1e715ed5a67dd6cb39872714b2f",
          "transactionIndex": "0x94",
          "logIndex": "0x76",
          "removed": false
        },
        {
          "address": "0x4eb534b9c166ffedd7962cc44cd51ca7eb0aaf3c",
          "topics": [
            "0x684f6795945805272d5839a7063f5e0a3b6dd64bdb3976749763ec2fea161778",
            "0x0000000000000000000000000000000000000000000000000000000000000004",
            "0x000000000000000000000000204e8def7e6c467cebcebbc5c89ad86bf3003fe3"
          ],
          "data": "0x0000000000000000000000000000000000000000000000000000000000000040000000000000000000000000000000000000000000000000000009184e72a000000000000000000000000000000000000000000000000000000000000000007d68747470733a2f2f73696c7665722d747269636b792d74726f75742d3934352e6d7970696e6174612e636c6f75642f697066732f6261667962656964653732686c33646b687632653569627a72696762376369717269346b6c7a71326a703367697a6361656363337a6865797875792f446573636c6f70732e6a736f6e000000",
          "blockHash": "0x22c916dd629c97d88d4ba0f12221e15866387985b67c00202c2b9b9d54a734b4",
          "blockNumber": "0x768c7b",
          "transactionHash": "0xe6c80f37162c5c34c6b0e1eb351fa0cd6f46d1e715ed5a67dd6cb39872714b2f",
          "transactionIndex": "0x94",
          "logIndex": "0x77",
          "removed": false
        }
      ],
      "logsBloom": "0x00002000000000000000000000000000000000000000000000000000000000000000000000000000000000000000000000000000000000000000000000000000000000000000000000110008000000000000000040000000000000000000000008000000020000000001000000000800000000000000000000200010000000000000000000000000000000000000000000000000000000000000000000000000000000000000000000000000000020002000000000000000002000000000008000000002000000000000000000000000000000008000000000000000080020000000000000000000200000000000000000000040000000000000000000000000",
      "type": "0x2",
      "transactionHash": "0xe6c80f37162c5c34c6b0e1eb351fa0cd6f46d1e715ed5a67dd6cb39872714b2f",
      "transactionIndex": "0x94",
      "blockHash": "0x22c916dd629c97d88d4ba0f12221e15866387985b67c00202c2b9b9d54a734b4",
      "blockNumber": "0x768c7b",
      "gasUsed": "0x363ec",
      "effectiveGasPrice": "0x13d11c4ff",
      "from": "0x204e8def7e6c467cebcebbc5c89ad86bf3003fe3",
      "to": "0x4eb534b9c166ffedd7962cc44cd51ca7eb0aaf3c",
      "contractAddress": null
    },
    {
      "status": "0x1",
      "cumulativeGasUsed": "0x94a422",
      "logs": [
        {
          "address": "0x4eb534b9c166ffedd7962cc44cd51ca7eb0aaf3c",
          "topics": [
            "0x8c5be1e5ebec7d5bd14f71427d1e84f3dd0314c0f7b2291e5b200ac8c7c3b925",
            "0x000000000000000000000000204e8def7e6c467cebcebbc5c89ad86bf3003fe3",
            "0x0000000000000000000000004eb534b9c166ffedd7962cc44cd51ca7eb0aaf3c",
            "0x0000000000000000000000000000000000000000000000000000000000000004"
          ],
          "data": "0x",
          "blockHash": "0x22c916dd629c97d88d4ba0f12221e15866387985b67c00202c2b9b9d54a734b4",
          "blockNumber": "0x768c7b",
          "transactionHash": "0x826078c87046c510356c2ee096a1152cd887b1c4f0dff79861b4628afd67b900",
          "transactionIndex": "0x95",
          "logIndex": "0x78",
          "removed": false
        },
        {
          "address": "0x4eb534b9c166ffedd7962cc44cd51ca7eb0aaf3c",
          "topics": [
            "0xdeee21db6a55c8eecf477d3301bcad831b184340f28656006a166316933b23e1",
            "0x0000000000000000000000000000000000000000000000000000000000000004",
            "0x000000000000000000000000204e8def7e6c467cebcebbc5c89ad86bf3003fe3"
          ],
          "data": "0x",
          "blockHash": "0x22c916dd629c97d88d4ba0f12221e15866387985b67c00202c2b9b9d54a734b4",
          "blockNumber": "0x768c7b",
          "transactionHash": "0x826078c87046c510356c2ee096a1152cd887b1c4f0dff79861b4628afd67b900",
          "transactionIndex": "0x95",
          "logIndex": "0x79",
          "removed": false
        }
      ],
      "logsBloom": "0x00002000000000000000000000000000000000004000000000200000000000000000000000000000000000000000000000000000000000000000000000200000000000000000000000100000000000000000000440000000000000000000000008000000000000000008000000000000000000000100000000000000000000000000000000000000000000000000000000000000000000000000000000000000020000000000000000000000000020000000000000000000002000000000000000000008000000000000000000000000000000008000000000000000080000000010000000000000000000000000000000000040000000000000000000000000",
      "type": "0x2",
      "transactionHash": "0x826078c87046c510356c2ee096a1152cd887b1c4f0dff79861b4628afd67b900",
      "transactionIndex": "0x95",
      "blockHash": "0x22c916dd629c97d88d4ba0f12221e15866387985b67c00202c2b9b9d54a734b4",
      "blockNumber": "0x768c7b",
      "gasUsed": "0xc5a7",
      "effectiveGasPrice": "0x13d11c4ff",
      "from": "0x204e8def7e6c467cebcebbc5c89ad86bf3003fe3",
      "to": "0x4eb534b9c166ffedd7962cc44cd51ca7eb0aaf3c",
      "contractAddress": null
    },
    {
      "status": "0x1",
      "cumulativeGasUsed": "0x98080e",
      "logs": [
        {
          "address": "0x4eb534b9c166ffedd7962cc44cd51ca7eb0aaf3c",
          "topics": [
            "0xddf252ad1be2c89b69c2b068fc378daa952ba7f163c4a11628f55a4df523b3ef",
            "0x0000000000000000000000000000000000000000000000000000000000000000",
            "0x000000000000000000000000204e8def7e6c467cebcebbc5c89ad86bf3003fe3",
            "0x0000000000000000000000000000000000000000000000000000000000000005"
          ],
          "data": "0x",
          "blockHash": "0x22c916dd629c97d88d4ba0f12221e15866387985b67c00202c2b9b9d54a734b4",
          "blockNumber": "0x768c7b",
          "transactionHash": "0x43e47236e3ac8346b2cf6b58253af5184e4173fcbf419ac2f762759c6bfa53fc",
          "transactionIndex": "0x96",
          "logIndex": "0x7a",
          "removed": false
        },
        {
          "address": "0x4eb534b9c166ffedd7962cc44cd51ca7eb0aaf3c",
          "topics": [
            "0xf8e1a15aba9398e019f0b49df1a4fde98ee17ae345cb5f6b5e2c27f5033e8ce7"
          ],
          "data": "0x0000000000000000000000000000000000000000000000000000000000000005",
          "blockHash": "0x22c916dd629c97d88d4ba0f12221e15866387985b67c00202c2b9b9d54a734b4",
          "blockNumber": "0x768c7b",
          "transactionHash": "0x43e47236e3ac8346b2cf6b58253af5184e4173fcbf419ac2f762759c6bfa53fc",
          "transactionIndex": "0x96",
          "logIndex": "0x7b",
          "removed": false
        },
        {
          "address": "0x4eb534b9c166ffedd7962cc44cd51ca7eb0aaf3c",
          "topics": [
            "0x684f6795945805272d5839a7063f5e0a3b6dd64bdb3976749763ec2fea161778",
            "0x0000000000000000000000000000000000000000000000000000000000000005",
            "0x000000000000000000000000204e8def7e6c467cebcebbc5c89ad86bf3003fe3"
          ],
          "data": "0x0000000000000000000000000000000000000000000000000000000000000040000000000000000000000000000000000000000000000000000009184e72a000000000000000000000000000000000000000000000000000000000000000007d68747470733a2f2f73696c7665722d747269636b792d74726f75742d3934352e6d7970696e6174612e636c6f75642f697066732f6261667962656964653732686c33646b687632653569627a72696762376369717269346b6c7a71326a703367697a6361656363337a6865797875792f4475736b6e6f69722e6a736f6e000000",
          "blockHash": "0x22c916dd629c97d88d4ba0f12221e15866387985b67c00202c2b9b9d54a734b4",
          "blockNumber": "0x768c7b",
          "transactionHash": "0x43e47236e3ac8346b2cf6b58253af5184e4173fcbf419ac2f762759c6bfa53fc",
          "transactionIndex": "0x96",
          "logIndex": "0x7c",
          "removed": false
        }
      ],
      "logsBloom": "0x00002000000000000000000000000000000000000000000000000000000000000000000000000000000000000000000000000000000000000000000000000000000010000000000000110008000000000000000040000000000000000000000000000000020000000001000000000800000000000000000000200010000000000000000000000000000000000000001000000800000000000000000000000000000000000000000000000000000020002000000000000000000000000000008000000002000000000000000000000000000000000000000000000000080020000000000000000000200000000000000000000040000000000000000000000000",
      "type": "0x2",
      "transactionHash": "0x43e47236e3ac8346b2cf6b58253af5184e4173fcbf419ac2f762759c6bfa53fc",
      "transactionIndex": "0x96",
      "blockHash": "0x22c916dd629c97d88d4ba0f12221e15866387985b67c00202c2b9b9d54a734b4",
      "blockNumber": "0x768c7b",
      "gasUsed": "0x363ec",
      "effectiveGasPrice": "0x13d11c4ff",
      "from": "0x204e8def7e6c467cebcebbc5c89ad86bf3003fe3",
      "to": "0x4eb534b9c166ffedd7962cc44cd51ca7eb0aaf3c",
      "contractAddress": null
    },
    {
      "status": "0x1",
      "cumulativeGasUsed": "0x98cdb5",
      "logs": [
        {
          "address": "0x4eb534b9c166ffedd7962cc44cd51ca7eb0aaf3c",
          "topics": [
            "0x8c5be1e5ebec7d5bd14f71427d1e84f3dd0314c0f7b2291e5b200ac8c7c3b925",
            "0x000000000000000000000000204e8def7e6c467cebcebbc5c89ad86bf3003fe3",
            "0x0000000000000000000000004eb534b9c166ffedd7962cc44cd51ca7eb0aaf3c",
            "0x0000000000000000000000000000000000000000000000000000000000000005"
          ],
          "data": "0x",
          "blockHash": "0x22c916dd629c97d88d4ba0f12221e15866387985b67c00202c2b9b9d54a734b4",
          "blockNumber": "0x768c7b",
          "transactionHash": "0xdd7f969322ecf6ebda0d313e58d56f512c2d2d650b91e1aed347bf2e3d0e9f52",
          "transactionIndex": "0x97",
          "logIndex": "0x7d",
          "removed": false
        },
        {
          "address": "0x4eb534b9c166ffedd7962cc44cd51ca7eb0aaf3c",
          "topics": [
            "0xdeee21db6a55c8eecf477d3301bcad831b184340f28656006a166316933b23e1",
            "0x0000000000000000000000000000000000000000000000000000000000000005",
            "0x000000000000000000000000204e8def7e6c467cebcebbc5c89ad86bf3003fe3"
          ],
          "data": "0x",
          "blockHash": "0x22c916dd629c97d88d4ba0f12221e15866387985b67c00202c2b9b9d54a734b4",
          "blockNumber": "0x768c7b",
          "transactionHash": "0xdd7f969322ecf6ebda0d313e58d56f512c2d2d650b91e1aed347bf2e3d0e9f52",
          "transactionIndex": "0x97",
          "logIndex": "0x7e",
          "removed": false
        }
      ],
      "logsBloom": "0x00002000000000000000000000000000000000004000000000200000000000000000000000000000000000000000000000000000000000000000000000200000000010000000000000100000000000000000000440000000000000000000000000000000000000000008000000000000000000000100000000000000000000000000000000000000000000000000001000000800000000000000000000000000020000000000000000000000000020000000000000000000000000000000000000000008000000000000000000000000000000000000000000000000080000000010000000000000000000000000000000000040000000000000000000000000",
      "type": "0x2",
      "transactionHash": "0xdd7f969322ecf6ebda0d313e58d56f512c2d2d650b91e1aed347bf2e3d0e9f52",
      "transactionIndex": "0x97",
      "blockHash": "0x22c916dd629c97d88d4ba0f12221e15866387985b67c00202c2b9b9d54a734b4",
      "blockNumber": "0x768c7b",
      "gasUsed": "0xc5a7",
      "effectiveGasPrice": "0x13d11c4ff",
      "from": "0x204e8def7e6c467cebcebbc5c89ad86bf3003fe3",
      "to": "0x4eb534b9c166ffedd7962cc44cd51ca7eb0aaf3c",
      "contractAddress": null
    },
    {
      "status": "0x1",
      "cumulativeGasUsed": "0x9c31eb",
      "logs": [
        {
          "address": "0x4eb534b9c166ffedd7962cc44cd51ca7eb0aaf3c",
          "topics": [
            "0xddf252ad1be2c89b69c2b068fc378daa952ba7f163c4a11628f55a4df523b3ef",
            "0x0000000000000000000000000000000000000000000000000000000000000000",
            "0x000000000000000000000000204e8def7e6c467cebcebbc5c89ad86bf3003fe3",
            "0x0000000000000000000000000000000000000000000000000000000000000006"
          ],
          "data": "0x",
          "blockHash": "0x22c916dd629c97d88d4ba0f12221e15866387985b67c00202c2b9b9d54a734b4",
          "blockNumber": "0x768c7b",
          "transactionHash": "0xc42028a18216dd05f924e7a0bd1ef2236b334b9cd6034dd50f094be0712e52f5",
          "transactionIndex": "0x98",
          "logIndex": "0x7f",
          "removed": false
        },
        {
          "address": "0x4eb534b9c166ffedd7962cc44cd51ca7eb0aaf3c",
          "topics": [
            "0xf8e1a15aba9398e019f0b49df1a4fde98ee17ae345cb5f6b5e2c27f5033e8ce7"
          ],
          "data": "0x0000000000000000000000000000000000000000000000000000000000000006",
          "blockHash": "0x22c916dd629c97d88d4ba0f12221e15866387985b67c00202c2b9b9d54a734b4",
          "blockNumber": "0x768c7b",
          "transactionHash": "0xc42028a18216dd05f924e7a0bd1ef2236b334b9cd6034dd50f094be0712e52f5",
          "transactionIndex": "0x98",
          "logIndex": "0x80",
          "removed": false
        },
        {
          "address": "0x4eb534b9c166ffedd7962cc44cd51ca7eb0aaf3c",
          "topics": [
            "0x684f6795945805272d5839a7063f5e0a3b6dd64bdb3976749763ec2fea161778",
            "0x0000000000000000000000000000000000000000000000000000000000000006",
            "0x000000000000000000000000204e8def7e6c467cebcebbc5c89ad86bf3003fe3"
          ],
          "data": "0x0000000000000000000000000000000000000000000000000000000000000040000000000000000000000000000000000000000000000000000009184e72a000000000000000000000000000000000000000000000000000000000000000008068747470733a2f2f73696c7665722d747269636b792d74726f75742d3934352e6d7970696e6174612e636c6f75642f697066732f6261667962656964653732686c33646b687632653569627a72696762376369717269346b6c7a71326a703367697a6361656363337a6865797875792f46657a616e6469706974692e6a736f6e",
          "blockHash": "0x22c916dd629c97d88d4ba0f12221e15866387985b67c00202c2b9b9d54a734b4",
          "blockNumber": "0x768c7b",
          "transactionHash": "0xc42028a18216dd05f924e7a0bd1ef2236b334b9cd6034dd50f094be0712e52f5",
          "transactionIndex": "0x98",
          "logIndex": "0x81",
          "removed": false
        }
      ],
      "logsBloom": "0x00002000000000000000000000000000000000000000000000000000000000000000000000000000000000000000000000000000000400000000000000000000000000000000000000110008000000000000000040000000000000000000000000000000020000000001000000000800000000000000000000200010000000000000000400000000000000000000000000000000000000000000000000000000000000000000000000000000000020002000000000000000000000080000008000000002000000000000000000000000000000000000000000000000080020000000000000000000200000000000000000000040000000000000000000000000",
      "type": "0x2",
      "transactionHash": "0xc42028a18216dd05f924e7a0bd1ef2236b334b9cd6034dd50f094be0712e52f5",
      "transactionIndex": "0x98",
      "blockHash": "0x22c916dd629c97d88d4ba0f12221e15866387985b67c00202c2b9b9d54a734b4",
      "blockNumber": "0x768c7b",
      "gasUsed": "0x36436",
      "effectiveGasPrice": "0x13d11c4ff",
      "from": "0x204e8def7e6c467cebcebbc5c89ad86bf3003fe3",
      "to": "0x4eb534b9c166ffedd7962cc44cd51ca7eb0aaf3c",
      "contractAddress": null
    },
    {
      "status": "0x1",
      "cumulativeGasUsed": "0x9cf792",
      "logs": [
        {
          "address": "0x4eb534b9c166ffedd7962cc44cd51ca7eb0aaf3c",
          "topics": [
            "0x8c5be1e5ebec7d5bd14f71427d1e84f3dd0314c0f7b2291e5b200ac8c7c3b925",
            "0x000000000000000000000000204e8def7e6c467cebcebbc5c89ad86bf3003fe3",
            "0x0000000000000000000000004eb534b9c166ffedd7962cc44cd51ca7eb0aaf3c",
            "0x0000000000000000000000000000000000000000000000000000000000000006"
          ],
          "data": "0x",
          "blockHash": "0x22c916dd629c97d88d4ba0f12221e15866387985b67c00202c2b9b9d54a734b4",
          "blockNumber": "0x768c7b",
          "transactionHash": "0xf4b49896c2c3ace329cdf402d37255e052901d4cfe737a849ac56da61cb15788",
          "transactionIndex": "0x99",
          "logIndex": "0x82",
          "removed": false
        },
        {
          "address": "0x4eb534b9c166ffedd7962cc44cd51ca7eb0aaf3c",
          "topics": [
            "0xdeee21db6a55c8eecf477d3301bcad831b184340f28656006a166316933b23e1",
            "0x0000000000000000000000000000000000000000000000000000000000000006",
            "0x000000000000000000000000204e8def7e6c467cebcebbc5c89ad86bf3003fe3"
          ],
          "data": "0x",
          "blockHash": "0x22c916dd629c97d88d4ba0f12221e15866387985b67c00202c2b9b9d54a734b4",
          "blockNumber": "0x768c7b",
          "transactionHash": "0xf4b49896c2c3ace329cdf402d37255e052901d4cfe737a849ac56da61cb15788",
          "transactionIndex": "0x99",
          "logIndex": "0x83",
          "removed": false
        }
      ],
      "logsBloom": "0x00002000000000000000000000000000000000004000000000200000000000000000000000000000000000000000000000000000000400000000000000200000000000000000000000100000000000000000000440000000000000000000000000000000000000000008000000000000000000000100000000000000000000000000000400000000000000000000000000000000000000000000000000000000020000000000000000000000000020000000000000000000000000080000000000000008000000000000000000000000000000000000000000000000080000000010000000000000000000000000000000000040000000000000000000000000",
      "type": "0x2",
      "transactionHash": "0xf4b49896c2c3ace329cdf402d37255e052901d4cfe737a849ac56da61cb15788",
      "transactionIndex": "0x99",
      "blockHash": "0x22c916dd629c97d88d4ba0f12221e15866387985b67c00202c2b9b9d54a734b4",
      "blockNumber": "0x768c7b",
      "gasUsed": "0xc5a7",
      "effectiveGasPrice": "0x13d11c4ff",
      "from": "0x204e8def7e6c467cebcebbc5c89ad86bf3003fe3",
      "to": "0x4eb534b9c166ffedd7962cc44cd51ca7eb0aaf3c",
      "contractAddress": null
    },
    {
      "status": "0x1",
      "cumulativeGasUsed": "0xa05b72",
      "logs": [
        {
          "address": "0x4eb534b9c166ffedd7962cc44cd51ca7eb0aaf3c",
          "topics": [
            "0xddf252ad1be2c89b69c2b068fc378daa952ba7f163c4a11628f55a4df523b3ef",
            "0x0000000000000000000000000000000000000000000000000000000000000000",
            "0x000000000000000000000000204e8def7e6c467cebcebbc5c89ad86bf3003fe3",
            "0x0000000000000000000000000000000000000000000000000000000000000007"
          ],
          "data": "0x",
          "blockHash": "0x22c916dd629c97d88d4ba0f12221e15866387985b67c00202c2b9b9d54a734b4",
          "blockNumber": "0x768c7b",
          "transactionHash": "0x17ce732d20a55e51ae6bf448eea12d7c186feae039aacc2b2bdc8f35981533e7",
          "transactionIndex": "0x9a",
          "logIndex": "0x84",
          "removed": false
        },
        {
          "address": "0x4eb534b9c166ffedd7962cc44cd51ca7eb0aaf3c",
          "topics": [
            "0xf8e1a15aba9398e019f0b49df1a4fde98ee17ae345cb5f6b5e2c27f5033e8ce7"
          ],
          "data": "0x0000000000000000000000000000000000000000000000000000000000000007",
          "blockHash": "0x22c916dd629c97d88d4ba0f12221e15866387985b67c00202c2b9b9d54a734b4",
          "blockNumber": "0x768c7b",
          "transactionHash": "0x17ce732d20a55e51ae6bf448eea12d7c186feae039aacc2b2bdc8f35981533e7",
          "transactionIndex": "0x9a",
          "logIndex": "0x85",
          "removed": false
        },
        {
          "address": "0x4eb534b9c166ffedd7962cc44cd51ca7eb0aaf3c",
          "topics": [
            "0x684f6795945805272d5839a7063f5e0a3b6dd64bdb3976749763ec2fea161778",
            "0x0000000000000000000000000000000000000000000000000000000000000007",
            "0x000000000000000000000000204e8def7e6c467cebcebbc5c89ad86bf3003fe3"
          ],
          "data": "0x0000000000000000000000000000000000000000000000000000000000000040000000000000000000000000000000000000000000000000000009184e72a000000000000000000000000000000000000000000000000000000000000000007c68747470733a2f2f73696c7665722d747269636b792d74726f75742d3934352e6d7970696e6174612e636c6f75642f697066732f6261667962656964653732686c33646b687632653569627a72696762376369717269346b6c7a71326a703367697a6361656363337a6865797875792f46726f616b69652e6a736f6e00000000",
          "blockHash": "0x22c916dd629c97d88d4ba0f12221e15866387985b67c00202c2b9b9d54a734b4",
          "blockNumber": "0x768c7b",
          "transactionHash": "0x17ce732d20a55e51ae6bf448eea12d7c186feae039aacc2b2bdc8f35981533e7",
          "transactionIndex": "0x9a",
          "logIndex": "0x86",
          "removed": false
        }
      ],
      "logsBloom": "0x00002000000000000000000000000000000000000000000000000000000000000000000000000000000000000000000000001000000000000000000000000000000020000000000000110008000000000000000040000000000000000000000000000000020000000001000000000800000000000000000000200010000000000000000000000000000000000000000000000000000000000000000000000000000000000000000000000000000020002000000000000000000000000000008000000002000000000000000000000000000000000000000000000100080020000000000000000000200000000000000000000040000000000000000000000000",
      "type": "0x2",
      "transactionHash": "0x17ce732d20a55e51ae6bf448eea12d7c186feae039aacc2b2bdc8f35981533e7",
      "transactionIndex": "0x9a",
      "blockHash": "0x22c916dd629c97d88d4ba0f12221e15866387985b67c00202c2b9b9d54a734b4",
      "blockNumber": "0x768c7b",
      "gasUsed": "0x363e0",
      "effectiveGasPrice": "0x13d11c4ff",
      "from": "0x204e8def7e6c467cebcebbc5c89ad86bf3003fe3",
      "to": "0x4eb534b9c166ffedd7962cc44cd51ca7eb0aaf3c",
      "contractAddress": null
    },
    {
      "status": "0x1",
      "cumulativeGasUsed": "0xa12119",
      "logs": [
        {
          "address": "0x4eb534b9c166ffedd7962cc44cd51ca7eb0aaf3c",
          "topics": [
            "0x8c5be1e5ebec7d5bd14f71427d1e84f3dd0314c0f7b2291e5b200ac8c7c3b925",
            "0x000000000000000000000000204e8def7e6c467cebcebbc5c89ad86bf3003fe3",
            "0x0000000000000000000000004eb534b9c166ffedd7962cc44cd51ca7eb0aaf3c",
            "0x0000000000000000000000000000000000000000000000000000000000000007"
          ],
          "data": "0x",
          "blockHash": "0x22c916dd629c97d88d4ba0f12221e15866387985b67c00202c2b9b9d54a734b4",
          "blockNumber": "0x768c7b",
          "transactionHash": "0xbbefe454d6b9ee054805ec45943bc9fd0f7c26553b4a307a80f56edb60d4cc7a",
          "transactionIndex": "0x9b",
          "logIndex": "0x87",
          "removed": false
        },
        {
          "address": "0x4eb534b9c166ffedd7962cc44cd51ca7eb0aaf3c",
          "topics": [
            "0xdeee21db6a55c8eecf477d3301bcad831b184340f28656006a166316933b23e1",
            "0x0000000000000000000000000000000000000000000000000000000000000007",
            "0x000000000000000000000000204e8def7e6c467cebcebbc5c89ad86bf3003fe3"
          ],
          "data": "0x",
          "blockHash": "0x22c916dd629c97d88d4ba0f12221e15866387985b67c00202c2b9b9d54a734b4",
          "blockNumber": "0x768c7b",
          "transactionHash": "0xbbefe454d6b9ee054805ec45943bc9fd0f7c26553b4a307a80f56edb60d4cc7a",
          "transactionIndex": "0x9b",
          "logIndex": "0x88",
          "removed": false
        }
      ],
      "logsBloom": "0x00002000000000000000000000000000000000004000000000200000000000000000000000000000000000000000000000001000000000000000000000200000000020000000000000100000000000000000000440000000000000000000000000000000000000000008000000000000000000000100000000000000000000000000000000000000000000000000000000000000000000000000000000000000020000000000000000000000000020000000000000000000000000000000000000000008000000000000000000000000000000000000000000000100080000000010000000000000000000000000000000000040000000000000000000000000",
      "type": "0x2",
      "transactionHash": "0xbbefe454d6b9ee054805ec45943bc9fd0f7c26553b4a307a80f56edb60d4cc7a",
      "transactionIndex": "0x9b",
      "blockHash": "0x22c916dd629c97d88d4ba0f12221e15866387985b67c00202c2b9b9d54a734b4",
      "blockNumber": "0x768c7b",
      "gasUsed": "0xc5a7",
      "effectiveGasPrice": "0x13d11c4ff",
      "from": "0x204e8def7e6c467cebcebbc5c89ad86bf3003fe3",
      "to": "0x4eb534b9c166ffedd7962cc44cd51ca7eb0aaf3c",
      "contractAddress": null
    },
    {
      "status": "0x1",
      "cumulativeGasUsed": "0xa48511",
      "logs": [
        {
          "address": "0x4eb534b9c166ffedd7962cc44cd51ca7eb0aaf3c",
          "topics": [
            "0xddf252ad1be2c89b69c2b068fc378daa952ba7f163c4a11628f55a4df523b3ef",
            "0x0000000000000000000000000000000000000000000000000000000000000000",
            "0x000000000000000000000000204e8def7e6c467cebcebbc5c89ad86bf3003fe3",
            "0x0000000000000000000000000000000000000000000000000000000000000008"
          ],
          "data": "0x",
          "blockHash": "0x22c916dd629c97d88d4ba0f12221e15866387985b67c00202c2b9b9d54a734b4",
          "blockNumber": "0x768c7b",
          "transactionHash": "0x0602698611ca67fbc537c5de93a49b3b929460c9567504a47c406de5828550d2",
          "transactionIndex": "0x9c",
          "logIndex": "0x89",
          "removed": false
        },
        {
          "address": "0x4eb534b9c166ffedd7962cc44cd51ca7eb0aaf3c",
          "topics": [
            "0xf8e1a15aba9398e019f0b49df1a4fde98ee17ae345cb5f6b5e2c27f5033e8ce7"
          ],
          "data": "0x0000000000000000000000000000000000000000000000000000000000000008",
          "blockHash": "0x22c916dd629c97d88d4ba0f12221e15866387985b67c00202c2b9b9d54a734b4",
          "blockNumber": "0x768c7b",
          "transactionHash": "0x0602698611ca67fbc537c5de93a49b3b929460c9567504a47c406de5828550d2",
          "transactionIndex": "0x9c",
          "logIndex": "0x8a",
          "removed": false
        },
        {
          "address": "0x4eb534b9c166ffedd7962cc44cd51ca7eb0aaf3c",
          "topics": [
            "0x684f6795945805272d5839a7063f5e0a3b6dd64bdb3976749763ec2fea161778",
            "0x0000000000000000000000000000000000000000000000000000000000000008",
            "0x000000000000000000000000204e8def7e6c467cebcebbc5c89ad86bf3003fe3"
          ],
          "data": "0x0000000000000000000000000000000000000000000000000000000000000040000000000000000000000000000000000000000000000000000009184e72a000000000000000000000000000000000000000000000000000000000000000007e68747470733a2f2f73696c7665722d747269636b792d74726f75742d3934352e6d7970696e6174612e636c6f75642f697066732f6261667962656964653732686c33646b687632653569627a72696762376369717269346b6c7a71326a703367697a6361656363337a6865797875792f46726f6761646965722e6a736f6e0000",
          "blockHash": "0x22c916dd629c97d88d4ba0f12221e15866387985b67c00202c2b9b9d54a734b4",
          "blockNumber": "0x768c7b",
          "transactionHash": "0x0602698611ca67fbc537c5de93a49b3b929460c9567504a47c406de5828550d2",
          "transactionIndex": "0x9c",
          "logIndex": "0x8b",
          "removed": false
        }
      ],
      "logsBloom": "0x00002000000000000000000000000000000000000000000000000000000000000000000000000000000000000000000000000000000080000000000000000000000000000000000000110008000000000000000040000000000000000000000000000000020000000001000000000800000000000000000000200010000000000080000000000000000000000000000000000000000000000000000000000000000000000000000000000000000020002000000000000000000000000000008040000002000000000000000000000000000000000000000000000000080020000000000000000000200000000000000000000040000000000000000000000000",
      "type": "0x2",
      "transactionHash": "0x0602698611ca67fbc537c5de93a49b3b929460c9567504a47c406de5828550d2",
      "transactionIndex": "0x9c",
      "blockHash": "0x22c916dd629c97d88d4ba0f12221e15866387985b67c00202c2b9b9d54a734b4",
      "blockNumber": "0x768c7b",
      "gasUsed": "0x363f8",
      "effectiveGasPrice": "0x13d11c4ff",
      "from": "0x204e8def7e6c467cebcebbc5c89ad86bf3003fe3",
      "to": "0x4eb534b9c166ffedd7962cc44cd51ca7eb0aaf3c",
      "contractAddress": null
    },
    {
      "status": "0x1",
      "cumulativeGasUsed": "0xa54ab8",
      "logs": [
        {
          "address": "0x4eb534b9c166ffedd7962cc44cd51ca7eb0aaf3c",
          "topics": [
            "0x8c5be1e5ebec7d5bd14f71427d1e84f3dd0314c0f7b2291e5b200ac8c7c3b925",
            "0x000000000000000000000000204e8def7e6c467cebcebbc5c89ad86bf3003fe3",
            "0x0000000000000000000000004eb534b9c166ffedd7962cc44cd51ca7eb0aaf3c",
            "0x0000000000000000000000000000000000000000000000000000000000000008"
          ],
          "data": "0x",
          "blockHash": "0x22c916dd629c97d88d4ba0f12221e15866387985b67c00202c2b9b9d54a734b4",
          "blockNumber": "0x768c7b",
          "transactionHash": "0xad61f5377d695e7464f519b5cded4d46acb732c310cdc235dbada1c4b42c504e",
          "transactionIndex": "0x9d",
          "logIndex": "0x8c",
          "removed": false
        },
        {
          "address": "0x4eb534b9c166ffedd7962cc44cd51ca7eb0aaf3c",
          "topics": [
            "0xdeee21db6a55c8eecf477d3301bcad831b184340f28656006a166316933b23e1",
            "0x0000000000000000000000000000000000000000000000000000000000000008",
            "0x000000000000000000000000204e8def7e6c467cebcebbc5c89ad86bf3003fe3"
          ],
          "data": "0x",
          "blockHash": "0x22c916dd629c97d88d4ba0f12221e15866387985b67c00202c2b9b9d54a734b4",
          "blockNumber": "0x768c7b",
          "transactionHash": "0xad61f5377d695e7464f519b5cded4d46acb732c310cdc235dbada1c4b42c504e",
          "transactionIndex": "0x9d",
          "logIndex": "0x8d",
          "removed": false
        }
      ],
      "logsBloom": "0x00002000000000000000000000000000000000004000000000200000000000000000000000000000000000000000000000000000000080000000000000200000000000000000000000100000000000000000000440000000000000000000000000000000000000000008000000000000000000000100000000000000000000000080000000000000000000000000000000000000000000000000000000000000020000000000000000000000000020000000000000000000000000000000000040000008000000000000000000000000000000000000000000000000080000000010000000000000000000000000000000000040000000000000000000000000",
      "type": "0x2",
      "transactionHash": "0xad61f5377d695e7464f519b5cded4d46acb732c310cdc235dbada1c4b42c504e",
      "transactionIndex": "0x9d",
      "blockHash": "0x22c916dd629c97d88d4ba0f12221e15866387985b67c00202c2b9b9d54a734b4",
      "blockNumber": "0x768c7b",
      "gasUsed": "0xc5a7",
      "effectiveGasPrice": "0x13d11c4ff",
      "from": "0x204e8def7e6c467cebcebbc5c89ad86bf3003fe3",
      "to": "0x4eb534b9c166ffedd7962cc44cd51ca7eb0aaf3c",
      "contractAddress": null
    },
    {
      "status": "0x1",
      "cumulativeGasUsed": "0xa8aea4",
      "logs": [
        {
          "address": "0x4eb534b9c166ffedd7962cc44cd51ca7eb0aaf3c",
          "topics": [
            "0xddf252ad1be2c89b69c2b068fc378daa952ba7f163c4a11628f55a4df523b3ef",
            "0x0000000000000000000000000000000000000000000000000000000000000000",
            "0x000000000000000000000000204e8def7e6c467cebcebbc5c89ad86bf3003fe3",
            "0x0000000000000000000000000000000000000000000000000000000000000009"
          ],
          "data": "0x",
          "blockHash": "0x22c916dd629c97d88d4ba0f12221e15866387985b67c00202c2b9b9d54a734b4",
          "blockNumber": "0x768c7b",
          "transactionHash": "0x142d47046534520112e86b6e47c73e1b17ddd46e1b2cb75f8406a49ca8becf4b",
          "transactionIndex": "0x9e",
          "logIndex": "0x8e",
          "removed": false
        },
        {
          "address": "0x4eb534b9c166ffedd7962cc44cd51ca7eb0aaf3c",
          "topics": [
            "0xf8e1a15aba9398e019f0b49df1a4fde98ee17ae345cb5f6b5e2c27f5033e8ce7"
          ],
          "data": "0x0000000000000000000000000000000000000000000000000000000000000009",
          "blockHash": "0x22c916dd629c97d88d4ba0f12221e15866387985b67c00202c2b9b9d54a734b4",
          "blockNumber": "0x768c7b",
          "transactionHash": "0x142d47046534520112e86b6e47c73e1b17ddd46e1b2cb75f8406a49ca8becf4b",
          "transactionIndex": "0x9e",
          "logIndex": "0x8f",
          "removed": false
        },
        {
          "address": "0x4eb534b9c166ffedd7962cc44cd51ca7eb0aaf3c",
          "topics": [
            "0x684f6795945805272d5839a7063f5e0a3b6dd64bdb3976749763ec2fea161778",
            "0x0000000000000000000000000000000000000000000000000000000000000009",
            "0x000000000000000000000000204e8def7e6c467cebcebbc5c89ad86bf3003fe3"
          ],
          "data": "0x0000000000000000000000000000000000000000000000000000000000000040000000000000000000000000000000000000000000000000000009184e72a000000000000000000000000000000000000000000000000000000000000000007d68747470733a2f2f73696c7665722d747269636b792d74726f75742d3934352e6d7970696e6174612e636c6f75642f697066732f6261667962656964653732686c33646b687632653569627a72696762376369717269346b6c7a71326a703367697a6361656363337a6865797875792f4772656e696e6a612e6a736f6e000000",
          "blockHash": "0x22c916dd629c97d88d4ba0f12221e15866387985b67c00202c2b9b9d54a734b4",
          "blockNumber": "0x768c7b",
          "transactionHash": "0x142d47046534520112e86b6e47c73e1b17ddd46e1b2cb75f8406a49ca8becf4b",
          "transactionIndex": "0x9e",
          "logIndex": "0x90",
          "removed": false
        }
      ],
      "logsBloom": "0x00002000000000000000000000000000000000000000000000000000000000000000000000000000000000000000000000000000000000000000000000200000000000000000000000110008000000000000000040000000000000000000000000000000020000000001000000000800000000000000000000200010000000000000000000000000000000000000000000001000000000000000000000000000000000000000000000000000000020002000000000000000000000000000008000000002000000000000000000000000000000000000000000000000080020000000000000000000200000000000000000000040000000000000000000800000",
      "type": "0x2",
      "transactionHash": "0x142d47046534520112e86b6e47c73e1b17ddd46e1b2cb75f8406a49ca8becf4b",
      "transactionIndex": "0x9e",
      "blockHash": "0x22c916dd629c97d88d4ba0f12221e15866387985b67c00202c2b9b9d54a734b4",
      "blockNumber": "0x768c7b",
      "gasUsed": "0x363ec",
      "effectiveGasPrice": "0x13d11c4ff",
      "from": "0x204e8def7e6c467cebcebbc5c89ad86bf3003fe3",
      "to": "0x4eb534b9c166ffedd7962cc44cd51ca7eb0aaf3c",
      "contractAddress": null
    },
    {
      "status": "0x1",
      "cumulativeGasUsed": "0xa9744b",
      "logs": [
        {
          "address": "0x4eb534b9c166ffedd7962cc44cd51ca7eb0aaf3c",
          "topics": [
            "0x8c5be1e5ebec7d5bd14f71427d1e84f3dd0314c0f7b2291e5b200ac8c7c3b925",
            "0x000000000000000000000000204e8def7e6c467cebcebbc5c89ad86bf3003fe3",
            "0x0000000000000000000000004eb534b9c166ffedd7962cc44cd51ca7eb0aaf3c",
            "0x0000000000000000000000000000000000000000000000000000000000000009"
          ],
          "data": "0x",
          "blockHash": "0x22c916dd629c97d88d4ba0f12221e15866387985b67c00202c2b9b9d54a734b4",
          "blockNumber": "0x768c7b",
          "transactionHash": "0x575c3ffcf4411f2e6482e4ba7ee086f9577f42c4d4f51c5ee4ab18a2d1d02b2d",
          "transactionIndex": "0x9f",
          "logIndex": "0x91",
          "removed": false
        },
        {
          "address": "0x4eb534b9c166ffedd7962cc44cd51ca7eb0aaf3c",
          "topics": [
            "0xdeee21db6a55c8eecf477d3301bcad831b184340f28656006a166316933b23e1",
            "0x0000000000000000000000000000000000000000000000000000000000000009",
            "0x000000000000000000000000204e8def7e6c467cebcebbc5c89ad86bf3003fe3"
          ],
          "data": "0x",
          "blockHash": "0x22c916dd629c97d88d4ba0f12221e15866387985b67c00202c2b9b9d54a734b4",
          "blockNumber": "0x768c7b",
          "transactionHash": "0x575c3ffcf4411f2e6482e4ba7ee086f9577f42c4d4f51c5ee4ab18a2d1d02b2d",
          "transactionIndex": "0x9f",
          "logIndex": "0x92",
          "removed": false
        }
      ],
      "logsBloom": "0x00002000000000000000000000000000000000004000000000200000000000000000000000000000000000000000000000000000000000000000000000200000000000000000000000100000000000000000000440000000000000000000000000000000000000000008000000000000000000000100000000000000000000000000000000000000000000000000000000001000000000000000000000000000020000000000000000000000000020000000000000000000000000000000000000000008000000000000000000000000000000000000000000000000080000000010000000000000000000000000000000000040000000000000000000800000",
      "type": "0x2",
      "transactionHash": "0x575c3ffcf4411f2e6482e4ba7ee086f9577f42c4d4f51c5ee4ab18a2d1d02b2d",
      "transactionIndex": "0x9f",
      "blockHash": "0x22c916dd629c97d88d4ba0f12221e15866387985b67c00202c2b9b9d54a734b4",
      "blockNumber": "0x768c7b",
      "gasUsed": "0xc5a7",
      "effectiveGasPrice": "0x13d11c4ff",
      "from": "0x204e8def7e6c467cebcebbc5c89ad86bf3003fe3",
      "to": "0x4eb534b9c166ffedd7962cc44cd51ca7eb0aaf3c",
      "contractAddress": null
    },
    {
      "status": "0x1",
      "cumulativeGasUsed": "0xacd7fb",
      "logs": [
        {
          "address": "0x4eb534b9c166ffedd7962cc44cd51ca7eb0aaf3c",
          "topics": [
            "0xddf252ad1be2c89b69c2b068fc378daa952ba7f163c4a11628f55a4df523b3ef",
            "0x0000000000000000000000000000000000000000000000000000000000000000",
            "0x000000000000000000000000204e8def7e6c467cebcebbc5c89ad86bf3003fe3",
            "0x000000000000000000000000000000000000000000000000000000000000000a"
          ],
          "data": "0x",
          "blockHash": "0x22c916dd629c97d88d4ba0f12221e15866387985b67c00202c2b9b9d54a734b4",
          "blockNumber": "0x768c7b",
          "transactionHash": "0x6f0c6cfb345d5b06ba2b7a621e85c77d018443299452be3e75aa0ff99c77c653",
          "transactionIndex": "0xa0",
          "logIndex": "0x93",
          "removed": false
        },
        {
          "address": "0x4eb534b9c166ffedd7962cc44cd51ca7eb0aaf3c",
          "topics": [
            "0xf8e1a15aba9398e019f0b49df1a4fde98ee17ae345cb5f6b5e2c27f5033e8ce7"
          ],
          "data": "0x000000000000000000000000000000000000000000000000000000000000000a",
          "blockHash": "0x22c916dd629c97d88d4ba0f12221e15866387985b67c00202c2b9b9d54a734b4",
          "blockNumber": "0x768c7b",
          "transactionHash": "0x6f0c6cfb345d5b06ba2b7a621e85c77d018443299452be3e75aa0ff99c77c653",
          "transactionIndex": "0xa0",
          "logIndex": "0x94",
          "removed": false
        },
        {
          "address": "0x4eb534b9c166ffedd7962cc44cd51ca7eb0aaf3c",
          "topics": [
            "0x684f6795945805272d5839a7063f5e0a3b6dd64bdb3976749763ec2fea161778",
            "0x000000000000000000000000000000000000000000000000000000000000000a",
            "0x000000000000000000000000204e8def7e6c467cebcebbc5c89ad86bf3003fe3"
          ],
          "data": "0x0000000000000000000000000000000000000000000000000000000000000040000000000000000000000000000000000000000000000000000009184e72a000000000000000000000000000000000000000000000000000000000000000007868747470733a2f2f73696c7665722d747269636b792d74726f75742d3934352e6d7970696e6174612e636c6f75642f697066732f6261667962656964653732686c33646b687632653569627a72696762376369717269346b6c7a71326a703367697a6361656363337a6865797875792f4d65772e6a736f6e0000000000000000",
          "blockHash": "0x22c916dd629c97d88d4ba0f12221e15866387985b67c00202c2b9b9d54a734b4",
          "blockNumber": "0x768c7b",
          "transactionHash": "0x6f0c6cfb345d5b06ba2b7a621e85c77d018443299452be3e75aa0ff99c77c653",
          "transactionIndex": "0xa0",
          "logIndex": "0x95",
          "removed": false
        }
      ],
      "logsBloom": "0x00002000000000000000000000000000000000000000000000000000000000000000000000000000000000000000000000000000040000000020000000000000000000000000000000110008000000000000000040000000000000000000000000000000020000000001000000000800000000000000000000200010000000000000000000000000010000000000000000000000000000000000000000000000000000000000000000000000000020002000000000000000000000000000008000000002000000000000000000000000000000000000000000000000080020000000000000000000200000000000000000000040000000000000000000000000",
      "type": "0x2",
      "transactionHash": "0x6f0c6cfb345d5b06ba2b7a621e85c77d018443299452be3e75aa0ff99c77c653",
      "transactionIndex": "0xa0",
      "blockHash": "0x22c916dd629c97d88d4ba0f12221e15866387985b67c00202c2b9b9d54a734b4",
      "blockNumber": "0x768c7b",
      "gasUsed": "0x363b0",
      "effectiveGasPrice": "0x13d11c4ff",
      "from": "0x204e8def7e6c467cebcebbc5c89ad86bf3003fe3",
      "to": "0x4eb534b9c166ffedd7962cc44cd51ca7eb0aaf3c",
      "contractAddress": null
    },
    {
      "status": "0x1",
      "cumulativeGasUsed": "0xad9da2",
      "logs": [
        {
          "address": "0x4eb534b9c166ffedd7962cc44cd51ca7eb0aaf3c",
          "topics": [
            "0x8c5be1e5ebec7d5bd14f71427d1e84f3dd0314c0f7b2291e5b200ac8c7c3b925",
            "0x000000000000000000000000204e8def7e6c467cebcebbc5c89ad86bf3003fe3",
            "0x0000000000000000000000004eb534b9c166ffedd7962cc44cd51ca7eb0aaf3c",
            "0x000000000000000000000000000000000000000000000000000000000000000a"
          ],
          "data": "0x",
          "blockHash": "0x22c916dd629c97d88d4ba0f12221e15866387985b67c00202c2b9b9d54a734b4",
          "blockNumber": "0x768c7b",
          "transactionHash": "0x3bd7c03bdb37aee0b4361e51f68a6ceb05969ead2b8acca9ad4831f30faf0eb1",
          "transactionIndex": "0xa1",
          "logIndex": "0x96",
          "removed": false
        },
        {
          "address": "0x4eb534b9c166ffedd7962cc44cd51ca7eb0aaf3c",
          "topics": [
            "0xdeee21db6a55c8eecf477d3301bcad831b184340f28656006a166316933b23e1",
            "0x000000000000000000000000000000000000000000000000000000000000000a",
            "0x000000000000000000000000204e8def7e6c467cebcebbc5c89ad86bf3003fe3"
          ],
          "data": "0x",
          "blockHash": "0x22c916dd629c97d88d4ba0f12221e15866387985b67c00202c2b9b9d54a734b4",
          "blockNumber": "0x768c7b",
          "transactionHash": "0x3bd7c03bdb37aee0b4361e51f68a6ceb05969ead2b8acca9ad4831f30faf0eb1",
          "transactionIndex": "0xa1",
          "logIndex": "0x97",
          "removed": false
        }
      ],
      "logsBloom": "0x00002000000000000000000000000000000000004000000000200000000000000000000000000000000000000000000000000000040000000020000000200000000000000000000000100000000000000000000440000000000000000000000000000000000000000008000000000000000000000100000000000000000000000000000000000000010000000000000000000000000000000000000000000000020000000000000000000000000020000000000000000000000000000000000000000008000000000000000000000000000000000000000000000000080000000010000000000000000000000000000000000040000000000000000000000000",
      "type": "0x2",
      "transactionHash": "0x3bd7c03bdb37aee0b4361e51f68a6ceb05969ead2b8acca9ad4831f30faf0eb1",
      "transactionIndex": "0xa1",
      "blockHash": "0x22c916dd629c97d88d4ba0f12221e15866387985b67c00202c2b9b9d54a734b4",
      "blockNumber": "0x768c7b",
      "gasUsed": "0xc5a7",
      "effectiveGasPrice": "0x13d11c4ff",
      "from": "0x204e8def7e6c467cebcebbc5c89ad86bf3003fe3",
      "to": "0x4eb534b9c166ffedd7962cc44cd51ca7eb0aaf3c",
      "contractAddress": null
    },
    {
      "status": "0x1",
      "cumulativeGasUsed": "0xb10182",
      "logs": [
        {
          "address": "0x4eb534b9c166ffedd7962cc44cd51ca7eb0aaf3c",
          "topics": [
            "0xddf252ad1be2c89b69c2b068fc378daa952ba7f163c4a11628f55a4df523b3ef",
            "0x0000000000000000000000000000000000000000000000000000000000000000",
            "0x000000000000000000000000204e8def7e6c467cebcebbc5c89ad86bf3003fe3",
            "0x000000000000000000000000000000000000000000000000000000000000000b"
          ],
          "data": "0x",
          "blockHash": "0x22c916dd629c97d88d4ba0f12221e15866387985b67c00202c2b9b9d54a734b4",
          "blockNumber": "0x768c7b",
          "transactionHash": "0xfd0cdd7a0f95fff920cf0ce1a2d0056c9f3545902bf2339d935bdfdc1af58f10",
          "transactionIndex": "0xa2",
          "logIndex": "0x98",
          "removed": false
        },
        {
          "address": "0x4eb534b9c166ffedd7962cc44cd51ca7eb0aaf3c",
          "topics": [
            "0xf8e1a15aba9398e019f0b49df1a4fde98ee17ae345cb5f6b5e2c27f5033e8ce7"
          ],
          "data": "0x000000000000000000000000000000000000000000000000000000000000000b",
          "blockHash": "0x22c916dd629c97d88d4ba0f12221e15866387985b67c00202c2b9b9d54a734b4",
          "blockNumber": "0x768c7b",
          "transactionHash": "0xfd0cdd7a0f95fff920cf0ce1a2d0056c9f3545902bf2339d935bdfdc1af58f10",
          "transactionIndex": "0xa2",
          "logIndex": "0x99",
          "removed": false
        },
        {
          "address": "0x4eb534b9c166ffedd7962cc44cd51ca7eb0aaf3c",
          "topics": [
            "0x684f6795945805272d5839a7063f5e0a3b6dd64bdb3976749763ec2fea161778",
            "0x000000000000000000000000000000000000000000000000000000000000000b",
            "0x000000000000000000000000204e8def7e6c467cebcebbc5c89ad86bf3003fe3"
          ],
          "data": "0x0000000000000000000000000000000000000000000000000000000000000040000000000000000000000000000000000000000000000000000009184e72a000000000000000000000000000000000000000000000000000000000000000007c68747470733a2f2f73696c7665722d747269636b792d74726f75742d3934352e6d7970696e6174612e636c6f75642f697066732f6261667962656964653732686c33646b687632653569627a72696762376369717269346b6c7a71326a703367697a6361656363337a6865797875792f50696b616368752e6a736f6e00000000",
          "blockHash": "0x22c916dd629c97d88d4ba0f12221e15866387985b67c00202c2b9b9d54a734b4",
          "blockNumber": "0x768c7b",
          "transactionHash": "0xfd0cdd7a0f95fff920cf0ce1a2d0056c9f3545902bf2339d935bdfdc1af58f10",
          "transactionIndex": "0xa2",
          "logIndex": "0x9a",
          "removed": false
        }
      ],
      "logsBloom": "0x00002000000000000000004000000000000000000000000000000000000000000000000000000000000000000000000000000000000000000000000000000000000000000000000000110008000000000000000040000000000000000000000000000000020000000001000000000800000000000000000000200010000000000000000000000000000000000000000000000000000000000000000000000000000000000000000000000000000020002000000000000000000000000000008000000002000000000000000000000000002000000000000000000000080020000000000000000000200000000000000000000040000000040000000000000000",
      "type": "0x2",
      "transactionHash": "0xfd0cdd7a0f95fff920cf0ce1a2d0056c9f3545902bf2339d935bdfdc1af58f10",
      "transactionIndex": "0xa2",
      "blockHash": "0x22c916dd629c97d88d4ba0f12221e15866387985b67c00202c2b9b9d54a734b4",
      "blockNumber": "0x768c7b",
      "gasUsed": "0x363e0",
      "effectiveGasPrice": "0x13d11c4ff",
      "from": "0x204e8def7e6c467cebcebbc5c89ad86bf3003fe3",
      "to": "0x4eb534b9c166ffedd7962cc44cd51ca7eb0aaf3c",
      "contractAddress": null
    },
    {
      "status": "0x1",
      "cumulativeGasUsed": "0xb1c729",
      "logs": [
        {
          "address": "0x4eb534b9c166ffedd7962cc44cd51ca7eb0aaf3c",
          "topics": [
            "0x8c5be1e5ebec7d5bd14f71427d1e84f3dd0314c0f7b2291e5b200ac8c7c3b925",
            "0x000000000000000000000000204e8def7e6c467cebcebbc5c89ad86bf3003fe3",
            "0x0000000000000000000000004eb534b9c166ffedd7962cc44cd51ca7eb0aaf3c",
            "0x000000000000000000000000000000000000000000000000000000000000000b"
          ],
          "data": "0x",
          "blockHash": "0x22c916dd629c97d88d4ba0f12221e15866387985b67c00202c2b9b9d54a734b4",
          "blockNumber": "0x768c7b",
          "transactionHash": "0x71230ec9bc97545ece42e7b3ce8dcd4999fe19f2411786514489a98883fa81d5",
          "transactionIndex": "0xa3",
          "logIndex": "0x9b",
          "removed": false
        },
        {
          "address": "0x4eb534b9c166ffedd7962cc44cd51ca7eb0aaf3c",
          "topics": [
            "0xdeee21db6a55c8eecf477d3301bcad831b184340f28656006a166316933b23e1",
            "0x000000000000000000000000000000000000000000000000000000000000000b",
            "0x000000000000000000000000204e8def7e6c467cebcebbc5c89ad86bf3003fe3"
          ],
          "data": "0x",
          "blockHash": "0x22c916dd629c97d88d4ba0f12221e15866387985b67c00202c2b9b9d54a734b4",
          "blockNumber": "0x768c7b",
          "transactionHash": "0x71230ec9bc97545ece42e7b3ce8dcd4999fe19f2411786514489a98883fa81d5",
          "transactionIndex": "0xa3",
          "logIndex": "0x9c",
          "removed": false
        }
      ],
      "logsBloom": "0x00002000000000000000004000000000000000004000000000200000000000000000000000000000000000000000000000000000000000000000000000200000000000000000000000100000000000000000000440000000000000000000000000000000000000000008000000000000000000000100000000000000000000000000000000000000000000000000000000000000000000000000000000000000020000000000000000000000000020000000000000000000000000000000000000000008000000000000000000000000002000000000000000000000080000000010000000000000000000000000000000000040000000040000000000000000",
      "type": "0x2",
      "transactionHash": "0x71230ec9bc97545ece42e7b3ce8dcd4999fe19f2411786514489a98883fa81d5",
      "transactionIndex": "0xa3",
      "blockHash": "0x22c916dd629c97d88d4ba0f12221e15866387985b67c00202c2b9b9d54a734b4",
      "blockNumber": "0x768c7b",
      "gasUsed": "0xc5a7",
      "effectiveGasPrice": "0x13d11c4ff",
      "from": "0x204e8def7e6c467cebcebbc5c89ad86bf3003fe3",
      "to": "0x4eb534b9c166ffedd7962cc44cd51ca7eb0aaf3c",
      "contractAddress": null
    },
    {
      "status": "0x1",
      "cumulativeGasUsed": "0xb52b15",
      "logs": [
        {
          "address": "0x4eb534b9c166ffedd7962cc44cd51ca7eb0aaf3c",
          "topics": [
            "0xddf252ad1be2c89b69c2b068fc378daa952ba7f163c4a11628f55a4df523b3ef",
            "0x0000000000000000000000000000000000000000000000000000000000000000",
            "0x000000000000000000000000204e8def7e6c467cebcebbc5c89ad86bf3003fe3",
            "0x000000000000000000000000000000000000000000000000000000000000000c"
          ],
          "data": "0x",
          "blockHash": "0x22c916dd629c97d88d4ba0f12221e15866387985b67c00202c2b9b9d54a734b4",
          "blockNumber": "0x768c7b",
          "transactionHash": "0x919e3f3aa9722e79d310fe662cc950b0dad2acc0f9514604e27d57ae20477678",
          "transactionIndex": "0xa4",
          "logIndex": "0x9d",
          "removed": false
        },
        {
          "address": "0x4eb534b9c166ffedd7962cc44cd51ca7eb0aaf3c",
          "topics": [
            "0xf8e1a15aba9398e019f0b49df1a4fde98ee17ae345cb5f6b5e2c27f5033e8ce7"
          ],
          "data": "0x000000000000000000000000000000000000000000000000000000000000000c",
          "blockHash": "0x22c916dd629c97d88d4ba0f12221e15866387985b67c00202c2b9b9d54a734b4",
          "blockNumber": "0x768c7b",
          "transactionHash": "0x919e3f3aa9722e79d310fe662cc950b0dad2acc0f9514604e27d57ae20477678",
          "transactionIndex": "0xa4",
          "logIndex": "0x9e",
          "removed": false
        },
        {
          "address": "0x4eb534b9c166ffedd7962cc44cd51ca7eb0aaf3c",
          "topics": [
            "0x684f6795945805272d5839a7063f5e0a3b6dd64bdb3976749763ec2fea161778",
            "0x000000000000000000000000000000000000000000000000000000000000000c",
            "0x000000000000000000000000204e8def7e6c467cebcebbc5c89ad86bf3003fe3"
          ],
          "data": "0x0000000000000000000000000000000000000000000000000000000000000040000000000000000000000000000000000000000000000000000009184e72a000000000000000000000000000000000000000000000000000000000000000007d68747470733a2f2f73696c7665722d747269636b792d74726f75742d3934352e6d7970696e6174612e636c6f75642f697066732f6261667962656964653732686c33646b687632653569627a72696762376369717269346b6c7a71326a703367697a6361656363337a6865797875792f50696b61636875322e6a736f6e000000",
          "blockHash": "0x22c916dd629c97d88d4ba0f12221e15866387985b67c00202c2b9b9d54a734b4",
          "blockNumber": "0x768c7b",
          "transactionHash": "0x919e3f3aa9722e79d310fe662cc950b0dad2acc0f9514604e27d57ae20477678",
          "transactionIndex": "0xa4",
          "logIndex": "0x9f",
          "removed": false
        }
      ],
      "logsBloom": "0x00002000000000000000000000000000000002000000000000000000000000000000000000000200000000000000000000000000000000000000000000000000000000000000000000110008000000000000000040000000000000000000000000000000020000000001000000000800000000000000000000200010000000000000000000000000000000000000000000000000000000000000000000000000000000000000000000000000000020002000000000000000000000000000008000000002000000000000000000000000000000000000000000000000080020200000000000000000200000000000000000000040000000000000000000000000",
      "type": "0x2",
      "transactionHash": "0x919e3f3aa9722e79d310fe662cc950b0dad2acc0f9514604e27d57ae20477678",
      "transactionIndex": "0xa4",
      "blockHash": "0x22c916dd629c97d88d4ba0f12221e15866387985b67c00202c2b9b9d54a734b4",
      "blockNumber": "0x768c7b",
      "gasUsed": "0x363ec",
      "effectiveGasPrice": "0x13d11c4ff",
      "from": "0x204e8def7e6c467cebcebbc5c89ad86bf3003fe3",
      "to": "0x4eb534b9c166ffedd7962cc44cd51ca7eb0aaf3c",
      "contractAddress": null
    },
    {
      "status": "0x1",
      "cumulativeGasUsed": "0xb5f0bc",
      "logs": [
        {
          "address": "0x4eb534b9c166ffedd7962cc44cd51ca7eb0aaf3c",
          "topics": [
            "0x8c5be1e5ebec7d5bd14f71427d1e84f3dd0314c0f7b2291e5b200ac8c7c3b925",
            "0x000000000000000000000000204e8def7e6c467cebcebbc5c89ad86bf3003fe3",
            "0x0000000000000000000000004eb534b9c166ffedd7962cc44cd51ca7eb0aaf3c",
            "0x000000000000000000000000000000000000000000000000000000000000000c"
          ],
          "data": "0x",
          "blockHash": "0x22c916dd629c97d88d4ba0f12221e15866387985b67c00202c2b9b9d54a734b4",
          "blockNumber": "0x768c7b",
          "transactionHash": "0x3c4ec1c7a94f058e5ce6272938e573ee7658e58855860e4e17ace5582088c7c0",
          "transactionIndex": "0xa5",
          "logIndex": "0xa0",
          "removed": false
        },
        {
          "address": "0x4eb534b9c166ffedd7962cc44cd51ca7eb0aaf3c",
          "topics": [
            "0xdeee21db6a55c8eecf477d3301bcad831b184340f28656006a166316933b23e1",
            "0x000000000000000000000000000000000000000000000000000000000000000c",
            "0x000000000000000000000000204e8def7e6c467cebcebbc5c89ad86bf3003fe3"
          ],
          "data": "0x",
          "blockHash": "0x22c916dd629c97d88d4ba0f12221e15866387985b67c00202c2b9b9d54a734b4",
          "blockNumber": "0x768c7b",
          "transactionHash": "0x3c4ec1c7a94f058e5ce6272938e573ee7658e58855860e4e17ace5582088c7c0",
          "transactionIndex": "0xa5",
          "logIndex": "0xa1",
          "removed": false
        }
      ],
      "logsBloom": "0x00002000000000000000000000000000000002004000000000200000000000000000000000000200000000000000000000000000000000000000000000200000000000000000000000100000000000000000000440000000000000000000000000000000000000000008000000000000000000000100000000000000000000000000000000000000000000000000000000000000000000000000000000000000020000000000000000000000000020000000000000000000000000000000000000000008000000000000000000000000000000000000000000000000080000200010000000000000000000000000000000000040000000000000000000000000",
      "type": "0x2",
      "transactionHash": "0x3c4ec1c7a94f058e5ce6272938e573ee7658e58855860e4e17ace5582088c7c0",
      "transactionIndex": "0xa5",
      "blockHash": "0x22c916dd629c97d88d4ba0f12221e15866387985b67c00202c2b9b9d54a734b4",
      "blockNumber": "0x768c7b",
      "gasUsed": "0xc5a7",
      "effectiveGasPrice": "0x13d11c4ff",
      "from": "0x204e8def7e6c467cebcebbc5c89ad86bf3003fe3",
      "to": "0x4eb534b9c166ffedd7962cc44cd51ca7eb0aaf3c",
      "contractAddress": null
    },
    {
      "status": "0x1",
      "cumulativeGasUsed": "0xb95490",
      "logs": [
        {
          "address": "0x4eb534b9c166ffedd7962cc44cd51ca7eb0aaf3c",
          "topics": [
            "0xddf252ad1be2c89b69c2b068fc378daa952ba7f163c4a11628f55a4df523b3ef",
            "0x0000000000000000000000000000000000000000000000000000000000000000",
            "0x000000000000000000000000204e8def7e6c467cebcebbc5c89ad86bf3003fe3",
            "0x000000000000000000000000000000000000000000000000000000000000000d"
          ],
          "data": "0x",
          "blockHash": "0x22c916dd629c97d88d4ba0f12221e15866387985b67c00202c2b9b9d54a734b4",
          "blockNumber": "0x768c7b",
          "transactionHash": "0x8a8a40ec9b7bd78aaf1f988578b4de87de8c75495e4f1e4770f295bcf4de0a99",
          "transactionIndex": "0xa6",
          "logIndex": "0xa2",
          "removed": false
        },
        {
          "address": "0x4eb534b9c166ffedd7962cc44cd51ca7eb0aaf3c",
          "topics": [
            "0xf8e1a15aba9398e019f0b49df1a4fde98ee17ae345cb5f6b5e2c27f5033e8ce7"
          ],
          "data": "0x000000000000000000000000000000000000000000000000000000000000000d",
          "blockHash": "0x22c916dd629c97d88d4ba0f12221e15866387985b67c00202c2b9b9d54a734b4",
          "blockNumber": "0x768c7b",
          "transactionHash": "0x8a8a40ec9b7bd78aaf1f988578b4de87de8c75495e4f1e4770f295bcf4de0a99",
          "transactionIndex": "0xa6",
          "logIndex": "0xa3",
          "removed": false
        },
        {
          "address": "0x4eb534b9c166ffedd7962cc44cd51ca7eb0aaf3c",
          "topics": [
            "0x684f6795945805272d5839a7063f5e0a3b6dd64bdb3976749763ec2fea161778",
            "0x000000000000000000000000000000000000000000000000000000000000000d",
            "0x000000000000000000000000204e8def7e6c467cebcebbc5c89ad86bf3003fe3"
          ],
          "data": "0x0000000000000000000000000000000000000000000000000000000000000040000000000000000000000000000000000000000000000000000009184e72a000000000000000000000000000000000000000000000000000000000000000007b68747470733a2f2f73696c7665722d747269636b792d74726f75742d3934352e6d7970696e6174612e636c6f75642f697066732f6261667962656964653732686c33646b687632653569627a72696762376369717269346b6c7a71326a703367697a6361656363337a6865797875792f5261696368752e6a736f6e0000000000",
          "blockHash": "0x22c916dd629c97d88d4ba0f12221e15866387985b67c00202c2b9b9d54a734b4",
          "blockNumber": "0x768c7b",
          "transactionHash": "0x8a8a40ec9b7bd78aaf1f988578b4de87de8c75495e4f1e4770f295bcf4de0a99",
          "transactionIndex": "0xa6",
          "logIndex": "0xa4",
          "removed": false
        }
      ],
      "logsBloom": "0x00002000000000000040000000000000000000000000000000000000000000000000000000000000000000000000000000000000000000000000000000000000000000000000000000110008000000000002000040000000000000000000000000000000020000000001000000000800000000000000000000200010000000000000000000000000000000000000000000000000000000000000000000000000000000000000000000000000000020002000000000000000000000000000008000000002000000000000000000000000000000000000000000000000080020020000000000000000200000000000000000000040000000000000000000000000",
      "type": "0x2",
      "transactionHash": "0x8a8a40ec9b7bd78aaf1f988578b4de87de8c75495e4f1e4770f295bcf4de0a99",
      "transactionIndex": "0xa6",
      "blockHash": "0x22c916dd629c97d88d4ba0f12221e15866387985b67c00202c2b9b9d54a734b4",
      "blockNumber": "0x768c7b",
      "gasUsed": "0x363d4",
      "effectiveGasPrice": "0x13d11c4ff",
      "from": "0x204e8def7e6c467cebcebbc5c89ad86bf3003fe3",
      "to": "0x4eb534b9c166ffedd7962cc44cd51ca7eb0aaf3c",
      "contractAddress": null
    },
    {
      "status": "0x1",
      "cumulativeGasUsed": "0xba1a37",
      "logs": [
        {
          "address": "0x4eb534b9c166ffedd7962cc44cd51ca7eb0aaf3c",
          "topics": [
            "0x8c5be1e5ebec7d5bd14f71427d1e84f3dd0314c0f7b2291e5b200ac8c7c3b925",
            "0x000000000000000000000000204e8def7e6c467cebcebbc5c89ad86bf3003fe3",
            "0x0000000000000000000000004eb534b9c166ffedd7962cc44cd51ca7eb0aaf3c",
            "0x000000000000000000000000000000000000000000000000000000000000000d"
          ],
          "data": "0x",
          "blockHash": "0x22c916dd629c97d88d4ba0f12221e15866387985b67c00202c2b9b9d54a734b4",
          "blockNumber": "0x768c7b",
          "transactionHash": "0xa8ae7bdb456da825e4abc6c0a19e35d3a4b6cae283d67ab9d5ae1ee3210d42ea",
          "transactionIndex": "0xa7",
          "logIndex": "0xa5",
          "removed": false
        },
        {
          "address": "0x4eb534b9c166ffedd7962cc44cd51ca7eb0aaf3c",
          "topics": [
            "0xdeee21db6a55c8eecf477d3301bcad831b184340f28656006a166316933b23e1",
            "0x000000000000000000000000000000000000000000000000000000000000000d",
            "0x000000000000000000000000204e8def7e6c467cebcebbc5c89ad86bf3003fe3"
          ],
          "data": "0x",
          "blockHash": "0x22c916dd629c97d88d4ba0f12221e15866387985b67c00202c2b9b9d54a734b4",
          "blockNumber": "0x768c7b",
          "transactionHash": "0xa8ae7bdb456da825e4abc6c0a19e35d3a4b6cae283d67ab9d5ae1ee3210d42ea",
          "transactionIndex": "0xa7",
          "logIndex": "0xa6",
          "removed": false
        }
      ],
      "logsBloom": "0x00002000000000000040000000000000000000004000000000200000000000000000000000000000000000000000000000000000000000000000000000200000000000000000000000100000000000000002000440000000000000000000000000000000000000000008000000000000000000000100000000000000000000000000000000000000000000000000000000000000000000000000000000000000020000000000000000000000000020000000000000000000000000000000000000000008000000000000000000000000000000000000000000000000080000020010000000000000000000000000000000000040000000000000000000000000",
      "type": "0x2",
      "transactionHash": "0xa8ae7bdb456da825e4abc6c0a19e35d3a4b6cae283d67ab9d5ae1ee3210d42ea",
      "transactionIndex": "0xa7",
      "blockHash": "0x22c916dd629c97d88d4ba0f12221e15866387985b67c00202c2b9b9d54a734b4",
      "blockNumber": "0x768c7b",
      "gasUsed": "0xc5a7",
      "effectiveGasPrice": "0x13d11c4ff",
      "from": "0x204e8def7e6c467cebcebbc5c89ad86bf3003fe3",
      "to": "0x4eb534b9c166ffedd7962cc44cd51ca7eb0aaf3c",
      "contractAddress": null
    },
    {
      "status": "0x1",
      "cumulativeGasUsed": "0xbd7e17",
      "logs": [
        {
          "address": "0x4eb534b9c166ffedd7962cc44cd51ca7eb0aaf3c",
          "topics": [
            "0xddf252ad1be2c89b69c2b068fc378daa952ba7f163c4a11628f55a4df523b3ef",
            "0x0000000000000000000000000000000000000000000000000000000000000000",
            "0x000000000000000000000000204e8def7e6c467cebcebbc5c89ad86bf3003fe3",
            "0x000000000000000000000000000000000000000000000000000000000000000e"
          ],
          "data": "0x",
          "blockHash": "0x22c916dd629c97d88d4ba0f12221e15866387985b67c00202c2b9b9d54a734b4",
          "blockNumber": "0x768c7b",
          "transactionHash": "0xc604e3653e825923789920f1ebcbd10d2ba5cbef827d12a1934dcd6dc7ce25f5",
          "transactionIndex": "0xa8",
          "logIndex": "0xa7",
          "removed": false
        },
        {
          "address": "0x4eb534b9c166ffedd7962cc44cd51ca7eb0aaf3c",
          "topics": [
            "0xf8e1a15aba9398e019f0b49df1a4fde98ee17ae345cb5f6b5e2c27f5033e8ce7"
          ],
          "data": "0x000000000000000000000000000000000000000000000000000000000000000e",
          "blockHash": "0x22c916dd629c97d88d4ba0f12221e15866387985b67c00202c2b9b9d54a734b4",
          "blockNumber": "0x768c7b",
          "transactionHash": "0xc604e3653e825923789920f1ebcbd10d2ba5cbef827d12a1934dcd6dc7ce25f5",
          "transactionIndex": "0xa8",
          "logIndex": "0xa8",
          "removed": false
        },
        {
          "address": "0x4eb534b9c166ffedd7962cc44cd51ca7eb0aaf3c",
          "topics": [
            "0x684f6795945805272d5839a7063f5e0a3b6dd64bdb3976749763ec2fea161778",
            "0x000000000000000000000000000000000000000000000000000000000000000e",
            "0x000000000000000000000000204e8def7e6c467cebcebbc5c89ad86bf3003fe3"
          ],
          "data": "0x0000000000000000000000000000000000000000000000000000000000000040000000000000000000000000000000000000000000000000000009184e72a000000000000000000000000000000000000000000000000000000000000000007c68747470733a2f2f73696c7665722d747269636b792d74726f75742d3934352e6d7970696e6174612e636c6f75642f697066732f6261667962656964653732686c33646b687632653569627a72696762376369717269346b6c7a71326a703367697a6361656363337a6865797875792f526169636875322e6a736f6e00000000",
          "blockHash": "0x22c916dd629c97d88d4ba0f12221e15866387985b67c00202c2b9b9d54a734b4",
          "blockNumber": "0x768c7b",
          "transactionHash": "0xc604e3653e825923789920f1ebcbd10d2ba5cbef827d12a1934dcd6dc7ce25f5",
          "transactionIndex": "0xa8",
          "logIndex": "0xa9",
          "removed": false
        }
      ],
      "logsBloom": "0x00002000000000000000000000000000000000000000000000000000000000000000000000000000000000000000000000000000000000000000000000000000000000000000000800110008000000000000000040000000000000000000000000000000020000000001000000000800000000000000000000200010000000000000000000000000000000000000000008000000000000000000000000000000000000000000000000000000000020002000000000000020000000000000008000000002000000000000000000000000000000000000000000000000080020000000000000000000200000000000000000000040000000000000000000000000",
      "type": "0x2",
      "transactionHash": "0xc604e3653e825923789920f1ebcbd10d2ba5cbef827d12a1934dcd6dc7ce25f5",
      "transactionIndex": "0xa8",
      "blockHash": "0x22c916dd629c97d88d4ba0f12221e15866387985b67c00202c2b9b9d54a734b4",
      "blockNumber": "0x768c7b",
      "gasUsed": "0x363e0",
      "effectiveGasPrice": "0x13d11c4ff",
      "from": "0x204e8def7e6c467cebcebbc5c89ad86bf3003fe3",
      "to": "0x4eb534b9c166ffedd7962cc44cd51ca7eb0aaf3c",
      "contractAddress": null
    },
    {
      "status": "0x1",
      "cumulativeGasUsed": "0xbe43be",
      "logs": [
        {
          "address": "0x4eb534b9c166ffedd7962cc44cd51ca7eb0aaf3c",
          "topics": [
            "0x8c5be1e5ebec7d5bd14f71427d1e84f3dd0314c0f7b2291e5b200ac8c7c3b925",
            "0x000000000000000000000000204e8def7e6c467cebcebbc5c89ad86bf3003fe3",
            "0x0000000000000000000000004eb534b9c166ffedd7962cc44cd51ca7eb0aaf3c",
            "0x000000000000000000000000000000000000000000000000000000000000000e"
          ],
          "data": "0x",
          "blockHash": "0x22c916dd629c97d88d4ba0f12221e15866387985b67c00202c2b9b9d54a734b4",
          "blockNumber": "0x768c7b",
          "transactionHash": "0x566fc9814760ed3a663097d0f42492f233686d1a0e99f9ab4f97034c406a18b7",
          "transactionIndex": "0xa9",
          "logIndex": "0xaa",
          "removed": false
        },
        {
          "address": "0x4eb534b9c166ffedd7962cc44cd51ca7eb0aaf3c",
          "topics": [
            "0xdeee21db6a55c8eecf477d3301bcad831b184340f28656006a166316933b23e1",
            "0x000000000000000000000000000000000000000000000000000000000000000e",
            "0x000000000000000000000000204e8def7e6c467cebcebbc5c89ad86bf3003fe3"
          ],
          "data": "0x",
          "blockHash": "0x22c916dd629c97d88d4ba0f12221e15866387985b67c00202c2b9b9d54a734b4",
          "blockNumber": "0x768c7b",
          "transactionHash": "0x566fc9814760ed3a663097d0f42492f233686d1a0e99f9ab4f97034c406a18b7",
          "transactionIndex": "0xa9",
          "logIndex": "0xab",
          "removed": false
        }
      ],
      "logsBloom": "0x00002000000000000000000000000000000000004000000000200000000000000000000000000000000000000000000000000000000000000000000000200000000000000000000800100000000000000000000440000000000000000000000000000000000000000008000000000000000000000100000000000000000000000000000000000000000000000000000008000000000000000000000000000000020000000000000000000000000020000000000000000020000000000000000000000008000000000000000000000000000000000000000000000000080000000010000000000000000000000000000000000040000000000000000000000000",
      "type": "0x2",
      "transactionHash": "0x566fc9814760ed3a663097d0f42492f233686d1a0e99f9ab4f97034c406a18b7",
      "transactionIndex": "0xa9",
      "blockHash": "0x22c916dd629c97d88d4ba0f12221e15866387985b67c00202c2b9b9d54a734b4",
      "blockNumber": "0x768c7b",
      "gasUsed": "0xc5a7",
      "effectiveGasPrice": "0x13d11c4ff",
      "from": "0x204e8def7e6c467cebcebbc5c89ad86bf3003fe3",
      "to": "0x4eb534b9c166ffedd7962cc44cd51ca7eb0aaf3c",
      "contractAddress": null
    }
  ],
  "libraries": [],
  "pending": [],
  "returns": {},
  "timestamp": 1740319515,
  "chain": 11155111,
  "commit": "3e6012f"
}