{
  "transactions": [
    {
      "hash": "0x00f8e7e317721f34f0d958e3fd6e72d4bfd1aed9487716eeadbd377cb9238233",
      "transactionType": "CREATE",
      "contractName": "Nft",
      "contractAddress": "0x84a81361cc327f5809db6084e578dff03fea04ff",
      "function": null,
      "arguments": [
        "0x204E8DEf7E6c467cEbCeBbC5c89ad86Bf3003FE3"
      ],
      "transaction": {
        "from": "0x204e8def7e6c467cebcebbc5c89ad86bf3003fe3",
        "gas": "0x27f603",
        "value": "0x0",
        "input": "0x60806040525f600855348015610013575f5ffd5b506040516124563803806124568339810160408190526100329161013f565b80604051806040016040528060078152602001662837b5b2b6b7b760c91b81525060405180604001604052806004815260200163504f4b4560e01b815250815f908161007e9190610204565b50600161008b8282610204565b5050506001600160a01b0381166100bb57604051631e4fbdf760e01b81525f600482015260240160405180910390fd5b6100c4816100ee565b50600980546001600160a01b0319166001600160a01b03929092169190911790555f6008556102be565b600780546001600160a01b038381166001600160a01b0319831681179093556040519116919082907f8be0079c531659141344cd1fd0a4f28419497f9722a3daafe3b4186f6b6457e0905f90a35050565b5f6020828403121561014f575f5ffd5b81516001600160a01b0381168114610165575f5ffd5b9392505050565b634e487b7160e01b5f52604160045260245ffd5b600181811c9082168061019457607f821691505b6020821081036101b257634e487b7160e01b5f52602260045260245ffd5b50919050565b601f8211156101ff57805f5260205f20601f840160051c810160208510156101dd5750805b601f840160051c820191505b818110156101fc575f81556001016101e9565b50505b505050565b81516001600160401b0381111561021d5761021d61016c565b6102318161022b8454610180565b846101b8565b6020601f821160018114610263575f831561024c5750848201515b5f19600385901b1c1916600184901b1784556101fc565b5f84815260208120601f198516915b828110156102925787850151825560209485019460019092019101610272565b50848210156102af57868401515f19600387901b60f8161c191681555b50505050600190811b01905550565b61218b806102cb5f395ff3fe6080604052600436106101d0575f3560e01c8063661f20c1116100fd578063b36e88ba11610092578063c2507ac111610062578063c2507ac11461061b578063c87b56dd14610646578063e985e9c514610665578063f2fde38b14610684575f5ffd5b8063b36e88ba14610564578063b88d4fde146105c8578063ba7aef43146105e7578063bd55022a14610606575f5ffd5b80638da5cb5b116100cd5780638da5cb5b146104f557806395d89b4114610512578063a22cb46514610526578063a839c09a14610545575f5ffd5b8063661f20c11461049057806369e9cae1146104af57806370a08231146104c2578063715018a6146104e1575f5ffd5b80631caaa487116101735780633bb3a24d116101435780633bb3a24d1461040857806342842e0e1461042757806345ab331e146104465780636352211e14610471575f5ffd5b80631caaa487146102e25780631e6c598e1461031657806323b872dd146103ca57806329ba7bb2146103e9575f5ffd5b806306fdde03116101ae57806306fdde0314610248578063081812fc14610269578063095ea7b3146102a057806317d70f7c146102bf575f5ffd5b806301663e59146101d45780630179cc52146101f557806301ffc9a714610214575b5f5ffd5b3480156101df575f5ffd5b506101f36101ee366004611bd4565b6106a3565b005b348015610200575f5ffd5b506101f361020f366004611beb565b61080b565b34801561021f575f5ffd5b5061023361022e366004611c20565b610890565b60405190151581526020015b60405180910390f35b348015610253575f5ffd5b5061025c6108ba565b60405161023f9190611c69565b348015610274575f5ffd5b50610288610283366004611bd4565b610949565b6040516001600160a01b03909116815260200161023f565b3480156102ab575f5ffd5b506101f36102ba366004611c96565b610970565b3480156102ca575f5ffd5b506102d460085481565b60405190815260200161023f565b3480156102ed575f5ffd5b506102886102fc366004611bd4565b600b6020525f90815260409020546001600160a01b031681565b348015610321575f5ffd5b50610380610330366004611bd4565b600c6020525f9081526040902080546001820154600283015460038401546004909401546001600160a01b03938416949293909116919060ff808216916101008104821691620100009091041687565b604080516001600160a01b03988916815260208101979097529490961693850193909352606084019190915215156080830152151560a082015290151560c082015260e00161023f565b3480156103d5575f5ffd5b506101f36103e4366004611cbe565b61097b565b3480156103f4575f5ffd5b50600954610288906001600160a01b031681565b348015610413575f5ffd5b5061025c610422366004611bd4565b610a04565b348015610432575f5ffd5b506101f3610441366004611cbe565b610a0f565b348015610451575f5ffd5b506102d4610460366004611bd4565b600a6020525f908152604090205481565b34801561047c575f5ffd5b5061028861048b366004611bd4565b610a2e565b34801561049b575f5ffd5b506101f36104aa366004611bd4565b610a38565b6101f36104bd366004611cbe565b610b09565b3480156104cd575f5ffd5b506102d46104dc366004611cf8565b610cfc565b3480156104ec575f5ffd5b506101f3610d41565b348015610500575f5ffd5b506007546001600160a01b0316610288565b34801561051d575f5ffd5b5061025c610d54565b348015610531575f5ffd5b506101f3610540366004611d11565b610d63565b348015610550575f5ffd5b506101f361055f366004611d4a565b610d6e565b34801561056f575f5ffd5b506105a961057e366004611bd4565b5f908152600c602052604090206004015460ff80821692610100830482169262010000900490911690565b604080519315158452911515602084015215159082015260600161023f565b3480156105d3575f5ffd5b506101f36105e2366004611e07565b610f5b565b3480156105f2575f5ffd5b506102d4610601366004611e7e565b610f73565b348015610611575f5ffd5b506102d4600d5481565b348015610626575f5ffd5b506102d4610635366004611bd4565b5f908152600a602052604090205490565b348015610651575f5ffd5b5061025c610660366004611bd4565b611025565b348015610670575f5ffd5b5061023361067f366004611ee5565b611130565b34801561068f575f5ffd5b506101f361069e366004611cf8565b61115d565b5f818152600c60205260409020600481015462010000900460ff16156107105760405162461bcd60e51b815260206004820152601760248201527f547261646520616c726561647920636f6d706c6574656400000000000000000060448201526064015b60405180910390fd5b80546001600160a01b031633036107355760048101805460ff191660011790556107a7565b60028101546001600160a01b0316330361075f5760048101805461ff0019166101001790556107a7565b60405162461bcd60e51b815260206004820152601e60248201527f596f7520617265206e6f742070617274206f66207468697320747261646500006044820152606401610707565b60405182815233907f642ea0b1d63cc70f38e39719b589ae0a9a111ef74ae825093d1574009bdf4e299060200160405180910390a2600481015460ff1680156107f957506004810154610100900460ff165b15610807576108078261119a565b5050565b5f828152600b60205260409020546001600160a01b031633146108405760405162461bcd60e51b815260040161070790611f16565b5f828152600a6020526040908190208290555182907f515031d3619f8c375f04c238d50a5131384dbf0ed7dfeca372caab76f0396d2f906108849084815260200190565b60405180910390a25050565b5f6001600160e01b03198216632483248360e11b14806108b457506108b482611314565b92915050565b60605f80546108c890611f57565b80601f01602080910402602001604051908101604052809291908181526020018280546108f490611f57565b801561093f5780601f106109165761010080835404028352916020019161093f565b820191905f5260205f20905b81548152906001019060200180831161092257829003601f168201915b5050505050905090565b5f61095382611363565b505f828152600460205260409020546001600160a01b03166108b4565b61080782823361139b565b6001600160a01b0382166109a457604051633250574960e11b81525f6004820152602401610707565b5f6109b08383336113a8565b9050836001600160a01b0316816001600160a01b0316146109fe576040516364283d7b60e01b81526001600160a01b0380861660048301526024820184905282166044820152606401610707565b50505050565b60606108b482611025565b610a2983838360405180602001604052805f815250610f5b565b505050565b5f6108b482611363565b610a4181610a2e565b6001600160a01b0316336001600160a01b031614610a715760405162461bcd60e51b815260040161070790611f16565b610a7b3082610970565b610a8481610949565b6001600160a01b0316306001600160a01b031614610ada5760405162461bcd60e51b8152602060048201526013602482015272139195081a5cc81b9bdd08185c1c1c9bdd9959606a1b6044820152606401610707565b604051339082907fdeee21db6a55c8eecf477d3301bcad831b184340f28656006a166316933b23e1905f90a350565b610b1161149a565b610b1a81610949565b6001600160a01b0316306001600160a01b031614610b705760405162461bcd60e51b8152602060048201526013602482015272139195081a5cc81b9bdd08185c1c1c9bdd9959606a1b6044820152606401610707565b610b7981610a2e565b6001600160a01b0316836001600160a01b031614610ba95760405162461bcd60e51b815260040161070790611f16565b5f818152600a602052604090205434811115610c075760405162461bcd60e51b815260206004820181905260248201527f496e73756666696369656e74207061796d656e7420666f7220746865204e46546044820152606401610707565b6040516001600160a01b0385169082156108fc029083905f818181858888f19350505050158015610c3a573d5f5f3e3d5ffd5b50610c468484846114c7565b610c4f82610a2e565b6001600160a01b0316836001600160a01b031614610ca85760405162461bcd60e51b8152602060048201526016602482015275139195081a5cc81b9bdd081d1c985b9cd9995c9c995960521b6044820152606401610707565b826001600160a01b0316846001600160a01b0316837f025c83e9775379768f9dc01cbc3a9f56659d307985af611dfacbc79e1f819b2284604051610cee91815260200190565b60405180910390a450505050565b5f6001600160a01b038216610d26576040516322718ad960e21b81525f6004820152602401610707565b506001600160a01b03165f9081526003602052604090205490565b610d4961149a565b610d525f611574565b565b6060600180546108c890611f57565b6108073383836115c5565b33610d7884610a2e565b6001600160a01b031614610dc65760405162461bcd60e51b8152602060048201526015602482015274596f7520646f206e6f74206f776e20746f6b656e4160581b6044820152606401610707565b806001600160a01b0316610dd983610a2e565b6001600160a01b031614610e2f5760405162461bcd60e51b815260206004820152601a60248201527f50617274794220646f6573206e6f74206f776e20746f6b656e420000000000006044820152606401610707565b600d8054905f610e3e83611f8f565b90915550506040805160e0810182523380825260208083018781526001600160a01b0386811685870181815260608088018b81525f60808a0181815260a08b0182815260c08c01838152600d80548552600c8c52938e90209c518d54908a166001600160a01b0319918216178e55995160018e0155955160028d01805491909916991698909817909655905160038a0155935160049098018054955192511515620100000262ff0000199315156101000261ff00199a15159a909a1661ffff1990971696909617989098179190911693909317909555548551908152918201889052938101869052919290917ff2725c0575eeb8dd7bbfaa29b3ec69fa353ccbd0048021a8ef399a399911b78891015b60405180910390a3505050565b610f6684848461097b565b6109fe338585858561165b565b5f610f7c61149a565b60088054905f610f8b83611f8f565b90915550506008545f818152600a60205260409020839055610fad8582611783565b610fb781856117e4565b5f818152600b60205260409081902080546001600160a01b0319166001600160a01b038816908117909155905182907f684f6795945805272d5839a7063f5e0a3b6dd64bdb3976749763ec2fea161778906110159088908890611fb3565b60405180910390a3949350505050565b606061103082611363565b505f828152600660205260408120805461104990611f57565b80601f016020809104026020016040519081016040528092919081815260200182805461107590611f57565b80156110c05780601f10611097576101008083540402835291602001916110c0565b820191905f5260205f20905b8154815290600101906020018083116110a357829003601f168201915b505050505090505f6110dc60408051602081019091525f815290565b905080515f036110ed575092915050565b81511561111f578082604051602001611107929190611feb565b60405160208183030381529060405292505050919050565b61112884611833565b949350505050565b6001600160a01b039182165f90815260056020908152604080832093909416825291909152205460ff1690565b61116561149a565b6001600160a01b03811661118e57604051631e4fbdf760e01b81525f6004820152602401610707565b61119781611574565b50565b5f818152600c60205260409020600481015460ff1680156111c457506004810154610100900460ff165b6112105760405162461bcd60e51b815260206004820152601960248201527f426f74682070617274696573206d75737420617070726f7665000000000000006044820152606401610707565b600481015462010000900460ff16156112645760405162461bcd60e51b8152602060048201526016602482015275151c98591948185b1c9958591e48195e1958dd5d195960521b6044820152606401610707565b5f6112728260010154610a2e565b90505f6112828360030154610a2e565b9050611293828285600101546114c7565b6112a2818385600301546114c7565b60048301805462ff0000191662010000179055600183015460038401546040805187815260208101939093528201526001600160a01b0382811691908416907f51701c0a770183caac72947e0848d20e71b0384cc22e8355c082cec6c722f02c9060600160405180910390a350505050565b5f6001600160e01b031982166380ac58cd60e01b148061134457506001600160e01b03198216635b5e139f60e01b145b806108b457506301ffc9a760e01b6001600160e01b03198316146108b4565b5f818152600260205260408120546001600160a01b0316806108b457604051637e27328960e01b815260048101849052602401610707565b610a2983838360016118a4565b5f828152600260205260408120546001600160a01b03908116908316156113d4576113d48184866119a8565b6001600160a01b0381161561140e576113ef5f855f5f6118a4565b6001600160a01b0381165f90815260036020526040902080545f190190555b6001600160a01b0385161561143c576001600160a01b0385165f908152600360205260409020805460010190555b5f8481526002602052604080822080546001600160a01b0319166001600160a01b0389811691821790925591518793918516917fddf252ad1be2c89b69c2b068fc378daa952ba7f163c4a11628f55a4df523b3ef91a4949350505050565b6007546001600160a01b03163314610d525760405163118cdaa760e01b8152336004820152602401610707565b6001600160a01b0382166114f057604051633250574960e11b81525f6004820152602401610707565b5f6114fc83835f6113a8565b90506001600160a01b03811661152857604051637e27328960e01b815260048101839052602401610707565b836001600160a01b0316816001600160a01b0316146109fe576040516364283d7b60e01b81526001600160a01b0380861660048301526024820184905282166044820152606401610707565b600780546001600160a01b038381166001600160a01b0319831681179093556040519116919082907f8be0079c531659141344cd1fd0a4f28419497f9722a3daafe3b4186f6b6457e0905f90a35050565b6001600160a01b0382166115f757604051630b61174360e31b81526001600160a01b0383166004820152602401610707565b6001600160a01b038381165f81815260056020908152604080832094871680845294825291829020805460ff191686151590811790915591519182527f17307eab39ab6107e8899845ad3d59bd9653f200f220920489ca2b5937696c319101610f4e565b6001600160a01b0383163b1561177c57604051630a85bd0160e11b81526001600160a01b0384169063150b7a029061169d908890889087908790600401611fff565b6020604051808303815f875af19250505080156116d7575060408051601f3d908101601f191682019092526116d49181019061203b565b60015b61173e573d808015611704576040519150601f19603f3d011682016040523d82523d5f602084013e611709565b606091505b5080515f0361173657604051633250574960e11b81526001600160a01b0385166004820152602401610707565b805181602001fd5b6001600160e01b03198116630a85bd0160e11b1461177a57604051633250574960e11b81526001600160a01b0385166004820152602401610707565b505b5050505050565b6001600160a01b0382166117ac57604051633250574960e11b81525f6004820152602401610707565b5f6117b883835f6113a8565b90506001600160a01b03811615610a29576040516339e3563760e11b81525f6004820152602401610707565b5f8281526006602052604090206117fb828261209a565b506040518281527ff8e1a15aba9398e019f0b49df1a4fde98ee17ae345cb5f6b5e2c27f5033e8ce79060200160405180910390a15050565b606061183e82611363565b505f61185460408051602081019091525f815290565b90505f8151116118725760405180602001604052805f81525061189d565b8061187c84611a0c565b60405160200161188d929190611feb565b6040516020818303038152906040525b9392505050565b80806118b857506001600160a01b03821615155b15611979575f6118c784611363565b90506001600160a01b038316158015906118f35750826001600160a01b0316816001600160a01b031614155b801561190657506119048184611130565b155b1561192f5760405163a9fbf51f60e01b81526001600160a01b0384166004820152602401610707565b81156119775783856001600160a01b0316826001600160a01b03167f8c5be1e5ebec7d5bd14f71427d1e84f3dd0314c0f7b2291e5b200ac8c7c3b92560405160405180910390a45b505b50505f90815260046020526040902080546001600160a01b0319166001600160a01b0392909216919091179055565b6119b3838383611a9c565b610a29576001600160a01b0383166119e157604051637e27328960e01b815260048101829052602401610707565b60405163177e802f60e01b81526001600160a01b038316600482015260248101829052604401610707565b60605f611a1883611afd565b60010190505f8167ffffffffffffffff811115611a3757611a37611d7c565b6040519080825280601f01601f191660200182016040528015611a61576020820181803683370190505b5090508181016020015b5f19016f181899199a1a9b1b9c1cb0b131b232b360811b600a86061a8153600a8504945084611a6b57509392505050565b5f6001600160a01b038316158015906111285750826001600160a01b0316846001600160a01b03161480611ad55750611ad58484611130565b806111285750505f908152600460205260409020546001600160a01b03908116911614919050565b5f8072184f03e93ff9f4daa797ed6e38ed64bf6a1f0160401b8310611b3b5772184f03e93ff9f4daa797ed6e38ed64bf6a1f0160401b830492506040015b6d04ee2d6d415b85acef81000000008310611b67576d04ee2d6d415b85acef8100000000830492506020015b662386f26fc100008310611b8557662386f26fc10000830492506010015b6305f5e1008310611b9d576305f5e100830492506008015b6127108310611bb157612710830492506004015b60648310611bc3576064830492506002015b600a83106108b45760010192915050565b5f60208284031215611be4575f5ffd5b5035919050565b5f5f60408385031215611bfc575f5ffd5b50508035926020909101359150565b6001600160e01b031981168114611197575f5ffd5b5f60208284031215611c30575f5ffd5b813561189d81611c0b565b5f81518084528060208401602086015e5f602082860101526020601f19601f83011685010191505092915050565b602081525f61189d6020830184611c3b565b80356001600160a01b0381168114611c91575f5ffd5b919050565b5f5f60408385031215611ca7575f5ffd5b611cb083611c7b565b946020939093013593505050565b5f5f5f60608486031215611cd0575f5ffd5b611cd984611c7b565b9250611ce760208501611c7b565b929592945050506040919091013590565b5f60208284031215611d08575f5ffd5b61189d82611c7b565b5f5f60408385031215611d22575f5ffd5b611d2b83611c7b565b915060208301358015158114611d3f575f5ffd5b809150509250929050565b5f5f5f60608486031215611d5c575f5ffd5b8335925060208401359150611d7360408501611c7b565b90509250925092565b634e487b7160e01b5f52604160045260245ffd5b5f5f67ffffffffffffffff841115611daa57611daa611d7c565b50604051601f19601f85018116603f0116810181811067ffffffffffffffff82111715611dd957611dd9611d7c565b604052838152905080828401851015611df0575f5ffd5b838360208301375f60208583010152509392505050565b5f5f5f5f60808587031215611e1a575f5ffd5b611e2385611c7b565b9350611e3160208601611c7b565b925060408501359150606085013567ffffffffffffffff811115611e53575f5ffd5b8501601f81018713611e63575f5ffd5b611e7287823560208401611d90565b91505092959194509250565b5f5f5f60608486031215611e90575f5ffd5b611e9984611c7b565b9250602084013567ffffffffffffffff811115611eb4575f5ffd5b8401601f81018613611ec4575f5ffd5b611ed386823560208401611d90565b93969395505050506040919091013590565b5f5f60408385031215611ef6575f5ffd5b611eff83611c7b565b9150611f0d60208401611c7b565b90509250929050565b60208082526021908201527f596f7520617265206e6f7420746865206f776e6572206f662074686973204e466040820152601560fa1b606082015260800190565b600181811c90821680611f6b57607f821691505b602082108103611f8957634e487b7160e01b5f52602260045260245ffd5b50919050565b5f60018201611fac57634e487b7160e01b5f52601160045260245ffd5b5060010190565b604081525f611fc56040830185611c3b565b90508260208301529392505050565b5f81518060208401855e5f93019283525090919050565b5f611128611ff98386611fd4565b84611fd4565b6001600160a01b03858116825284166020820152604081018390526080606082018190525f9061203190830184611c3b565b9695505050505050565b5f6020828403121561204b575f5ffd5b815161189d81611c0b565b601f821115610a2957805f5260205f20601f840160051c8101602085101561207b5750805b601f840160051c820191505b8181101561177c575f8155600101612087565b815167ffffffffffffffff8111156120b4576120b4611d7c565b6120c8816120c28454611f57565b84612056565b6020601f8211600181146120fa575f83156120e35750848201515b5f19600385901b1c1916600184901b17845561177c565b5f84815260208120601f198516915b828110156121295787850151825560209485019460019092019101612109565b508482101561214657868401515f19600387901b60f8161c191681555b50505050600190811b0190555056fea26469706673582212207dfc3ddf7a5f97895273414cc3f5dc8102b9709f6a53ef56b3d0cf3d7ac1417c64736f6c634300081c0033000000000000000000000000204e8def7e6c467cebcebbc5c89ad86bf3003fe3",
        "nonce": "0x64",
        "chainId": "0xaa36a7"
      },
      "additionalContracts": [],
      "isFixedGasLimit": false
    },
    {
      "hash": null,
      "transactionType": "CALL",
      "contractName": "Nft",
      "contractAddress": "0x84a81361cc327f5809db6084e578dff03fea04ff",
      "function": "mint(address,string,uint256)",
      "arguments": [
        "0x204E8DEf7E6c467cEbCeBbC5c89ad86Bf3003FE3",
        "https://silver-tricky-trout-945.mypinata.cloud/ipfs/bafybeide72hl3dkhv2e5ibzrigb7ciqri4klzq2jp3gizcaecc3zheyxuy/Charmander.json",
        "10000000000000"
      ],
      "transaction": {
        "from": "0x204e8def7e6c467cebcebbc5c89ad86bf3003fe3",
        "to": "0x84a81361cc327f5809db6084e578dff03fea04ff",
        "gas": "0x56778",
        "value": "0x0",
        "input": "0xba7aef43000000000000000000000000204e8def7e6c467cebcebbc5c89ad86bf3003fe30000000000000000000000000000000000000000000000000000000000000060000000000000000000000000000000000000000000000000000009184e72a000000000000000000000000000000000000000000000000000000000000000007f68747470733a2f2f73696c7665722d747269636b792d74726f75742d3934352e6d7970696e6174612e636c6f75642f697066732f6261667962656964653732686c33646b687632653569627a72696762376369717269346b6c7a71326a703367697a6361656363337a6865797875792f436861726d616e6465722e6a736f6e00",
        "nonce": "0x65",
        "chainId": "0xaa36a7"
      },
      "additionalContracts": [],
      "isFixedGasLimit": false
    },
    {
      "hash": null,
      "transactionType": "CALL",
      "contractName": "Nft",
      "contractAddress": "0x84a81361cc327f5809db6084e578dff03fea04ff",
      "function": "approvalNFT(uint256)",
      "arguments": [
        "1"
      ],
      "transaction": {
        "from": "0x204e8def7e6c467cebcebbc5c89ad86bf3003fe3",
        "to": "0x84a81361cc327f5809db6084e578dff03fea04ff",
        "gas": "0x11101",
        "value": "0x0",
        "input": "0x661f20c10000000000000000000000000000000000000000000000000000000000000001",
        "nonce": "0x66",
        "chainId": "0xaa36a7"
      },
      "additionalContracts": [],
      "isFixedGasLimit": false
    },
    {
      "hash": null,
      "transactionType": "CALL",
      "contractName": "Nft",
      "contractAddress": "0x84a81361cc327f5809db6084e578dff03fea04ff",
      "function": "mint(address,string,uint256)",
      "arguments": [
        "0x204E8DEf7E6c467cEbCeBbC5c89ad86Bf3003FE3",
        "https://silver-tricky-trout-945.mypinata.cloud/ipfs/bafybeide72hl3dkhv2e5ibzrigb7ciqri4klzq2jp3gizcaecc3zheyxuy/Charmeleon.json",
        "10000000000000"
      ],
      "transaction": {
        "from": "0x204e8def7e6c467cebcebbc5c89ad86bf3003fe3",
        "to": "0x84a81361cc327f5809db6084e578dff03fea04ff",
        "gas": "0x4aef2",
        "value": "0x0",
        "input": "0xba7aef43000000000000000000000000204e8def7e6c467cebcebbc5c89ad86bf3003fe30000000000000000000000000000000000000000000000000000000000000060000000000000000000000000000000000000000000000000000009184e72a000000000000000000000000000000000000000000000000000000000000000007f68747470733a2f2f73696c7665722d747269636b792d74726f75742d3934352e6d7970696e6174612e636c6f75642f697066732f6261667962656964653732686c33646b687632653569627a72696762376369717269346b6c7a71326a703367697a6361656363337a6865797875792f436861726d656c656f6e2e6a736f6e00",
        "nonce": "0x67",
        "chainId": "0xaa36a7"
      },
      "additionalContracts": [],
      "isFixedGasLimit": false
    },
    {
      "hash": null,
      "transactionType": "CALL",
      "contractName": "Nft",
      "contractAddress": "0x84a81361cc327f5809db6084e578dff03fea04ff",
      "function": "approvalNFT(uint256)",
      "arguments": [
        "2"
      ],
      "transaction": {
        "from": "0x204e8def7e6c467cebcebbc5c89ad86bf3003fe3",
        "to": "0x84a81361cc327f5809db6084e578dff03fea04ff",
        "gas": "0x11101",
        "value": "0x0",
        "input": "0x661f20c10000000000000000000000000000000000000000000000000000000000000002",
        "nonce": "0x68",
        "chainId": "0xaa36a7"
      },
      "additionalContracts": [],
      "isFixedGasLimit": false
    },
    {
      "hash": null,
      "transactionType": "CALL",
      "contractName": "Nft",
      "contractAddress": "0x84a81361cc327f5809db6084e578dff03fea04ff",
      "function": "mint(address,string,uint256)",
      "arguments": [
        "0x204E8DEf7E6c467cEbCeBbC5c89ad86Bf3003FE3",
        "https://silver-tricky-trout-945.mypinata.cloud/ipfs/bafybeide72hl3dkhv2e5ibzrigb7ciqri4klzq2jp3gizcaecc3zheyxuy/Charmeleon2.json",
        "10000000000000"
      ],
      "transaction": {
        "from": "0x204e8def7e6c467cebcebbc5c89ad86bf3003fe3",
        "to": "0x84a81361cc327f5809db6084e578dff03fea04ff",
        "gas": "0x4af36",
        "value": "0x0",
        "input": "0xba7aef43000000000000000000000000204e8def7e6c467cebcebbc5c89ad86bf3003fe30000000000000000000000000000000000000000000000000000000000000060000000000000000000000000000000000000000000000000000009184e72a000000000000000000000000000000000000000000000000000000000000000008068747470733a2f2f73696c7665722d747269636b792d74726f75742d3934352e6d7970696e6174612e636c6f75642f697066732f6261667962656964653732686c33646b687632653569627a72696762376369717269346b6c7a71326a703367697a6361656363337a6865797875792f436861726d656c656f6e322e6a736f6e",
        "nonce": "0x69",
        "chainId": "0xaa36a7"
      },
      "additionalContracts": [],
      "isFixedGasLimit": false
    },
    {
      "hash": null,
      "transactionType": "CALL",
      "contractName": "Nft",
      "contractAddress": "0x84a81361cc327f5809db6084e578dff03fea04ff",
      "function": "approvalNFT(uint256)",
      "arguments": [
        "3"
      ],
      "transaction": {
        "from": "0x204e8def7e6c467cebcebbc5c89ad86bf3003fe3",
        "to": "0x84a81361cc327f5809db6084e578dff03fea04ff",
        "gas": "0x11101",
        "value": "0x0",
        "input": "0x661f20c10000000000000000000000000000000000000000000000000000000000000003",
        "nonce": "0x6a",
        "chainId": "0xaa36a7"
      },
      "additionalContracts": [],
      "isFixedGasLimit": false
    },
    {
      "hash": null,
      "transactionType": "CALL",
      "contractName": "Nft",
      "contractAddress": "0x84a81361cc327f5809db6084e578dff03fea04ff",
      "function": "mint(address,string,uint256)",
      "arguments": [
        "0x204E8DEf7E6c467cEbCeBbC5c89ad86Bf3003FE3",
        "https://silver-tricky-trout-945.mypinata.cloud/ipfs/bafybeide72hl3dkhv2e5ibzrigb7ciqri4klzq2jp3gizcaecc3zheyxuy/Desclops.json",
        "10000000000000"
      ],
      "transaction": {
        "from": "0x204e8def7e6c467cebcebbc5c89ad86bf3003fe3",
        "to": "0x84a81361cc327f5809db6084e578dff03fea04ff",
        "gas": "0x4aed0",
        "value": "0x0",
        "input": "0xba7aef43000000000000000000000000204e8def7e6c467cebcebbc5c89ad86bf3003fe30000000000000000000000000000000000000000000000000000000000000060000000000000000000000000000000000000000000000000000009184e72a000000000000000000000000000000000000000000000000000000000000000007d68747470733a2f2f73696c7665722d747269636b792d74726f75742d3934352e6d7970696e6174612e636c6f75642f697066732f6261667962656964653732686c33646b687632653569627a72696762376369717269346b6c7a71326a703367697a6361656363337a6865797875792f446573636c6f70732e6a736f6e000000",
        "nonce": "0x6b",
        "chainId": "0xaa36a7"
      },
      "additionalContracts": [],
      "isFixedGasLimit": false
    },
    {
      "hash": null,
      "transactionType": "CALL",
      "contractName": "Nft",
      "contractAddress": "0x84a81361cc327f5809db6084e578dff03fea04ff",
      "function": "approvalNFT(uint256)",
      "arguments": [
        "4"
      ],
      "transaction": {
        "from": "0x204e8def7e6c467cebcebbc5c89ad86bf3003fe3",
        "to": "0x84a81361cc327f5809db6084e578dff03fea04ff",
        "gas": "0x11101",
        "value": "0x0",
        "input": "0x661f20c10000000000000000000000000000000000000000000000000000000000000004",
        "nonce": "0x6c",
        "chainId": "0xaa36a7"
      },
      "additionalContracts": [],
      "isFixedGasLimit": false
    },
    {
      "hash": null,
      "transactionType": "CALL",
      "contractName": "Nft",
      "contractAddress": "0x84a81361cc327f5809db6084e578dff03fea04ff",
      "function": "mint(address,string,uint256)",
      "arguments": [
        "0x204E8DEf7E6c467cEbCeBbC5c89ad86Bf3003FE3",
        "https://silver-tricky-trout-945.mypinata.cloud/ipfs/bafybeide72hl3dkhv2e5ibzrigb7ciqri4klzq2jp3gizcaecc3zheyxuy/Dusknoir.json",
        "10000000000000"
      ],
      "transaction": {
        "from": "0x204e8def7e6c467cebcebbc5c89ad86bf3003fe3",
        "to": "0x84a81361cc327f5809db6084e578dff03fea04ff",
        "gas": "0x4aed0",
        "value": "0x0",
        "input": "0xba7aef43000000000000000000000000204e8def7e6c467cebcebbc5c89ad86bf3003fe30000000000000000000000000000000000000000000000000000000000000060000000000000000000000000000000000000000000000000000009184e72a000000000000000000000000000000000000000000000000000000000000000007d68747470733a2f2f73696c7665722d747269636b792d74726f75742d3934352e6d7970696e6174612e636c6f75642f697066732f6261667962656964653732686c33646b687632653569627a72696762376369717269346b6c7a71326a703367697a6361656363337a6865797875792f4475736b6e6f69722e6a736f6e000000",
        "nonce": "0x6d",
        "chainId": "0xaa36a7"
      },
      "additionalContracts": [],
      "isFixedGasLimit": false
    },
    {
      "hash": null,
      "transactionType": "CALL",
      "contractName": "Nft",
      "contractAddress": "0x84a81361cc327f5809db6084e578dff03fea04ff",
      "function": "approvalNFT(uint256)",
      "arguments": [
        "5"
      ],
      "transaction": {
        "from": "0x204e8def7e6c467cebcebbc5c89ad86bf3003fe3",
        "to": "0x84a81361cc327f5809db6084e578dff03fea04ff",
        "gas": "0x11101",
        "value": "0x0",
        "input": "0x661f20c10000000000000000000000000000000000000000000000000000000000000005",
        "nonce": "0x6e",
        "chainId": "0xaa36a7"
      },
      "additionalContracts": [],
      "isFixedGasLimit": false
    },
    {
      "hash": null,
      "transactionType": "CALL",
      "contractName": "Nft",
      "contractAddress": "0x84a81361cc327f5809db6084e578dff03fea04ff",
      "function": "mint(address,string,uint256)",
      "arguments": [
        "0x204E8DEf7E6c467cEbCeBbC5c89ad86Bf3003FE3",
        "https://silver-tricky-trout-945.mypinata.cloud/ipfs/bafybeide72hl3dkhv2e5ibzrigb7ciqri4klzq2jp3gizcaecc3zheyxuy/Fezandipiti.json",
        "10000000000000"
      ],
      "transaction": {
        "from": "0x204e8def7e6c467cebcebbc5c89ad86bf3003fe3",
        "to": "0x84a81361cc327f5809db6084e578dff03fea04ff",
        "gas": "0x4af36",
        "value": "0x0",
        "input": "0xba7aef43000000000000000000000000204e8def7e6c467cebcebbc5c89ad86bf3003fe30000000000000000000000000000000000000000000000000000000000000060000000000000000000000000000000000000000000000000000009184e72a000000000000000000000000000000000000000000000000000000000000000008068747470733a2f2f73696c7665722d747269636b792d74726f75742d3934352e6d7970696e6174612e636c6f75642f697066732f6261667962656964653732686c33646b687632653569627a72696762376369717269346b6c7a71326a703367697a6361656363337a6865797875792f46657a616e6469706974692e6a736f6e",
        "nonce": "0x6f",
        "chainId": "0xaa36a7"
      },
      "additionalContracts": [],
      "isFixedGasLimit": false
    },
    {
      "hash": null,
      "transactionType": "CALL",
      "contractName": "Nft",
      "contractAddress": "0x84a81361cc327f5809db6084e578dff03fea04ff",
      "function": "approvalNFT(uint256)",
      "arguments": [
        "6"
      ],
      "transaction": {
        "from": "0x204e8def7e6c467cebcebbc5c89ad86bf3003fe3",
        "to": "0x84a81361cc327f5809db6084e578dff03fea04ff",
        "gas": "0x11101",
        "value": "0x0",
        "input": "0x661f20c10000000000000000000000000000000000000000000000000000000000000006",
        "nonce": "0x70",
        "chainId": "0xaa36a7"
      },
      "additionalContracts": [],
      "isFixedGasLimit": false
    },
    {
      "hash": null,
      "transactionType": "CALL",
      "contractName": "Nft",
      "contractAddress": "0x84a81361cc327f5809db6084e578dff03fea04ff",
      "function": "mint(address,string,uint256)",
      "arguments": [
        "0x204E8DEf7E6c467cEbCeBbC5c89ad86Bf3003FE3",
        "https://silver-tricky-trout-945.mypinata.cloud/ipfs/bafybeide72hl3dkhv2e5ibzrigb7ciqri4klzq2jp3gizcaecc3zheyxuy/Froakie.json",
        "10000000000000"
      ],
      "transaction": {
        "from": "0x204e8def7e6c467cebcebbc5c89ad86bf3003fe3",
        "to": "0x84a81361cc327f5809db6084e578dff03fea04ff",
        "gas": "0x4aec0",
        "value": "0x0",
        "input": "0xba7aef43000000000000000000000000204e8def7e6c467cebcebbc5c89ad86bf3003fe30000000000000000000000000000000000000000000000000000000000000060000000000000000000000000000000000000000000000000000009184e72a000000000000000000000000000000000000000000000000000000000000000007c68747470733a2f2f73696c7665722d747269636b792d74726f75742d3934352e6d7970696e6174612e636c6f75642f697066732f6261667962656964653732686c33646b687632653569627a72696762376369717269346b6c7a71326a703367697a6361656363337a6865797875792f46726f616b69652e6a736f6e00000000",
        "nonce": "0x71",
        "chainId": "0xaa36a7"
      },
      "additionalContracts": [],
      "isFixedGasLimit": false
    },
    {
      "hash": null,
      "transactionType": "CALL",
      "contractName": "Nft",
      "contractAddress": "0x84a81361cc327f5809db6084e578dff03fea04ff",
      "function": "approvalNFT(uint256)",
      "arguments": [
        "7"
      ],
      "transaction": {
        "from": "0x204e8def7e6c467cebcebbc5c89ad86bf3003fe3",
        "to": "0x84a81361cc327f5809db6084e578dff03fea04ff",
        "gas": "0x11101",
        "value": "0x0",
        "input": "0x661f20c10000000000000000000000000000000000000000000000000000000000000007",
        "nonce": "0x72",
        "chainId": "0xaa36a7"
      },
      "additionalContracts": [],
      "isFixedGasLimit": false
    },
    {
      "hash": null,
      "transactionType": "CALL",
      "contractName": "Nft",
      "contractAddress": "0x84a81361cc327f5809db6084e578dff03fea04ff",
      "function": "mint(address,string,uint256)",
      "arguments": [
        "0x204E8DEf7E6c467cEbCeBbC5c89ad86Bf3003FE3",
        "https://silver-tricky-trout-945.mypinata.cloud/ipfs/bafybeide72hl3dkhv2e5ibzrigb7ciqri4klzq2jp3gizcaecc3zheyxuy/Frogadier.json",
        "10000000000000"
      ],
      "transaction": {
        "from": "0x204e8def7e6c467cebcebbc5c89ad86bf3003fe3",
        "to": "0x84a81361cc327f5809db6084e578dff03fea04ff",
        "gas": "0x4aee1",
        "value": "0x0",
        "input": "0xba7aef43000000000000000000000000204e8def7e6c467cebcebbc5c89ad86bf3003fe30000000000000000000000000000000000000000000000000000000000000060000000000000000000000000000000000000000000000000000009184e72a000000000000000000000000000000000000000000000000000000000000000007e68747470733a2f2f73696c7665722d747269636b792d74726f75742d3934352e6d7970696e6174612e636c6f75642f697066732f6261667962656964653732686c33646b687632653569627a72696762376369717269346b6c7a71326a703367697a6361656363337a6865797875792f46726f6761646965722e6a736f6e0000",
        "nonce": "0x73",
        "chainId": "0xaa36a7"
      },
      "additionalContracts": [],
      "isFixedGasLimit": false
    },
    {
      "hash": null,
      "transactionType": "CALL",
      "contractName": "Nft",
      "contractAddress": "0x84a81361cc327f5809db6084e578dff03fea04ff",
      "function": "approvalNFT(uint256)",
      "arguments": [
        "8"
      ],
      "transaction": {
        "from": "0x204e8def7e6c467cebcebbc5c89ad86bf3003fe3",
        "to": "0x84a81361cc327f5809db6084e578dff03fea04ff",
        "gas": "0x11101",
        "value": "0x0",
        "input": "0x661f20c10000000000000000000000000000000000000000000000000000000000000008",
        "nonce": "0x74",
        "chainId": "0xaa36a7"
      },
      "additionalContracts": [],
      "isFixedGasLimit": false
    },
    {
      "hash": null,
      "transactionType": "CALL",
      "contractName": "Nft",
      "contractAddress": "0x84a81361cc327f5809db6084e578dff03fea04ff",
      "function": "mint(address,string,uint256)",
      "arguments": [
        "0x204E8DEf7E6c467cEbCeBbC5c89ad86Bf3003FE3",
        "https://silver-tricky-trout-945.mypinata.cloud/ipfs/bafybeide72hl3dkhv2e5ibzrigb7ciqri4klzq2jp3gizcaecc3zheyxuy/Greninja.json",
        "10000000000000"
      ],
      "transaction": {
        "from": "0x204e8def7e6c467cebcebbc5c89ad86bf3003fe3",
        "to": "0x84a81361cc327f5809db6084e578dff03fea04ff",
        "gas": "0x4aed0",
        "value": "0x0",
        "input": "0xba7aef43000000000000000000000000204e8def7e6c467cebcebbc5c89ad86bf3003fe30000000000000000000000000000000000000000000000000000000000000060000000000000000000000000000000000000000000000000000009184e72a000000000000000000000000000000000000000000000000000000000000000007d68747470733a2f2f73696c7665722d747269636b792d74726f75742d3934352e6d7970696e6174612e636c6f75642f697066732f6261667962656964653732686c33646b687632653569627a72696762376369717269346b6c7a71326a703367697a6361656363337a6865797875792f4772656e696e6a612e6a736f6e000000",
        "nonce": "0x75",
        "chainId": "0xaa36a7"
      },
      "additionalContracts": [],
      "isFixedGasLimit": false
    },
    {
      "hash": null,
      "transactionType": "CALL",
      "contractName": "Nft",
      "contractAddress": "0x84a81361cc327f5809db6084e578dff03fea04ff",
      "function": "approvalNFT(uint256)",
      "arguments": [
        "9"
      ],
      "transaction": {
        "from": "0x204e8def7e6c467cebcebbc5c89ad86bf3003fe3",
        "to": "0x84a81361cc327f5809db6084e578dff03fea04ff",
        "gas": "0x11101",
        "value": "0x0",
        "input": "0x661f20c10000000000000000000000000000000000000000000000000000000000000009",
        "nonce": "0x76",
        "chainId": "0xaa36a7"
      },
      "additionalContracts": [],
      "isFixedGasLimit": false
    },
    {
      "hash": null,
      "transactionType": "CALL",
      "contractName": "Nft",
      "contractAddress": "0x84a81361cc327f5809db6084e578dff03fea04ff",
      "function": "mint(address,string,uint256)",
      "arguments": [
        "0x204E8DEf7E6c467cEbCeBbC5c89ad86Bf3003FE3",
        "https://silver-tricky-trout-945.mypinata.cloud/ipfs/bafybeide72hl3dkhv2e5ibzrigb7ciqri4klzq2jp3gizcaecc3zheyxuy/Mew.json",
        "10000000000000"
      ],
      "transaction": {
        "from": "0x204e8def7e6c467cebcebbc5c89ad86bf3003fe3",
        "to": "0x84a81361cc327f5809db6084e578dff03fea04ff",
        "gas": "0x4ae7e",
        "value": "0x0",
        "input": "0xba7aef43000000000000000000000000204e8def7e6c467cebcebbc5c89ad86bf3003fe30000000000000000000000000000000000000000000000000000000000000060000000000000000000000000000000000000000000000000000009184e72a000000000000000000000000000000000000000000000000000000000000000007868747470733a2f2f73696c7665722d747269636b792d74726f75742d3934352e6d7970696e6174612e636c6f75642f697066732f6261667962656964653732686c33646b687632653569627a72696762376369717269346b6c7a71326a703367697a6361656363337a6865797875792f4d65772e6a736f6e0000000000000000",
        "nonce": "0x77",
        "chainId": "0xaa36a7"
      },
      "additionalContracts": [],
      "isFixedGasLimit": false
    },
    {
      "hash": null,
      "transactionType": "CALL",
      "contractName": "Nft",
      "contractAddress": "0x84a81361cc327f5809db6084e578dff03fea04ff",
      "function": "approvalNFT(uint256)",
      "arguments": [
        "10"
      ],
      "transaction": {
        "from": "0x204e8def7e6c467cebcebbc5c89ad86bf3003fe3",
        "to": "0x84a81361cc327f5809db6084e578dff03fea04ff",
        "gas": "0x11101",
        "value": "0x0",
        "input": "0x661f20c1000000000000000000000000000000000000000000000000000000000000000a",
        "nonce": "0x78",
        "chainId": "0xaa36a7"
      },
      "additionalContracts": [],
      "isFixedGasLimit": false
    },
    {
      "hash": null,
      "transactionType": "CALL",
      "contractName": "Nft",
      "contractAddress": "0x84a81361cc327f5809db6084e578dff03fea04ff",
      "function": "mint(address,string,uint256)",
      "arguments": [
        "0x204E8DEf7E6c467cEbCeBbC5c89ad86Bf3003FE3",
        "https://silver-tricky-trout-945.mypinata.cloud/ipfs/bafybeide72hl3dkhv2e5ibzrigb7ciqri4klzq2jp3gizcaecc3zheyxuy/Pikachu.json",
        "10000000000000"
      ],
      "transaction": {
        "from": "0x204e8def7e6c467cebcebbc5c89ad86bf3003fe3",
        "to": "0x84a81361cc327f5809db6084e578dff03fea04ff",
        "gas": "0x4aec0",
        "value": "0x0",
        "input": "0xba7aef43000000000000000000000000204e8def7e6c467cebcebbc5c89ad86bf3003fe30000000000000000000000000000000000000000000000000000000000000060000000000000000000000000000000000000000000000000000009184e72a000000000000000000000000000000000000000000000000000000000000000007c68747470733a2f2f73696c7665722d747269636b792d74726f75742d3934352e6d7970696e6174612e636c6f75642f697066732f6261667962656964653732686c33646b687632653569627a72696762376369717269346b6c7a71326a703367697a6361656363337a6865797875792f50696b616368752e6a736f6e00000000",
        "nonce": "0x79",
        "chainId": "0xaa36a7"
      },
      "additionalContracts": [],
      "isFixedGasLimit": false
    },
    {
      "hash": null,
      "transactionType": "CALL",
      "contractName": "Nft",
      "contractAddress": "0x84a81361cc327f5809db6084e578dff03fea04ff",
      "function": "approvalNFT(uint256)",
      "arguments": [
        "11"
      ],
      "transaction": {
        "from": "0x204e8def7e6c467cebcebbc5c89ad86bf3003fe3",
        "to": "0x84a81361cc327f5809db6084e578dff03fea04ff",
        "gas": "0x11101",
        "value": "0x0",
        "input": "0x661f20c1000000000000000000000000000000000000000000000000000000000000000b",
        "nonce": "0x7a",
        "chainId": "0xaa36a7"
      },
      "additionalContracts": [],
      "isFixedGasLimit": false
    },
    {
      "hash": null,
      "transactionType": "CALL",
      "contractName": "Nft",
      "contractAddress": "0x84a81361cc327f5809db6084e578dff03fea04ff",
      "function": "mint(address,string,uint256)",
      "arguments": [
        "0x204E8DEf7E6c467cEbCeBbC5c89ad86Bf3003FE3",
        "https://silver-tricky-trout-945.mypinata.cloud/ipfs/bafybeide72hl3dkhv2e5ibzrigb7ciqri4klzq2jp3gizcaecc3zheyxuy/Pikachu2.json",
        "10000000000000"
      ],
      "transaction": {
        "from": "0x204e8def7e6c467cebcebbc5c89ad86bf3003fe3",
        "to": "0x84a81361cc327f5809db6084e578dff03fea04ff",
        "gas": "0x4aed0",
        "value": "0x0",
        "input": "0xba7aef43000000000000000000000000204e8def7e6c467cebcebbc5c89ad86bf3003fe30000000000000000000000000000000000000000000000000000000000000060000000000000000000000000000000000000000000000000000009184e72a000000000000000000000000000000000000000000000000000000000000000007d68747470733a2f2f73696c7665722d747269636b792d74726f75742d3934352e6d7970696e6174612e636c6f75642f697066732f6261667962656964653732686c33646b687632653569627a72696762376369717269346b6c7a71326a703367697a6361656363337a6865797875792f50696b61636875322e6a736f6e000000",
        "nonce": "0x7b",
        "chainId": "0xaa36a7"
      },
      "additionalContracts": [],
      "isFixedGasLimit": false
    },
    {
      "hash": null,
      "transactionType": "CALL",
      "contractName": "Nft",
      "contractAddress": "0x84a81361cc327f5809db6084e578dff03fea04ff",
      "function": "approvalNFT(uint256)",
      "arguments": [
        "12"
      ],
      "transaction": {
        "from": "0x204e8def7e6c467cebcebbc5c89ad86bf3003fe3",
        "to": "0x84a81361cc327f5809db6084e578dff03fea04ff",
        "gas": "0x11101",
        "value": "0x0",
        "input": "0x661f20c1000000000000000000000000000000000000000000000000000000000000000c",
        "nonce": "0x7c",
        "chainId": "0xaa36a7"
      },
      "additionalContracts": [],
      "isFixedGasLimit": false
    },
    {
      "hash": null,
      "transactionType": "CALL",
      "contractName": "Nft",
      "contractAddress": "0x84a81361cc327f5809db6084e578dff03fea04ff",
      "function": "mint(address,string,uint256)",
      "arguments": [
        "0x204E8DEf7E6c467cEbCeBbC5c89ad86Bf3003FE3",
        "https://silver-tricky-trout-945.mypinata.cloud/ipfs/bafybeide72hl3dkhv2e5ibzrigb7ciqri4klzq2jp3gizcaecc3zheyxuy/Raichu.json",
        "10000000000000"
      ],
      "transaction": {
        "from": "0x204e8def7e6c467cebcebbc5c89ad86bf3003fe3",
        "to": "0x84a81361cc327f5809db6084e578dff03fea04ff",
        "gas": "0x4aeaf",
        "value": "0x0",
        "input": "0xba7aef43000000000000000000000000204e8def7e6c467cebcebbc5c89ad86bf3003fe30000000000000000000000000000000000000000000000000000000000000060000000000000000000000000000000000000000000000000000009184e72a000000000000000000000000000000000000000000000000000000000000000007b68747470733a2f2f73696c7665722d747269636b792d74726f75742d3934352e6d7970696e6174612e636c6f75642f697066732f6261667962656964653732686c33646b687632653569627a72696762376369717269346b6c7a71326a703367697a6361656363337a6865797875792f5261696368752e6a736f6e0000000000",
        "nonce": "0x7d",
        "chainId": "0xaa36a7"
      },
      "additionalContracts": [],
      "isFixedGasLimit": false
    },
    {
      "hash": null,
      "transactionType": "CALL",
      "contractName": "Nft",
      "contractAddress": "0x84a81361cc327f5809db6084e578dff03fea04ff",
      "function": "approvalNFT(uint256)",
      "arguments": [
        "13"
      ],
      "transaction": {
        "from": "0x204e8def7e6c467cebcebbc5c89ad86bf3003fe3",
        "to": "0x84a81361cc327f5809db6084e578dff03fea04ff",
        "gas": "0x11101",
        "value": "0x0",
        "input": "0x661f20c1000000000000000000000000000000000000000000000000000000000000000d",
        "nonce": "0x7e",
        "chainId": "0xaa36a7"
      },
      "additionalContracts": [],
      "isFixedGasLimit": false
    },
    {
      "hash": null,
      "transactionType": "CALL",
      "contractName": "Nft",
      "contractAddress": "0x84a81361cc327f5809db6084e578dff03fea04ff",
      "function": "mint(address,string,uint256)",
      "arguments": [
        "0x204E8DEf7E6c467cEbCeBbC5c89ad86Bf3003FE3",
        "https://silver-tricky-trout-945.mypinata.cloud/ipfs/bafybeide72hl3dkhv2e5ibzrigb7ciqri4klzq2jp3gizcaecc3zheyxuy/Raichu2.json",
        "10000000000000"
      ],
      "transaction": {
        "from": "0x204e8def7e6c467cebcebbc5c89ad86bf3003fe3",
        "to": "0x84a81361cc327f5809db6084e578dff03fea04ff",
        "gas": "0x4aec0",
        "value": "0x0",
        "input": "0xba7aef43000000000000000000000000204e8def7e6c467cebcebbc5c89ad86bf3003fe30000000000000000000000000000000000000000000000000000000000000060000000000000000000000000000000000000000000000000000009184e72a000000000000000000000000000000000000000000000000000000000000000007c68747470733a2f2f73696c7665722d747269636b792d74726f75742d3934352e6d7970696e6174612e636c6f75642f697066732f6261667962656964653732686c33646b687632653569627a72696762376369717269346b6c7a71326a703367697a6361656363337a6865797875792f526169636875322e6a736f6e00000000",
        "nonce": "0x7f",
        "chainId": "0xaa36a7"
      },
      "additionalContracts": [],
      "isFixedGasLimit": false
    },
    {
      "hash": null,
      "transactionType": "CALL",
      "contractName": "Nft",
      "contractAddress": "0x84a81361cc327f5809db6084e578dff03fea04ff",
      "function": "approvalNFT(uint256)",
      "arguments": [
        "14"
      ],
      "transaction": {
        "from": "0x204e8def7e6c467cebcebbc5c89ad86bf3003fe3",
        "to": "0x84a81361cc327f5809db6084e578dff03fea04ff",
        "gas": "0x11101",
        "value": "0x0",
        "input": "0x661f20c1000000000000000000000000000000000000000000000000000000000000000e",
        "nonce": "0x80",
        "chainId": "0xaa36a7"
      },
      "additionalContracts": [],
      "isFixedGasLimit": false
    }
  ],
  "receipts": [],
  "libraries": [],
  "pending": [
    "0x00f8e7e317721f34f0d958e3fd6e72d4bfd1aed9487716eeadbd377cb9238233"
  ],
  "returns": {},
  "timestamp": 1740313422,
  "chain": 11155111,
  "commit": "3e6012f"
}